:100000000C9462000C948A000C948A000C948A0070
:100010000C948A000C948A000C948A000C948A0038
:100020000C948A000C948A000C948A000C948A0028
:100030000C948A000C948A000C948A000C948A0018
:100040000C94FD080C948A000C948A000C948A008D
:100050000C948A000C948A000C948A000C948A00F8
:100060000C948A000C948A000000000023002600F3
:10007000290000000000240027002A0000000000E2
:10008000250028002B0004040404040404040202D4
:100090000202020203030303030301020408102007
:1000A0004080010204081020010204081020000012
:1000B0000008000201000003040700000000000027
:1000C0000000CC0B11241FBECFEFD8E0DEBFCDBFA8
:1000D00011E0A0E0B1E0ECE2FEE102C005900D927B
:1000E000A23CB107D9F722E0A2ECB1E001C01D9219
:1000F000A13EB207E1F710E0C2E6D0E004C02197CC
:10010000FE010E940E0FC136D107C9F70E944709B0
:100110000C94140F0C940000833081F028F481308B
:1001200099F08230A1F008958730A9F08830B9F0B5
:100130008430D1F4809180008F7D03C08091800055
:100140008F7780938000089584B58F7702C084B53F
:100150008F7D84BD08958091B0008F7703C080911A
:10016000B0008F7D8093B00008951F93CF93DF93ED
:10017000282F30E0F901E255FF4F8491F901E6564E
:10018000FF4FD491F901EA57FF4FC491CC23C1F03E
:10019000162F81110E948C00EC2FF0E0EE0FFF1F54
:1001A000E458FF4FA591B4919FB7F894111104C082
:1001B0008C91D095D82302C0EC91DE2BDC939FBFAD
:1001C000DF91CF911F910895CF93DF9390E0FC01D1
:1001D000E656FF4F2491FC01EA57FF4F8491882394
:1001E00061F190E0880F991FFC01EE58FF4FC59117
:1001F000D491FC01E458FF4FA591B491611109C05D
:100200009FB7F8948881209582238883EC912E23D0
:100210000BC0623061F49FB7F8948881322F30951B
:1002200083238883EC912E2B2C939FBF06C08FB71E
:10023000F894E8812E2B28838FBFDF91CF9108950A
:100240002FB7F894609113027091140280911502F7
:10025000909116022FBF0895CF93DF932091FD0157
:100260003091FE01E90137FF04C0CC27DD27C21B16
:10027000D30BEAE0F0E0CE01BF010E949B0E909309
:10028000F6018093F501CB01BF010E949B0E909374
:10029000F8018093F70137FF03C080E190E012C0BE
:1002A000C9018D599F4F873C910550F0CE0164E6FE
:1002B00070E00E949B0ECB01BF010E949B0E02C00A
:1002C00081E190E09093FA018093F901275F3F4F1D
:1002D0002331310530F481E190E09093F80180936F
:1002E000F701DF91CF910895809112019091130150
:1002F0008230910599F01CF4019739F0089583300C
:100300009105A9F00497E1F00895E091B502F0910C
:10031000B602EE0FFF1FE359FD4F1AC0E091B50280
:10032000F091B602EE0FFF1FE357FD4F11C0E091B1
:10033000B502F091B602EE0FFF1FE854FD4F08C062
:10034000E091B502F091B602EE0FFF1FEC52FE4FA6
:10035000808191819093FE018093FD010895CF9358
:10036000DF938091D2019091D30101968530910560
:100370002CF49093D3018093D20104C01092D30146
:100380001092D2016091D2017091D3016430710555
:1003900008F0FCC080912C0120E4829FC001112450
:1003A000862B80937C0080917A00806480937A0011
:1003B00080917A0086FDFCCF8091780020917900B1
:1003C00090E0922B9B01220F331FF901E653FE4F61
:1003D00091838083F901E15BFE4F0190F081E02D74
:1003E0004091120150911301E417F50719F4E4E06C
:1003F000F0E002C0E4E6F0E0D901AE53BE4F4D910B
:100400005C91DC01A41BB50BAD01B7FF03C0519596
:1004100041955109E417F5070CF0B8C0F901EE5306
:10042000FE4F91838083C091B502D091B6026230B5
:10043000710509F457C06330710509F479C0613062
:10044000710579F16091CA017091CB0181E090E072
:100450009093130180931201072E000C880B990BC7
:100460000E94650D26E636E64AE252E40E94BB0C85
:1004700020E030E040E451E40E94490C0E942D0D40
:10048000CC0FDD1FFE01E359FD4F2081318126177E
:10049000370721F07093FE016093FD01C359DD4FD2
:1004A0006FC08091CC019091CD0122E030E030937B
:1004B00013012093120168E770E00E949B0E6450C4
:1004C0007109CC0FDD1FFE01E357FD4F8081918143
:1004D0006817790721F07093FE016093FD01C357FF
:1004E000DD4F4EC0A091CE01B091CF0183E090E0EE
:1004F00090931301809312019D010E94CE0E27E379
:100500003AE040E050E00E94AF0ECC0FDD1FFE014C
:10051000E854FD4F808191818217930721F0309339
:10052000FE012093FD01C854DD4F398328832AC082
:100530006091D0017091D10184E090E0909313011B
:1005400080931201072E000C880B990B0E94650DF9
:1005500024E13EEA43E251E40E94BB0C0E942D0DCF
:10056000CC0FDD1FFE01EC52FE4F2081318126179A
:10057000370721F07093FE016093FD01CC52DE4FEE
:1005800079836883DF91CF910C942C01DF91CF9117
:1005900008958EBD00000DB407FEFDCF8EB5089501
:1005A000FF920F931F93CF93DF938C01F62E87E07A
:1005B000861730F4E8EFFE0E25E1C3E181E003C0C9
:1005C00024E1C2E180E0F801E80FF11D848190E0B0
:1005D0000F2C02C0959587950A94E2F7F80180FDEB
:1005E00004C0E20FF11D84811BC0D381D770DD0FE1
:1005F000D16460E082810E94B5008D2F0E94C90203
:100600008C2F0E94C902D0E08FEF0E94C902C00F58
:10061000D11F8C8361E0F80182810E94B5008C813A
:1006200090E002C095958795FA94E2F78170DF918A
:10063000CF911F910F91FF9008950F931F93CF9328
:10064000DF938C01D62FFC01C381C770CC0FC0642F
:1006500060E082810E94B5008C2F0E94C9028D2F1C
:100660000E94C902F801ED0FF11D84810E94C902A8
:1006700061E0F8018281DF91CF911F910F910C947D
:10068000B500663110F40C941D030895562F6830A0
:1006900028F0585075E16DE021E003C074E16CE092
:1006A00020E0A52FFC01E20FF11D248130E002C003
:1006B000359527955A95E2F720FD1FC0272F30E08A
:1006C00041110DC0FC01E20FF31F21E030E001C039
:1006D000220FAA95EAF72095348123230BC0FC0151
:1006E000E20FF31F21E030E001C0220FAA95EAF7E4
:1006F0003481232B2483672F0FC041110FC0FC01CD
:10070000E60FF11D21E030E001C0220FAA95EAF7C3
:1007100020953481232324830C944103FC01E60FAC
:10072000F11D21E030E001C0220FAA95EAF73481E3
:10073000232BF1CF603110F40C9446030895EF920F
:10074000FF920F931F93CF93DF938C01862FF42E8C
:10075000603108F04BC0683028F088502DE0E22E60
:1007600061E003C09CE0E92E60E041E0F41631F066
:10077000F416A8F052E0F51239C011C0F801E60FE6
:10078000F11D21E030E0A90102C0440F551F8A95F8
:10079000E2F7CA0180959481892384831EC0C1E059
:1007A000D0E001C0CC0F8A95EAF7F801E60FF11D01
:1007B00084818C2B8483C8010E944103EE2DF0E0DC
:1007C00082E0E00FF11FF81203C08481C82B03C040
:1007D000C0958481C823C4836E2DC801DF91CF9159
:1007E0001F910F91FF90EF900C944103DF91CF91F7
:1007F0001F910F91FF90EF900895EF92FF920F934A
:100800001F93CF93DF93EC011FB7F89480910D02F3
:10081000811127C0E0E9F0E08491E4EAF0E09491EE
:10082000E82FF0E0EE0FFF1FEE58FF4FA591B491B7
:10083000EC91E92321F461E08AE00E94B50061E0D7
:100840008AE00E94E4008CB580618CBD8CB5806428
:100850008CBD61E08DE00E94E40061E08BE00E94CD
:10086000E40080910D028F5F80930D021FBF61E055
:100870008A810E94E40061E08A810E94B50060E004
:100880008A810E94B50080E40E94C9028AE00E9429
:10089000C90288E10E94C90261E08A810E94B50014
:1008A0001B811770110F106460E08A810E94B500EF
:1008B000812F0E94C90280E00E94C9028E010C5F54
:1008C0001F4F7E018AE1E80EF11CF80181918F0132
:1008D0000E94C9020E151F05C1F761E08A81DF91F0
:1008E000CF911F910F91FF90EF900C94B5002F9234
:1008F0003F924F925F926F927F928F929F92AF92B0
:10090000BF92CF92DF92EF92FF92CF93DF9300D00E
:1009100000D0CDB7DEB76B017C0120E030E040ECC9
:1009200052E40E94150E181634F4C12CD12C40E468
:10093000E42E42E4F42E20E030E040E451E4C7012C
:10094000B6010E94BB0C0E942D0D1B012C014B0116
:10095000C701B6010E942D0DCB016CE070E00E9432
:100960009B0E21E030E01816190614F020E030E06C
:100970003901620C731CC101880F991FFC01E95AEF
:10098000FE4FDC01A050BF4FA080B1808D919C91A3
:10099000A80EB91E8614970409F454C0B50180E06E
:1009A00090E00E94630D4B015C01C301880F991F09
:1009B000FC01E95AFE4FDC01A050BF4F60817181FC
:1009C0008D919C91680F791F80E090E00E94630DEB
:1009D000A50194010E94490C69837A838B839C83CF
:1009E000B101330C880B990B0E94650D20E030E0BB
:1009F00040E451E40E941A0E9B01AC01C701B6010C
:100A00000E94490C9B01AC0169817A818B819C8198
:100A10000E941A0E20E030E040E451E40E94BB0C3A
:100A2000A50194010E944A0C0E94340D5B01CB0188
:100A30006AE070E00E94870E7093FE016093FD01F2
:100A40000E942C01FA2CB98281E0A81680E1B80638
:100A500018F0F12C80E1898360E089E00E94B50004
:100A6000898180610E94C9028F2D0E94C90261E0C4
:100A700089E00E94B500C5010F900F900F900F9074
:100A8000DF91CF91FF90EF90DF90CF90BF90AF902C
:100A90009F908F907F906F905F904F903F902F909E
:100AA00008954F925F926F927F928F929F92AF9232
:100AB000BF92CF92DF92EF92FF92CF93DF9380911C
:100AC000D90290E0FC01E35CFE4F2081222309F46F
:100AD0008AC0FC01E35AFD4F2081222309F483C020
:100AE0002091DA0230E0A901481B590B57FF05C0DD
:100AF000205F3F4FA901481B590BE0904D01F0903A
:100B00004E014E9DC0014F9D900D5E9D900D112494
:100B1000092E000CAA0BBB0B4090DB025090DC02AC
:100B20006090DD027090DE02481A590A6A0A7B0A58
:100B30000E9420014B015C0184189508A608B708A3
:100B4000B701FF0C880B990B0E94650D20E030E087
:100B500040E05FE30E941A0E0E942D0D6B017C01A4
:100B6000861697060CF03FC09B0128193909809121
:100B7000AD029091AE02289FB001299F700D389F61
:100B8000700D11242091AF023091B002289DC00158
:100B9000299D900D389D900D1124680F791F072E07
:100BA000000C880B990B0E94650D4B015C01B6018E
:100BB000DD0C880B990B0E94650D9B01AC01C501F2
:100BC000B4010E94BB0CDF91CF91FF90EF90DF90BA
:100BD000CF90BF90AF909F908F907F906F905F90DD
:100BE0004F900C947704DF91CF91FF90EF90DF90BE
:100BF000CF90BF90AF909F908F907F906F905F90BD
:100C00004F900895EDE2F1E0119281E0ED33F807A5
:100C1000D9F78091B5029091B602FC01E35DFE4FD9
:100C200021E02083FC01EE0FFF1FE050FF4F2081E9
:100C300031813093FE012093FD012CE0289FB0010B
:100C4000299F700D1124072E000C880B990B0E9410
:100C5000650D0E9477040C942C01E091F4018E2F15
:100C6000880F880F8093F401E6B1E073E295EF708E
:100C7000E82BE093F401EF70F0E0E759FE4F80813C
:100C8000082E000C990B009709F44AC02091DF024E
:100C90003091E00221303105B9F4E091B502F091D4
:100CA000B602EE0FFF1FE050FF4F20813181A901F6
:100CB000481B590B9A012D593F4F273C310580F5B0
:100CC000518340830C94020620914D0130914E01D6
:100CD000A901481B590BCA014431510514F484E1A0
:100CE00090E090934E0180934D0180914D01909141
:100CF0004E01853F914034F084EF91E090934E0196
:100D000080934D0180914D0190914E019093FE0191
:100D10008093FD0110921301109212010C942C018A
:100D200008955F926F927F928F929F92AF92BF923F
:100D3000CF92DF92EF92FF920F931F93CF93DF93A7
:100D40000E9420010091090210910A0220910B02D9
:100D500030910C02DC01CB01801B910BA20BB30B79
:100D60000297A105B10508F438C20E9420016093E2
:100D7000090270930A0280930B0290930C02009177
:100D8000020210910302E801CC0FDD1FCC0FDD1F22
:100D9000FE01EE0FFF1FE957FE4F80E090E040E0BC
:100DA00050813296DC01AC0FBD1FA35DBE4F2C916C
:100DB00001C0220F5A95EAF7420F0196843091053F
:100DC00079F7909300028093FF018FE0841B480124
:100DD000880C991CF401E955FE4F9081892B809372
:100DE00001028093300265E187E192E00E941D03D9
:100DF00040E0602F87E192E00E949A03CE01880FC5
:100E0000991F9C0129573E4F6901CE01835C9E4F7B
:100E10007C01FE01E45EFE4F5F013E01F4E06F0ED7
:100E2000711C55245394F6016081F2E0CF0ED11C61
:100E30006C5F603128F487E192E00E94D00201C02B
:100E400080E091E0811101C090E0F50120819217CE
:100E5000B9F19083811134C08091DF029091E0025A
:100E6000019751F4C930D10558F5D093B602C0931B
:100E7000B5020E94020624C08091B5029091B6028C
:100E80008C179D0721F0F7018081811108C0F701BF
:100E9000808185258083FE01E35DFE4F8083D093B2
:100EA000B602C093B5020E947401FE01E35AFD4FE1
:100EB000408163E081E392E00E9446030E942C019E
:100EC0002196FFEFEF1AFF0A2FEFA21AB20A6C1653
:100ED0007D0609F0A8CF41E0602F87E192E00E94F3
:100EE0009A03F401E158FE4FE080F1803FE03E15A7
:100EF00030F06E2D81E392E00E94D00201C080E0CC
:100F000091E0811101C090E0E8012196FE01E95EC7
:100F1000FE4F2081921709F4ADC0908395E0E91649
:100F2000F10409F490C02CF4F4E0EF16F10461F040
:100F300092C026E0E216F10409F47DC037E0E31622
:100F4000F10409F470C087C0811194C08091DF0260
:100F50009091E002019771F51092E0021092DF0289
:100F600080E1EDE3F1E0ADE2B1E001900D928A9510
:100F7000E1F70E94740140E0A42E41E0B42EE12C80
:100F8000F12CF5018081F2E0AF0EB11C34E6D32ED6
:100F9000D80EC7010E94330CD81621F06D2DC70161
:100FA0000E943B0C2FEFE21AF20A39E0E316F1043B
:100FB00041F760C081E090E09093E0028093DF020F
:100FC00085E090E0909313018093120120E0C22EFF
:100FD00021E0D22EE12CF12CC7010E94330C90E0CD
:100FE000845691099C0197FF04C022273327281BB0
:100FF000390BF601243631051CF49183808302C03D
:1010000011821082FFEFEF1AFF0A22E0C20ED11CFC
:1010100039E0E316F10401F71092B6021092B5021E
:101020000E94020627C0882319F08AE992E01CC0BA
:101030008EEB9FEF19C0882319F089E093E014C06C
:1010400083EB9FEF11C0882319F08FE690E00CC06E
:1010500085EF9FEF09C098012B5F3F4F4FE6429FFE
:10106000C001439F900D11249093FE018093FD01D8
:101070000E942C01F401E758FE4FE080F180E1145A
:10108000F10409F455C097013327F901E255FF4FE8
:101090008491F901E656FF4FD490F901EA57FF4FCA
:1010A000C490CC20A1F081110E948C00EC2DF0E0C6
:1010B000EE0FFF1FE859FF4FA591B491EC91DE228E
:1010C00031E020E009F430E0832F922F02C080E06D
:1010D00090E0F801EC5EFE4F208130E028173907E0
:1010E00039F121E0009709F420E02083892B01F5F4
:1010F00085E0E816F10481F4E091B502F091B602C2
:10110000E35AFD4F408181E04827408363E081E35B
:1011100092E00E9446030CC02EED2C9FC0012D9F33
:10112000900D11249093FE018093FD010E942C01EB
:10113000809102029091030201968430910529F07A
:10114000909303028093020204C010920302109253
:101150000202C091FB01D091FC0140E06C2F81E3C1
:1011600092E00E949A032196C330D10529F0D093D2
:10117000FC01C093FB0104C01092FC011092FB0122
:10118000C091FB01D091FC01FE01EE0FFF1FEB505F
:10119000FE4F0190F081E02DE55BFD4F808186954B
:1011A000809580934A0265E181E392E00E941D03ED
:1011B00041E06C2F81E392E0DF91CF911F910F917D
:1011C000FF90EF90DF90CF90BF90AF909F908F9067
:1011D0007F906F905F900C949A03DF91CF911F9155
:1011E0000F91FF90EF90DF90CF90BF90AF909F90C6
:1011F0008F907F906F905F9008951F920F920FB61F
:101200000F9211242F933F938F939F93AF93BF938C
:101210008091130290911402A0911502B0911602D0
:101220003091120223E0230F2D3720F40196A11DE7
:10123000B11D05C026E8230F0296A11DB11D209304
:1012400012028093130290931402A0931502B0939C
:10125000160280910E0290910F02A0911002B0919F
:1012600011020196A11DB11D80930E0290930F02F1
:10127000A0931002B0931102BF91AF919F918F91F3
:101280003F912F910F900FBE0F901F90189578945B
:1012900084B5826084BD84B5816084BD85B582607B
:1012A00085BD85B5816085BD80916E00816080932C
:1012B0006E00109281008091810082608093810095
:1012C00080918100816080938100809180008160A5
:1012D000809380008091B10084608093B100809100
:1012E000B00081608093B00080917A008460809328
:1012F0007A0080917A00826080937A0080917A00EF
:10130000816080937A0080917A00806880937A006F
:101310001092C10010922C0161E08AE00E94E4006A
:1013200061E089E00E94E40087E192E00E94FD0311
:10133000C0E0D0E0C430D1055CF0CE010497049742
:1013400038F442E06C2F87E192E00E949F030CC0CA
:1013500041E06C2F87E192E00E949F0340E06C2FF8
:1013600087E192E00E949A032196C031D10511F7DE
:101370008FE08093300210922F0264E187E192E0C7
:101380000E941D0365E187E192E00E941D0381E355
:1013900092E00E94FD03C0E0D0E0CE0104970497E4
:1013A00010F442E001C041E06C2F81E392E00E9422
:1013B0009F032196C031D10581F7EFEAF1E0ABE45C
:1013C000B2E040EC51E09191292F2270322F3295FA
:1013D000330F307E292F2470220F220F220F232B50
:1013E00030E8939F80011124022B292F2870220FAF
:1013F000202B392F3071C32FD0E0D595C7952C2BDA
:10140000392F3072632F70E003E0759567950A9568
:10141000E1F7822F862B392F3074232F30E065E0DF
:10142000359527956A95E1F7282B9078892F90E0DC
:10143000880F892F881F990B822B8D934E175F077A
:1014400011F662E082E10E94E40062E083E10E9422
:10145000E40062E085E00E94E40062E086E00E9431
:10146000E40062E087E00E94E40061E080E00E9426
:10147000E400E8EBF2E088ED92E020E530E0219333
:1014800031938E179F07D9F7BB24B394ACE09A2E03
:1014900000E010E0AA24A3948091DF029091E00282
:1014A000019739F40E94AF010E9491060E942D0617
:1014B00067C10E942001C0904D01D0904E010D2CBB
:1014C000000CEE08FF084090DB025090DC026090B8
:1014D000DD027090DE02DC01CB0184199509A609BA
:1014E000B709C816D906EA06FB0608F071C00E94C3
:1014F00020016093DB027093DC028093DD02909305
:10150000DE028091DA02282F30E0F901E35DFE4F20
:10151000D901A35CBE4F9C9190838F5F803119F0FD
:101520008093DA0202C01092DA028091DA02282F48
:1015300030E0F901E35CFE4F9081F901E35DFE4F7D
:10154000492F4B254083992309F444C08093D90245
:101550008091AF029091B0029093AE028093AD0261
:10156000C901880F991FFC01E357FD4F408151814C
:101570004E5F5F4F949EB001959E700D1124FC014B
:10158000E359FD4F80819181680F791F7093B002FC
:101590006093AF02F901E35AFD4F8081882319F06F
:1015A0000E94510508C0072E000C880B990B0E9461
:1015B000650D0E94770461E082E00E94B500A09270
:1015C000B70261E080E00E94B500A092D80202C09C
:1015D0000E9451050E9491060E94AF01C091B50280
:1015E000D091B602FE01E35CFE4F8081C35DDE4F09
:1015F0008823A1F00E942001C090B102D090B202D5
:10160000E090B302F090B402AB01BC014C195D094B
:101610006E097F098881811114C01AC00E942001BF
:10162000C090B102D090B202E090B302F090B40248
:10163000AB01BC014C195D096E097F0988818111DC
:1016400007C0E8E5CE2EE2E0DE2EE12CF12C05C04D
:1016500034E6C32ED12CE12CF12CC416D506E606B7
:10166000F70660F48B2588830E9420016093B10205
:101670007093B2028093B3029093B4020E942D063D
:101680000E9420016B017C012091DA0230E0809100
:10169000D90290E0E901C81BD90B21961C161D0642
:1016A00024F0E901C81BD90B61962091D8022223AE
:1016B00009F453C0880F991FFC01E854FD4F608165
:1016C0007181072E000C880B990B0E94650D2B0170
:1016D0003C018091DB029091DC02A091DD02B0918F
:1016E000DE02A7019601281B390B4A0B5B0BCA01CE
:1016F000B9010E94630D6B017C0160914D017091F5
:101700004E01072E000C880B990B0E94650D9B0162
:10171000AC01C701B6010E94BB0C20E030E048ECF0
:1017200052E40E941A0E6B017C01BE01DD0F880B92
:10173000990B0E94650D9B01AC01C701B6010E9487
:101740001A0E9B01AC01C301B2010E94B60C87FFC7
:1017500004C060E080E00E94B5008091B702882359
:1017600079F00E942001C090DB02D090DC02E09072
:10177000DD02F090DE026C157D058E059F0539F4C3
:101780000115110509F488CE0E94000085CE60E0A5
:1017900082E00E94B500F4CF0E942001609309020C
:1017A00070930A0280930B0290930C020E94200116
:1017B00060930502709306028093070290930802DB
:1017C0000E9420016093DB027093DC028093DD02B3
:1017D0009093DE020E9420016093B1027093B202E6
:1017E0008093B3029093B402E7E1F2E044E052E068
:1017F000518340832AE0228381E083839FEF948397
:101800009583168217821086118612861386148697
:10181000158688E186878787108A118A128A138A3B
:10182000148A158A168A178A108E118EE1E3F2E067
:101830005183408322831382948395831682178277
:1018400010861186128613861486158686878787EA
:10185000108A118A128A138A148A158A168A178A9C
:10186000108E118E0895F999FECF92BD81BDF89A20
:10187000992780B50895262FF999FECF1FBA92BDFA
:1018800081BD20BD0FB6F894FA9AF99A0FBE019661
:1018900008955058BB27AA270E94610C0C94DB0DB9
:1018A0000E94CD0D38F00E94D40D20F039F49F3FF6
:1018B00019F426F40C94CA0D0EF4E095E7FB0C9491
:1018C000C40DE92F0E94EC0D58F3BA176207730795
:1018D0008407950720F079F4A6F50C940E0E0EF40B
:1018E000E0950B2EBA2FA02D0B01B90190010C0130
:1018F000CA01A0011124FF27591B99F0593F50F448
:10190000503E68F11A16F040A22F232F342F44279F
:10191000585FF3CF469537952795A795F040539597
:10192000C9F77EF41F16BA0B620B730B840BBAF067
:101930009150A1F0FF0FBB1F661F771F881FC2F7D2
:101940000EC0BA0F621F731F841F48F487957795E6
:101950006795B795F7959E3F08F0B0CF9395880FA0
:1019600008F09927EE0F9795879508950E94A00D8E
:1019700008F481E008950E94CF0C0C94DB0D0E94C6
:10198000D40D58F00E94CD0D40F029F45F3F29F0AE
:101990000C94C40D51110C940F0E0C94CA0D0E949E
:1019A000EC0D68F39923B1F3552391F3951B550B77
:1019B000BB27AA2762177307840738F09F5F5F4F22
:1019C000220F331F441FAA1FA9F335D00E2E3AF061
:1019D000E0E832D091505040E695001CCAF72BD079
:1019E000FE2F29D0660F771F881FBB1F26173707CA
:1019F0004807AB07B0E809F0BB0B802DBF01FF27FC
:101A000093585F4F3AF09E3F510578F00C94C40D07
:101A10000C940F0E5F3FE4F3983ED4F386957795D0
:101A20006795B795F7959F5FC9F7880F911D9695B4
:101A3000879597F90895E1E0660F771F881FBB1F10
:101A4000621773078407BA0720F0621B730B840BBD
:101A5000BA0BEE1F88F7E09508950E94340D689444
:101A6000B1110C940F0E08950E94F40D88F09F5749
:101A700098F0B92F9927B751B0F0E1F0660F771FB2
:101A8000881F991F1AF0BA95C9F714C0B13091F0A8
:101A90000E940E0EB1E008950C940E0E672F782F61
:101AA0008827B85F39F0B93FCCF38695779567956D
:101AB000B395D9F73EF490958095709561957F4FD9
:101AC0008F4F9F4F0895E89409C097FB3EF490957F
:101AD0008095709561957F4F8F4F9F4F9923A9F007
:101AE000F92F96E9BB279395F69587957795679596
:101AF000B795F111F8CFFAF4BB0F11F460FF1BC0DA
:101B00006F5F7F4F8F4F9F4F16C0882311F096E96C
:101B100011C0772321F09EE8872F762F05C066231A
:101B200071F096E8862F70E060E02AF09A95660FD3
:101B3000771F881FDAF7880F9695879597F908958C
:101B4000990F0008550FAA0BE0E8FEEF16161706CE
:101B5000E807F907C0F012161306E407F50798F036
:101B6000621B730B840B950B39F40A2661F0232B4F
:101B7000242B252B21F408950A2609F4A140A695CB
:101B80008FEF811D811D089597F99F6780E870E0B0
:101B900060E008959FEF80EC089500240A941616E3
:101BA000170618060906089500240A94121613064B
:101BB000140605060895092E0394000C11F48823D9
:101BC00052F0BB0F40F4BF2B11F460FF04C06F5FF5
:101BD0007F4F8F4F9F4F089557FD9058440F551FCB
:101BE00059F05F3F71F04795880F97FB991F61F09F
:101BF0009F3F79F087950895121613061406551F16
:101C0000F2CF4695F1DF08C0161617061806991F81
:101C1000F1CF86957105610508940895E894BB2776
:101C200066277727CB0197F908950E94A00D08F445
:101C30008FEF08950E942D0E0C94DB0D0E94CD0DA8
:101C400038F00E94D40D20F0952311F00C94C40DAF
:101C50000C94CA0D11240C940F0E0E94EC0D70F31D
:101C6000959FC1F3950F50E0551F629FF001729F41
:101C7000BB27F00DB11D639FAA27F00DB11DAA1F50
:101C8000649F6627B00DA11D661F829F2227B00D9D
:101C9000A11D621F739FB00DA11D621F839FA00D28
:101CA000611D221F749F3327A00D611D231F849F78
:101CB000600D211D822F762F6A2F11249F575040CF
:101CC0009AF0F1F088234AF0EE0FFF1FBB1F661F4A
:101CD000771F881F91505040A9F79E3F510580F013
:101CE0000C94C40D0C940F0E5F3FE4F3983ED4F3B4
:101CF000869577956795B795F795E7959F5FC1F7B7
:101D0000FE2B880F911D9695879597F90895AA1B2C
:101D1000BB1B51E107C0AA1FBB1FA617B70710F0D6
:101D2000A61BB70B881F991F5A95A9F78095909508
:101D3000BC01CD01089597FB072E16F4009407D03F
:101D400077FD09D00E94870E07FC05D03EF49095E0
:101D500081959F4F0895709561957F4F0895052E49
:101D600097FB1EF400940E94C60E57FD07D00E94F8
:101D7000EC0E07FC03D04EF40C94C60E5095409523
:101D8000309521953F4F4F4F5F4F08959095809527
:101D9000709561957F4F8F4F9F4F08950E94D60E8B
:101DA000332312F48A1B9B0B0C94E70EA29FB00105
:101DB000B39FC001A39F700D811D1124911DB29F7F
:101DC000700D811D1124911D08950E94D60EB7FF3C
:101DD0000895821B930B0895A1E21A2EAA1BBB1B28
:101DE000FD010DC0AA1FBB1FEE1FFF1FA217B307E7
:101DF000E407F50720F0A21BB30BE40BF50B661FFD
:101E0000771F881F991F1A9469F7609570958095C0
:101E100090959B01AC01BD01CF010895EE0FFF1F0E
:0C1E20000590F491E02D0994F894FFCF98
:101E2C000000FCFFFAFFF4FFF1FFEFFFEEFFEBFF0A
:101E3C00EAFF0100010101000101010101010101A1
:101E4C000101010101010101010101010101000078
:101E5C000000000000000000000000000001000075
:101E6C0000000000000000000000000000960001CF
:101E7C00000200030004000000F401E803DC05D0BC
:101E8C0007C409B80BAC0DA00F00FF010001000046
:101E9C00FFFF0000010001FF000500060007000421
:101EAC00000500060007000300020001000000000E
:101EBC00000100020003000300020001000000000A
:101ECC000001000200030080004000200010007E92
:101EDC00306D79335B5F707F7B771F4E3D4F4701D1
:021EEC000000F4
:00000001FF
