:100000000C9462000C948A000C948A000C948A0070
:100010000C948A000C948A000C948A000C948A0038
:100020000C948A000C948A000C948A000C948A0028
:100030000C948A000C948A000C948A000C948A0018
:100040000C9463090C948A000C948A000C948A0026
:100050000C948A000C948A000C948A000C948A00F8
:100060000C948A000C948A000000000024002700F1
:100070002A0000000000250028002B0000000000DE
:1000800023002600290004040404040404040202DA
:100090000202020203030303030301020408102007
:1000A0004080010204081020010204081020000012
:1000B0000008000201000003040700000000000027
:1000C0000000AD0911241FBECFEFD8E0DEBFCDBFC9
:1000D00011E0A0E0B1E0E6E5FEE102C005900D927E
:1000E000A43EB107D9F723E0A4EEB1E001C01D9210
:1000F000A530B207E1F710E0C2E6D0E004C02197D6
:10010000FE010E94230FC136D107C9F70E941C0AC5
:100110000C94290F0C940000833081F028F4813076
:1001200099F08230A1F008958730A9F08830B9F0B5
:100130008430D1F4809180008F7D03C08091800055
:100140008F7780938000089584B58F7702C084B53F
:100150008F7D84BD08958091B0008F7703C080911A
:10016000B0008F7D8093B0000895CF93DF93282F48
:1001700030E0F901E255FF4F8491F901E656FF4F57
:10018000D491F901EA57FF4FC491CC2391F081112A
:100190000E948C00EC2FF0E0EE0FFF1FE458FF4FA1
:1001A000A591B491EC91ED2381E090E021F480E001
:1001B00002C080E090E0DF91CF9108951F93CF932C
:1001C000DF93282F30E0F901E255FF4F8491F901C8
:1001D000E656FF4FD491F901EA57FF4FC491CC2363
:1001E000C1F0162F81110E948C00EC2FF0E0EE0F71
:1001F000FF1FEE58FF4FA591B4919FB7F8941111CE
:1002000004C08C91D095D82302C0EC91DE2BDC93F6
:100210009FBFDF91CF911F910895CF93DF9390E01F
:10022000FC01E656FF4F2491FC01EA57FF4F8491F1
:10023000882361F190E0880F991FFC01E859FF4F76
:10024000C591D491FC01EE58FF4FA591B491611175
:1002500009C09FB7F8948881209582238883EC9108
:100260002E230BC0623061F49FB7F8948881322F3F
:10027000309583238883EC912E2B2C939FBF06C04F
:100280008FB7F894E8812E2B28838FBFDF91CF9111
:1002900008952FB7F8946091800270918102809147
:1002A0008202909183022FBF08950F931F93CF93E3
:1002B000DF93EC010E944901088119812A813B8169
:1002C000601B710B820B930BDF91CF911F910F91EC
:1002D0000895CF93DF9320911F0230912002E9010E
:1002E00037FF04C0CC27DD27C21BD30BEAE0F0E0C8
:1002F000CE01BF010E949C0E9093180280931702BA
:10030000CB01BF010E949C0E90931A0280931902A8
:1003100037FF03C080E190E012C0C9018D599F4FA3
:10032000873C910550F0CE0164E670E00E949C0E7F
:10033000CB01BF010E949C0E02C081E190E090932E
:100340001C0280931B02275F3F4F2331310530F49D
:1003500081E190E090931A0280931902DF91CF918E
:10036000089580911201909113018230910599F0C6
:100370001CF4019739F0089583309105A9F0049792
:10038000E1F00895E0919802F0919902EE0FFF1FBD
:10039000EA5DFD4F1AC0E0919802F0919902EE0FCC
:1003A000FF1FEA5BFD4F11C0E0919802F0919902A6
:1003B000EE0FFF1FE556FD4F08C0E0919802F09147
:1003C0009902EE0FFF1FEA50FE4F808191819093BA
:1003D000200280931F020895CF93DF938091F40150
:1003E0009091F5010196853091052CF49093F501DB
:1003F0008093F40104C01092F5011092F401609111
:10040000F4017091F5016430710508F0FCC0809131
:100410002C0120E4829FC0011124862B80937C0054
:1004200080917A00806480937A0080917A0086FDC2
:10043000FCCF809178002091790090E0922B9B0175
:10044000220F331FF901E451FE4F91838083F9019C
:10045000EF5AFE4F0190F081E02D40911201509132
:100460001301E417F50719F4E4E0F0E002C0E4E654
:10047000F0E0D901AC51BE4F4D915C91DC01A41B61
:10048000B50BAD01B7FF03C0519541955109E41774
:10049000F5070CF0B8C0F901EC51FE4F9183808351
:1004A000C0919802D09199026230710509F457C049
:1004B0006330710509F479C06130710579F160919B
:1004C000EC017091ED0181E090E090931301809335
:1004D0001201072E000C880B990B0E947A0D26E65C
:1004E00036E64AE252E40E94D00C20E030E040E4DC
:1004F00051E40E945E0C0E94420DCC0FDD1FFE01F4
:10050000EA5DFD4F208131812617370721F0709376
:10051000200260931F02CA5DDD4F6FC08091EE0123
:100520009091EF0122E030E030931301209312010B
:1005300068E770E00E949C0E64507109CC0FDD1FCB
:10054000FE01EA5BFD4F808191816817790721F0F8
:100550007093200260931F02CA5BDD4F4EC0A091D2
:10056000F001B091F10183E090E09093130180934A
:1005700012019D010E94CF0E27E33AE040E050E0D7
:100580000E94B00ECC0FDD1FFE01E556FD4F8081AD
:1005900091818217930721F03093200220931F024C
:1005A000C556DD4F398328832AC06091F2017091CE
:1005B000F30184E090E09093130180931201072EE1
:1005C000000C880B990B0E947A0D24E13EEA43E26D
:1005D00051E40E94D00C0E94420DCC0FDD1FFE01A1
:1005E000EA50FE4F208131812617370721F07093A2
:1005F000200260931F02CA50DE4F79836883DF9127
:10060000CF910C946901DF91CF9108958EBD0000C8
:100610000DB407FEFDCF8EB50895FF920F931F9383
:10062000CF93DF938C01F62E87E0861730F4E8EF46
:10063000FE0E25E1C3E181E003C024E1C2E180E0D8
:10064000F801E80FF11D848190E00F2C02C0959510
:1006500087950A94E2F7F80180FD04C0E20FF11DCE
:1006600084811BC0D381D770DD0FD16460E08281AB
:100670000E94DE008D2F0E9406038C2F0E9406032D
:10068000D0E08FEF0E940603C00FD11F8C8361E082
:10069000F80182810E94DE008C8190E002C0959575
:1006A0008795FA94E2F78170DF91CF911F910F91B6
:1006B000FF9008950F931F93CF93DF938C01D62F54
:1006C000FC01C381C770CC0FC06460E082810E94CE
:1006D000DE008C2F0E9406038D2F0E940603F80176
:1006E000ED0FF11D84810E94060361E0F801828113
:1006F000DF91CF911F910F910C94DE00663110F4C1
:100700000C945A030895562F683028F0585075E11C
:100710006DE021E003C074E16CE020E0A52FFC0156
:10072000E20FF11D248130E002C0359527955A95DE
:10073000E2F720FD1FC0272F30E041110DC0FC0162
:10074000E20FF31F21E030E001C0220FAA95EAF783
:100750002095348123230BC0FC01E20FF31F21E01D
:1007600030E001C0220FAA95EAF73481232B2483BD
:10077000672F0FC041110FC0FC01E60FF11D21E0F2
:1007800030E001C0220FAA95EAF720953481232397
:1007900024830C947E03FC01E60FF11D21E030E080
:1007A00001C0220FAA95EAF73481232BF1CF6031E3
:1007B00010F40C9483030895EF92FF920F931F930C
:1007C000CF93DF938C01862FF42E603108F04BC05D
:1007D000683028F088502DE0E22E61E003C09CE0F4
:1007E000E92E60E041E0F41631F0F416A8F052E092
:1007F000F51239C011C0F801E60FF11D21E030E01B
:10080000A90102C0440F551F8A95E2F7CA018095DD
:100810009481892384831EC0C1E0D0E001C0CC0F45
:100820008A95EAF7F801E60FF11D84818C2B848309
:10083000C8010E947E03EE2DF0E082E0E00FF11F80
:10084000F81203C08481C82B03C0C0958481C823DB
:10085000C4836E2DC801DF91CF911F910F91FF903E
:10086000EF900C947E03DF91CF911F910F91FF9039
:10087000EF900895EF92FF920F931F93CF93DF9322
:10088000EC011FB7F89480917A02811127C0E0E94A
:10089000F0E08491E4EAF0E09491E82FF0E0EE0FCC
:1008A000FF1FE859FF4FA591B491EC91E92321F482
:1008B00061E08AE00E94DE0061E08AE00E940D01B2
:1008C0008CB580618CBD8CB580648CBD61E08DE0A1
:1008D0000E940D0161E08BE00E940D0180917A027F
:1008E0008F5F80937A021FBF61E08A810E940D01B1
:1008F00061E08A810E94DE0060E08A810E94DE0061
:1009000080E40E9406038AE00E94060388E10E94B8
:10091000060361E08A810E94DE001B811770110FBF
:10092000106460E08A810E94DE00812F0E9406032D
:1009300080E00E9406038E010C5F1F4F7E018AE15A
:10094000E80EF11CF80181918F010E9406030E153B
:100950001F05C1F761E08A81DF91CF911F910F914F
:10096000FF90EF900C94DE002F923F924F925F9297
:100970006F927F928F929F92AF92BF92CF92DF92AF
:10098000EF92FF920F931F93CF93DF9300D000D08D
:1009900000D0CDB7DEB76B017C0120E030E040EC49
:1009A00052E40E942A0E181634F4C12CD12C40ECCB
:1009B000E42E42E4F42E20E030E040E451E4C701AC
:1009C000B6010E94D00C0E94420D2B013C011B017C
:1009D000C701B6010E94420DCB016CE070E00E949D
:1009E0009C0E01E010E01816190614F000E010E06B
:1009F000040D151DC201880F991FFC01E75AFE4F17
:100A0000DC01A050BF4F208131818D919C91280F36
:100A1000391F3E832D83B90180E090E00E94780D5C
:100A20004B015C01F801EE0FFF1FDF01A75ABE4F1B
:100A3000E050FF4F6D917C9180819181680F791F0B
:100A400080E090E00E94780D69837A838B839C8399
:100A50002016310681F1B201550C880B990B0E94CA
:100A60007A0D20E030E040E451E40E942F0E9B011B
:100A7000AC01C701B6010E945E0C6B017C01A501AF
:100A8000940169817A818B819C810E945E0C9B011B
:100A9000AC01C701B6010E942F0E20E030E040E417
:100AA00051E40E94D00CA50194010E945F0C0E94A9
:100AB000490D7E836D831D810E818D819E818115FF
:100AC000904110F01FEF0FE060E089E00E94DE002F
:100AD000802F80610E940603812F0E94060361E03F
:100AE00089E00E94DE008D819E8126960FB6F894E3
:100AF000DEBF0FBECDBFDF91CF911F910F91FF9051
:100B0000EF90DF90CF90BF90AF909F908F907F90AD
:100B10006F905F904F903F902F9008958F929F928B
:100B2000AF92BF92CF92DF92EF92FF920F931F93FB
:100B3000CF93DF9300D000D0CDB7DEB780914D01C9
:100B400090E0FC01E35CFE4F2081222309F47DC08C
:100B5000FC01E659FD4F2081222309F476C0209143
:100B60004E0130E0B901681B790B77FF05C0205FAB
:100B70003F4FB901681B790BE0900303F090040329
:100B80006E9DA0016F9D500D7E9D500D1124052E70
:100B9000000C660B770B8091F7029091F802A09100
:100BA000F902B091FA02841B950BA60BB70B89834F
:100BB0009A83AB83BC83CE0101960E9455014B0101
:100BC0005C01B701FF0C880B990B0E947A0D20E0A5
:100BD00030E040E05FE30E942F0E0E94420D6B0167
:100BE0007C01861697068CF59B012819390980919E
:100BF000660290916702289FB001299F700D389F6F
:100C0000700D11242091680230916902289DC00165
:100C1000299D900D389D900D1124680F791F072E86
:100C2000000C880B990B0E947A0D4B015C01B601F8
:100C3000DD0C880B990B0E947A0D9B01AC01C5015C
:100C4000B4010E94D00C0E94B4040F900F900F903A
:100C50000F90DF91CF911F910F91FF90EF90DF9058
:100C6000CF90BF90AF909F908F90089580914E014C
:100C7000282F30E0F901E35DFE4FD901A35CBE4FA0
:100C80009C9190838F5F803119F080934E0102C058
:100C900010924E0190914E01292F30E0F901E35C52
:100CA000FE4F4081F901E35DFE4F81E084278083A0
:100CB0004423E9F190934D0180916802909169027B
:100CC0009093670280936602C901880F991FFC0107
:100CD000EA5BFD4F408151814E5F5F4FECE0E49F46
:100CE000B001E59F700D1124FC01EA5DFD4F80818C
:100CF0009181680F791F7093690260936802F9010E
:100D0000E659FD4F8081882319F00E948E0508C0A6
:100D1000072E000C880B990B0E947A0D0E94B404D8
:100D200061E080E00E94DE0081E08093BB020895D4
:100D3000EDE2F1E0119281E0ED33F807D9F780910F
:100D4000980290919902FC01E35DFE4F21E020831F
:100D5000FC01EE0FFF1FE050FF4F208131813093E7
:100D6000200220931F022CE0289FB001299F700DC4
:100D70001124072E000C880B990B0E947A0D0E94FB
:100D8000B4040C946901E09116028E2F880F880F2D
:100D900080931602E6B1E073E295EF70E82BE093E2
:100DA0001602EF70F0E0E559FE4F8081082E000C2E
:100DB000990B009709F44AC02091BC023091BD0202
:100DC00021303105B9F4E0919802F0919902EE0FCB
:100DD000FF1FE050FF4F20813181A901481B590BB3
:100DE0009A012D593F4F273C310580F551834083AF
:100DF0000C94980620914F0130915001A901481B95
:100E0000590BCA014431510514F484E190E09093E8
:100E1000500180934F0180914F0190915001853F87
:100E2000914034F084EF91E09093500180934F0112
:100E300080914F01909150019093200280931F0266
:100E400010921301109212010C94690108955F929F
:100E50006F927F928F929F92AF92BF92CF92DF92CA
:100E6000EF92FF920F931F93CF93DF938FEF92E058
:100E70000E945501623071058105910508F413C285
:100E80000E9449016093FF02709300038093010365
:100E9000909302030091240210912502E801CC0FE7
:100EA000DD1FCC0FDD1FFE01EE0FFF1FEF54FE4FC5
:100EB00080E090E040E050813296DC01AC0FBD1F35
:100EC000A35DBE4F2C9101C0220F5A95EAF7420F45
:100ED00001968430910579F7909322028093210244
:100EE0008FE0841B4801880C991CF401E755FE4FE4
:100EF0009081892B809323028093F20265E189ED32
:100F000092E00E945A0340E0602F89ED92E00E9437
:100F1000D703CE01880F991F9C0127573E4F6901C7
:100F2000CE01835C9E4F7C01FE01E45EFE4F5F01BB
:100F30003E01F4E06F0E711C55245394F60160815C
:100F4000F2E0CF0ED11C6C5F603128F489ED92E0A5
:100F50000E940D0301C080E091E0811101C090E08A
:100F6000F50120819217B9F19083811134C08091ED
:100F7000BC029091BD02019751F4C930D10558F5DA
:100F8000D0939902C09398020E94980624C0809141
:100F90009802909199028C179D0721F0F7018081AA
:100FA000811108C0F701808185258083FE01E35D02
:100FB000FE4F8083D0939902C09398020E94B101A2
:100FC000FE01E659FD4F408163E08EEB92E00E9406
:100FD00083030E9469012196FFEFEF1AFF0A2FEFAA
:100FE000A21AB20A6C167D0609F0A8CF41E0602F64
:100FF00089ED92E00E94D703F401EF57FE4FC081C4
:10100000D181C03130F46C2F8EEB92E00E940D0341
:1010100001C080E091E0811101C090E07801EFEF24
:10102000EE1AFE0AF701E95EFE4F2081921709F4DD
:10103000AEC09083C530D10509F492C01CF424974A
:1010400049F096C0C630D10509F475C0279709F458
:101050006AC08EC081119BC08091BC029091BD027C
:10106000019759F51092BD021092BC0280E1EDE3A8
:10107000F1E0ADE2B1E001900D928A95E1F70E94B6
:10108000B10130E0A32E31E0B32EC0E0D0E0F50195
:101090008081F2E0AF0EB11C24E6D22ED80ECE0134
:1010A0000E94480CD81621F06D2DCE010E94500CE4
:1010B0002196C930D10559F76AC081E090E090933C
:1010C000BD028093BC0285E090E090931301809371
:1010D000120190E0C92E91E0D92EC0E0D0E0CE01FF
:1010E0000E94480C90E0845691099C0197FF04C02F
:1010F00022273327281B390BF601243631051CF42F
:101100009183808302C0118210822196F2E0CF0E7B
:10111000D11CC930D10519F710929902109298028A
:101120000E94980634C0882319F08AE992E029C009
:101130008EEB9FEF26C0882381F081E08093970299
:101140000E9449016093F7027093F8028093F902BC
:101150009093FA0289E093E014C083EB9FEF11C0F3
:10116000882319F08FE690E00CC085EF9FEF09C04F
:1011700098012B5F3F4F4FE6429FC001439F900D68
:1011800011249093200280931F020E946901F401B0
:10119000E558FE4FC081D181209781F18C2F0E94AC
:1011A000B500F801EC5EFE4F208130E08217930716
:1011B00029F121E0009709F420E02083892BF1F444
:1011C000259781F4E0919802F0919902E659FD4F3C
:1011D000408181E04827408363E08EEB92E00E94EB
:1011E00083030CC02EED2E9DC0012F9D900D112468
:1011F0009093200280931F020E9469018091240233
:101200009091250201968430910529F09093250252
:101210008093240204C01092250210922402C091EF
:101220001D02D0911E0240E06C2F8EEB92E00E94D6
:10123000D7032196C330D10529F0D0931E02C09365
:101240001D0204C010921E0210921D02C0911D02C8
:10125000D0911E02FE01EE0FFF1FE95EFD4F0190CF
:10126000F081E02DEC57FD4F80818695809580932D
:10127000D70265E18EEB92E00E945A0341E06C2FA9
:101280008EEB92E0DF91CF911F910F91FF90EF9045
:10129000DF90CF90BF90AF909F908F907F906F9096
:1012A0005F900C94D703DF91CF911F910F91FF9026
:1012B000EF90DF90CF90BF90AF909F908F907F90F6
:1012C0006F905F9008951F920F920FB60F921124A6
:1012D0002F933F938F939F93AF93BF9380918002FF
:1012E00090918102A0918202B091830230917F029D
:1012F00023E0230F2D3720F40196A11DB11D05C059
:1013000026E8230F0296A11DB11D20937F02809332
:10131000800290938102A0938202B0938302809115
:101320007B0290917C02A0917D02B0917E02019699
:10133000A11DB11D80937B0290937C02A0937D023E
:10134000B0937E02BF91AF919F918F913F912F916A
:101350000F900FBE0F901F9018950E944901609347
:10136000FF027093000380930103909302030E9495
:1013700049016093FB027093FC028093FD029093FD
:10138000FE020E9449016093F7027093F802809375
:10139000F9029093FA020E9449016093F30270935C
:1013A000F4028093F5029093F602E9EDF2E048ED45
:1013B00052E0518340832AE0228381E083839FEFC0
:1013C000948395831682178210861186128613865F
:1013D0001486158688E186878787108A118A128A83
:1013E000138A148A158A168A178A108E118EEEEBCC
:1013F000F2E0518340832283138294839583168283
:1014000017821086118612861386148615868687A3
:101410008787108A118A128A138A148A158A168A73
:10142000178A108E118E80914F01909150019093E8
:101430000403809303030895789484B5826084BD87
:1014400084B5816084BD85B5826085BD85B58160C8
:1014500085BD80916E00816080936E001092810046
:101460008091810082608093810080918100816001
:1014700080938100809180008160809380008091C2
:10148000B10084608093B1008091B000816080934E
:10149000B00080917A00846080937A0080917A0015
:1014A000826080937A0080917A00816080937A00D4
:1014B00080917A00806880937A001092C100109227
:1014C0002C0161E08AE00E940D0161E089E00E9448
:1014D0000D0189ED92E00E943A04C0E0D0E0C430F2
:1014E000D1055CF0CE010497049738F442E06C2FEC
:1014F00089ED92E00E94DC030CC041E06C2F89ED85
:1015000092E00E94DC0340E06C2F89ED92E00E94A3
:10151000D7032196C031D10511F78FE08093F202F5
:101520001092F10264E189ED92E00E945A0365E1B4
:1015300089ED92E00E945A038EEB92E00E943A04F9
:10154000C0E0D0E0CE010497049710F442E001C05F
:1015500041E06C2F8EEB92E00E94DC032196C031BB
:10156000D10581F7E1EDF1E0A4E8B2E042EE51E00F
:101570009191292F2270322F3295330F307E292FEF
:101580002470220F220F220F232B80E8989F8001C6
:101590001124022B292F2870220F202B392F307174
:1015A000C32FD0E0D595C7952C2B392F3072632FE0
:1015B00070E0C3E075956795CA95E1F7822F862B99
:1015C000392F3074232F30E0D5E035952795DA9503
:1015D000E1F7282B9078892F90E0880F892F881FBA
:1015E000990B822B8D934E175F0711F662E082E113
:1015F0000E940D0162E083E10E940D0162E085E03E
:101600000E940D0162E086E00E940D0162E087E029
:101610000E940D0161E080E00E940D0161E082E026
:101620000E940D0160E083E00E940D0160E084E013
:101630000E940D0161E081E00E940D0160E081E007
:101640000E94DE00EBE9F2E08BEB92E020E530E077
:10165000219331938E179F07D9F7BB24B39400E0F1
:1016600010E0AA24A3948091BC029091BD0201973E
:1016700039F40E94EC010E9427070E94C306FAC0B9
:1016800080919702882341F187EF92E00E945501F3
:1016900020914F01309150016901330FEE08FF088E
:1016A000C616D706E806F906B8F480919A02882390
:1016B00009F4E7C060E082E00E94DE0010929A0226
:1016C0000E9436060E9449016093F7027093F80267
:1016D0008093F9029093FA020E948E0583E00E94A3
:1016E000B500892BE9F48091960281111BC0A0926C
:1016F00096021092970287EF92E00E945501709334
:101700000403609303030E9449016093F7027093FE
:10171000F8028093F9029093FA020E94360602C002
:10172000109296020E9427070E94EC01C091980235
:10173000D0919902FE01E35CFE4F8081C35DDE4FD4
:10174000882341F083EF92E00E9455012881211106
:1017500008C00EC083EF92E00E945501288121113C
:1017600007C048E5C42E42E0D42EE12CF12C05C080
:1017700034E6C32ED12CE12CF12CC616D706E80690
:10178000F90668F4822F8B2588830E9449016093B3
:10179000F3027093F4028093F5029093F6020E9494
:1017A000C30687EF92E00E9455016B017C012091F6
:1017B0004E0130E080914D0190E0E901C81BD90B4A
:1017C00021961C161D0624F0E901C81BD90B619651
:1017D0002091BB02222309F445C0880F991FFC0108
:1017E000E556FD4F60817181072E000C880B990B27
:1017F0000E947A0D2B013C01C701B6010E94780DB1
:101800006B017C016091030370910403072E000CAF
:10181000880B990B0E947A0D9B01AC01C701B601A0
:101820000E94D00C20E030E048EC52E40E942F0EE1
:101830006B017C01BE01DD0F880B990B0E947A0DB4
:101840009B01AC01C701B6010E942F0E9B01AC01A8
:10185000C301B2010E94CB0C87FF04C060E080E0AE
:101860000E94DE0080919A02882321F087EF92E0A7
:101870000E9455010115110509F4F5CE0E940000E2
:10188000F2CE61E082E00E94DE00A0929A0218CFC0
:10189000F999FECF92BD81BDF89A992780B5089538
:1018A000262FF999FECF1FBA92BD81BD20BD0FB67C
:1018B000F894FA9AF99A0FBE019608955058BB27EA
:1018C000AA270E94760C0C94F00D0E94E20D38F0CD
:1018D0000E94E90D20F039F49F3F19F426F40C948E
:1018E000DF0D0EF4E095E7FB0C94D90DE92F0E9473
:1018F000010E58F3BA17620773078407950720F0A3
:1019000079F4A6F50C94230E0EF4E0950B2EBA2F65
:10191000A02D0B01B90190010C01CA01A0011124F5
:10192000FF27591B99F0593F50F4503E68F11A16A1
:10193000F040A22F232F342F4427585FF3CF469532
:1019400037952795A795F0405395C9F77EF41F1654
:10195000BA0B620B730B840BBAF09150A1F0FF0F1E
:10196000BB1F661F771F881FC2F70EC0BA0F621F0A
:10197000731F841F48F4879577956795B795F795FA
:101980009E3F08F0B0CF9395880F08F09927EE0F8F
:101990009795879508950E94B50D08F481E0089504
:1019A0000E94E40C0C94F00D0E94E90D58F00E9486
:1019B000E20D40F029F45F3F29F00C94D90D51114C
:1019C0000C94240E0C94DF0D0E94010E68F39923F1
:1019D000B1F3552391F3951B550BBB27AA2762172B
:1019E0007307840738F09F5F5F4F220F331F441F38
:1019F000AA1FA9F335D00E2E3AF0E0E832D091506C
:101A00005040E695001CCAF72BD0FE2F29D0660F58
:101A1000771F881FBB1F261737074807AB07B0E89B
:101A200009F0BB0B802DBF01FF2793585F4F3AF0A1
:101A30009E3F510578F00C94D90D0C94240E5F3F15
:101A4000E4F3983ED4F3869577956795B795F79527
:101A50009F5FC9F7880F911D9695879597F908950F
:101A6000E1E0660F771F881FBB1F621773078407AB
:101A7000BA0720F0621B730B840BBA0BEE1F88F7BA
:101A8000E09508950E94490D6894B1110C94240EBC
:101A900008950E94090E88F09F5798F0B92F992752
:101AA000B751B0F0E1F0660F771F881F991F1AF049
:101AB000BA95C9F714C0B13091F00E94230EB1E07D
:101AC00008950C94230E672F782F8827B85F39F07C
:101AD000B93FCCF3869577956795B395D9F73EF4E2
:101AE00090958095709561957F4F8F4F9F4F08958A
:101AF000E89409C097FB3EF49095809570956195A8
:101B00007F4F8F4F9F4F9923A9F0F92F96E9BB275D
:101B10009395F695879577956795B795F111F8CFD9
:101B2000FAF4BB0F11F460FF1BC06F5F7F4F8F4F44
:101B30009F4F16C0882311F096E911C0772321F03A
:101B40009EE8872F762F05C0662371F096E8862FD2
:101B500070E060E02AF09A95660F771F881FDAF729
:101B6000880F9695879597F90895990F0008550F56
:101B7000AA0BE0E8FEEF16161706E807F907C0F013
:101B800012161306E407F50798F0621B730B840B1B
:101B9000950B39F40A2661F0232B242B252B21F4F5
:101BA00008950A2609F4A140A6958FEF811D811D95
:101BB000089597F99F6780E870E060E008959FEFCF
:101BC00080EC089500240A941616170618060906D4
:101BD000089500240A9412161306140605060895A3
:101BE000092E0394000C11F4882352F0BB0F40F42B
:101BF000BF2B11F460FF04C06F5F7F4F8F4F9F4F6B
:101C0000089557FD9058440F551F59F05F3F71F0EC
:101C10004795880F97FB991F61F09F3F79F0879553
:101C20000895121613061406551FF2CF4695F1DFDC
:101C300008C0161617061806991FF1CF869571056C
:101C4000610508940895E894BB2766277727CB01A0
:101C500097F908950E94B50D08F48FEF08950E943A
:101C6000420E0C94F00D0E94E20D38F00E94E90D36
:101C700020F0952311F00C94D90D0C94DF0D112454
:101C80000C94240E0E94010E70F3959FC1F3950FE2
:101C900050E0551F629FF001729FBB27F00DB11DF0
:101CA000639FAA27F00DB11DAA1F649F6627B00D80
:101CB000A11D661F829F2227B00DA11D621F739F69
:101CC000B00DA11D621F839FA00D611D221F749F77
:101CD0003327A00D611D231F849F600D211D822FBE
:101CE000762F6A2F11249F5750409AF0F1F08823E5
:101CF0004AF0EE0FFF1FBB1F661F771F881F915012
:101D00005040A9F79E3F510580F00C94D90D0C94DA
:101D1000240E5F3FE4F3983ED4F38695779567955C
:101D2000B795F795E7959F5FC1F7FE2B880F911D3B
:101D30009695879597F9089597FB072E16F40094CA
:101D400007D077FD09D00E94ED0E07FC05D03EF4C8
:101D5000909581959F4F0895709561957F4F089557
:101D6000052E97FB1EF400940E94C70E57FD07D066
:101D70000E94010F07FC03D04EF40C94C70E50953F
:101D80004095309521953F4F4F4F5F4F0895909567
:101D90008095709561957F4F8F4F9F4F08950E945A
:101DA000D70E332312F48A1B9B0B0C94E80EA29FD0
:101DB000B001B39FC001A39F700D811D1124911D1F
:101DC000B29F700D811D1124911D08950E94D70EA0
:101DD000B7FF0895821B930B0895AA1BBB1B51E10B
:101DE00007C0AA1FBB1FA617B70710F0A61BB70B8B
:101DF000881F991F5A95A9F780959095BC01CD0130
:101E00000895A1E21A2EAA1BBB1BFD010DC0AA1F3B
:101E1000BB1FEE1FFF1FA217B307E407F50720F053
:101E2000A21BB30BE40BF50B661F771F881F991FCE
:101E30001A9469F760957095809590959B01AC0117
:101E4000BD01CF010895EE0FFF1F0590F491E02D25
:061E50000994F894FFCF95
:101E56000000FCFFFAFFF4FFF1FFEFFFEEFFEBFFE0
:101E6600EAFF010001010100010101010101010177
:101E7600010101010101010101010101010100004E
:101E8600000000000000000000000000000100004B
:101E9600000000000000000000000000000F0F9688
:101EA6000001000200030004000000F401E803DC66
:101EB60005D007C409B80BAC0DA00F00FF01000147
:101EC6000000FFFF0000010001FF000500060007FB
:101ED60000040005000600070003000200010000E0
:101EE60000000001000200030003000200010000E0
:101EF60000000001000200030080004000200010E6
:101F0600000F000E000D000C00080009000A000B6F
:101F1600000700060005000400000001000200039F
:101F2600007E306D79335B5F707F7B771F4E3D4F50
:041F3600470100005F
:107E0000112484B714BE81FFF0D085E080938100F7
:107E100082E08093C00088E18093C10086E0809377
:107E2000C20080E18093C4008EE0C9D0259A86E02C
:107E300020E33CEF91E0309385002093840096BBD3
:107E4000B09BFECF1D9AA8958150A9F7CC24DD24C4
:107E500088248394B5E0AB2EA1E19A2EF3E0BF2EE7
:107E6000A2D0813461F49FD0082FAFD0023811F036
:107E7000013811F484E001C083E08DD089C08234E0
:107E800011F484E103C0853419F485E0A6D080C0E4
:107E9000853579F488D0E82EFF2485D0082F10E0AE
:107EA000102F00270E291F29000F111F8ED06801E7
:107EB0006FC0863521F484E090D080E0DECF843638
:107EC00009F040C070D06FD0082F6DD080E0C81688
:107ED00080E7D80618F4F601B7BEE895C0E0D1E017
:107EE00062D089930C17E1F7F0E0CF16F0E7DF06D8
:107EF00018F0F601B7BEE89568D007B600FCFDCFD4
:107F0000A601A0E0B1E02C9130E011968C91119780
:107F100090E0982F8827822B932B1296FA010C0160
:107F200087BEE89511244E5F5F4FF1E0A038BF0790
:107F300051F7F601A7BEE89507B600FCFDCF97BE46
:107F4000E89526C08437B1F42ED02DD0F82E2BD052
:107F50003CD0F601EF2C8F010F5F1F4F84911BD097
:107F6000EA94F801C1F70894C11CD11CFA94CF0C13
:107F7000D11C0EC0853739F428D08EE10CD085E9AC
:107F80000AD08FE07ACF813511F488E018D01DD067
:107F900080E101D065CF982F8091C00085FFFCCF94
:107FA0009093C60008958091C00087FFFCCF809118
:107FB000C00084FD01C0A8958091C6000895E0E648
:107FC000F0E098E1908380830895EDDF803219F02E
:107FD00088E0F5DFFFCF84E1DECF1F93182FE3DFCA
:107FE0001150E9F7F2DF1F91089580E0E8DFEE27F6
:047FF000FF270994CA
:027FFE00040479
:0400000300007E007B
:00000001FF