:100000000C943C010C94BD250C9496250C94640131
:100010000C9464010C9464010C9464010C946401CC
:100020000C9464010C9464010C9464010C946401BC
:100030000C9464010C9464010C9464010C946401AC
:100040000C944C250C9464010C9464010C94640190
:100050000C9464010C9464010C9464010C9464018C
:100060000C9464010C94640105A84CCDB2D44EB933
:100070003836A9020C50B9918688083CA6AAAA2A4B
:10008000BE000000803F01000100010001000100EE
:100090000100010100010100010001000101000156
:1000A0000101000001010001010001010101000145
:1000B0000100010101010001000101000100010135
:1000C0000101000101010101000001000100010026
:1000D0000001000101000100010000010001000019
:1000E0000101000101000100010100010001010006
:1000F00001000101000100010001010101010101F4
:10010000010101010101010156494200535542001C
:100110004348510043484F00545533005455320072
:1001200054553100524F4C0053545400524E440029
:100130005354500046525A00474C44005452530006
:100140004F435400524556005245500057484F0007
:10015000444F520050485200424C4D00424C550012
:1001600050454D0050454E004D494E004D414A000E
:1001700043485200415544004F4646004E4F5400FC
:10018000494E54004C464F00204356004320310056
:100190004220300042623000412030004162300095
:1001A00047203000476230004620300045203000B4
:1001B000456230004420300044623000432030006B
:1001C00000000000240027002A0000000000250095
:1001D00028002B004801440140013C013801340152
:1001E00030012C012801240120011C0118011401F7
:1001F00010010C01080170016C01680164016001CB
:100200005C015801540150014C0100000000230022
:100210002600290004040404040404040202020267
:1002200002020303030303030102040810204080B9
:100230000102040810200102040810200000000838
:10024000000201000003040700000000000000009D
:10025000780174018801840180017C01BC01B8012E
:10026000B401B001AC01A801A401A0019C01980156
:10027000940190018C01F52511241FBECFEFD8E029
:10028000DEBFCDBF12E0A0E0B1E0E2EFFAE602C0CF
:1002900005900D92A23DB107D9F727E0A2EDB2E09B
:1002A00001C01D92A034B207E1F711E0CCE3D1E028
:1002B00004C02197FE010E947B32CB33D107C9F7DE
:1002C0000E947E260C9477350C9400002F923F926A
:1002D0004F925F926F927F928F929F92AF92BF9256
:1002E000CF92DF92EF92FF920F931F93CF93DF9302
:1002F0006B017C01C42F20E030E040EC52E40E940E
:100300005C3418160CF49FC020E030E0A901C7014E
:10031000B6010E94FD3287FF03C0C12CD12C7601AB
:1003200020E030E040E451E4C701B6010E9402330E
:100330000E9474334B018B01C701B6010E947433D4
:10034000CB016CE070E00E94673221E030E01816CB
:10035000190614F030E020E0280D391D89E0C89F0F
:10036000E0011124FE01E80DF91DEE0FFF1FE75C0F
:10037000FE4FD401AA0FBB1FAD59BD4F60817181E3
:100380008D919C91860F971FF901EE0FFF1FED597C
:10039000FD4F20803180F901EC0FFD1FEE0FFF1F94
:1003A000E75CFE4FC081D18102171307C9F1BC0180
:1003B00090E080E00E94AA332B013C01B401990C2B
:1003C000880B990B0E94AC3320E030E040E451E40C
:1003D0000E9461349B01AC01C701B6010E949032BA
:1003E0006B017C01C20DD31DBE0190E080E00E9434
:1003F000AA33A30192010E9490329B01AC01C70174
:10040000B6010E94613420E030E040E451E40E94F3
:100410000233A30192010E9491320E947B33CB01EF
:10042000DF91CF911F910F91FF90EF90DF90CF90D0
:10043000BF90AF909F908F907F906F905F904F9004
:100440003F902F900895C12CD12C60ECE62E62E4F1
:10045000F62E66CFDC018C91E0EAF4E08083119601
:100460008C911197818312968C91828381E0809385
:100470009F0408958F929F92AF92BF92CF92DF9286
:10048000EF92FF927C01072E000C880B990B0E94C3
:10049000AC3320E030E040E450E40E94913220E0B0
:1004A00030E040E451E40E9461344B015C01B7014B
:1004B000FF0C880B990B0E94AC339B01AC01C5016A
:1004C000B4010E9491326B017C0160910D07062EF0
:1004D000000C770B880B990B0E94AC339B01AC018D
:1004E000C701B6010E94913220E030E040EC51E4B7
:1004F0000E9490326B017C0120E030E0A9010E9453
:100500005C341816C4F420E030E04EEF52E4C7012A
:10051000B6010E94FD3287FF11C0C701B6010E94DB
:100520007433CB01FF90EF90DF90CF90BF90AF90EE
:100530009F908F90089590E080E0F4CF8FE790E057
:10054000F1CFBC0180911007823051F124F487FF74
:1005500017C060E023C08330E1F7072E000C880B42
:10056000990B0E94AC332DEC3CEC48EA51E40E941C
:10057000023320E030E040E451E40E9491320CC0AC
:10058000072E000C880B990B0E94AC3324E13EEA45
:1005900043E251E40E9402330E947433862F08958F
:1005A000072E000C880B990B0E94AC332DEC3CEC11
:1005B00048EA51E40E94023320E030E040EC51E48C
:1005C0000E949032E9CF8091500490915304992376
:1005D00021F08E7F8093500408958160FBCF0F93AC
:1005E0001F93CF93DF939C0180913201909133014F
:1005F0008217930709F463C03093330120933201CB
:10060000890137FF04C000271127021B130BCAE022
:10061000D0E0C801BE010E946732FC0190934D04F6
:1006200080934C04CB01BE010E94673290934B042F
:1006300080934A0485E290E037FD0FC0C9018D59CF
:100640009F4F873C9105C0F1C80164E670E00E94AD
:100650006732CB01BE010E946732909349048093B8
:100660004804275F3F4F2331310530F484E290E0A6
:1006700090934B0480934A04A0914804B09149049C
:10068000AA50BE4F8C91809580935204A0914A0449
:10069000B0914B04AA50BE4F8C9180958093510429
:1006A000EA50FE4F8081809580935004DF91CF9176
:1006B0001F910F910C94E30284E290E0CECFDF9182
:1006C000CF911F910F9108950F931F93CF93DF93B5
:1006D00027EE33E030933301209332018C01E8E4BC
:1006E000F4E0A3E5B4E044E250E06BE070E0E80140
:1006F00029918E012236A1F47183608381919191B9
:100700008A509E4FEC01988190959E93D4E0A0353D
:10071000BD0769F7DF91CF911F910F910C94E30210
:10072000203219F451834083E9CF213444F0022E62
:10073000000C330B2753310931832083DFCF203363
:10074000ECF2022E000C330B20533109F5CFCF937E
:10075000DF9300D000D0CDB7DEB780919B0490919D
:100760009C0420912B0430912C042F37310519F46F
:100770008230910548F08430910531F00397D1F42F
:10078000809110078330B1F41C821B828091A004F9
:1007900089838091A1048A838091A2048B83CE01F6
:1007A00001960E9464030F900F900F900F90DF91BD
:1007B000CF91089580919D0490919E040E94EF0234
:1007C000F2CF8CBD9DBD0895CF92DF92EF92FF9244
:1007D0008091B1048823D9F180910A078430B9F55A
:1007E00080910B0724E0829FC00111249093310176
:1007F000809330016091300170913101072E000C1F
:10080000880B990B0E94AC3320E030E048EC52E4B6
:100810000E9402336B017C0160910005709101051B
:10082000072E000C880B990B0E94AC339B01AC0186
:10083000C701B6010E9461340E947433709328048A
:1008400060932704FF90EF90DF90CF900895809100
:10085000050790E0CBCFCF92DF92EF92FF926091AD
:10086000000570910105072E000C880B990B0E9462
:10087000AC336B017C0160910B0770E090E080E08D
:100880000E94AA339B01AC01C701B6010E946134EA
:1008900020E030E048EC52E40E9402330E947B33B7
:1008A0007093260460932504FF90EF90DF90CF9023
:1008B0000895CF92DF92EF92FF92CF93DF93C09192
:1008C0000005D09101056091090770E090E080E09B
:1008D0000E94AA336B017C01BE010D2E000C880B17
:1008E000990B0E94AC339B01AC01C701B6010E9479
:1008F000613420E030E048E452E40E9402336B01AE
:100900007C01C0922104D0922204E0922304F09250
:100910002404BE01660F771F072E000C880B990B6D
:100920000E94AC33A70196010E94903260931D048F
:1009300070931E0480931F0490932004DF91CF9145
:10094000FF90EF90DF90CF900895FC01808181119E
:1009500002C067FD05C0680F261718F42083808148
:100960000895641710F06083FACF81E08083F7CF99
:10097000CF93DF93E5E0F5E085E895E0C5E0D6E0CC
:1009800065E876E020E530E0119217AEDC012D93AA
:100990003D93CD0119921FAEDB011D92BD01DF9683
:1009A0001C92B5E0E534FB0779F782E380930507F5
:1009B00090E19093060791E0909307071092080743
:1009C0008093090710920A0784E080930B0788E15F
:1009D00080930D0710920E0710920F0710921007C8
:1009E000DF91CF910895833081F028F4813099F020
:1009F0008230A9F008958730A9F08830C9F084309A
:100A0000B1F4809180008F7D03C0809180008F774A
:100A100080938000089584B58F7784BD089584B550
:100A20008F7DFBCF8091B0008F778093B0000895C9
:100A30008091B0008F7DF9CFCF93DF938FEF8093BC
:100A40001B01809338011092850381E08093180187
:100A500010928B0310928A038091840381110EC03F
:100A6000EFE3F2E08491EBE2F2E0D491E7E1F2E02F
:100A7000C491C11106C081E080938403DF91CF91BE
:100A8000089581110E94F304EC2FF0E0EE0FFF1F98
:100A9000E65FFD4FA591B491EC91ED2361F3EECFAC
:100AA0001F93CF93DF93282F30E0F901E45CFD4FD3
:100AB0008491F901E85DFD4FD491F901EC5EFD4FA1
:100AC000C491CC23A9F0162F81110E94F304EC2FBE
:100AD000F0E0EE0FFF1FE653FE4FA591B4918FB7E4
:100AE000F894EC91111108C0D095DE23DC938FBFF0
:100AF000DF91CF911F910895DE2BF8CFCF93DF9335
:100B000090E0FC01E85DFD4F24918C5E9D4FFC015F
:100B100084918823C9F090E0880F991FFC01E0546C
:100B2000FE4FA591B491FC01E653FE4FC591D491BF
:100B300061110DC09FB7F8948C91209582238C93FE
:100B40008881282328839FBFDF91CF910895623049
:100B500051F49FB7F8943C91822F809583238C9316
:100B6000E8812E2BEFCF8FB7F894EC912E2B2C939E
:100B70008FBFEACF3FB7F8948091590390915A0301
:100B8000A0915B03B0915C0326B5A89B05C02F3FE5
:100B900019F00196A11DB11D3FBFBA2FA92F982FA3
:100BA0008827BC01CD01620F711D811D911D42E09E
:100BB000660F771F881F991F4A95D1F708958F9266
:100BC0009F92AF92BF92CF92DF92EF92FF924B0132
:100BD0005C010E94BA056B017C010E94BA056C1988
:100BE0007D098E099F09683E734081059105A8F330
:100BF00021E0821A9108A108B10888EEC80E83E0AE
:100C0000D81EE11CF11C81149104A104B10429F740
:100C1000FF90EF90DF90CF90BF90AF909F908F901C
:100C2000089581E08093840308950895FC018081F4
:100C30008F3119F49181993879F1228190EF920FD7
:100C4000903160F461E070E080E090E004C0660FF5
:100C5000771F881F991F2A95D2F7089590EE920F5B
:100C6000963018F42650330BEDCF811109C08181E5
:100C700081110DC021110BC060E070E0CB0108951F
:100C80008F3F29F481818F3F11F42F3FA9F360E05A
:100C900070E080E190E0089560E070E080E091E035
:100CA000089508950CB405FC0DC09EBD00000DB460
:100CB00007FEFDCF9EB58EBD00000DB407FEFDCF33
:100CC0008EB508958EBD00000DB407FEFDCF8EB524
:100CD0009EBD00000DB407FEFDCF9EB50895CF93D5
:100CE000CFB7F89480912603811127C0EEE1F2E09E
:100CF0008491E2E3F2E09491E82FF0E0EE0FFF1F21
:100D0000E054FE4FA591B491EC91E92321F461E008
:100D10008AE00E94500561E08AE00E947E058CB561
:100D200080618CBD8CB580648CBD61E08DE00E94DB
:100D30007E0561E08BE00E947E05809126038F5F37
:100D400080932603CFBFCF910895E0910A07E13148
:100D500008F04FC0F0E0E155F94F0C947B32C0062B
:100D6000EC06C706D206DD06EC06C006EF06F10665
:100D7000FD06110711071107130713071E0729079F
:100D800020E141E08BE097E00E94A50432C028E01A
:100D900040E08BE097E00E94A50480910B0784500F
:100DA000990B089520E340E08BE097E00E94A504B2
:100DB00080910B078851990B089524E641E08BE060
:100DC00097E00E94A5040E94E40380910B0724E0B1
:100DD000829FC0011124089521E040E0D3CF22E397
:100DE000D0CF24E641E08BE097E00E94A5040E946A
:100DF0002B0480910B0790E0089528E041E08BE000
:100E000097E00E94A50460910B0770E080910005B7
:100E1000909101050E9467327093490360934803E3
:100E2000E8CF24E1AECF28E140E08BE097E00E94DC
:100E3000A50480910B078C50990B089526E040E0A3
:100E40008BE097E00E94A50480910B078350990BDB
:100E500008952EE1C2CF80910807860F972F911D2C
:100E600097FF02C090E080E08A30910514F089E09D
:100E700090E080930807FC01EE0FFF1FEE57FE4F36
:100E800060817181A4EAB4E030E020E0FB01E20F70
:100E9000F31FE49141E0E11101C040E04D932F5F69
:100EA0003F4F2D30310591F70895CF93DF93C091D7
:100EB0005D01C60FD72FD11DC431D10514F4C4E193
:100EC000D0E0CB3FD10514F0CAEFD0E02C2FC09377
:100ED0005D0188E99AE3BE010E94673270930305C1
:100EE0006093020580918C03882321F070930105A3
:100EF0006093000520930C070E94590460910B0732
:100F000070E080910005909101050E946732709316
:100F10004903609348030E942B04CE01DF91CF91D7
:100F200008958EBD00000DB407FEFDCF8EB5089567
:100F30000F931F93CF938B016115704110F00FEF4A
:100F40001FE0C82FC795CC27C795C061C12B8CB5B2
:100F50008F7D8CBD60E081E00E9450058C2F0E9447
:100F60009107802F0E94910761E081E0CF911F914E
:100F70000F910C945005CF936093B1048091380188
:100F80008093250380910A07843019F4CF910C9443
:100F9000E403C62F853039F480E00E945005C093E9
:100FA0004A03CF910895863019F410924B03F9CF7C
:100FB0008B3001F52091060730E0E5E0F5E090E0A8
:100FC00080E0AF0145505540421753072CF09093F5
:100FD000240380932303E5CFDF01A05CBE4F4C9137
:100FE000442331F0DC01AD51BD4F40814C9301965B
:100FF0003196E7CF8031A9F66091DF027091E0026F
:101000008091E1029091E2020E947B3380E00E9495
:101010009807809110078250823018F66091DB02A9
:101020007091DC028091DD029091DE020E947B33A0
:1010300081E0CF910C949807CF93C62F0E94BB07F5
:1010400080917A04882371F080912C03882351F0D9
:10105000E09138010E2E000CFF0BEB53F94FC083CB
:10106000C0932D03CF910895CF93DF938631F8F489
:10107000C82FD0912507DD0FDE70D06460E080912D
:1010800024070E9450058D2F0E9491078C2F0E94EB
:101090009107EC2FF0E0EE5DF84F84810E949107FC
:1010A00061E080912407DF91CF910C945005DF918E
:1010B000CF910895982F74E18CE0E0E0983020F013
:1010C000985075E18DE0E1E021E030E0092E01C0AB
:1010D000220F0A94EAF7F0E0EE5DF84F448150E009
:1010E00002C0559547959A95E2F740FD0AC0E72F53
:1010F000F0E0EE5DF84F9481662369F0292B24839C
:101100000DC0E82FF0E0EE5DF84F9481662349F0C2
:10111000292B248304C0209592239483872F0C9439
:101120003408209592239483FACF1F93CF93DF93B3
:10113000282F1CE080E0283018F028501DE081E0C6
:10114000E82FF0E0EE5DF84F9481C1E0D0E001C0FF
:10115000CC0F2A95EAF7623041F0C0959C23948326
:10116000DF91CF911F910C9434089C2B94830E94A3
:101170003408E12FF0E0EE5DF84F8481C82BC48382
:10118000812FEECF0F931F93CF93DF93D82F02E2DF
:1011900017E0F801C381CC0FCE70C16460E082819A
:1011A0000E9450058C2F0E9491078D2F0E9491075D
:1011B0008FEF0E949107ED2FF0E0EE5DF84F8483F2
:1011C00061E0F8018281DF91CF911F910F910C9422
:1011D00050050F931F93CF9380E591E00E94E103A8
:1011E00000915F0310916003F8019281C0915E034A
:1011F0008C2F8095892382838091620381FF12C0A6
:1012000080E70E94910780E00E949107F801928197
:10121000C92BC28387FFE0CF10926103CF911F914A
:101220000F91089585E00E94910780E00E94910748
:10123000F8019281C92BC28380FDCECFEDCFFF9202
:101240000F931F93CF93DF93EC0180916103811182
:101250000E94E90880E591E00E94E10300915F03AC
:1012600010916003F8019281F0905E038F2D8095BC
:10127000892382838FE90E94910780E00E94910771
:10128000888380E00E949107898380E00E94910713
:101290008A838881813041F480E00E9491078B83AA
:1012A00080E00E9491078C83F8018281F82AF28203
:1012B000DF91CF911F910F91FF9008950F931F938E
:1012C000EFB7F894009155031091560320915703FE
:1012D00030915803EFBF041B150B260B370BFC0195
:1012E00000831183228333831F910F9108950F93FD
:1012F0001F93CF93DF938B01EA018093470440E073
:1013000050E0BA0189E197E00E945E09109346041B
:1013100000934504D0934404C0934304DF91CF91DC
:101320001F910F910895E0914104F0914204E05D16
:10133000FB4F808191E08927808340E050E0BA0133
:1013400081E197E00C945E090F931F93FC012FB786
:10135000F8946091550370915603809157039091D2
:1013600058032FBF0081118122813381601B710BD3
:10137000820B930B1F910F910895CF93DF9300D0B1
:1013800000D0CDB7DEB720913801422F220F550B88
:101390009A01281B390B37FF07C020910607240F3D
:1013A000352F311D281B390B8091000590910105C7
:1013B000289FA001299F500D389F500D1124052E04
:1013C000000C660B770B8091FC049091FD04A091BA
:1013D000FE04B091FF04841B950BA60BB70B898309
:1013E0009A83AB83BC83CE0101960E94A409CB01F2
:1013F0000F900F900F900F90DF91CF910895CF93A2
:10140000DF9320916C04222309F446C0EC018DE1A6
:1014100097E00E94A4096A3071058105910540F4A6
:1014200080916A0490916B04288128171906A1F114
:1014300080916804909169040897F0F42091660403
:10144000309167042F5F3F4F277033278881998140
:10145000F901EE0FFF1FEC5AFB4F9183808330930D
:101460006704209366048091680490916904019652
:101470009093690480936804888199819927909357
:101480006B0480936A0440E050E0BA018DE197E07C
:10149000DF91CF910C945E09DF91CF910895AF92C7
:1014A000BF92CF92DF92EF92FF920F931F93CF9351
:1014B000DF9300D0CDB7DEB78CB58F7D8CBD80912A
:1014C000F6049091F7040196843091050CF0C7C0A2
:1014D0009093F7048093F6048091F6048C5F80313A
:1014E00018F460E00E945A0882E10E94C20883E179
:1014F0000E94C20880913807909139079093F904AF
:101500008093F804F12CE12C01E010E0E091F60466
:10151000F091F704EE0FFF1FEE0FFF1FEE0DFF1D02
:10152000EE0FFF1FEC54FB4F408151812091F804D6
:101530003091F9042F703327C8010E2C02C0880F98
:10154000991F0A94E2F7282339233093FB04209350
:10155000FA040E2C02C0369527950A94E2F781E032
:10156000232B09F080E0FA01EC54FB4F90A189177E
:1015700061F080A390E0982F8827842B952B9A8385
:101580008983CE0101960E94FF098FEFE81AF80ABD
:10159000E4E0EE16F10409F0B9CF8091F6048C5F17
:1015A000803118F461E00E945A088091F80490910B
:1015B000F90480959095892F99278F779927909393
:1015C000FB048093FA0464EBE62E64E0F62E7EE1E1
:1015D000C72E72E0D72E10E000E0AA24A394B12C0D
:1015E0008091FA049091FB049501002E02C0220F15
:1015F000331F0A94E2F72823392391E0232B09F4BF
:1016000090E0F70182A9981791F092ABF601208142
:101610003181285F3F4F892F90E0982F8827822BB8
:10162000932B9A838983CE0101960E94FF090F5F55
:101630001F4FFFEFEF1AFF0A82E0C80ED11C0730E0
:10164000110571F60F900F90DF91CF911F910F91BF
:10165000FF90EF90DF90CF90BF90AF9008951092E1
:10166000F7041092F60438CFCF93DF93C82F10926F
:10167000B3041092B2048091B1048823C9F0809120
:101680000A07873009F042C00E94643160910B075D
:1016900070E00E946732D82F0E9464316AE070E0E7
:1016A0000E946732069784F18FEFD89FC00D1124F6
:1016B000CD309CF183E090E0C43234F482E090E0DD
:1016C000C83114F481E090E09093B3048093B204A5
:1016D0008C2F6CE00E944532C92F8C2F0C2E000CF1
:1016E000990BFC01EC55FB4F2081211109C0209181
:1016F0000807233059F58A5A9D4FFC018081C80F95
:101700008C2FDF91CF91089581E0CFCF833081F688
:1017100080910B078851C80FCBCFC43F7CF48EEF6C
:101720009FEFC93E14F08FEF9FEF9093B304809327
:10173000B2048C2F6CE00E944532C92FC7FFCDCF79
:101740008C2F0C2E000C990B0C96CBCF243019F457
:10175000875B9D4FD2CF845C9D4FCFCFDF92EF92BE
:10176000FF920F931F93CF93DF938C0180911B0106
:101770008F5F80931B01082E000C990B20910607A8
:101780002817190609F0D4F410921B0180918903DF
:101790008823A1F080918A0390918B030196909306
:1017A0008B0380938A0320910F07022E000C330BCA
:1017B000821793071CF081E08093880380914C038B
:1017C000811107C081E080934C0361E082E00E94B8
:1017D0005005C0913801EC2E0C2E000CFF088091B2
:1017E0002D0397012B5F3A4F882319F120543E4F68
:1017F00080912C03F90180839091B104992309F41D
:1018000073C080910A07811161C0809125038E15F4
:101810001F0471F580910B07C81B8C2F8F5F80937D
:10182000380187FF33C090910607890F80933801F4
:101830002DC08091B10420543E4FF901908199232D
:1018400039F061E08111D8CFC8010E94BB07D4CF25
:10185000882391F280912C038111CECF80917C035B
:10186000882321F080914D038111C6CF60E0ECCF39
:1018700081E08C0F80933801082E000C990B209189
:1018800006072817190611F4109238018091650394
:10189000882381F180910A078B50823058F50E948D
:1018A0006431E09138010E2E000CFF0BEB5BF94F19
:1018B00064E170E00E9467329C0180910B0791E027
:1018C000821713060CF490E0908314C0813051F419
:1018D0008FEF8C0F8093380187FFD8CF8091060758
:1018E0008150A4CF853091F280911B018093380103
:1018F0009111CCCFE09038010E2D0E2C000C110B65
:10190000E801CB5FDA4FFE01E05CFE4F8081882367
:1019100009F4CEC0E09234018091360390913703F0
:101920009093350380933403809132039091330375
:10193000909331038093300380911007813009F038
:10194000B7C08091760490917704A0917804B0910B
:1019500079048093D3029093D402A093D502B093DC
:10196000D60280E090E0A0E8BFEB809376049093ED
:101970007704A0937804B0937904F090060781E08F
:101980008E0D90E0D82E8F1508F5AC014F5F5F4F9C
:10199000FC01EB5BF94F2081222309F494C08B5F9B
:1019A000994FFC016081062E000C770B880B990B78
:1019B0000E94AC336093760470937704809378042C
:1019C000909379048D2D8E198093D20220E030E01F
:1019D00040E85FEB60917604709177048091780421
:1019E000909179040E94FD32811125C0D12C8D2D5A
:1019F00090E080179107FCF48B5F9A4FFC01E05C4C
:101A0000FE4F2081222309F460C09395FC01608180
:101A1000062E000C770B880B990B0E94AC33609359
:101A20007604709377048093780490937904FE1879
:101A3000DF0CD092D20220E030E040E85FEB609112
:101A400076047091770480917804909179040E94D3
:101A5000FD32811114C0D3956881062E000C770BDE
:101A6000880B990B0E94AC336093760470937704D3
:101A7000809378049093790481E08093D20220913E
:101A8000D2028091000590910105289FB001299F05
:101A9000700D1124072E000C880B990B0E94AC339B
:101AA0006093D7027093D8028093D9029093DA02A0
:101AB00081E080938503DF91CF911F910F91FF907B
:101AC000EF90DF900895CA015DCFD39490CFCF936C
:101AD0006DEF7FEF0E943A02C82F6CE00E9439320E
:101AE000E92FF0E0EE0FFF1FE45AFD4F659174916E
:101AF0008FE894E00E947431C03808F0CFE78C2F53
:101B000090E06CE070E00E946732605D6093910449
:101B10008FE894E0CF910C942A02CF930E943A026E
:101B2000C82F6CE00E943932E92FF0E0EE0FFF1F62
:101B3000E45AFD4F659174918FE894E00E947431EE
:101B4000C03808F0CFE78C2F90E06CE070E00E9486
:101B50006732605D609391048FE894E0CF910C94BC
:101B60002A0280919B0490919C048130910521F17F
:101B70001CF4892B41F0089582309105B1F103974F
:101B800009F445C00895E0918D04F0918E04EB5F57
:101B9000FA4F8081082E000C990B90939E0480933D
:101BA0009D0421E020939F04E05CFF4F6081062E9E
:101BB000000C770B0C948D0DE0918D04F0918E0448
:101BC000EB5FFA4FDF01A05CBF4F6C91062E000C5B
:101BD000770B70939E0460939D0481E080939F0433
:101BE0008081082E000C990BE5CFE0918D04F091D7
:101BF0008E04EE0FFF1FEB57FA4F80819181909377
:101C00009E0480939D0481E080939F040895E09159
:101C10008D04F0918E04EB5FF94F8081082E000C4B
:101C2000990B90939E0480939D0421E020939F0440
:101C300020911007233011F40C94670D0895EF9252
:101C4000FF920F931F93CF93DF9309E311E0780185
:101C5000D0E0C0E0CE010E94B0318456990B9C01C7
:101C600097FF04C022273327281B390BF70124369E
:101C7000310554F5918380832196F2E0EF0EF11C3B
:101C8000C930D10539F7C1E2D0E0CE010E94B031B0
:101C90008456990B9C0197FF04C022273327281BE9
:101CA000390BF8012436310594F4938B828B2196FD
:101CB0000E5F1F4FCA32D10541F7DF91CF911F91BF
:101CC0000F91FF90EF90089511821082D5CF138A63
:101CD000128AEDCF80932F0420E1829FC00111244E
:101CE000FC01EB5BF94F20E1A0E3B4E001900D9221
:101CF0002A95E1F720918D0430918E042817390739
:101D000024F04096821793073CF480E190E0909392
:101D100042048093410408952F7033273093420486
:101D200020934104089510922A04E0E3F4E0119214
:101D300084E0E034F807D9F7809129040E946A0E04
:101D40000E94B10D0C94A7031092830380912A0482
:101D50009FEF980F943088F4813021F460E080E0A8
:101D60000E9450050E94930E41E050E064E670E04E
:101D700081E00E94770981E008951092820341E09A
:101D800050E061E070E080E00E94770980E0089513
:101D9000CF93DF9300D01F92CDB7DEB74AE0BE01EC
:101DA0006F5F7F4F0E947B31ECE1F1E084E1DF0166
:101DB0001D928A95E9F7BE016F5F7F4FCF010E94A8
:101DC000703565E772E08CE191E00E9465358CE149
:101DD00091E00F900F900F90DF91CF910895FF92B7
:101DE0000F931F93CF93DF93EC01F62E0881198197
:101DF000C8010E94B031F81621F06F2DC8010E9471
:101E0000B831CE01DF91CF911F910F91FF900895CE
:101E1000CF92DF92EF92FF921F93CF93DF9300D088
:101E2000CDB7DEB78F30910511F58AE792E00E94B9
:101E3000640343E050E064E670E081E00E947709CB
:101E400084E190E09A83898360E0CE0101960E944C
:101E5000EF0E10922C0410922B040F900F90DF9134
:101E6000CF911F91FF90EF90DF90CF9008958E302B
:101E70009105D9F48EE792E00E94640343E050E0BC
:101E800064E670E081E00E94770984E190E09A8343
:101E900089836FE7CE0101960E94EF0E8FE790E0F5
:101EA00090932C0480932B04D8CF8C309105D1F4DF
:101EB0008CE080937F036091070161956093070137
:101EC000660F660B80E190E00E94B83180910701B7
:101ED00018162CF482E892E00E946403BECF86E8D4
:101EE00092E0FACF8A309105D9F48BE080937F039A
:101EF00060917C0381E0682760937C0384E290E03A
:101F00009A838983CE0101960E94EF0E80917C0313
:101F1000882319F08AE892E0DFCF8EE892E0DCCFE8
:101F20008830910531F489E080937F0382E992E063
:101F3000D3CF893091050CF090CF11E0180F10939A
:101F40007F03909342048093410480E1E8E0F1E054
:101F5000A0E3B4E001900D928A95E1F7E12FF0E063
:101F6000EE0FFF1FE75CFE4F808191810E94EF0220
:101F70008CE0189FB0011124072E000C880B990BE0
:101F80000E94AC336B017C0140E00E946601BC0101
:101F900080E00E94980741E0C701B6010E946601F7
:101FA000BC0181E00E94980758CFAF92BF92CF92B8
:101FB000DF92EF92FF920F931F93CF93DF9300D0A6
:101FC00000D01F92CDB7DEB78091610381110E94CE
:101FD000E908CE0101960E941F098981803209F02B
:101FE00067C08B8190EE980F933008F061C094E049
:101FF000813209F092E020916203022F10E036E076
:10200000159507953A95E1F72F73D22E2093620329
:102010000917F0F528E0B22E823211F092E0B92EC5
:1020200080E591E00E94E103E0905F03F09060039F
:10203000F7018281C0905E03AC2CA0948A21828338
:1020400086E00E949107F70182818C298283828138
:102050008A21828384EC0E94910780E0B09E902DBB
:1020600011240E94520690E080E00E945206F7017F
:102070008281C82AC2820F5F1F4F86E0000F111FA6
:102080008A95E1F70D290093620383E08093610351
:102090000F900F900F900F900F90DF91CF911F91A5
:1020A0000F91FF90EF90DF90CF90BF90AF90089589
:1020B00080E591E00E94E10300915F0310916003CD
:1020C000F8018281F0905E03EF2CE0948E218283F0
:1020D00086E00E949107F80182818F2982838281A4
:1020E0008E21828387EC0E949107F8018281F82A71
:1020F000F282CBCF0F931F93CF93DF938091610335
:10210000811106C081E0DF91CF911F910F91089559
:1021100080E591E00E94E10300915F03109160036C
:10212000F8019281C0915E038C2F80958923828370
:10213000D0916203D1FF13C080E70E94910780E035
:102140000E949107F8019281C92BC28387FF13C0B7
:1021500010926103D07CB1F20E94D50F0CC085E0D3
:102160000E94910780E00E949107F8019281C92B9B
:10217000C28380FFEDCF80E0C6CF2F923F924F9277
:102180005F926F927F928F929F92AF92BF92CF9207
:10219000DF92EF92FF920F931F93CF93DF93CDB710
:1021A000DEB728970FB6F894DEBF0FBECDBF6983A8
:1021B0007A838B839C831A014801590180916103C2
:1021C00081110E94E90880E591E00E94E1030091FD
:1021D0005F0310916003D80112968C91B0915E0359
:1021E000BD83B095BE838B23F801828386E00E9475
:1021F0009107D80112968C91BD818B2BF8018283B7
:10220000C12CD12C7601D394F981CF1AD108E108E1
:10221000F1088C149D04AE04BF0410F47501640130
:10222000D80112968C91BE81B823F801B2838981BE
:102230009A81AB81BC812D01662477248091620351
:1022400080FF5EC082E00E949107C2010E94520698
:1022500089819A810E94520689819A81AB81BC81D1
:102260008C0D9D1DAE1DBF1D89839A83AB83BC83DE
:102270008C189D08AE08BF0838862F8226013701CA
:10228000AF81B8858D91B887AF830E949107B1E087
:102290004B1A51086108710899F7E1E0CE1AD1088C
:1022A000E108F108FFEFCF1ADF0A2C0C3D1CD80122
:1022B00012968C91BD818B2BF8018283F4E0F09310
:1022C000610381149104A104B10409F077CF289629
:1022D0000FB6F894DEBF0FBECDBFDF91CF911F9137
:1022E0000F91FF90EF90DF90CF90BF90AF909F90B5
:1022F0008F907F906F905F904F903F902F900895B8
:102300005524C2019260A2CF8F929F92AF92BF924A
:10231000CF92DF92EF92FF920F931F93FC016A011D
:102320007B018091170490911804A0911904B09139
:102330001A04009113041091140420911504309193
:1023400016044C015D018C0C9D1CAE1CBF1C0815B5
:1023500019052A053B0570F4C12CD12C7601801794
:102360009107A207B30768F568017901C81AD90A6D
:10237000EA0AFB0A00910F04109110042091110445
:1023800030911204BC01CD01600F711F821F931F99
:1023900097018601AF010E94BD10809117049091B2
:1023A0001804A0911904B0911A048C0D9D1DAE1D46
:1023B000BF1D8093170490931804A0931904B09341
:1023C0001A04C701B6011F910F91FF90EF90DF90A3
:1023D000CF90BF90AF909F908F9008952F923F9293
:1023E0004F925F926F927F928F929F92AF92BF9225
:1023F000CF92DF92EF92FF920F931F93CF93DF93D1
:10240000CDB7DEB728970FB6F894DEBF0FBECDBFAD
:102410006B017C011A0148015901A80170E060E0DC
:10242000C1010E945E350091620380E591E00E9447
:10243000E10310916103112339F120915F03309181
:1024400060033A83298370905E03672C6094D901FE
:1024500012968C911297862112968C93B02FB2709F
:102460005B2E01FF71C080E70E94910780E00E940F
:10247000910787FD10E0E981FA81828187298283B3
:1024800011116BC010926103B02FB870BD83E02FA3
:10249000E170EE83FD81FF2309F4B3C0D701C601CB
:1024A000880D991DAA1DBB1D0197A109B1098C2595
:1024B0009D25AE25BF2588279927AA27BE7F892B72
:1024C0008A2B8B2B09F49DC0D701C601B170412C1A
:1024D000512C612C22E0722E481A590A6A0A7B0A92
:1024E000E0915F03F0916003928180915E0380959B
:1024F00089238283C701AA27BB2789839A83AB8359
:10250000BC839E81992309F47FC083E00E949107D8
:1025100089819A810E945206C6010E945206C20118
:10252000009709F47FC0D1012C912EBDF1019201D9
:102530002150310909F46DC051810DB407FEFDCF62
:102540004EB55EBD4193F4CF85E00E94910780E0D7
:102550000E94910780FF8ECF8ECF133008F049C0C4
:10256000A981BA8112968C911297862112968C932A
:1025700086E00E949107E981FA818281872982831E
:1025800002FF03C085E8113009F085E7A981BA810F
:1025900012969C911297962112969C930E949107F5
:1025A000E981FA818281872982835520A1F0828185
:1025B0006822628280E70E94910780E00E94910772
:1025C00087FFFBCFA981BA8112968C911297782A46
:1025D00012967C9259CFE981FA81828168226282C7
:1025E00085E00E94910780E00E94910780FDFBCF6B
:1025F000E9CF0E94E90880E591E00E94E10310E044
:1026000043CF240135016CCF89819A81992793604A
:1026100081CFFC013197E20DF31D0DB407FEFDCF14
:102620002EB52083E0915F03F0916003F887EF837C
:102630002281F0915E03F9832F2BAF81B88512962A
:102640002C931297280E391EC40CD51CE61CF71CBF
:1026500084189508A608B70809F01CCF112351F17A
:1026600012968C911297FF2EF0948F2112968C93D4
:1026700086E00E949107EF81F8858281F9818F2B96
:10268000AF81B88512968C9302FF03C08AE811309F
:1026900009F08AE7EF81F88592819F2192830E9459
:1026A0009107AF81B88512968C9112977980782A1C
:1026B00012967C9228960FB6F894DEBF0FBECDBF5F
:1026C000DF91CF911F910F91FF90EF90DF90CF900E
:1026D000BF90AF909F908F907F906F905F904F9042
:1026E0003F902F9008958F929F92AF92BF92CF927A
:1026F000DF92EF92FF920F931F93FC016A017B011F
:102700008091170490911804A0911904B0911A04B3
:1027100000911304109114042091150430911604B3
:102720004C015D018C0C9D1CAE1CBF1C08151905CD
:102730002A053B0570F4C12CD12C76018017910736
:10274000A207B30768F568017901C81AD90AEA0A2D
:10275000FB0A00910F041091100420911104309194
:102760001204BC01CD01600F711F821F931F9701DE
:102770008601AF010E94EE11809117049091180418
:10278000A0911904B0911A048C0D9D1DAE1DBF1DA2
:102790008093170490931804A0931904B0931A041B
:1027A000C701B6011F910F91FF90EF90DF90CF907E
:1027B000BF90AF909F908F9008950F931F93CF93EA
:1027C000DF93CDB7DEB728970FB6F894DEBF0FBE04
:1027D000CDBF08E010E020E030E0AE014F5F5F4F7A
:1027E00060E070E0CB010E94EE1189819A81AB819B
:1027F000BC818C3425E5920726E9A2072AEFB207AF
:1028000029F46D817E818F81988508C08F3F9F4F0D
:10281000AF4FBF4F71F060E070E0CB0128960FB66C
:10282000F894DEBF0FBECDBFDF91CF911F910F9106
:1028300008958CE495E5A6E9BAEF89839A83AB8382
:10284000BC8388E592E0A6EFB8E18D839E83AF83D9
:10285000B88708E010E020E030E0AE014F5F5F4F46
:1028600060E070E0CB010E94BD100E947A108823C6
:10287000E1F308E010E020E030E0AE014F5F5F4F91
:1028800060E070E0CB010E94EE1189819A81AB81FA
:10289000BC818C349545A649BA4F09F0BCCFB1CF65
:1028A0002F923F924F925F926F927F928F929F9260
:1028B000AF92BF92CF92DF92EF92FF920F931F934E
:1028C000CF93DF93CDB7DEB7C254D1090FB6F894DA
:1028D000DEBF0FBECDBF9AAB89AB8EE0A9A9BAA966
:1028E0001D928A95E9F70E94DD1361157105810536
:1028F000910509F428C19B01AC01442755272BAB56
:102900003CAB4DAB5EABECE1F1E065EC7DE98CE11D
:1029100091E82191222381F0022E000C330B440B0D
:10292000550B262737274827592763E971E080E0B0
:1029300091E00E942932EDCF2EEF3FEF40E050E0D2
:102940000E94F8316F5F7F4F8F4F9F4F7EAF6DAF0B
:10295000A3E0B0E02BA93CA94DA95EA90E94E531F6
:1029600069AF7AAF8BAF9CAFC12CD12C7601DA0165
:10297000C9010496A11DB11D23968CAF9DAFAEAFCA
:10298000BFAF23972BA93CA94DA95EA9C216D306B8
:10299000E406F50608F0D7C029013A014C185D0895
:1029A0006E087F0838E0431651046104710428F072
:1029B000F8E04F2E512C612C712CC701B6016C5FD1
:1029C0007F4F8F4F9F4F660F771F881F991F93016F
:1029D0008201000F111F221F331FAE014F5E5F4F98
:1029E0000E94EE11AE014F5E5F4F58AF4FAB1DA678
:1029F0001EA61FA618AA8DA59EA5AFA5B8A9481604
:102A000059066A067B0609F481C0AFA9B8AD8D915D
:102A10009D91B8AFAFABEDADFEAD8E179F0709F03E
:102A200067C019A61AA61BA61CA6A5E0B0E02DA596
:102A30003EA54FA558A92C0D3D1D4E1D5F1D0E94A2
:102A4000E53123962CAD3DAD4EAD5FAD2397620FC2
:102A5000731F841F951F660F771F881F991F0AE039
:102A600010E020E030E0AE014F5D5F4F0E94EE11BC
:102A700089A49AA4ABA4BCA432E0830E911CA11C2F
:102A8000B11C89AD9AADABADBCAD880E991EAA1E26
:102A9000BB1E32E0880C991CAA1CBB1C3A95D1F7CE
:102AA0004CE1242E41E0342E00E110E020E030E043
:102AB000AE014F5F5F4FC501B4010E94EE1190E17E
:102AC000890E911CA11CB11CDE0111969101205FA1
:102AD0003F4FF1014FEF241A340A80819D918913F1
:102AE00009C08823C1F0F1012216330699F7DCCF23
:102AF000019649F18DA59EA5AFA5B8A90196A11D86
:102B0000B11D8DA79EA7AFA7B8AB75CFC40CD51CC0
:102B1000E61CF71C37CF89A19AA1ABA1BCA1E9A9FA
:102B2000FAA980839183A283B3838DA19EA1AFA1D3
:102B3000B8A584839583A683B7832DA53EA5C20E31
:102B4000D31ED586C48689A99AA9CE5BDF4F0FB65E
:102B5000F894DEBF0FBECDBFDF91CF911F910F91D3
:102B6000FF90EF90DF90CF90BF90AF909F908F90AD
:102B70007F906F905F904F903F902F9008950F93AC
:102B80001F93CF93DF93CDB7DEB76A970FB6F89454
:102B9000DEBF0FBECDBF0E94C80ECE010D960E94B3
:102BA00050148EE0FE013D96AFE0B4E001900D922E
:102BB0008A95E1F780910F0490911004A09111047F
:102BC000B0911204892B8A2B8B2B09F4DEC0009163
:102BD0000D0410910E0440E450E060E070E085E0E8
:102BE00095E00E94731340E450E060E070E085E4FB
:102BF00095E00E94731340E850E060E070E08DE8DB
:102C000093E00E94731340E450E060E070E085E0E0
:102C100096E00E94731340E450E060E070E085E4C9
:102C200096E00E94731340E450E060E070E085E8B5
:102C300096E00E94731348E050E060E070E0CE013F
:102C400001960E94731344E050E060E070E0CE0112
:102C500009960E94731340E450E060E070E085EC58
:102C600096E00E947313EDE8F3E0A5E8B5E04DECC3
:102C700053E0819190E0982F882727AD820F911D16
:102C80008D939D934E175F07A1F789818093050768
:102C90008A81809306078B81809307078C818093BC
:102CA00008078D81809309078E8180930A078F81A1
:102CB00080930B07688560930C07898580930D07C7
:102CC0008A8580930E078B8580930F078C85809370
:102CD000100780918C0381110DC070E088E99AE3A0
:102CE0000E9467327093030560930205709301059B
:102CF0006093000570E060E0C8010E9455070E94E3
:102D0000E40370E060E0C8010E942B0770E060E01F
:102D1000C8010E94A506909106072091040592170C
:102D2000B1F080911B01181644F4921710F0853011
:102D300064F0821B890F80931B0180911B0187FF28
:102D400002C0890FFCCF80931B0190930405109261
:102D50008B0310928A0380910E0718162CF481E0E1
:102D600090910F0719160CF080E080938903109260
:102D7000880381E06A960FB6F894DEBF0FBECDBF20
:102D8000DF91CF911F910F91089580E0F3CFCF9302
:102D9000DF93CDB7DEB72E970FB6F894DEBF0FBE28
:102DA000CDBFCE0101960E94501481E049815A8125
:102DB0006B817C81452B462B472B09F480E02E96B6
:102DC0000FB6F894DEBF0FBECDBFDF91CF9108954F
:102DD0001F93CF93DF9310910E07C12F012E000C8C
:102DE000DD0B1C161D06ECF4CE010E94C80E0E94DD
:102DF000C7168823B1F010931A0110931901CE0160
:102E00000E94BF1580911A0190E00E94EF0245E0F8
:102E100050E064E670E081E0DF91CF911F910C9467
:102E20007709DF91CF911F91089580935D038823E7
:102E300009F441C08091630381113DC080912A044F
:102E4000823009F58091190190E00E94BF15882316
:102E500091F043E050E064E670E081E00E94770981
:102E600010922A048091190180931A01109229046A
:102E700080E00C946A0E0E94B80441E050E064E6E1
:102E800070E080E0EBCF811116C080916B0381115F
:102E90000C94E81682E080932A0480911A018093B2
:102EA000190190E00E94EF0250E040E06CE271E016
:102EB00081E00C9477090895CF93DF93BC01809152
:102EC0002A04813009F056C0C0917F03C93091F5C2
:102ED0008091680390916903861B970B853091055B
:102EE00020F4909369038093680380916803909124
:102EF0006903909367038093660382309105A1F084
:102F00002CF40197A1F086EA92E007C08330910586
:102F100041F00497C1F786E992E0DF91CF910C94DC
:102F200064038AE992E0F9CF8EE992E0F6CF82EA73
:102F300092E0F3CFD0E09E01220F331FF901E75C4E
:102F4000FE4F80819181680F791FCB018D599F4F72
:102F5000873C910510F471836083275C3E4FF90133
:102F6000808191810E94EF02CE010197DF91CF9184
:102F70000C94080F90918303911129C09EEF980F34
:102F8000923078F580911901680F39F16093190139
:102F900080911901843618F081E080931901C09165
:102FA0001901D0E0CE010E94EF02CE010E94C80EAE
:102FB0000E94C716809353040E94E30250E040E051
:102FC0006CE271E081E0DF91CF910C94770981117F
:102FD000D9CF82E080932A04D5CF83E6809319016C
:102FE000D7CF843009F07CC1E0910601EA30A1F42A
:102FF00080918603909187030E942B07FC01EE0FBE
:10300000FF1FEA50FE4F6591749181E793E00E94A3
:10301000743181E793E081CFE53109F056C0C0916A
:103020008603D091870320E140E08AE097E00E9488
:10303000A50410926503E0910A07E13168F5F0E01C
:10304000EC5DF74E0C947B323E184C183C183A1845
:1030500035184C1840184C18421844184618611876
:1030600061186318631844183C1880910507809311
:103070000B0712C088E1FBCF85E0F9CF84E0F7CFE2
:1030800088E0F5CF80E5F3CF82E0F1CF84E0809354
:103090000B0781E08093650370E060E0CE010E9441
:1030A000A506E0910A07F0E0EE0FFF1FEC52FE4F7D
:1030B000659174918CE693E00E9474318CE693E004
:1030C0002CCF8CE0E4CF83E1D2CFE850E33108F09D
:1030D00004C1F0E0E259F74E0C947B328D1894183D
:1030E0006D19DC180E196D196D193D1922196D191C
:1030F0006D196D196D196D196D196D196D1981188D
:10310000F81880918603909187030E94A506EC0130
:10311000CE01DF91CF910C94EF02809186039091C4
:1031200087030E945507F3CF8091060790E0209116
:103130006B032223A1F16115710589F18930910595
:10314000ECF08D309105ECF081319105ECF0893196
:103150009105ECF08197F4F086E090E016161706E2
:10316000E4F4019682519E4FFC0180818093060712
:10317000C0910607C0930405D0E0CACF81E090E07B
:10318000EDCF82E090E0EACF83E090E0E7CF84E00B
:1031900090E0E4CF85E090E0E1CF0197E3CF860FA8
:1031A000971F1816190614F081E090E081349105FC
:1031B000ECF280E490E0DACF20918603309187032F
:1031C00090910907690F711D6A30710514F46AE066
:1031D00070E06B35710514F06AE570E060930907E3
:1031E00070E060E0C9010E945507C0910907C4CF93
:1031F00080910507680F711D1616170614F061E01F
:1032000070E06F3F710519F014F06FEF70E060939C
:1032100005070E94E403C0910507AECF80910D071A
:10322000EB01C80FD11D87FDDA95D7FF02C0D0E0B2
:10323000C0E0C133D10514F0C0E3D0E0C0930D0766
:10324000689766CF80916A03882311F070E060E090
:1032500080910F07680F711D87FD7A9577FF02C077
:1032600070E060E0EB016436710514F0C3E6D0E075
:10327000C0930F0710926A034BCF80916A03882393
:1032800011F070E060E080910E07680F711D87FDFE
:103290007A9577FF02C070E060E0EB01643671055B
:1032A00014F0C3E6D0E0C0930E07CC2399F08091D0
:1032B0000F0718167CF481E08093890310926A034B
:1032C000CE010E94C80E0E94C716809353040E942C
:1032D000E3021ECF10928903F1CFD0E0C0E018CFF7
:1032E00080916B03882399F080911B01680F609394
:1032F0001B01062E000C770B809106078617170618
:1033000009F014F410921B01DF91CF910895809180
:103310001A018093190190E00E94EF0281E08093EE
:103320008303F2CF2F923F924F925F926F927F92E0
:103330008F929F92AF92BF92CF92DF92EF92FF92C5
:103340000F931F93CF93DF93CDB7DEB7C254D1094C
:103350000FB6F894DEBF0FBECDBF80936403882301
:10336000D9F180912A04813009F050C010922A04CA
:1033700079E3E72E71E0F72E10E000E0D7016C91C1
:10338000B2E0EB0EF11C1A8309836C59CE01019651
:103390000E94EF0E0F5F1F4F0930110579F76BE4A4
:1033A000E62E61E0F62E01E210E0F7016081F2E026
:1033B000EF0EF11C1A8309836C59CE0101960E940D
:1033C000EF0E0F5F1F4F0A32110579F760E080E0C2
:1033D0000E9450050E94930ECE5BDF4F0FB6F8940B
:1033E000DEBF0FBECDBFDF91CF911F910F91FF9038
:1033F000EF90DF90CF90BF90AF909F908F907F9095
:103400006F905F904F903F902F900895833009F018
:103410007CC3109119010E947A10882309F46EC3AD
:10342000812F90E00E94C80E0E94C71681114DC2E4
:103430008091620385FD71C084FF78C020E030E098
:1034400044E050E02BA73CA74DA75EA70E94C716FB
:10345000811161C00E94DD136B017C01C114D10494
:10346000E104F10409F457C0DC01CB01AA27BB2712
:103470008FA798ABA9ABBAAB812C912C5401D50185
:10348000C4010896A11DB11D2FA538A949A95AA9A3
:10349000281739074A075B0708F051C029013A018C
:1034A000481859086A087B08C501B4016C5F7F4F52
:1034B0008F4F9F4F660F771F881F991F93018201BF
:1034C000000F111F221F331FAE014F5F5F4F0E947D
:1034D000EE11FE01319680E090E0DC0148165906BD
:1034E0006A067B06B1F1219131912F3F3F4F69F57B
:1034F000A5019401280F391F4A1F5B1F2BAB3CAB62
:103500004DAB5EAB6FA578A989A99AA92617370795
:103510004807590768F181E014C240E050E160E0DB
:1035200070E04BA75CA76DA77EA790CF60E070E02E
:1035300081E090E06BA77CA78DA79EA787CF58E07E
:10354000452E512C612C712CAFCF0196A11DB11DC0
:10355000C5CF840C951CA61CB71C8FA598A9A9A93A
:10356000BAA988169906AA06BB0608F488CFD3CF55
:10357000ACE0B0E02FA538A949A95AA90E94E531CD
:103580006BAF7CAF8DAF9EAF4B015C0198E0890EB5
:10359000911CA11CB11C2BA93CA94DA95EA9232BF0
:1035A000242B252B09F0D8C00EE0F694E794D7948D
:1035B000C7940A95D1F73CEFC32233E0E322FF24FE
:1035C000B701A601480D591D6A1D7B1D4FAB58AFB1
:1035D00069AF7AAF6BA57CA58DA59EA561507109D9
:1035E000810991092FA938AD49AD5AAD620F731FFA
:1035F000841F951F2BA53CA54DA55EA50E94F83103
:10360000CA01B9012BA53CA54DA55EA50E94293292
:103610006B017C01CA01B9016150704F8F4F9F4F00
:103620000E94F831CA01B9012BA53CA54DA55EA5A4
:103630000E9429322B013C010CE111E0D8010D90D0
:103640000020E9F78D010D511140CE0101960E9435
:103650001F09A7019601240D351D461D571D2BA7D7
:103660003CA74DA75EA7CE0101960E9416062BA58A
:103670003CA54DA55EA5621773078407950708F45E
:103680004ACF30E020E00F5F1F4F2F4F3F4F4CE1FC
:1036900051E0C501B4010E94BD10C98ADA8AEB8AE3
:1036A000FC8A4D8A5E8A6F8A788E8BAD9CADADADFB
:1036B000BEAD881A990AAA0ABB0A98E0891A91082D
:1036C000A108B10852E0B694A794979487945A95AC
:1036D000D1F7898E9A8EAB8EBC8EA5E0B0E02BA977
:1036E0003CA94DA95EA90E94E5310FA518A929A9F9
:1036F0003AA90C5F1F4F2F4F3F4F600F711F821F62
:10370000931F660F771F881F991F0AE010E020E0C3
:1037100030E0AE014F5E5F4F0E94BD100E947A10F4
:103720008823E1F3ECE1F1E065EC7DE98CE191E8DF
:103730002191222309F49EC0022E000C330B440B6E
:10374000550B262737274827592763E971E080E082
:1037500091E00E942932ECCF198E1A8E1B8E1C8E9E
:103760007E0151E1E50EF11CA5E0B0E02BA93CA9DA
:103770004DA95EA90E94E5310FA518A929A93AA96A
:103780000150110921093048600F711F821F931FDA
:10379000660F771F881F991F0AE010E020E030E0D5
:1037A000A7010E94EE1109891A892B893C898D890C
:1037B0009E89AF89B88DB901A801480F591F6A1FAA
:1037C0007B1F4FAB58AF69AF7AAF898D9A8DAB8DA8
:1037D000BC8D12E0880F991FAA1FBB1F1A95D1F745
:1037E0009C01AD01280D391D4A1D5B1D23962CAF90
:1037F0003DAF4EAF5FAF239749015A01412C512C89
:10380000320100E110E020E030E0AE014F5F5F4F99
:10381000C501B4010E94EE11FE013196D301C2012F
:103820003FEF431A530A630A730A2191211117C00B
:1038300023968CAC9DACAEACBFAC239744E0840E19
:10384000911CA11CB11C880D991DAA1DBB1D4C010A
:103850005D015CEF852253E0A522BB24BBCED301E2
:10386000C201EE15FF05E1F660E1860E911CA11C78
:10387000B11CC7CF2EEF3FEF40E050E00E94F8317F
:103880006F5F7F4F8F4F9F4F698B7A8B8B8B9C8B9A
:103890008BA89CA8ADA8BEA8A4E08A0E911CA11C70
:1038A000B11CC501B401660F771F881F991F02E084
:1038B00010E020E030E0AE014F5E5F4F0E94BD108F
:1038C0000E947A108823E1F326CECE014D960E9405
:1038D00050148EE0FE017D96AFE0B4E001900D92B1
:1038E0008A95E1F78091620384FF3FC020E030E0D9
:1038F00044E050E02FA738AB49AB5AAB812C30E104
:10390000932EA12CB12C85FD04C08FA498A8A9A842
:10391000BAA87501640151E0C51AD108E108F1089F
:1039200080910F0490911004A0911104B0911204A1
:103930008C219D21AE21BF21892B8A2B8B2BF1F06D
:1039400082E09091190190931A018150823008F021
:10395000D7C081E08093630345E050E064E670E007
:103960000E94770910922A0437CD40E050E061E0D0
:1039700070E04FA758AB69AB7AABC0CF809113040E
:1039800090911404A0911504B0911604C822D92274
:10399000EA22FB22C114D104E104F10489F68091EA
:1039A000130490911404A0911504B0911604C81644
:1039B000D906EA06FB0620F640900F04509010044A
:1039C00060901104709012044C0C5D1C6E1C7F1CE6
:1039D00090916203809161039301442755272BA79F
:1039E0003CA74DA75EA791709BAB4FA558A969A9AD
:1039F0007AA984169506A606B70608F041C081117B
:103A00000E94E90880E591E00E94E10300915F03D4
:103A100010916003D80112968C91129730905E033A
:103A2000232C2094822112968C9386E00E94910789
:103A3000F801828183298283828128222282FBA944
:103A4000FF23C9F080E20E9491078BA59CA50E94EC
:103A50005206C2010E945206D80112968C9112970A
:103A6000382A12963C92B2E0B0936103C80CD91C7C
:103A7000EA1CFB1C94CF8BA59CA599279062E7CFED
:103A800081110E94E90880E591E00E94E103009124
:103A90005F0310916003F801828130905E03232C54
:103AA00020948221828386E00E949107D801129699
:103AB0008C911297832912968C93129712968C915F
:103AC0001297282212962C92BBA9BB2391F088ED65
:103AD0000E9491078BA59CA50E945206C2010E94DC
:103AE0005206F8018281382A3282F2E0F0936103B3
:103AF000BDCF8BA59CA59927986DEECF80E021CFF7
:103B00008AEA92E00E94640367CC8091630381118A
:103B100063CC83E080932A0480911A018093190179
:103B200090E00E94EF0250E040E06CE271E081E042
:103B30000E94770951CC4F925F926F927F928F9241
:103B40009F92AF92BF92CF92DF92EF92FF920F932C
:103B50001F93CF93DF934091B104442309F43AC1FA
:103B600080910A07863009F0D5C080914B038111FE
:103B700026C28091250390E00E94BD09EC012091AE
:103B80000B078091000590910105289FB001299FA6
:103B9000700D1124072E000C880B990B0E94AC337A
:103BA0006B017C016091360370913703072E000C86
:103BB000880B990B0E94AC334B015C01BE01DD0FF9
:103BC000880B990B0E94AC339B01AC01C701B60175
:103BD0000E9490329B01AC01C501B4010E94613486
:103BE000A70196010E9402336B017C0120E030E0C6
:103BF00040E85FE30E94FD32881F8827881F80937A
:103C00004B0340E0C701B6010E946601EC01BC0114
:103C1000990F880B990B0E94AC336093DF0270936D
:103C2000E0028093E1029093E202BE0180E00E94F4
:103C3000980720E030E040E85FE3C701B6010E944A
:103C4000FD3287FF08C060E080E00E9450051092BE
:103C50004A031092500380911007813009F0AFC1E0
:103C600080913401082E000C990B0E94BD09BC0103
:103C7000990F880B990B0E94AC334B015C01C090EB
:103C8000D702D090D802E090D902F090DA02AC01CD
:103C90009B01C701B6010E9490322091D30230915E
:103CA000D4024091D5025091D6020E9461342B017A
:103CB0003C01209176043091770440917804509132
:103CC0007904C501B4010E9461349B01AC01C301B8
:103CD000B2010E949132A70196010E94023320E0B6
:103CE00030E040E252E40E9461340E947B3381E084
:103CF000DF91CF911F910F91FF90EF90DF90CF90C8
:103D0000BF90AF909F908F907F906F905F904F90FB
:103D10000C949807803109F05DC080913401082E21
:103D2000000C990B0E94BD09BC01990F880B990BDF
:103D30000E94AC3320E030E040EA51E40E940233BC
:103D40000E94CE346B017C0160910B0770E090E023
:103D500080E00E94AC334B015C01A7019601C701D2
:103D6000B6010E9491329B01AC01C501B4010E94D1
:103D700061340E947433072E000C880B990B0E944B
:103D8000AC336B017C012091DF023091E002409165
:103D9000E1025091E2020E9491320E947B3380E066
:103DA0000E949807809110078250823008F053CF0C
:103DB0002091DB023091DC024091DD025091DE0265
:103DC000C701B6010E9491320E947B3381E00E94BC
:103DD000980741CF80913401082E000C990B9C016B
:103DE0002B5F3A4FF901E05CFE4F5081552331F0D3
:103DF00020583E4FF9012081211108C0442309F4C5
:103E00002ACF20910A07243009F025CF0E94BD094E
:103E1000EC016091270470912804861797070CF035
:103E200081C010924B038B01081B190B072E000C4D
:103E3000880B990B0E94AC336B017C018091360397
:103E400090913703C89FB001C99F700DD89F700D26
:103E500011242091340330913503029FC001039F48
:103E6000900D129F900D1124680F791F072E000CE2
:103E7000880B990B0E94AC33A70196010E94023374
:103E800040E00E9466015C01BC01990F880B990B10
:103E90000E94AC336093DF027093E0028093E102F2
:103EA0009093E202B50180E00E949807809110078C
:103EB0008250823008F0CFCE80913203909133034C
:103EC000C89FB001C99F700DD89F700D112420911B
:103ED000300330913103029FC001039F900D129F68
:103EE000900D1124680F791F072E000C880B990B79
:103EF0000E94AC33A70196010E94023340E00E9469
:103F00006601EC01BC01990F880B990B0E94AC3340
:103F10006093DB027093DC028093DD029093DE02FB
:103F2000BE0154CF80914B03811195CE6091360331
:103F300070913703072E000C880B990B0E94AC334D
:103F400040E00E946601EC01BC01990F880B990BBF
:103F50000E94AC336093DF027093E0028093E10231
:103F60009093E202BE0180E00E94980780911007C2
:103F70008250823000F56091320370913303072E36
:103F8000000C880B990B0E94AC3340E00E94660144
:103F9000EC01BC01990F880B990B0E94AC33609324
:103FA000DB027093DC028093DD029093DE02BE019F
:103FB00081E00E94980781E080934B034CCEDF9113
:103FC000CF911F910F91FF90EF90DF90CF90BF9016
:103FD000AF909F908F907F906F905F904F900895DB
:103FE000FF920F931F93CF93DF938C01C62F809185
:103FF000B104882309F47AC080916503882309F409
:1040000075C080910A078A3001F50E946431609181
:104010000B0770E00E946732D82F0E9464316AE07B
:1040200070E00E946732069774F09FEFE0913401D0
:104030000E2E000CFF0BEB5FFA4F8081D99F800D95
:104040001124808328C091E0F1CF8B3009F0E2C0C9
:104050000E946431E09134010E2E000CFF0BEB5FE7
:10406000FA4F60912303709124030E946732DC01B0
:10407000AD51BD4F8C9180830E946431E091340139
:10408000EE0FFF0BEB57FA4F62E870E00E946732C9
:10409000449691838083E09134010E2E000CFF0B37
:1040A000EB5FFA4F8081282F082E000C330B37FF6F
:1040B00003C03195219531092D303105BCF021E047
:1040C00018160CF02FEFDF01A05CBF4F9C91920FF0
:1040D00093300CF092E09E3F0CF49EEF9C936CE0CA
:1040E0000E944532929F902D11249083D0E0CB5FA7
:1040F000DA4F88810E94340BFE01E05CFF4F408163
:10410000042E000C550B4D5F5F4F6CE0649F9001D7
:10411000659F300D1124A901480F511D87FD5A9547
:10412000CA0120910D07022E000C330B28513109D2
:10413000820F931F4091B2045091B304649F900189
:10414000659F300D1124820F931F90933703809346
:104150003603F090B104FF2099F020910A07223035
:1041600079F440910B074450550B649F9001659F73
:10417000300D1124820F931F9093370380933603E1
:10418000FE01E058FE4F8081882309F4B9C0809178
:1041900050038111B5C0C8010E949B1DFF2009F486
:1041A0000BC120910A0783EF820F833008F004C10E
:1041B00080910B072E3009F0C4C08C509881890F74
:1041C0000E94340BC05CDF4F4881042E000C550B5D
:1041D0004D5F5F4F9CE0949F9001959F300D11249F
:1041E00040910D07280F311D87FD3A95240F311D91
:1041F00047FD3A956091B2047091B304969FA00177
:10420000979F500D1124240F351F309333032093B3
:104210003203A5C08C3009F03ECF0E94643168E1C2
:1042200070E00E946732D82F0E9464316AE070E02B
:104230000E94673206970CF442C08FEFE091340180
:104240000E2E000CFF0BEB5FFA4F8D9F802D11247B
:1042500080830E946431E09134010E2E000CFF0B2C
:10426000EB57F94F6AE070E00E9467329C0191E0E1
:10427000293031050CF490E090830E946431E09184
:104280003401EE0FFF0BEB57FA4F62E870E00E942B
:10429000673244969183808380911007823089F43D
:1042A0000E946431E09134010E2E000CFF0BEB5F95
:1042B000F94F68E170E00E9467328C50C2CE81E015
:1042C000BDCF833079F40E946431E09134010E2E29
:1042D000000CFF0BEB5FF94F60E370E00E94673268
:1042E000845FAFCE0E946431E09134010E2E000C49
:1042F000FF0BEB5FF94F6AE570E00E946732A1CED9
:104300006091360370913703072E000C880B990BD0
:104310000E94AC3340E00E9466018C01BC01990F01
:10432000880B990B0E94AC336093DF027093E0021C
:104330008093E1029093E202B80180E00E94980726
:104340002DCF90E040913603509137032D3061F529
:10435000840F951F0C9790933303809332036091E1
:10436000320370913303072E000C880B990B0E94C7
:10437000AC3341E00E946601EC01BC01990F880B4F
:10438000990B0E94AC336093DB027093DC02809344
:10439000DD029093DE02BE0181E0DF91CF911F919B
:1043A0000F91FF900C94980703976CE0689F900121
:1043B000699F300D112427CF80911007823009F4B6
:1043C00041C06CF487FF29C06091DB027091DC0270
:1043D0008091DD029091DE020E947B33DDCF83303D
:1043E00099F7D39588810E94340B60910D07062EB2
:1043F000000C770B685171094091B2045091B304DD
:104400009CE0949F9001959F300D1124620F731FC3
:10441000680F711D87FD7A9541C0D395688158E278
:104420006502B0011124072E000C880B990B0E9425
:10443000AC336093DB027093DC028093DD029093D7
:10444000DE02C2CFFE01F39598818081890F0E9420
:10445000340BC05CDF4F2881022E000C330B2D5F24
:104460003F4F4CE0429FB001439F700D1124680FF5
:10447000711D87FD7A9580910D07082E000C990B10
:104480004897680F791F2091B2043091B304429F7E
:10449000C001439F900D1124680F791F709333035F
:1044A00060933203072E000C880B990B0E94AC33EB
:1044B00041E00E946601BC01990F880B990BB7CFB0
:1044C000FF920F931F93CF93DF9300D000D0CDB70F
:1044D000DEB7F62E8A0160918D040E94F01F6F2DC9
:1044E00080E00E945005F0924A03F0925003012EA2
:1044F000000C220B330B8091FC049091FD04A091E1
:10450000FE04B091FF04801B910BA20BB30B8983B7
:104510009A83AB83BC83CE0101960E94A409709359
:104520004F0360934E030F900F900F900F90DF9109
:10453000CF911F910F91FF900895FF920F931F93BA
:10454000CF93DF93D62FC42FAC01440F551FFA0130
:10455000EC5CFD4F20812E3008F02E50609135012B
:1045600030E4639FB00111242770262B20937C0038
:1045700020917A00206420937A0020917A0026FD11
:10458000FCCF2091780030917900FA01EB57FB4F76
:104590003183208310929F04FA01E358FB4F60811E
:1045A0007181D901A61BB70BBD01B7FF03C071957F
:1045B00061957109E0913601F0913701DD2311F029
:1045C000E4E1F0E0E617F7070CF0ACC1E1E0E093BE
:1045D0007C0443585B4FDA012D933C93C11108C012
:1045E000C1E08C2FDF91CF911F910F91FF90089523
:1045F0008130910509F4D2C034F5892B91F760918F
:10460000850470918604DD2309F467C084E090E09E
:1046100090939C0480939B04653873400CF449C0CC
:10462000E0937004E2E5F2E06591749181E794E033
:104630000E94743181E794E00E942A0281E0809315
:104640009F04CD2FCECF8230910509F4DDC0833099
:10465000910539F600918B0410918C04DD2309F447
:1046600006C184E090E090939C0480939B04C0E09A
:104670000F3F110559F054F0C1E00115F2E01F079A
:104680002CF0C2E0011513400CF0C3E0EC2FF0E079
:10469000EE0FFF1FEC5AFD4F6591749181E794E096
:1046A0000E94743181E794E00E942A02C0931007AF
:1046B000C5CFE0E5F2E06591749181E794E00E9456
:1046C00074311092700441E050E060E080919904F0
:1046D00090919A040E946022ADCF10929C04109297
:1046E0009B04072E000C880B990B0E94AC3326E626
:1046F00036E648E252E40E9402332AE939E941E40D
:1047000051E40E9490320E947433CB01AB0120919E
:104710007B04222311F190939E0480939D0421E059
:1047200020939F04E0918D04F0918E04EB5BFA4F8F
:104730006081062E000C770B0E948D0DC0917004D5
:10474000CC2309F44DCF48E750E061E08091990413
:1047500090919A040E94602244CF9B0177FF02C08F
:10476000245F3F4F2C553B4FF9012081222309F450
:1047700037CF20917A04E0913401211102C0E091F9
:104780008D04F0E0EB5FFA4F2081022E000C330B1A
:1047900080834217530709F0BECF22CF20918704B0
:1047A0003091880490939C0480939B04C90168E72E
:1047B00070E00E9467326450710980917B04882305
:1047C00091F070939E0460939D0481E080939F0418
:1047D000E0918D04F0918E04EB5FFA4F8081082EFA
:1047E000000C990BA9CF962F80917A04E0913401A7
:1047F000811102C0E0918D04F0E0EB5BFA4F808103
:1048000060839813DECFECCEA0918904B0918A0426
:1048100090939C0480939B049D010E94813227E326
:104820003AE040E050E00E94C63180917B0488234A
:1048300041F030939E0420939D0481E080939F0477
:10484000D0CEB90180917A04E0913401811102C087
:10485000E0918D04F0E0EE0FFF1FEB57FA4F8081DF
:104860009181318320836817790719F7B9CE909326
:104870009C0480939B04F090100780917B04882314
:1048800099F0C8010E94A102082E000C990B909388
:104890009E0480939D0421E020939F0433E0F31253
:1048A0009FCE0E94670D9DCEC8010E94A102D82F05
:1048B00083E0F8121FC08D2F0D2E000C990B6CE0B9
:1048C00070E00E946732FC01EC55FB4F8081882329
:1048D00009F486CE80917A04E0913401811102C0FE
:1048E000E0918D04F0E0EB5FF94F8081D083D81325
:1048F000C8CF76CEA1E0FA12EDCF80917A0488235A
:1049000049F36D2F0D2E000C770B880B990B0E942D
:10491000AC3360937604709377048093780490931B
:104920007904D8CFC0E05DCE682F20916E0430911D
:104930006F042F5F3F4F2430310504F530936F042F
:1049400020936E0480916E0490916F04FC01EE0F31
:10495000FF1FE45DFD4F40919B0450919C0420811A
:1049600031814217530779F425E030E03093370165
:104970002093360140916D040C949D2210926F0497
:1049800010926E04DFCF2CE030E0F0CFCF92DF92B8
:10499000EF92FF920F931F93CF93DF939C0190911F
:1049A000B104E09138010E2E000CFF0BEB5BF94FC8
:1049B0008081882309F464C09923C9F080910A0793
:1049C0008630A9F4C9010E949B1D80914B0381117F
:1049D0004EC0C09134010C2E000CDD0BCB5BD94FC7
:1049E00068810E945005888180934A0340C01092DC
:1049F0004B0360913401C9010E94F01FC091340142
:104A00000C2E000CDD0B8E010B5B194FF801608141
:104A100080E00E945005F801808180934A03CC0F0A
:104A2000DD1FCB57DA4F6881798190E080E00E94EA
:104A3000AA3320E030E048EC52E40E9402336B01DC
:104A40007C016091000570910105072E000C880B18
:104A5000990B0E94AC339B01AC01C701B6010E94C7
:104A600061340E947B337093050160930401DF91F0
:104A7000CF911F910F91FF90EF90DF90CF9008950D
:104A80009923A9F380910A07883089F761E080E0D3
:104A90000E94500581E0A8CF1F920F920FB60F928F
:104AA00011242F933F938F939F93AF93BF93809144
:104AB000550390915603A0915703B091580330913C
:104AC000540323E0230F2D3758F50196A11DB11D86
:104AD000209354038093550390935603A093570358
:104AE000B09358038091590390915A03A0915B03AE
:104AF000B0915C030196A11DB11D80935903909361
:104B00005A03A0935B03B0935C03BF91AF919F9155
:104B10008F913F912F910F900FBE0F901F9018957E
:104B200026E8230F0296A11DB11DD2CF1F920F922E
:104B30000FB60F9211242F933F934F935F936F9370
:104B40007F938F939F93AF93BF93EF93FF93E091E6
:104B50000201F09103010995FF91EF91BF91AF918F
:104B60009F918F917F916F915F914F913F912F9185
:104B70000F900FBE0F901F9018951F920F920FB6B7
:104B80000F9211242F933F934F935F936F937F93D3
:104B90008F939F93AF93BF93EF93FF93E0910001A7
:104BA000F09101010995FF91EF91BF91AF919F9114
:104BB0008F917F916F915F914F913F912F910F90C6
:104BC0000FBE0F901F9018952FB7F8944091550382
:104BD0005091560360915703709158032FBFFC0109
:104BE00040835183628373830895CF9380E2E2E62A
:104BF000F1E0A4EBB4E001900D928A95E1F780E139
:104C0000E4EDF4E0DF01982F1D929A95E9F71092F8
:104C1000E5041092E4041092F7041092F604E5E41F
:104C2000F6E090E4DF011D929A95E9F791E0908318
:104C300022E320930507809306079093070790933C
:104C400008072093090710920A0794E090930B0736
:104C500098E790930C07C8E1C0930D0710920E07D8
:104C600010920F07109210078093040560915D0168
:104C700070E088E99AE30E946732709303056093BD
:104C8000020570930105609300058CEF94E00E948B
:104C9000E42585E197E00E94E42581E197E00E9408
:104CA000E42589E197E00E94E425E2E2F7E081E271
:104CB00097E0918380838AE0828313828FEF8483DD
:104CC00085831682178210861186128613861486B3
:104CD0001586C687C787108A118A128A138A148A92
:104CE000158A168A178A108E118E8DE197E00E9420
:104CF000E4258CE397E0CF910C94E425CF93DF93E8
:104D0000CDB7DEB76A970FB6F894DEBF0FBECDBF42
:104D1000789484B5826084BD84B5816084BD85B596
:104D2000826085BD85B5816085BD80916E008160A2
:104D300080936E0010928100809181008260809348
:104D4000810080918100816080938100809180004A
:104D50008160809380008091B10084608093B10075
:104D60008091B00081608093B00080917A0084606F
:104D700080937A0080917A00826080937A0080919B
:104D80007A00816080937A0080917A0080688093B5
:104D90007A001092C100109235010E941F0E8AE223
:104DA00093E090937B0380937A0389E293E090935E
:104DB00028038093270385E096E0E5E8F5E020E509
:104DC00030E0219331938E179F07D9F761E080E09F
:104DD0000E947E0561E082E00E947E0562E083E041
:104DE0000E947E0562E084E00E947E0581E196E0FB
:104DF000909303018093020180916900837F886012
:104E000080936900E99A10920807809106078093C1
:104E1000040570E060E083E593E00E942B0770E0FA
:104E200060E083E593E00E9455070E94E40384E27A
:104E300090E00E94B03191E0811101C090E0909328
:104E40007C0361E08AE00E947E0561E089E00E94C7
:104E50007E0561E088E00E947E0561E081E00E94BD
:104E60007E0561E08AE00E94500561E089E00E94D1
:104E7000500561E088E00E94500561E081E00E94F9
:104E800050058AE293E0909381038093800389E246
:104E900093E090937E0380937D0303E513E01093EA
:104EA00087030093860360E08EE00E947E0560E049
:104EB0008FE00E947E0560E080E10E947E0560E058
:104EC00081E10E947E0510939A040093990480E08A
:104ED0000E94942480E00E94942480E00E94942404
:104EE00080E00E94942481E080936D048CB58F7DD6
:104EF0008CBD0E946F0661E0809124070E947E05B0
:104F000061E0809124070E94500560E080912407B1
:104F10000E94500580E40E9491078AE00E94910758
:104F200088E10E94910761E0809124070E9450056A
:104F300010912507110F1E70106460E08091240706
:104F40000E945005812F0E94910780E00E949107E6
:104F500006E217E0BCE3EB2EB7E0FB2ED8018D9103
:104F60008D010E949107E016F106C1F761E0809182
:104F700024070E94500514E061E0812F0E949508EB
:104F800061E0812F0E945A0862E08CEF810F0E943D
:104F9000950862E084E0810F0E94950862E088E055
:104FA000810F0E9495081F5F183031F761E08FE094
:104FB0000E94950862E08EE00E9495080E944F0AC8
:104FC0000E944F0A0E944F0A0E944F0A81E080937C
:104FD0006C0461E085E00E947E0561E087E00E944C
:104FE0007E0561E086E00E947E0560E085E00E942B
:104FF000500560E087E00E94500560E086E00E9476
:10500000500590E080E00E94EF0262E082E10E94A1
:105010007E0562E083E10E947E0580E190E00E94CF
:10502000B031882309F40DC28FEF8093070161E04E
:1050300089E00E947E050E946F0688E494E09093C8
:10504000400380933F0383E593E090932E04809385
:105050002D0484E190E00E94B03190E090932C0404
:1050600080932B04E6EAEE2EE1E0FE2EF6E9CF2E49
:10507000F1E0DF2EA4EBAA2EA1E0BA2E01E060E061
:1050800089E00E945005F70111917F01612F609521
:10509000617085E00E94500511FB662760F960276A
:1050A00086E00E94500512FB662760F9602787E0C2
:1050B0000E9450058CB580628CBDD6018D916D012A
:1050C00080950E94910780E00E94910761E089E04D
:1050D0000E94500566E470E080E090E00E94DF05E9
:1050E000AE14BF0461F664E670E080E090E00E94D8
:1050F000DF0583E593E090930E0480930D04ECE1CB
:10510000F2E0E491F0E0EE0FFF1FE65FFD4F059146
:1051100014911093600300935F03E0E3F2E0F490D6
:10512000F0925E030E946F0661E088E00E947E05B7
:10513000F80182818F298283CE0101960E941F0986
:105140008981811180C18A81811186C18B81811100
:1051500083C18EEA92E00E94640360E4C62E64E09C
:10516000D62E3AE0632E712C47E0A42EB12C54E0E9
:10517000852E912C80916303882309F490C00E94AE
:105180007A10882309F48BC0809105078983809168
:1051900006078A83809107078B83809108078C8399
:1051A000809109078D8380910A078E8380910B0778
:1051B0008F8380910C07888780910D078987809164
:1051C0000E078A8780910F078B87809110078C8745
:1051D000EDE8F3E0A5E8B5E08C9111969C9111976C
:1051E0001296919387AF8DEC93E08E179F07A1F7EE
:1051F000CE010D960E9450148EE0FE013D96AFE068
:10520000B4E001900D928A95E1F740E450E060E04F
:1052100070E085E095E00E94841140E450E060E099
:1052200070E085E495E00E94841140E850E060E081
:1052300070E08DE893E00E94841140E450E060E06B
:1052400070E085E096E00E94841140E450E060E068
:1052500070E085E496E00E94841140E450E060E054
:1052600070E085E896E00E94841148E050E060E03C
:1052700070E0CE0101960E94841144E050E060E0AD
:1052800070E0CE0109960E94841140E450E060E095
:1052900070E085EC96E00E948411109263030E94F6
:1052A0004F0A1A8619868091680490916904892BA7
:1052B00089F180916404909165048F5F877090E01C
:1052C000FC01EE0FFF1FEC5AFB4FE080F180FA86E5
:1052D000E9869093650480936404809168049091BA
:1052E00069040197909369048093680487011127EA
:1052F000C70188279170003111050CF08EC2892BEF
:1053000009F488C280912A04813009F007C1C801DC
:105310000E94080F1092790310927803E0912B03FA
:10532000EE0FEE0FE0932B0386B190E0F4E095953D
:105330008795FA95E1F783709927E82BE0932B0383
:10534000EF70F0E0EA54FE4F8081082E000C990BBC
:105350000097F1F02091760330917703820F931F2D
:1053600090937703809376039C012D5F3F4F273006
:10537000310570F0181619060CF0B5C381E090E005
:1053800090937903809378031092770310927603B9
:105390004091070120917803309179034203C001C5
:1053A000439F900D1124009711F00E945C171091FB
:1053B0002A04812F8B7F09F099C380916B030E948F
:1053C000942480919F04882321F00E94A7030E94C7
:1053D000A40E85E197E00E94A409672B682B692B36
:1053E00009F4BCC440E050E0BA0185E197E00E94B6
:1053F0005E09E0914503F0914603C5018E1B9F0BAA
:1054000021E030E001C0220F8A95EAF7EE0FFF1F7E
:10541000EE0FFF1FDF01A05DBB4FEE0FFF1FE45338
:10542000FE4F45E050E060EF4150510909F4A8C338
:105430008D917081329601C0880F7A95EAF7680FD6
:10544000F3CF81E0F2CD8F3F39F48A818F3F21F491
:105450008B818F3F09F47DCECE0101960E94160606
:10546000613071058105914008F444C080E591E008
:105470000E94E103EF2CE0948981813011F5D8017D
:1054800012968C9112978E2112968C9380E897E158
:105490000E945206D8011296EC911297FE2A12969B
:1054A000FC928981803241F181E09981913031F51E
:1054B000982F94602D81211102C0982F9461892F1B
:1054C00020C0F80182818E21828386E00E949107AC
:1054D000D80112968C9112978F2912968C9312975D
:1054E00012968C9112978E2112968C9387EB0E94C4
:1054F0009107D0CF80E0D9CF89E0D7CF903251F457
:10550000826080936203CE0101960E941F090E946F
:10551000930E23CE9F3EA9F78062F3CF80916B0359
:10552000882309F41DC1083011050CF093C0043024
:1055300011050CF0EFCE80913A03882309F479C06D
:105540004091290450E09A01A4E0220F331FAA954C
:10555000E1F7C801B4E0880F991FBA95E1F7DC01C3
:10556000AB5BB94FF901EB5BF94F60E101900D9234
:105570006A95E1F7DC01AB5BBA4FF901EB5BFA4FDF
:1055800060E101900D926A95E1F7DC01AB5FBA4FE3
:10559000F901EB5FFA4F60E101900D926A95E1F736
:1055A000D80115E0AA0FBB1F1A95E1F7AB57BA4F08
:1055B000FA0105E0EE0FFF1F0A95E1F7EB57FA4FEE
:1055C00050E201900D925A95E1F7DC01AB5FB94FC3
:1055D000F901EB5FF94F40E101900D924A95E1F737
:1055E000DC01AB57B94FF901EB57F94F40E101909E
:1055F0000D924A95E1F7DC01AB53B94FF901EB533A
:10560000F94F80E101900D928A95E1F782EB92E0EB
:105610000E94640341E050E064E670E081E00E9493
:10562000770910923A03E09229048E2D0E946A0EA7
:1056300071CE1C821B828BE5898382E48A8381E39D
:105640008E0D8B83CE0101960E94640381E08093CE
:105650003A03E9CF0E301105F1F10F30110519F1C0
:105660000D30110509F072C00E94A40E81E08093F4
:105670002A040E941F0E80917F038150990B0E9483
:10568000080F8EEC92E00E94640380E1E8E0F1E014
:10569000A0E3B4E001900D928A95E1F761E080E02B
:1056A0000E94500537CE84E080932A0481E08093E5
:1056B0006A03809106018F3041F480E180930601F6
:1056C00086EB92E00E94640325CE8FE08093060172
:1056D0008AEB92E0F7CF8EEB92E00E9464030E9487
:1056E000B8041092290480E00E946A0E809182031F
:1056F0008F5F809382038330D1F030F4823009F0E1
:1057000009CE82EC92E0DECF8430A1F0853009F042
:1057100001CE0E94D50F90E080E00E94EF0210922F
:10572000820350E040E064E670E080E00CC086EC6C
:1057300092E0C8CF8AEC92E00E94640350E040E01F
:1057400064EF71E081E00E947709E4CD84E080930A
:105750002A04E092060190E080E00E945C17DACD16
:1057600080915D03882359F0E394E09219018E2D16
:1057700090E00E94EF0281E00E941517CBCD80914E
:105780006403882359F0E394E09219018E2D90E090
:105790000E94EF0281E00E949219BCCD0E94A40EEB
:1057A0008091290490E1899FD00111240A0F1B1FC9
:1057B00020918D0430918E04F801EB5FFA4F0217AF
:1057C000130731F0DF01A05CBE4F9C91911106C020
:1057D000E05CFE4F908121E09227908310938E042D
:1057E00000938D0490912A04911102C00E946A0EC8
:1057F0000E94B10D0E94A703E0918D04F0918E04E8
:10580000EB57F94F60818CB58F7D8CBD8FE00E9486
:105810005A0880CD10923A037DCDFF24F39400976F
:1058200009F4F12CF8017097E730F105B0F4E55E6A
:10583000F34D0C947B32222C322C852C892CB02CED
:105840004A2D8D2CF0926B03892B19F00E94A40E27
:1058500004C010923A0310928203F09253040E9403
:10586000E30258CD892BC9F380916B03882369F03B
:10587000E0E3F4E01192CE16DF06E1F7809129040F
:105880000E946A0E0E941C05E8CF80912A04813094
:1058900021F30E94A40EE0E3F4E01192CE16DF069D
:1058A000E1F7809129040E946A0E0091860310910D
:1058B0008703E0908C0381E0E826E0928C03E110FE
:1058C00006C060E080E00E94500510924A0340E06C
:1058D00050E0BA018CEF94E00E945E0980910205CD
:1058E0009091030590930105809300058091180124
:1058F000882309F4B2CFEE2009F4AFCFC8010E948B
:10590000AE0BC8010E94C624A8CF8F2D0E94151788
:10591000A4CF8F2D0E949219A0CF892B09F49DCF7F
:1059200080916B03882359F084E080932A048AE1F4
:105930008093060190E080E00E945C178ECFE0919A
:105940008D04F0918E04EB57F94F608181E0682758
:1059500060838CB58F7D8CBD8FE00E945A087DCF0F
:1059600020912A04213009F478CF20916B03211172
:1059700005C020913903222309F47FC0209138010A
:10598000892BA1F10091860310918703E22F022E4B
:10599000000CFF0BEB5BF94F81E080832093380311
:1059A000209334018091360390913703909335030F
:1059B00080933403809132039091330390933103A9
:1059C000809330038CEF94E00E94A40970932F031E
:1059D00060932E03C8010E94C62410924A0361E01E
:1059E00080E00E945005F092390337CFE0903803F1
:1059F0002E1927FF03C080910607280F009104018C
:105A00001091050140912E0350912F038091FC04C9
:105A10009091FD04A091FE04B091FF04840F951FA6
:105A2000A11DB11D2003A001219F500D1124841B35
:105A3000950BA109B10989839A83AB83BC83CE01FD
:105A400001960E94A4092E2D220F330BF901EB576A
:105A5000FA4F24E6269FA001279F500D1124CA016A
:105A6000B8010E9453326139A1E07A0710F060E971
:105A700071E07183608360E0B3CFF0925203F092E3
:105A80007A04892B11F410922D0310927C04F09269
:105A90007B04DCCE20912A04213009F4DECE209153
:105AA0006B03222329F084E080932A0485E140CF10
:105AB000892BB1F00E94A40E84E080932A0489E12E
:105AC0008093060190E080E00E945C17809186033D
:105AD00090918703F0922C036F2D0E941C08BDCE7D
