:100000000C94F0000C9445020C941E020C94180100
:100010000C9418010C9418010C9418010C941801FC
:100020000C9418010C9418010C9418010C941801EC
:100030000C9418010C9418010C9418010C941801DC
:100040000C94BD160C9418010C9418010C94180112
:100050000C9418010C9418010C9418010C941801BC
:100060000C9418010C941801E11BEF1B0B1C521C83
:100070007B1E9D1E5C1ECA03C2039C03A703B20322
:10008000C203CA03CC03CF03D9030000000023003E
:10009000260029000100010001000100010001000B
:1000A0000101000101000100010001010001010145
:1000B0000000010100010100010101010001010036
:1000C0000101010100010001010001000101010124
:1000D0000001010101010000010001000100000117
:1000E0000001010001000100000100010000010108
:1000F00000010100010001010001000101000100F7
:1001000001010001000100010101010101010101E2
:10011000010101010101524F4C0053545400524E51
:1001200044005354500046525A00474C4400545225
:1001300053004F4354005245560052455000574813
:100140004F00444F520050485200424C4D00424C28
:10015000550050454D0050454E004D494E004D4113
:100160004A004348520000000000240027002A00F3
:1001700000000000250028002B00040404040404EF
:100180000404020202020202030303030303010246
:100190000408102040800102040810200102040815
:1001A0001020000000080002010000030407000006
:1001B0000000000000003A01360132012E012A0140
:1001C000260122011E011A01160162015E015A0177
:1001D000560152014E014A01460142013E014025AD
:1001E00011241FBECFEFD8E0DEBFCDBF12E0A0E0EC
:1001F000B1E0E0EFF2E502C005900D92A036B10744
:10020000D9F726E0A0E6B2E001C01D92A330B20704
:10021000E1F710E0C0EFD0E004C02197FE010E949A
:10022000F626CF3ED107C9F70E9407170C9476290E
:100230000C9400000895CF92DF92EF92FF926091AC
:10024000C9037091CA03072E000C880B990B0E94FA
:100250003B286B017C016091940570E080E090E0A8
:100260000E9439289B01AC01C701B6010E94F02809
:1002700020E030E048EC52E40E9491270E940A28D6
:1002800070936E0260936D02FF90EF90DF90CF90BD
:10029000089581E08093750208952F923F924F92C6
:1002A0005F926F927F928F929F92AF92BF92CF9206
:1002B000DF92EF92FF920F931F93CF93DF9300D0C3
:1002C00000D000D0CDB7DEB76A017B0120E030E07E
:1002D00040EC52E4C701B6010E94EB2818166CF0FE
:1002E00020E030E0A901C701B6010E948C2787FFFA
:1002F0000AC0C12CD12C760106C0C12CD12C40ECF7
:10030000E42E42E4F42E20E030E040E451E4C70162
:10031000B6010E9491270E9403282B013C011B017A
:10032000C701B6010E940328CB016CE070E00E9477
:10033000E22601E010E01816190614F000E010E0C3
:10034000040D151DC201880F991FFC01E756FE4FD1
:10035000DC01A75DBE4F208131818D919C91280FDA
:10036000391F3E832D83B90180E090E00E94392837
:100370004B015C01F801EE0FFF1FDF01A756BE4FD6
:10038000E75DFE4F6D917C9180819181680F791FAF
:1003900080E090E00E94392869837A838B839C8374
:1003A0002016310681F1B201550C880B990B0E9481
:1003B0003B2820E030E040E451E40E94F0289B011B
:1003C000AC01C701B6010E941F276B017C01A5018A
:1003D000940169817A818B819C810E941F279B01F6
:1003E000AC01C701B6010E94F02820E030E040E4F3
:1003F00051E40E949127A50194010E9420270E94A8
:100400000A287E836D838D819E8126960FB6F8948F
:10041000DEBF0FBECDBFDF91CF911F910F91FF9037
:10042000EF90DF90CF90BF90AF909F908F907F9094
:100430006F905F904F903F902F9008951F920F9272
:100440000FB60F9211242F933F934F935F936F93A7
:100450007F938F939F93AF93BF93EF93FF93E0911D
:100460000201F09103010995FF91EF91BF91AF91C6
:100470009F918F917F916F915F914F913F912F91BC
:100480000F900FBE0F901F9018951F920F920FB6EE
:100490000F9211242F933F934F935F936F937F930A
:1004A0008F939F93AF93BF93EF93FF93E0910001DE
:1004B000F09101010995FF91EF91BF91AF919F914B
:1004C0008F917F916F915F914F913F912F910F90FD
:1004D0000FBE0F901F901895FC0180818F3119F489
:1004E0009181993859F1228190EF920F903128F043
:1004F00090EE920F963078F4265081E090E0A0E0E4
:10050000B0E0BC01CD0104C0660F771F881F991FA2
:100510002A95D2F70895811106C08181811113C0F7
:10052000211111C007C08F3F71F481818F3F59F4B1
:100530002F3F49F460E070E0CB01089560E070E087
:1005400080E091E0089560E070E080E190E008953F
:1005500008950CB405FC0DC09EBD00000DB407FE4F
:10056000FDCF9EB58EBD00000DB407FEFDCF8EB54C
:1005700008958EBD00000DB407FEFDCF8EB59EBD63
:1005800000000DB407FEFDCF9EB508958CBD9DBD46
:100590000895CF93CFB7F89480912503811127C098
:1005A000E4E8F1E08491E8E9F1E09491E82FF0E0EB
:1005B000EE0FFF1FEA59FE4FA591B491EC91E9238C
:1005C00021F461E08AE00E94FF1561E08AE00E9468
:1005D00047168CB580618CBD8CB580648CBD61E0A4
:1005E0008DE00E94471661E08BE00E9447168091E3
:1005F00025038F5F80932503CFBFCF910895CF93BD
:10060000DF93EC018093F2050E947C11FE01E65D10
:10061000FC4F81E08083FE01EE0FFF1FE75DFE4F80
:10062000808191810E94A0108CE08C9FB0018D9FF1
:10063000700D1124072E000C880B990B0E943B288B
:10064000AB01BC018091F0059091F1050E944D0134
:10065000BC0180E0DF91CF910C947110CF92DF92BA
:10066000EF92FF9280917302882359F08091930555
:10067000843039F48091940524E0829FC0011124D4
:1006800003C080918E0590E090930C0180930B0144
:1006900060910B0170910C01072E000C880B990BD7
:1006A0000E943B2820E030E048EC52E40E94912771
:1006B0006B017C016091C9037091CA03072E000C85
:1006C000880B990B0E943B289B01AC01C701B60126
:1006D0000E94F0280E940328709324036093230350
:1006E000FF90EF90DF90CF9008950F93FB018081F2
:1006F000811102C047FD0BC0840F081710F400835E
:1007000005C0821710F0808301C0208380810F9183
:1007100008950F931F93CF93DF93E09193050E2FCE
:1007200010E00A30110508F057C0462FEC01F8011F
:10073000E55CFF4F0C94F62608E020E064E975E0E4
:100740000E9475038091940590E0049748C008E1E9
:1007500020E064E975E00E9475038091940590E0C3
:100760000C973DC004E621E064E975E00E94750342
:10077000CE010E942E038091940524E0829FC00147
:1007800011242DC001E020E064E975E0CE010E9453
:10079000750322C000E101C002E321E0F5CF04E6C9
:1007A00021E064E975E00E947503CE010E941B01FF
:1007B00013C008E021E064E975E00E9475036091D0
:1007C000940570E08091C9039091CA030E94E226CB
:1007D0007093700260936F028091940590E0DF91B6
:1007E000CF911F910F91089520919105CB01820F18
:1007F000911D97FF02C080E090E08A30910514F0CF
:1008000089E090E080939105FC01EE0FFF1FE85412
:10081000FE4F60817181A4E6B3E020E030E0FB018F
:10082000E20FF31FE49141E0E11101C040E04D937C
:100830002F5F3F4F2D30310591F70895CF92DF9212
:10084000EF92FF92CF93DF93C091C903D091CA0377
:100850006091920570E080E090E00E9439286B0181
:100860007C01BE010D2E000C880B990B0E943B28C9
:100870009B01AC01C701B6010E94F02820E030E0E6
:1008800048E452E40E9491276B017C016093760258
:10089000709377028093780290937902BE01660F7D
:1008A000771F072E000C880B990B0E943B28A7018D
:1008B00096010E941F2760937A0270937B028093B7
:1008C0007C0290937D02DF91CF91FF90EF90DF90BB
:1008D000CF900895CF93DF93EC0180911401680FBE
:1008E000711D6B3F710534F4643171052CF464E1C2
:1008F00070E002C06AEF70E0262F6093140188E96F
:100900009AE30E94E2267093CC036093CB0380911C
:100910007E02882321F07093CA036093C903209359
:100920009505CE010E941E046091940570E08091AF
:10093000C9039091CA030E94E226709370026093EB
:100940006F02CE010E941B018091140190E0DF91A3
:10095000CF910895809109018F5F80930901082E3E
:10096000000C990B20918F0530E08217930714F04B
:100970001092090180917402811107C081E0809377
:10098000740261E082E00E94FF1580917302882367
:10099000D1F180919305811127C080910A01482FE0
:1009A000082E000C550B20916C0230E042175307C3
:1009B00061F490919405891B8F5F80930A0187FFF2
:1009C00026C090918F05890F20C08F5F80930A0108
:1009D000082E000C990B20918F0530E082179307A9
:1009E000B1F410920A0113C0813059F480910A01C8
:1009F000815080930A0187FF0AC080918F05815042
:100A000004C0853021F08091090180930A01909102
:100A10006B0280910A01992341F0E82F082E000C07
:100A2000FF0BE25FFA4F91E09083E82F082E000C55
:100A3000FF0BE25FFA4F9081992351F080931001F0
:100A400080912103909122039093200380931F03B0
:100A500081E080937F0208958EBD00000DB407FEF3
:100A6000FDCF8EB50895CF93DF9300D0CDB7DEB71D
:100A7000CE0101960E94E21189819A810E94C602EC
:100A8000E0916702F0916802928180916602809500
:100A90008923828380916A0281FF18C080E70E94C7
:100AA0002C0580E00E942C05E0916702F09168021D
:100AB000228190916602922B928387FFD9CF109268
:100AC00069020F900F90DF91CF91089585E00E9409
:100AD0002C0580E00E942C05E0916702F0916802ED
:100AE000228190916602922B928380FDC1CFE7CF45
:100AF0000F931F93CF93DF9300D0CDB7DEB78C0158
:100B00008091690281110E943305CE0101960E94F5
:100B1000E21189819A810E94C602E0916702F091F8
:100B200068029281809166028095892382838FE991
:100B30000E942C0580E00E942C05F801808380E053
:100B40000E942C05F801818380E00E942C05F801A9
:100B500082838081813051F480E00E942C05F8016D
:100B6000838380E00E942C05F8018483E091670272
:100B7000F0916802928180916602892B82830F90A6
:100B80000F90DF91CF911F910F910895FF920F93D6
:100B90001F93CF93DF93CDB7DEB727970FB6F894A7
:100BA000DEBF0FBECDBF8091690281110E94330567
:100BB000CE0101960E9478058981803209F066C0D5
:100BC0009B8180EE890F833008F060C0913211F470
:100BD00024E001C022E080916A02082F10E036E094
:100BE000159507953A95E1F78F7380936A0202177E
:100BF00008F07DC0923219F428E0F22E02C092E093
:100C0000F92ECE0106960E94E2118E819F810E94EC
:100C1000C602E0916702F0916802928180916602BB
:100C200080958923828386E00E942C05E0916702EB
:100C3000F0916802928180916602982B9283928152
:100C400080958923828384EC0E942C0580E0F09EAD
:100C5000902D11240E94A90280E090E00E94A90238
:100C6000E0916702F0916802928180916602892B7F
:100C700082830F5F1F4F86E0000F111F8A95E1F7F7
:100C800080916A02082B00936A022EC0CE0106965C
:100C90000E94E2118E819F810E94C602E09167024C
:100CA000F091680292818091660280958923828307
:100CB00086E00E942C05E0916702F0916802928123
:100CC00080916602982B92839281809589238283FA
:100CD00087EC0E942C05E0916702F09168029281F6
:100CE00080916602892B828383E080936902279634
:100CF0000FB6F894DEBF0FBECDBFDF91CF911F912D
:100D00000F91FF900895CF93DF9300D0CDB7DEB75A
:100D100080916902811102C081E042C0CE0101963A
:100D20000E94E21189819A810E94C602E0916702C5
:100D3000F091680292818091660280958923828376
:100D400080916A0281FF1AC080E70E942C0580E032
:100D50000E942C05E0916702F09168022281909137
:100D60006602922B928387FF1AC0109269028091CB
:100D70006A02807C89F20E94C60511C085E00E944B
:100D80002C0580E00E942C05E0916702F09168023A
:100D9000228190916602922B928380FFE6CF80E0C1
:100DA0000F900F90DF91CF9108952F923F924F9225
:100DB0005F926F927F928F929F92AF92BF92CF92EB
:100DC000DF92EF92FF920F931F93CF93DF9300D0A8
:100DD00000D000D0CDB7DEB76B837C838D839E833C
:100DE0001A01480159018091690281110E9433055D
:100DF000CE0101960E94E21189819A810E94C60269
:100E0000E0916702F091680292818091660280957C
:100E10008923828386E00E942C05E0916702F0918D
:100E20006802928180916602982B928340E051E0A3
:100E300060E070E02B81421B510961097109750165
:100E40006401481559056A057B0510F46A017B01A8
:100E5000928180958923828380916A022B813C81D3
:100E60004D815E812A016624772480FF05C082E0DF
:100E70000E942C05C20103C0C201992792600E9402
:100E8000A9028B819C810E94A9028B819C81AD81EA
:100E9000BE818C0D9D1DAE1DBF1D8B839C83AD83BC
:100EA000BE838C189D08AE08BF088101260137015A
:100EB000D8018D918D010E942C05B1E04B1A51088B
:100EC00061087108A9F7E1E0CE1AD108E108F1083C
:100ED000FFEFCF1ADF0A2C0C3D1CE0916702F09166
:100EE0006802928180916602892B828324E020939C
:100EF000690281149104A104B10409F074CF26960B
:100F00000FB6F894DEBF0FBECDBFDF91CF911F911A
:100F10000F91FF90EF90DF90CF90BF90AF909F9098
:100F20008F907F906F905F904F903F902F9008959B
:100F30002F923F924F925F926F927F928F929F92E9
:100F4000AF92BF92CF92DF92EF92FF920F931F93D7
:100F5000CF93DF93CDB7DEB728970FB6F894DEBFF7
:100F60000FBECDBF6B017C011A0148015901A801D8
:100F700060E070E0C1010E945D2900916A02CE012B
:100F800001960E94E21189819A810E94C602109105
:100F90006902112309F483C0E0916702F0916802AD
:100FA00092818091660280958923828380916A0272
:100FB00081FF0AC080E70E942C0580E00E942C057A
:100FC00087FF0AC010E008C085E00E942C0580E081
:100FD0000E942C0580FFF6CFE0916702F091680235
:100FE000928180916602982B9283111103C0109216
:100FF000690255C0133008F047C09281809589235B
:10100000828386E00E942C05E0916702F0916802DD
:10101000828190916602892B828302FF02C0113087
:1010200011F085E701C085E8228190959223928393
:101030000E942C05E0916702F091680292818091F4
:101040006602982B9283809592818923828301FF87
:1010500009C080E70E942C0580E00E942C0587FFD4
:10106000FBCF08C085E00E942C0580E00E942C0583
:1010700080FDFBCFE0916702F09168029281809140
:101080006602892B82830BC00E943305CE01019634
:101090000E94E21189819A810E94C60210E0802F8D
:1010A00088708F83902F91709887AF81AA2311F158
:1010B000D701C601880D991DAA1DBB1D0197A10965
:1010C000B1098C259D25AE25BF2588279927AA27FC
:1010D000BE7F892B8A2B8B2B69F0D701C601B1709B
:1010E000412C512C612C22E0722E481A590A6A0AAE
:1010F0007B0A02C024013501E0916702F091680289
:10110000928180916602809589238283C701AA27F4
:10111000BB278B839C83AD83BE839885992331F055
:1011200083E00E942C058B819C8104C08B819C8173
:10113000992793600E94A902C6010E94A902920108
:1011400041145104C1F0D1018C918EBDF101C20155
:10115000019741F051810DB407FEFDCF4EB55EBD44
:101160004193F6CFF9013197E20DF31D0DB407FE5F
:10117000FDCF8EB58083E0916702F0916802928185
:1011800080916602982B9283220E331EC40CD51CCC
:10119000E61CF71C84189508A608B70809F085CF47
:1011A000112331F1928180958923828386E00E9408
:1011B0002C05E0916702F0916802828190916602AD
:1011C000892B828302FF04C0113011F48AE801C028
:1011D0008AE722819095922392830E942C05E091C8
:1011E0006702F0916802928180916602892B828366
:1011F00028960FB6F894DEBF0FBECDBFDF91CF911A
:101200001F910F91FF90EF90DF90CF90BF90AF9024
:101210009F908F907F906F905F904F903F902F9016
:1012200008950F931F93CF93DF93CDB7DEB7289721
:101230000FB6F894DEBF0FBECDBF08E010E020E08F
:1012400030E0AE014F5F5F4F60E070E0CB010E9485
:10125000980789819A81AB81BC818C3425E59207FE
:1012600026E9A2072AEFB207F1F18F3F9F4FAF4F58
:10127000BF4F21F060E070E0CB0139C08CE495E510
:10128000A6E9BAEF89839A83AB83BC8388E592E0B1
:10129000A6EFB8E18D839E83AF83B88708E010E0A6
:1012A00020E030E0AE014F5F5F4F60E070E0CB01C7
:1012B0000E94D5060E9483068823E1F308E010E02F
:1012C00020E030E0AE014F5F5F4F60E070E0CB01A7
:1012D0000E94980789819A81AB81BC818C349545A5
:1012E000A649BA4F39F66D817E818F8198852896FF
:1012F0000FB6F894DEBF0FBECDBFDF91CF911F9127
:101300000F9108950F931F93CF93DF9309E211E09C
:10131000C0E0D0E0CE010E94592690E084569109A9
:101320009C0197FF04C022273327281B390BF801A3
:10133000243631051CF49183808302C0118210820F
:1013400021960E5F1F4FC930D10521F7DF91CF9154
:101350001F910F910895CF92DF92EF92FF920F931A
:101360001F93EFB7F8940091DA051091DB052091F7
:10137000DC053091DD05EFBF68017901C41AD50A9B
:10138000E60AF70AFC01C082D182E282F3821F9151
:101390000F91FF90EF90DF90CF9008954091CB0395
:1013A0005091CC0360E070E085EC93E00E94AB09C3
:1013B0008FEF8093090180930A0110927F0281E0F0
:1013C0008093060108950F931F93FC012FB7F894A3
:1013D0008091DA059091DB05A091DC05B091DD05E7
:1013E0002FBF0081118122813381BC01CD01601B9F
:1013F000710B820B930B1F910F910895CF93DF9385
:1014000000D000D0CDB7DEB780910A01082E000CC5
:10141000990B9C01261B370B37FF07C020918F05C6
:10142000820F911D9C01261B370B8091C90390915F
:10143000CA03289FA001299F500D389F500D1124E9
:10144000052E000C660B770B8091C5039091C603A7
:10145000A091C703B091C803841B950BA60BB70BD3
:1014600089839A83AB83BC83CE0101960E94E309F2
:10147000CB010F900F900F900F90DF91CF910895B7
:101480008F929F92AF92BF92CF92DF92EF92FF9294
:10149000CF93DF9340917302442309F469C02091F4
:1014A0009305263009F064C0209172022111E9C031
:1014B00060916C0270E00E94FE09EC01209194059D
:1014C0008091C9039091CA03289FB001299F700D94
:1014D0001124072E000C880B990B0E943B286B01EE
:1014E0007C016091210370912203072E000C880B70
:1014F000990B0E943B284B015C01BE01DD0F880B5C
:10150000990B0E943B289B01AC01C701B6010E94C8
:101510001F279B01AC01C501B4010E94F028A7015F
:1015200096010E9491276B017C0120E030E040E8A9
:101530005FE30E948C27881F8827881F8093720290
:10154000B701A60180916202909163020E944D0151
:10155000BC0180E00E94711080917202882309F41E
:1015600090C060E080E00E94FF151092710289C077
:1015700060911001062E000C770B9B0122533C4F0B
:10158000F901E05CFE4F5081552329F0E05CFF4FEC
:101590002081211108C0442309F473C020919305D0
:1015A000243009F06EC00E94FE09C0912303D0913F
:1015B00024038C179D070CF047C010927202AE01F5
:1015C000481B590B20911F0330912003429FB0010B
:1015D000439F700D529F700D112440912103509133
:1015E0002203849F9001859F300D949F300D11241C
:1015F000620F731F072E000C880B990B0E943B286B
:101600006B017C01BE01DD0F880B990B0E943B280A
:101610009B01AC01C701B6010E949127AB01BC013F
:1016200080916202909163020E944D01BC0180E0B2
:10163000DF91CF91FF90EF90DF90CF90BF90AF9070
:101640009F908F900C94711080917202811119C03B
:101650006091210370912203072E000C880B990BD7
:101660000E943B28AB01BC01809162029091630211
:101670000E944D01BC0180E00E94711081E08093C6
:101680007202DF91CF91FF90EF90DF90CF90BF90EB
:10169000AF909F908F900895CF92DF92EF92FF923C
:1016A000CF93DF93EC01E0910A010E2E000CFF0BAB
:1016B000E25FFA4F808190917302882309F43EC162
:1016C0009923F1F0809193058630D1F4CE010E94E8
:1016D000400A8091720281113EC1E09110010E2EEC
:1016E000000CFF0BE25FFA4F60810E94FF15E09152
:1016F00010010E2E000CFF0BE25FFA4F808129C112
:1017000010927202E09110010E2E000CFF0BE253BA
:10171000FC4F8081282F880F330B30931E032093BA
:101720001D0310921C0310921B03992389F18091D1
:101730009305873061F40E940D266091940570E056
:101740000E94E22620911D0330911E0306C08330C3
:10175000F9F48091940590E00C97820F931F8D30DF
:1017600091051CF021E030E005C08C30910531F08E
:101770002FEF3FEF30931C0320931B030C9668E17F
:1017800070E00E94E2260C9790931E0380931D0345
:1017900080911D0390911E039C0197FF02C0245F5E
:1017A0003F4FF901EC59FC4F2081211111C09C01E0
:1017B00097FF02C0245F3F4FF901E555FE4F20819E
:1017C000820F911D27FD9A9590931E0380931D0310
:1017D00080911001082E000C990B82539C4FFC0144
:1017E000E05CFF4F4081042E000C550B4D5F5F4FB6
:1017F0006CE0649FF001659FF00D112420911D03A2
:1018000030911E032E0F3F1F40919605240F311D6E
:1018100047FD3A95E0911B03F0911C036E9FA001D8
:101820006F9F500D1124240F351F309322032093F6
:101830002103409173024423A1F04091930542306B
:1018400081F44091940550E044505109649FF001A7
:10185000659FF00D11242E0F3F1F3093220320931C
:101860002103FC01E058FE4F8081882321F0CE0146
:101870000E94400A16C06091210370912203072E36
:10188000000C880B990B0E943B28AB01BC01809196
:101890006202909163020E944D01BC0180E00E94AF
:1018A0007110E09110010E2E000CFF0BE25FFA4F59
:1018B000608180E00E94FF1580911001082E000CCD
:1018C000990B82539C4FFC01E05CFE4F20812093DA
:1018D0007102E054F109608188E26802B0011124CC
:1018E00081E00E947110E0911001EE0FFF0BE25BAE
:1018F000FB4F6081718180E090E00E94392820E0F8
:1019000030E048EC52E40E9491276B017C01609129
:10191000C9037091CA03072E000C880B990B0E9413
:101920003B289B01AC01C701B6010E94F0280E9430
:101930000A2870930801609307010DC0992359F09C
:1019400080919305883039F461E080E00E94FF15B2
:1019500081E080937102DF91CF91FF90EF90DF9053
:10196000CF900895CF93DF9320916303222309F44E
:1019700048C0EC0181ED95E00E94E3096A307105F1
:101980008105910550F42091BD053091BE058881F7
:101990009981992782179307A1F180916103909112
:1019A00062030897F0F420915F03309160032F5F8A
:1019B0003F4F2770332788819981F901EE0FFF1F70
:1019C000E35BFC4F918380833093600320935F033C
:1019D00080916103909162030196909362038093DA
:1019E00061038881998199279093BE058093BD05F5
:1019F00040E050E0BA0181ED95E0DF91CF910C9489
:101A0000AB09DF91CF910895CF93DF938631F8F43E
:101A1000C82FD091A605D770DD0FD06460E080910B
:101A2000A5050E94FF158D2F0E942C058C2F0E946A
:101A30002C05EC2FF0E0ED55FA4F84810E942C0527
:101A400061E08091A505DF91CF910C94FF15DF91A6
:101A5000CF9108950F931F93CF93DF93D82F03EA6D
:101A600015E0F801C381C770CC0FC16460E08281CA
:101A70000E94FF158C2F0E942C058D2F0E942C0593
:101A80008FEF0E942C05ED2FF0E0ED55FA4F848387
:101A900061E0F8018281DF91CF911F910F910C9449
:101AA000FF15AC01440F551FFA01E65DFD4F208183
:101AB0002E3008F02E506091110130E4639FB00188
:101AC00011242770262B20937C0020917A0020641B
:101AD00020937A0020917A0026FDFCCF2091780097
:101AE0006091790030E0362BFA01E753FA4F3183E9
:101AF000208310927C03FA01EF53FA4F60817181C9
:101B0000F901E61BF70BBF01F7FF03C07195619563
:101B10007109E0911201F0911301E617F7070CF03B
:101B2000F0C0FA01EF53FA4F3183208320917B03F9
:101B3000222309F4E6C08130910509F450C01CF459
:101B4000892B51F008958230910509F46DC08330DE
:101B5000910509F495C008956091C9057091CA0571
:101B60001092780310927703072E000C880B990BC4
:101B70000E943B2826E636E648E252E40E9491277E
:101B80002AE939E941E451E40E941F270E94032811
:101B9000AB01209176032111A3C09B0177FF02C006
:101BA000245F3F4FF901EC59FC4F2081222309F4B7
:101BB000A8C020917303222319F0E091100102C004
:101BC000E0917103F0E0E253FC4F2081022E000C03
:101BD000330B60834217530709F082C008952091A8
:101BE000CB053091CC059093780380937703C9019E
:101BF00068E770E00E94E2266450710980917603E4
:101C000081116EC0962F80917303882319F0E091A3
:101C1000100102C0E0917103F0E0E25FFB4F8081B0
:101C2000608398135DC00895A091CD05B091CE0555
:101C300090937803809377039D010E94FC2627E30D
:101C40003AE040E050E00E946F26809176038111D7
:101C50004CC0B90180917303882319F0E091100101
:101C600002C0E0917103F0E0EE0FFF1FE25BFB4F5B
:101C7000808191813183208368177907B1F50895B8
:101C80006091CF057091D00590937803809377038E
:101C9000072E000C880B990B0E943B2824E13EEA9A
:101CA00043E251E40E9491270E940328CB01209136
:101CB000760321111FC020917303222319F0E091B4
:101CC000100102C0E0917103F0E0E253FB4F20816C
:101CD000022E000C330B60838217930759F408958A
:101CE00070937A036093790309C030937A03209349
:101CF000790304C070937A036093790381E0809341
:101D00007C0308958091BF059091C00501968430B1
:101D100091052CF49093C0058093BF0504C01092E8
:101D2000C0051092BF058091BF059091C005FC01D0
:101D3000EE0FFF1FEE5DFD4F40917703509178034A
:101D4000208131814217530719F424E030E002C0AA
:101D50002AE030E030931301209312010C94510DCE
:101D600080917703909178038130910589F01CF47C
:101D7000892B39F008958230910589F00397D1F0CD
:101D80000895E0917103F0917203E253FC4F18C083
:101D9000E0917103F0917203E25FFB4F11C0E0919B
:101DA0007103F0917203EE0FFF1FE25BFB4F808126
:101DB00091810AC0E0917103F0917203E253FB4FED
:101DC0008081082E000C990B90937A0380937903FD
:101DD00081E080937C030895982F883028F09850F4
:101DE00085E17DE0E1E003C084E17CE0E0E0492FB3
:101DF000F0E0ED55FA4F248130E002C0359527958B
:101E00009A95E2F720FD1EC0282F30E061110DC029
:101E1000F901ED55FA4F21E030E001C0220F4A955B
:101E2000EAF72095948129230BC0F901ED55FA4F6B
:101E300021E030E001C0220F4A95EAF79481292B76
:101E4000248311C0611111C0E72FF0E0ED55FA4F66
:101E500021E030E001C0220F4A95EAF72095848105
:101E600028232483872F0C94040DE72FF0E0ED55F1
:101E7000FA4F21E030E001C0220F4A95EAF7848151
:101E8000282BEFCFAF92BF92CF92DF92EF92FF92CB
:101E90000F931F93CF93DF9300D0CDB7DEB78CB5F0
:101EA0008F7D8CBD8091BF039091C00301968430DB
:101EB00091052CF49093C0038093BF0304C010924B
:101EC000C0031092BF038091BF038C5F803118F470
:101ED00060E00E94EC0E82E10E942A0D83E10E94E4
:101EE0002A0D8091B9059091BA059093C203809311
:101EF000C10300E010E0EE24E394F12CE091BF0375
:101F0000F091C003EE0FFF1FEE0FFF1FE00FF11F58
:101F1000EE0FFF1FE358FC4F608171812091C103D8
:101F20003091C2032F703327A701002E02C0440F47
:101F3000551F0A94E2F7242335233093C4032093DA
:101F4000C303002E02C0369527950A94E2F791E06C
:101F5000232B09F090E0FB01E358FC4F80A1981778
:101F600069F090A3892F90E0982F8827862B972BD4
:101F70009A838983CE0101960E94B20C0F5F1F4F96
:101F80000430110509F0BACF8091BF038C5F803116
:101F900018F461E00E94EC0E8091C1039091C2039D
:101FA00080959095892F99278F7799279093C403CF
:101FB0008093C3036DE7E62E63E0F62E74E1C72E2F
:101FC00072E0D72E00E010E0AA24A394B12C8091F7
:101FD000C3039091C4039501002E02C0220F331F4A
:101FE0000A94E2F72823392391E0232B09F490E0A7
:101FF000F70182A9981791F092ABF6012081318107
:10200000285F3F4F892F90E0982F8827822B932BB2
:102010009A838983CE0101960E94B20C0F5F1F4FF5
:10202000FFEFEF1AFF0A82E0C80ED11C073011053E
:1020300071F60F900F90DF91CF911F910F91FF904C
:10204000EF90DF90CF90BF90AF9008950F931F93C4
:10205000CF93DF93982F162F883020F098500DE003
:1020600081E002C00CE080E0113021F090F01230ED
:1020700099F50FC0E82FF0E0ED55FA4F21E030E080
:1020800001C0220F9A95EAF7209594812923248391
:102090001DC0E82FF0E0C1E0D0E001C0CC0F9A9560
:1020A000EAF7ED55FA4F94819C2B94830E94040D1E
:1020B000E02FF0E0ED55FA4F123019F48481C82B6F
:1020C00003C0C0958481C823C483802FDF91CF9142
:1020D0001F910F910C94040DDF91CF911F910F91DF
:1020E00008950F931F93CF938B016115704110F0EA
:1020F0000FEF1FE0C82FC795CC27C795C061C12B34
:102100008CB58F7D8CBD60E081E00E94FF158C2F27
:102110000E942C05802F0E942C0561E081E0CF9168
:102120001F910F910C94FF1590910F0180914A031C
:10213000992311F0816001C08E7F80934A03089536
:102140000F931F93CF93DF939C0180910D0190918A
:102150000E018217930709F464C030930E01209397
:102160000D01890137FF04C000271127021B130B43
:10217000CAE0D0E0C801BE010E94E226FC019093B3
:10218000470380934603CB01BE010E94E226909351
:1021900045038093440337FF03C085E290E012C0FB
:1021A000C9018D599F4F873C910550F0C80164E6E5
:1021B00070E00E94E226CB01BE010E94E22602C02E
:1021C00084E290E09093430380934203275F3F4F64
:1021D0002331310530F484E290E0909345038093FD
:1021E0004403A0914203B0914303A451BE4F8C918C
:1021F000809580934C03A0914403B0914503A45172
:10220000BE4F8C91809580934B03E451FE4F8081AB
:10221000809580934A03DF91CF911F910F910C9489
:102220009410DF91CF911F910F910895DC0187EEFB
:1022300093E090930E0180930D014C91042E000CBD
:10224000550B47535109E2E4F3E051834083119663
:102250002C911197022E000C330B27533109338335
:10226000228312968C91082E000C990BC7979583A8
:102270008483EAE4F3E0DA01A451BE4F4C91409527
:102280004283D901A451BE4F2C9120952183DC01BA
:10229000A451BE4F8C91809580830C9494100F9321
:1022A0001F93CF93DF938B01EA018093410340E0BA
:1022B00050E0BA018FE995E00E94AB09109340030A
:1022C00000933F03D0933E03C0933D03DF91CF9132
:1022D0001F910F910895E0913B03F0913C03E65D5F
:1022E000FC4F908181E08927808340E050E0BA0173
:1022F00087E995E00C94AB09EAE2F3E0119283E000
:10230000EA33F807D9F708958093280320E1829FE4
:10231000C0011124FC01E25FFA4F20E1AAE2B3E020
:1023200001900D922A95E1F720917103309172038B
:102330002817390724F04096821793073CF480E170
:1023400090E090933C0380933B0308952F703327D4
:1023500030933C0320933B0308953FB7F89480915A
:10236000F7059091F805A091F905B091FA0526B509
:10237000A89B05C02F3F19F00196A11DB11D3FBFBD
:10238000BA2FA92F982F8827820F911DA11DB11D4B
:10239000BC01CD0142E0660F771F881F991F4A9547
:1023A000D1F708951092F5050E947C118091F405F3
:1023B0000E9484110E94B00E8091790390917A035B
:1023C0000C94A01020E5FC01208321E021830895D6
:1023D000EF92FF920F93CF93DF93BC01C091F5056D
:1023E000C13041F5C091F205D0E09E01220F331FAC
:1023F000F901E75DFE4F80819181680F791FCB0164
:102400008D599F4F873C910510F471836083F901CA
:10241000E75DFE4F808191810E94A010C930D105F7
:102420000CF037C1CE01DF91CF910F91FF90EF906B
:102430000C94FF028EEF8C0F8230A0F480913C014F
:10244000680F19F060933C0103C083E680933C0160
:1024500080913C01843618F081E080933C018091AA
:102460003C01EFC0C43009F007C180913B018A30C4
:10247000A1F48091EE059091EF050E94F403880F7E
:10248000991FFC01E653FE4F659174918FEF95E023
:102490000E941D268FEF95E041C0853109F045C0AF
:1024A000E090EE05F090EF0508E020E0462F63E9AC
:1024B00075E0C7010E94750380919305843079F01F
:1024C00030F4882379F08230A9F485E011C0883097
:1024D00061F0893061F0863069F488E009C080914C
:1024E0008E0506C0C093940505C080E501C082E05A
:1024F0008093940560E070E0C7010E948903E09139
:102500009305F0E0EE0FFF1FEA54FE4F65917491C2
:102510008BEF95E00E941D268BEF95E0DF91CF9128
:102520000F91FF90EF900C9416118B3009F453C06B
:1025300030F4883009F4A0C0893089F09AC089311C
:1025400039F08A3109F463C08C3009F092C07BC045
:102550008091EE059091EF050E94890393C08091D0
:10256000ED0520918F05882311F161157105F9F0B2
:1025700030E0A3E3B2E041E050E0CA01ED910E2E5D
:10258000000CFF0BE217F3072CF44F5F5F4F47304F
:10259000510599F71616170614F4019601C0019714
:1025A000FC01EE5CFD4F808180938F050FC0620FB0
:1025B000711D6134710534F4161617062CF061E0B4
:1025C00070E002C060E470E060938F0580918F0539
:1025D0008093CD0336C08091EE059091EF05209158
:1025E0009205620F711D6B35710534F46A30710507
:1025F0002CF46AE070E002C06AE570E06093920536
:1026000060E070E00E946A04809192051AC0809197
:10261000EE059091EF0520918E05620F711D6F3FC1
:10262000710509F034F4161617062CF061E070E01D
:1026300002C06FEF70E060938E050E942E038091C0
:102640008E0590E01FC0809196059B01280F311DDB
:1026500087FD3A95C9018C3D3FEF930714F48CED4B
:102660009FEF8532910514F084E290E08093960507
:1026700009C080E090E006C08091EE059091EF05E2
:102680000E946A04DF91CF910F91FF90EF900C941C
:10269000A010DF91CF910F91FF90EF900895CF920E
:1026A000DF92EF92FF920F931F93FC016A017B016F
:1026B0004091E7055091E8056091E9057091EA05C0
:1026C0000091E3051091E4052091E5053091E605C0
:1026D000DB01CA018C0D9D1DAE1DBF1D081719071A
:1026E0002A073B0758F4401751076207730780F524
:1026F00068017901C41AD50AE60AF70A0091DF05D4
:102700001091E0052091E1053091E205CB01BA017D
:10271000600F711F821F931F97018601AF010E94F6
:1027200098078091E7059091E805A091E905B0919F
:10273000EA058C0D9D1DAE1DBF1D8093E70590938E
:10274000E805A093E905B093EA05B601C70104C006
:1027500060E070E080E090E01F910F91FF90EF90BB
:10276000DF90CF9008952F923F924F925F926F9299
:102770007F928F929F92AF92BF92CF92DF92EF9211
:10278000FF920F931F93CF93DF93CDB7DEB7C25461
:10279000D1090FB6F894DEBF0FBECDBF9AAB89AB9F
:1027A0008EE0A9A9BAA91D928A95E9F70E9411099C
:1027B000611571058105910509F430C19B01AC01DA
:1027C000442755272BAB3CAB4DAB5EABE5E1F1E0CD
:1027D00065EC7DE98CE191E82191222391F0022FB3
:1027E000220F110B220B330BA90198012627372743
:1027F0004827592763E971E080E091E00E94D226E2
:10280000EBCF2EEF3FEF40E050E00E94A126DC012D
:10281000CB010196A11DB11D9EAF8DAFA3E0B0E02D
:102820002BA93CA94DA95EA90E948E2669AF7AAF5B
:102830008BAF9CAFC12CD12C7601DA01C901049673
:10284000A11DB11D23968CAF9DAFAEAFBFAF239737
:102850002BA93CA94DA95EA9C216D306E406F5062C
:1028600008F0DCC049015A018C189D08AE08BF0869
:1028700038E083169104A104B10428F0F8E08F2E0B
:10288000912CA12CB12CD701C6010496A11DB11D1C
:10289000BC01CD01660F771F881F991F9501840128
:1028A000000F111F221F331FAE014F5E5F4F0E94AA
:1028B0009807AE014F5E5F4F58AF4FAB1DA61EA6E7
:1028C0001FA618AA8DA59EA5AFA5B8A9881699061A
:1028D000AA06BB0609F49DC0AFA9B8AD8D919D9124
:1028E000B8AFAFABEDADFEAD8E179F0709F069C075
:1028F00019A61AA61BA61CA6A5E0B0E02DA53EA50C
:102900004FA558A92C0D3D1D4E1D5F1D0E948E2602
:1029100023962CAD3DAD4EAD5FAD2397260F371FEF
:10292000481F591FCA01B901660F771F881F991FD9
:102930000AE010E020E030E0AE014F5D5F4F0E9402
:10294000980749A45AA46BA47CA432E0430E511CFE
:10295000611C711C89AD9AADABADBCAD480E591E62
:102960006A1E7B1E32E0440C551C661C771C3A958F
:10297000D1F745E1242E41E0342E00E110E020E0C3
:1029800030E0AE014F5F5F4FC301B2010E94980774
:1029900090E1490E511C611C711CFE0131969101A0
:1029A000205F3F4FC1010196DC0111974C9151917D
:1029B000451309C04423A1F019018217930799F721
:1029C000DCCF019659F12DA53EA54FA558A92F5F43
:1029D0003F4F4F4F5F4F2DA73EA74FA758AB72CF2A
:1029E00089A19AA1ABA1BCA1E9A9FAA9808391838D
:1029F000A283B3838DA19EA1AFA1B8A58483958343
:102A0000A683B7832DA53EA5C20ED31ED586C48648
:102A100005C0C80CD91CEA1CFB1C1ACF89A99AA9AD
:102A2000CE5BDF4F0FB6F894DEBF0FBECDBFDF9198
:102A3000CF911F910F91FF90EF90DF90CF90BF90BB
:102A4000AF909F908F907F906F905F904F903F904E
:102A50002F900895CF93DF9300D01F92CDB7DEB7AC
:102A60004AE0BE016F5F7F4F0E94242684E1E5E1CA
:102A7000F1E0DF011D928A95E9F7BE016F5F7F4F9C
:102A8000CF010E946F296AE572E085E191E00E9422
:102A9000642985E191E00F900F900F90DF91CF9125
:102AA0000895CF93DF93CDB7DEB72E970FB6F89486
:102AB000DEBF0FBECDBFCE0101960E94B31381E0F1
:102AC00049815A816B817C81452B462B472B09F428
:102AD00080E02E960FB6F894DEBF0FBECDBFDF911B
:102AE000CF910895CF92DF92EF92FF920F931F93B1
:102AF000FC016A017B014091E7055091E805609176
:102B0000E9057091EA050091E3051091E405209133
:102B1000E5053091E605DB01CA018C0D9D1DAE1D5A
:102B2000BF1D081719072A073B0758F4401751071C
:102B30006207730780F568017901C41AD50AE60AAD
:102B4000F70A0091DF051091E0052091E105309131
:102B5000E205CB01BA01600F711F821F931F97011D
:102B60008601AF010E94D5068091E7059091E805A6
:102B7000A091E905B091EA058C0D9D1DAE1DBF1D0C
:102B80008093E7059093E805A093E905B093EA05E3
:102B9000B601C70104C060E070E080E090E01F91E2
:102BA0000F91FF90EF90DF90CF900895833081F0E8
:102BB00028F4813099F08230A1F008958730A9F08F
:102BC0008830B9F08430D1F4809180008F7D03C0CB
:102BD000809180008F7780938000089584B58F77EF
:102BE00002C084B58F7D84BD08958091B0008F7739
:102BF00003C08091B0008F7D8093B00008951F9333
:102C0000CF93DF93282F30E0F901EE55FE4F8491EA
:102C1000F901E257FE4FD491F901E658FE4FC491F5
:102C2000CC23C1F0162F81110E94D615EC2FF0E0B5
:102C3000EE0FFF1FE059FE4FA591B4919FB7F89496
:102C4000111104C08C91D095D82302C0EC91DE2BD9
:102C5000DC939FBFDF91CF911F9108958091F5057F
:102C60009FEF980F943088F4813021F460E080E089
:102C70000E94FF150E94D21141E050E064E670E02E
:102C800081E00E944F1181E0089580E00895CF9384
:102C9000DF9390E0FC01E257FE4F2491FC01E658DF
:102CA000FE4F8491882361F190E0880F991FFC0109
:102CB000EA59FE4FC591D491FC01E059FE4FA59110
:102CC000B491611109C09FB7F8948881209582233F
:102CD0008883EC912E230BC0623061F49FB7F89487
:102CE0008881322F309583238883EC912E2B2C936F
:102CF0009FBF06C08FB7F894E8812E2B28838FBF23
:102D0000DF91CF9108958F929F92AF92BF92CF9211
:102D1000DF92EF92FF926B017C010E94AD114B019B
:102D20005C01C114D104E104F104F1F00E94AD1181
:102D3000DC01CB0188199909AA09BB09883E934097
:102D4000A105B10570F321E0C21AD108E108F1082C
:102D500088EE880E83E0981EA11CB11CC114D1041A
:102D6000E104F10419F7DDCFFF90EF90DF90CF90F1
:102D7000BF90AF909F908F9008951F920F920FB6C3
:102D80000F9211242F933F938F939F93AF93BF93F1
:102D90008091DA059091DB05A091DC05B091DD050D
:102DA0003091F60523E0230F2D3720F40196A11D65
:102DB000B11D05C026E8230F0296A11DB11D209369
:102DC000F6058093DA059093DB05A093DC05B093BC
:102DD000DD058091F7059091F805A091F905B09176
:102DE000FA050196A11DB11D8093F7059093F80592
:102DF000A093F905B093FA05BF91AF919F918F9180
:102E00003F912F910F900FBE0F901F901895CF9369
:102E1000DF93CDB7DEB7C254D1090FB6F894DEBF49
:102E20000FBECDBF789484B5826084BD84B58160C7
:102E300084BD85B5826085BD85B5816085BD809185
:102E40006E00816080936E001092810080918100FD
:102E500082608093810080918100816080938100F5
:102E6000809180008160809380008091B1008460B7
:102E70008093B1008091B00081608093B000809118
:102E80007A00846080937A0080917A0082608093D7
:102E90007A0080917A00816080937A0080917A0034
:102EA000806880937A001092C1001092110181E82D
:102EB00092E00E94820981E892E0909363028093FD
:102EC000620280E892E090936102809360028EEC4F
:102ED00094E0EEE4F4E020E530E0219331938E17A6
:102EE0009F07D9F761E080E00E94471661E082E029
:102EF0000E94471662E083E00E94471662E084E089
:102F00000E94471689E491E09093030180930201A7
:102F100080916900837F886080936900E99A1092AC
:102F2000910580918F058093CD0360E070E08AE188
:102F300093E00E94F40360E070E08AE193E00E9475
:102F40006A048AE193E00E942E0361E08AE00E9415
:102F5000471661E089E00E94471661E088E00E9420
:102F6000471661E081E00E94471661E08AE00E9416
:102F7000FF1561E089E00E94FF1561E088E00E9492
:102F8000FF1561E081E00E94FF1581E892E09093D7
:102F9000F1058093F00580E892E0909365028093BC
:102FA00064020AE113E01093EF050093EE0560E080
:102FB0008EE00E94471660E08FE00E94471660E0B6
:102FC00080E10E94471660E081E10E94471610935D
:102FD0007503009374030E94820E0E94820E0E9469
:102FE000820E0E94820E81E080937B038CB58F7DE0
:102FF0008CBD0E94C90261E08091A5050E94471620
:1030000061E08091A5050E94FF1560E08091A50513
:103010000E94FF1580E40E942C058AE00E942C0586
:1030200088E10E942C0561E08091A5050E94FF15B2
:103030001091A6051770110F106460E08091A5052E
:103040000E94FF15812F0E942C0580E00E942C0514
:1030500007EA15E06DEBE62E65E0F62ED8018D91BE
:103060008D010E942C05E016F106C1F761E0809108
:10307000A5050E94FF1510E004E0010F61E0802F1C
:103080000E94261061E0802F0E94EC0E62E0812FEA
:103090000E94261062E088E0810F0E94261062E004
:1030A0008CE0810F0E9426101F5F143029F761E029
:1030B0008FE00E94261062E08EE00E9426100E949F
:1030C000420F0E94420F0E94420F0E94420F81E075
:1030D0008093630361E085E00E94471661E087E02A
:1030E0000E94471661E086E00E94471660E085E096
:1030F0000E94FF1560E087E00E94FF1560E086E017
:103100000E94FF1580E090E00E94A01062E082E142
:103110000E94471662E083E10E94471680E190E03A
:103120000E9459268093040161E089E00E944716BD
:103130000E94C90282E493E090930F0380930E03F0
:103140008AE193E0909327038093260341E5E42EE0
:1031500041E0F42E51E4C52E51E0D52E01E060E0AF
:1031600089E00E94FF15F70111917F01612F6170C5
:10317000602785E00E94FF1511FB662760F9602734
:1031800086E00E94FF1512FB662760F9602787E042
:103190000E94FF158CB580628CBDD6018D916D01AA
:1031A00080950E942C0580E00E942C0561E089E05A
:1031B0000E94FF1566E470E080E090E00E948316B4
:1031C000BFE5EB16B1E0FB0651F664E670E080E087
:1031D00090E00E9483168AE193E090930603809327
:1031E0000503E2E8F1E0E491F0E0EE0FFF1FE6579F
:1031F000FF4F059114911093680200936702E6E96E
:10320000F1E0F490F09266020E94C90261E088E069
:103210000E944716F80182818F298283CE01019690
:103220000E9478058981811108C08A8181110FC0AF
:103230008B8181110CC00C9419228F3F41F48A813B
:103240008F3F29F48B818F3F11F40C941922CE010A
:1032500001960E946C02613071058105914008F46D
:103260003FC0CE0141960E94E21189899A890E944D
:10327000C6028981EF2CE094813061F4D801129666
:103280008C911297E8221296EC9280E897E10E94C6
:10329000A90218C0F80182818E21828386E00E94F3
:1032A0002C05D80112968C9112978F2912968C9327
:1032B000129712968C911297E8221296EC9287EB55
:1032C0000E942C05D8011296EC911297FE2A1296B4
:1032D000FC920E94A8028981803221F081E003C023
:1032E00080E001C089E09981913051F4982F946079
:1032F0002D8121110C941622982F94610C94162282
:10330000903211F4826003C09F3E09F48062809382
:103310006A02CE0101960E9478050E94D211809126
:103320000B03882309F47FC00E948306882309F4D5
:103330007AC080918E05898380918F058A838091E0
:1033400090058B83809191058C83809192058D836C
:10335000809193058E83809194058F83809195054C
:10336000888780919605898BE5E8F2E085EC92E00C
:10337000AEE4B4E02C9111963C91119712963193E2
:1033800027AF8E179F07B1F7CE014F960E94B31358
:103390008EE0FE017F96AFEDB5E001900D928A952B
:1033A000E1F740E450E060E070E08EEC93E00E94D2
:1033B000721540E450E060E070E08EE094E00E941E
:1033C000721540E850E060E070E085E892E00E940D
:1033D000721540E450E060E070E08EEC94E00E94F2
:1033E000721540E450E060E070E08EE095E00E94ED
:1033F000721540E450E060E070E08EE495E00E94D9
:10340000721548E050E060E070E0CE0101960E9445
:10341000721541E050E060E070E0CE0141960E94FC
:10342000721510920B030E94420F1E8E1D8E80910A
:10343000610390916203892B09F4CCC480915D03F0
:1034400090915E038F5F877090E0FC01EE0FFF1F8D
:10345000E35BFC4F208131813E8F2D8F90935E0383
:1034600080935D0380916103909162030197909333
:103470006203809361030D8D1E8D7801FF24C801C6
:1034800088279170892E99249AAA89AA20E1E216A8
:10349000F1040CF08AC1892809F484C18091F505F2
:1034A000813049F439E0E316F1040CF093C4C7010C
:1034B0000E94FF028FC48091ED05882309F434C176
:1034C00048E0E416F1040CF089C054E0E516F1047C
:1034D0000CF080C480918402882309F469C0809133
:1034E000F40590E0AC0124E0440F551F2A95E1F764
:1034F000970164E0220F331F6A95E1F7D901A25FBB
:10350000BA4FFA01E25FFA4F60E101900D926A95BD
:10351000E1F7D901A25FBB4FFA01E25FFB4F60E127
:1035200001900D926A95E1F7D901A253BC4FFA01BF
:10353000E253FC4F60E101900D926A95E1F7D701EB
:1035400075E0AA0FBB1F7A95E1F7A25BBB4FFC01A8
:1035500015E0EE0FFF1F1A95E1F7E25BFB4F80E2EB
:1035600001900D928A95E1F7D901A253BB4FFA0160
:10357000E253FB4F80E101900D928A95E1F7D9016A
:10358000A25BBA4FFA01E25BFA4F80E101900D9223
:103590008A95E1F78AE392E00E94161141E050E03B
:1035A00064E670E081E00E944F111092840212C024
:1035B00019821A821B821C828BE5898382E48A83AA
:1035C00088E3800F8B83CE0101960E94161181E063
:1035D000809384020093F405802F7DC06EE0E61690
:1035E000F104E1F17FE0E716F10431F08DE0E81637
:1035F000F10409F08FC072C0809183028F5F8093C5
:1036000083028230D1F030F4813009F0E3C38EE3DD
:1036100092E015C08330B1F0843009F0DBC30E9422
:10362000C60580E090E00E94A0101092830240E066
:1036300050E064E670E080E00EC082E492E00E9418
:103640001611C8C386E492E00E94161140E050E0D3
:1036500064EF71E081E00E944F11BCC38AE492E004
:103660000E941611EEECF3E04EE454E080E010828C
:103670009F01205C3F4FD9011C92DA0100E5802EAA
:10368000912C8D929D92AD0120543F4FD9011C92F7
:10369000205C3F4FD9011C92205C3F4FD9011C9206
:1036A0008F5F3196803419F782E380938E0590E125
:1036B00090938F0591E0909390059093910580935E
:1036C00092051092930584E08093940510929605DC
:1036D0001092F40580E00E9484117CC30E942E1693
:1036E00081E08093F5058091F0059091F1050E94AD
:1036F00082098091F20590E08930910514F40E94CE
:10370000FF028EE492E00E94161161E080E00E94C8
:10371000FF1560C384E08093F50500933B0180E0D2
:1037200090E00E94E81156C30E942E168091F40585
:10373000F701B0E18B9FE00DF11D11242091710381
:1037400030917203AF0142535C4FE217F30739F037
:103750009A01205C3E4FD9019C91911107C0DA017A
:10376000A05CBE4F2C9191E092279C93F093720342
:10377000E09371030E9484110E94B00E809179033E
:1037800090917A030E94A010E0917103F09172036E
:10379000E25BFA4F60818CB58F7D8CBD8FE00E941B
:1037A000EC0E18C31092840215C319A91170F70109
:1037B0007097E730F10508F004C3EC5CFF4F0C9400
:1037C000F6261093ED0589A89AA8892819F00E9479
:1037D0002E16F7C21092840210928302F2C2A9A898
:1037E000BAA8AB2809F4EDC28091ED05882369F0F1
:1037F0000E947C118091F4050E9484118091EE0555
:103800009091EF050E94CE09DCC28091F5058130D0
:1038100009F015C6D6C289A89AA8892809F4D1C288
:1038200080910B038111CDC28091F5058230B1F5F5
:1038300080913C0190E00E942A15CE014F960E9493
:10384000B3138EE0FE017F96AFEDB5E001900D92CF
:103850008A95E1F78091DF059091E005A091E1055F
:10386000B091E205892B8A2B8B2B09F020C682E5CB
:1038700092E00E94161143E050E064E670E081E0BF
:103880000E944F111092F50580913C018093050133
:103890001092F40580E00E94841193C2811191C2BC
:1038A00082E0F9C1A9A8BAA8AB2809F48AC280911C
:1038B000F505813021F51092F50509E211E0E12CC2
:1038C000F12CD8018C910E5F1F4FA4E6DA2ED80E92
:1038D000C7010E945926D81621F06D2DC7010E94FC
:1038E0006126BFEFEB1AFB0AE9E0EE16F10449F797
:1038F00060E080E00E94FF150E94D21162C2833016
:1039000009F0C4C110913C010E948306882309F488
:1039100029C1812F90E00E942A150E945115811122
:103920000CC080916A0285FD1FC184FF69C6C12C4D
:10393000D12CF4E0EF2EF12C1CC1CE014F960E9449
:10394000B3138EE0FE017F96AFEDB5E001900D92CE
:103950008A95E1F780916A02982F907184FF06C0E2
:10396000812C912C64E0A62EB12C04C0812C912CCA
:103970005401A3948BAA9CAAADAABEAA85FD08C037
:10398000992361F0812C912C44E0A42EB12C0AC023
:10399000812C30E1932EA12CB12C04C0812C912CD0
:1039A0005401A394950184010150110921093109A1
:1039B0004091DF055091E0056091E1057091E205CD
:1039C0004023512362237323452B462B472B11F0B1
:1039D00082E044C18091E3059091E405A091E50562
:1039E000B091E60580239123A223B323892B8A2B50
:1039F0008B2B71F71DA61EA61FA618AA8091E305A2
:103A00009091E405A091E505B091E6050DA51EA5F0
:103A10002FA538A9081719072A073B07C8F6C09031
:103A2000DF05D090E005E090E105F090E205209000
:103A30006A02809169022BA93CA94DA95EA9821650
:103A40009306A406B506B8F54DA55EA56FA578A9A1
:103A5000C40ED51EE61EF71E81110E943305CE014D
:103A600001960E94E21189819A810E94C60200910A
:103A7000670210916802D80112968C9112973090CB
:103A80006602732C7094872112968C9386E00E94B4
:103A90002C05F801828183298283828178227282B7
:103AA00027016624772420FE02C080E236C0C201CE
:103AB0009927906239C00DA51EA52FA538A9C00E63
:103AC000D11EE21EF31E81110E943305CE01019624
:103AD0000E94E21189819A810E94C60200916702C8
:103AE00010916802D80112968C911297309066025C
:103AF000732C7094872112968C9386E00E942C057B
:103B0000F80182818329828382817822728227014F
:103B10006624772420FE05C088ED0E942C05C20192
:103B200003C0C2019927986D0E94A902C6010E9494
:103B3000A902D80112968C911297382A12963C92BB
:103B40000E94A802B2E0B09369020DA51EA52FA5A0
:103B500038A9080D191D2A1D3B1D0DA71EA72FA74B
:103B600038AB4CCF80E07AC0C12C60E1D62EE12C7E
:103B7000F12C0E945115811170C00E94110961152C
:103B800071058105910509F468C08B019C0100272E
:103B9000112748015901EEE0B694A79497948794B1
:103BA000EA95D1F78BAA9CAAADAABEAA8B019C016B
:103BB000222733270DA71EA72FA738AB812C912CC6
:103BC0005401D501C4010896A11DB11D2DA53EA526
:103BD0004FA558A9281739074A075B0708F015C5EC
:103BE00029013A01481859086A087B08D501C4011F
:103BF0000496A11DB11DBC01CD01660F771F881F62
:103C0000991F93018201000F111F221F331FAE0164
:103C10004F5F5F4F0E949807FE01319680E090E071
:103C2000DC01481659066A067B0609F4F8C421919E
:103C300031912F3F3F4F09F0EEC424013501480E6A
:103C4000591E6A1E7B1E8DA49EA4AFA4B8A848145A
:103C500059046A047B0408F4F5C481E090913C01A6
:103C6000909305018150823060F481E080930B03D2
:103C700045E050E064E670E00E944F111092F505B7
:103C8000A0C082E592E00E9416119BC080910B03B8
:103C9000811197C083E08093F505809105018093A1
:103CA0003C0190E00E94A01040E050E06CE271E026
:103CB00081E00E944F1185C089A89AA8892809F43B
:103CC00080C08091ED05882329F084E08093F5057C
:103CD0008AE140C0E0917103F0917203E25BFA4F18
:103CE000608181E0682760838CB58F7D8CBD8FE01B
:103CF0000E94EC0E66C08091F505813009F461C028
:103D0000A9A8BAA8AB2881F08091ED05882361F0BD
:103D1000E0910A010E2E000CFF0BE25FFA4F81E0EA
:103D2000808380936B024DC010931903109373032B
:103D30001093760310926B0244C08091F505813098
:103D400009F43FC08091ED05882359F084E0809309
:103D5000F50585E180933B0180E090E00E94E81149
:103D600030C089A89AA8892859F084E08093F50585
:103D700089E180933B0180E090E00E94E81102C05D
:103D80001092F5052091EE053091EF051093730226
:103D900080910A0180936C0290919305943021F4F4
:103DA000C9010E942E030DC0953039F469A980E045
:103DB0000E94FF151093710204C0963011F4109206
:103DC000720289A99AA901E08027817080930F016E
:103DD0000E94941010920A0310920903E09182024B
:103DE0008E2F880F880F80938202E6B1E073E295F0
:103DF000EF70E82BE0938202EF70F0E0EF59FE4F96
:103E00008081082E000C990B009701F12091070387
:103E100030910803820F931F909308038093070348
:103E20009C012D5F3F4F2730310580F01816190691
:103E30001CF481E090E002C08FEF9FEF90930A03A3
:103E40008093090310920803109207034091040124
:103E50002091090330910A034203C001439F900D52
:103E60001124009711F00E94E8118091F5058B7FD5
:103E700061F40E94820E80917C03882331F080914E
:103E8000790390917A030E94A0108BE995E00E943B
:103E9000E309672B682B692B09F4C2C040E050E0AE
:103EA000BA018BE995E00E94AB096091140370910F
:103EB000150327E030E0261B370B81E090E001C0BE
:103EC000880F2A95EAF7660F771F660F771FFB01A9
:103ED000EE0FFF1FE958FE4F20E030E010EF0081A9
:103EE0003296D901A60FB71FA65DBC4F4C9101C0F9
:103EF000440F0A95EAF7140F2F5F3F4F2430310526
:103F000071F730931103209310031093120310954F
:103F1000180F1093130360E089E00E94FF158CB521
:103F200080628CBD00910E0310910F03D80116968C
:103F3000ED91FC911797EE0FFF1FEF58FE4F61E0D8
:103F400080810E94FF15D8011696ED91FC9117977C
:103F5000E65BFC4F80810E942C05809113030E9438
:103F60002C0561E089E00E94FF15F80186819781A8
:103F700001968330910519F09783868302C01782DA
:103F8000168280914103882309F421C58FE995E0C9
:103F90000E94E30920913F03309140036901330FF0
:103FA000EE08FF08C616D706E806F90608F00FC5A2
:103FB0008FE995E00E94E30920913F03309140038F
:103FC000220F331F8901330F220B330B06171707FC
:103FD00028073907C0F440E050E0BA018FE995E0C6
:103FE0000E94AB0980910C0390910D030196909370
:103FF0000D0380930C0320913D0330913E03121674
:1040000013060CF4D4C48091140390911503019607
:104010008430910509F4D6C490931503809314035A
:1040200080912803E0913B03F0913C03B0E18B9F2A
:10403000E00DF11D1124E25FFA4F8081882371F0B9
:1040400087E995E00E94E309E0913B03F0913C038E
:10405000E65DFC4F2081222371F019C087E995E0CD
:104060000E94E309E0913B03F0913C03E65DFC4FC5
:104070002081222361F004E610E020E030E0061702
:1040800017072807390740F40E946B1105C008E59F
:1040900012E020E030E0F3CF8091F505813009F4A3
:1040A000BBC110917E02111105C0809118038823B5
:1040B00009F447C085EC93E00E94E3090E94392887
:1040C00020910901217827FF03C021502E6F2F5F17
:1040D000213049F420917A0230917B0240917C0298
:1040E00050917D0208C02091760230917702409174
:1040F0007802509179020E94EB28181604F51123DA
:1041000061F08AE193E00E94AA0440E050E0BA0125
:1041100085EC93E00E94AB093FC18091180388238E
:1041200081F08AE193E00E94AA0440E050E0BA01E5
:1041300085EC93E00E94AB09109218032DC11092F8
:104140007F028AE193E00E94400A809174028823F2
:1041500051F085EC93E00E94E3096B307105810515
:10416000910508F042C440917302442309F444C00D
:1041700080919305853009F4A9C09091720299232A
:1041800019F0863009F4A2C08930B1F5DD24D3944A
:10419000809194058D1508F499C080917102ED2CE1
:1041A000F12C882309F43BC485EC93E00E94E309D9
:1041B00020916F0230917002E29E8001E39E100D0B
:1041C000F29E100D11249801255031094901A12CAE
:1041D000B12C86169706A806B90660F485EC93E024
:1041E0000E94E30920E030E060177107820793071F
:1041F00008F402C4D394CCCF80917102882309F4CF
:1042000065C0E0910A010E2E000CFF0B20911001F9
:10421000022E000C330BCF01821B930B0196181654
:1042200019064CF080918F054F01880E911CC40136
:10423000821B930B0196442301F1209193052830B2
:10424000E1F4E25FFA4F2081211117C085EC93E081
:104250000E94E30920916D0230916E02890120E0F5
:1042600030E0061717072807390780F560E080E07F
:104270000E94FF151092710229C001972091C90375
:104280003091CA03829FA001839F500D929F500DD1
:104290001124052E000C660B770B8091C5039091BD
:1042A000C603A091C703B091C803841B950BA60B4E
:1042B000B70B89839A83AB83BC83CE0101960E949E
:1042C000E3092091070130910801C8CFE6EAF1E047
:1042D0008491E2E9F1E01491EEE7F1E0049100232A
:1042E00009F491C381110E94D615E02FF0E0EE0F82
:1042F000FF1FE657FF4FA591B491EC911E2309F4DF
:1043000082C31092170380917502882309F442C07A
:1043100080910601882361F04091CB035091CC033A
:1043200060E070E085EC93E00E94AB09109206011A
:1043300081E08093750290911603992319F01092F1
:10434000160325C090919205933340F09091090196
:1043500090FD04C0809316038093180385EC93E0CE
:104360000E94E3097093CA036093C9038AE193E052
:104370000E941E048AE193E00E94AA0440E050E0FB
:10438000BA0185EC93E00E94AB0910927E02109274
:10439000750202C010927F0280917F028823E1F1B2
:1043A0008091F4050E948411E0910A012E2F0E2EB7
:1043B000000C330B8091280300E1809FC001112481
:1043C0002817390774F040962817390754F4EF700E
:1043D0000E2E000CFF0BE65DFC4F908181E08927DB
:1043E000808380911903882389F0109276038FEFE0
:1043F0009FEF909313018093120180917703909126
:1044000078030E94510D81E0809376038091EE0540
:104410009091EF050E944C0B80E090E0892B11F405
:104420000C948F190E9400000C948F19892F0C9402
:10443000871986E592E00E9416110C948F190E944C
:104440002E160E947C118091F4050E948411009127
:10445000EE051091EF05F0907E0281E0F826F092D3
:104460007E02F11006C060E080E00E94FF1510920D
:10447000710240E050E0BA0185EC93E00E94AB0984
:104480008091CB039091CC039093CA038093C9038E
:1044900080910601882309F494CCFF2009F491CC83
:1044A000C8010E94AA04C8010E944C0B8ACC40E4B7
:1044B00050E060E070E08EEC93E00E944F1340E427
:1044C00050E060E070E08EE094E00E944F1340E81E
:1044D00050E060E070E085E892E00E944F1340E415
:1044E00050E060E070E08EEC94E00E944F1340E4F6
:1044F00050E060E070E08EE095E00E944F1340E4F1
:1045000050E060E070E08EE495E00E944F1348E0D8
:1045100050E060E070E0CE0101960E944F1344E04D
:1045200050E060E070E0CE0141960E944F13E5E854
:10453000F2E025EC32E0AEE4B4E0819190E0982F17
:10454000882747AD840F911D8D939D932E173F07AC
:10455000A1F7898180938E058A8180938F058B8155
:10456000809390058C81809391058D818093920535
:104570008E81809393058F818093940568856093E5
:10458000950589898093960500910503109106038E
:1045900080917E0281110DC070E088E99AE30E944B
:1045A000E2267093CC036093CB037093CA036093AD
:1045B000C90360E070E0C8010E946A04C8010E945B
:1045C0002E0360E070E0C8010E94F40360E070E038
:1045D000C8010E94890390918F052091CD03921705
:1045E00009F449C980910901821B890F809309014F
:1045F00087FF03C0890F809309019093CD033BC9C6
:10460000C12CD12C7601E394B4CA58E0452E512C2C
:10461000612C712CEBCA0196A11DB11D02CB840C3B
:10462000951CA61CB71C6DA57EA58FA598A98616FE
:104630009706A806B90608F4C4CA44244A94542C20
:10464000320101CBACE0B0E0A50194010E948E26BE
:1046500023966CAF7DAF8EAF9FAF23974B015C016C
:1046600008E0800E911CA11CB11C4114510461048E
:10467000710469F42BA93CA94DA95EA9280D391D27
:104680004A1D5B1D2BAB3CAB4DAB5EAB96C0198E90
:104690001A8E1B8E1C8E1E0131E1230E311CA5E0EB
:1046A000B0E0A30192010E948E260DA51EA52FA5A4
:1046B00038A90150110921093048DC01CB01800FD4
:1046C000911FA21FB31FBC01CD01660F771F881F6A
:1046D000991F0AE010E020E030E0A1010E94980755
:1046E00049895A896B897C898D899E89AF89B88D62
:1046F0008A019B01080F191F2A1F3B1F0BAB1CAB24
:104700002DAB3EAB898D9A8DAB8DBC8D12E0880FA1
:10471000991FAA1FBB1F1A95D1F79C01AD01280D47
:10472000391D4A1D5B1D2BAF3CAF4DAF5EAF2FABAC
:1047300038AF49AF5AAF812C912C540100E110E001
:1047400020E030E0AE014F5F5F4F6FA978AD89ADDB
:104750009AAD0E949807FE013196D501C4013FEF42
:10476000831A930AA30AB30A2191211114C04BADF5
:104770005CAD6DAD7EAD4C5F5F4F6F4F7F4F840F73
:10478000951FA61FB71F4C015D014CEF842243E02B
:10479000A422BB2412C0D501C4012E163F06F9F68F
:1047A0006FA978AD89AD9AAD605F7F4F8F4F9F4FF6
:1047B0006FAB78AF89AF9AAFC1CFD701C601019770
:1047C000A109B1090BA91CA92DA93EA9080F191F00
:1047D0002A1F3B1FC901B801A70196010E94A1260B
:1047E000C701B6010E94D2266BAB7CAB8DAB9EABF2
:1047F000C701B6016150704F8F4F9F4FA7019601BF
:104800000E94A126C701B6010E94D2266B017C013D
:10481000E5E1F1E001900020E9F73197E551F14041
:104820009F0140E050E02FAB38AF49AF5AAFCE0107
:1048300001960E9478054BA95CA96DA97EA94C0D33
:104840005D1D6E1D7F1D4BAF5CAF6DAF7EAFCE01AA
:1048500001960E946C020BAD1CAD2DAD3EAD6017F4
:1048600071078207930708F4F8C90FA918AD29AD9D
:104870003AAD0F5F1F4F2F4F3F4F45E151E0C5014C
:10488000B4010E94D5062BA93CA94DA95EA9298B8C
:104890003A8B4B8B5C8BCD8ADE8AEF8AF88E88EF61
:1048A0009FEFAFEFBFEF23964CAD5DAD6EAD7FAD2B
:1048B0002397841B950BA60BB70B880D991DAA1D7A
:1048C000BB1DF2E0B695A79597958795FA95D1F718
:1048D000898F9A8FAB8FBC8FCDA4DEA4EFA4F8A8EC
:1048E00054E0C50ED11CE11CF11CA5E0B0E0A30111
:1048F00092010E948E26DC01CB018C0D9D1DAE1D08
:10490000BF1DBC01CD01660F771F881F991F0AE0EC
:1049100010E020E030E0AE014F5E5F4F0E94D50610
:104920000E9483068823E1F3E5E1F1E065EC7DE98F
:104930008CE191E82191222391F0022F220F110B9B
:10494000220B330BA901980126273727482759271F
:1049500063E971E080E091E00E94D226EBCF2EEF78
:104960003FEF40E050E00E94A126DC01CB01019620
:10497000A11DB11D898B9A8BAB8BBC8BD301C2015E
:104980000496A11DB11DBC01CD01660F771F881FC4
:10499000991F02E010E020E030E0AE014F5E5F4F73
:1049A0000E94D5060E9483068823E1F356C9281782
:1049B00039070CF028CB1092410310920D0310928E
:1049C0000C0321CB109215031092140329CBD801AC
:1049D0001696ED91FC911797EE0FFF1FEF58FE4FC3
:1049E00060E080810E94FF150ECB60E082E00E94B3
:1049F000FF1510927402B7CB60E080E00E94FF15B3
:104A000010927102F7CB8091170381117CCC8AE15F
:104A100093E00E94CE0981E08093170374CC85EC6B
:104A200093E00E94E30920916F0230917002E29EB0
:104A3000A001E39E500DF29E500D11248A0120E04A
:104A400030E0601771078207930708F4D3CB61E069
:104A500080E00E94FF1581E080937102CBCB2FB7DD
:104A6000F8944091DA055091DB056091DC05709176
:104A7000DD052FBFFC01408351836283738308955A
:104A800080E2ECECF1E0ADE7B3E001900D928A95A5
:104A9000E1F780E1EDE9F3E0DF01982F1D929A95AF
:104AA000E9F71092AE031092AD031092C00310927A
:104AB000BF03EEE0F5E090E4DF011D929A95E9F77F
:104AC00091E0908322E320938E0580938F0590934D
:104AD000900590939105209392051092930594E090
:104AE0009093940598E7909395051092960580937E
:104AF000CD036091140170E088E99AE30E94E226F8
:104B00007093CC036093CB037093CA036093C90383
:104B100085EC93E00E942F258BE995E00E942F25DC
:104B200087E995E00E942F258FE995E00E942F25C7
:104B3000E3EAF5E085ED95E0918380838AE0828366
:104B400013828FEF848385831682178210861186E5
:104B5000128613861486158688E186878787108AD1
:104B6000118A128A138A148A158A168A178A108E55
:104B7000118E81ED95E00E942F2586ED95E00C9435
:104B80002F258F929F92AF92BF92CF92DF92EF929A
:104B9000FF92CF93DF93EC01688179818A819B81B9
:104BA000611571058105910521F464E279ED8BE5CC
:104BB00097E02DE133EF41E050E00E946F2649017C
:104BC0005A019B01AC01A7EAB1E40E948E266B0159
:104BD0007C01ACEEB4EFA50194010E949C26DC019F
:104BE000CB018C0D9D1DAE1DBF1DB7FF03C00197EE
:104BF000A109B04888839983AA83BB839F77DF91FB
:104C0000CF91FF90EF90DF90CF90BF90AF909F90AB
:104C10008F9008950E94C12508958DE391E00E9430
:104C2000C1250895A0E0B0E080933D0190933E013E
:104C3000A0933F01B09340010895FB01DC01059072
:104C40000D920020E1F70895BB274A3031F49923F3
:104C500022F4BDE2909581959F4F0C943026BB279E
:104C6000FB015527AA27880F991FAA1FA41710F028
:104C7000A41B83955051B9F7A05DAA3308F0A95D34
:104C8000A193009779F7B111B1931192CB010C94D4
:104C90004926DC01FC01672F71917723E1F73297F8
:104CA00004C07C916D9370836291AE17BF07C8F307
:104CB0000895F999FECF92BD81BDF89A992780B5E4
:104CC0000895262FF999FECF1FBA92BD81BD20BD50
:104CD0000FB6F894FA9AF99A0FBE01960895052E28
:104CE00097FB1EF400940E94862657FD07D00E9471
:104CF000A12607FC03D04EF40C94862650954095CF
:104D0000309521953F4F4F4F5F4F08959095809577
:104D1000709561957F4F8F4F9F4F08950E94C326D6
:104D2000A59F900DB49F900DA49F800D911D1124FF
:104D30000895B7FF0C948E260E948E26821B930B3B
:104D40000895A1E21A2EAA1BBB1BFD010DC0AA1FCC
:104D5000BB1FEE1FFF1FA217B307E407F50720F0E4
:104D6000A21BB30BE40BF50B661F771F881F991F5F
:104D70001A9469F760957095809590959B01AC01A8
:104D8000BD01CF010895A29FB001B39FC001A39FB1
:104D9000700D811D1124911DB29F700D811D112474
:104DA000911D0895DB018F939F930E948E26BF91E2
:104DB000AF91A29F800D911DA39F900DB29F900D6A
:104DC0001124089597FB072E16F4009407D077FD61
:104DD00009D00E940B2707FC05D03EF490958195E1
:104DE0009F4F0895709561957F4F0895EE0FFF1FB7
:104DF0000590F491E02D09940E94C326332312F408
:104E00008A1B9B0B0C9406270E94C326B7FF0895AC
:104E1000821B930B0895AA1BBB1B51E107C0AA1F5D
:104E2000BB1FA617B70710F0A61BB70B881F991F4B
:104E30005A95A9F780959095BC01CD0108955058D9
:104E4000BB27AA270E9437270C94B1280E94A328C9
:104E500038F00E94AA2820F039F49F3F19F426F474
:104E60000C94A0280EF4E095E7FB0C949A28E92F07
:104E70000E94C22858F3BA17620773078407950780
:104E800020F079F4A6F50C94E4280EF4E0950B2EAE
:104E9000BA2FA02D0B01B90190010C01CA01A0018C
:104EA0001124FF27591B99F0593F50F4503E68F1E7
:104EB0001A16F040A22F232F342F4427585FF3CF28
:104EC000469537952795A795F0405395C9F77EF4F9
:104ED0001F16BA0B620B730B840BBAF09150A1F042
:104EE000FF0FBB1F661F771F881FC2F70EC0BA0FC8
:104EF000621F731F841F48F4879577956795B79550
:104F0000F7959E3F08F0B0CF9395880F08F099274A
:104F1000EE0F9795879508950E94762808F481E012
:104F200008950E94A5270C94B1280E94AA2858F041
:104F30000E94A32840F029F45F3F29F00C949A289E
:104F400051110C94E5280C94A0280E94C22868F303
:104F50009923B1F3552391F3951B550BBB27AA2732
:104F600062177307840738F09F5F5F4F220F331F6C
:104F7000441FAA1FA9F335D00E2E3AF0E0E832D034
:104F800091505040E695001CCAF72BD0FE2F29D037
:104F9000660F771F881FBB1F261737074807AB0709
:104FA000B0E809F0BB0B802DBF01FF2793585F4F7E
:104FB0003AF09E3F510578F00C949A280C94E5281D
:104FC0005F3FE4F3983ED4F3869577956795B79560
:104FD000F7959F5FC9F7880F911D9695879597F96B
:104FE0000895E1E0660F771F881FBB1F62177307E4
:104FF0008407BA0720F0621B730B840BBA0BEE1FF9
:1050000088F7E09508950E940A286894B1110C94DD
:10501000E52808950E94CA2888F09F5798F0B92F74
:105020009927B751B0F0E1F0660F771F881F991FDD
:105030001AF0BA95C9F714C0B13091F00E94E42873
:10504000B1E008950C94E428672F782F8827B85F83
:1050500039F0B93FCCF3869577956795B395D9F735
:105060003EF490958095709561957F4F8F4F9F4F3F
:105070000895E89409C097FB3EF49095809570954B
:1050800061957F4F8F4F9F4F9923A9F0F92F96E994
:10509000BB279395F695879577956795B795F11109
:1050A000F8CFFAF4BB0F11F460FF1BC06F5F7F4FA6
:1050B0008F4F9F4F16C0882311F096E911C07723B8
:1050C00021F09EE8872F762F05C0662371F096E8C1
:1050D000862F70E060E02AF09A95660F771F881F90
:1050E000DAF7880F9695879597F90895990F000834
:1050F000550FAA0BE0E8FEEF16161706E807F907AA
:10510000C0F012161306E407F50798F0621B730B44
:10511000840B950B39F40A2661F0232B242B252BC5
:1051200021F408950A2609F4A140A6958FEF811D68
:10513000811D089597F99F6780E870E060E0089509
:105140009FEF80EC089500240A941616170618069F
:105150000906089500240A9412161306140605067B
:105160000895092E0394000C11F4882352F0BB0F0C
:1051700040F4BF2B11F460FF04C06F5F7F4F8F4F6F
:105180009F4F089557FD9058440F551F59F05F3FAA
:1051900071F04795880F97FB991F61F09F3F79F059
:1051A00087950895121613061406551FF2CF4695DB
:1051B000F1DF08C0161617061806991FF1CF86955D
:1051C0007105610508940895E894BB276627772741
:1051D000CB0197F908950E94762808F48FEF08957F
:1051E0000E9403290C94B1280E94A32838F00E9441
:1051F000AA2820F0952311F00C949A280C94A0284A
:1052000011240C94E5280E94C22870F3959FC1F3E5
:10521000950F50E0551F629FF001729FBB27F00D64
:10522000B11D639FAA27F00DB11DAA1F649F6627B9
:10523000B00DA11D661F829F2227B00DA11D621F08
:10524000739FB00DA11D621F839FA00D611D221FC2
:10525000749F3327A00D611D231F849F600D211DA6
:10526000822F762F6A2F11249F5750409AF0F1F029
:1052700088234AF0EE0FFF1FBB1F661F771F881F92
:1052800091505040A9F79E3F510580F00C949A2808
:105290000C94E5285F3FE4F3983ED4F38695779528
:1052A0006795B795F795E7959F5FC1F7FE2B880F38
:1052B000911D9695879597F90895DC0101C06D932E
:1052C00041505040E0F70895FB01DC010D900020B3
:1052D000E9F7119701900D920020E1F70895FB0185
:1052E000DC0101900D920020E1F70895F894FFCFC2
:1052F0001A011A010101010A00FFFF3200E7030150
:10530000FF010A00783030312E62696E0000000023
:105310000000000000000000000000FCFFFAFFF4A5
:10532000FFF1FFEFFFEEFFEBFFEAFF0801010000D6
:105330000010101020408080800408101010000021
:10534000000102040404040201010101020400003E
:105350000000FF0100010000FFFF0000010001FF4D
:105360000005000700060003000200010000000025
:105370000001000200030003000200010000000021
:105380000001000200030000000000F401E803DC5B
:1053900005D007C409B80BAC0DA00F0001FF01FF39
:1053A000FF01FF01FF01FF000901FC00EF00E20027
:1053B000D500C800BB00AE00A10094000C000D0099
:1053C0000E000F000B000A00090008000400050091
:1053D000060007000300020001000000FC60DAF292
:1053E00066B6BEE0FEF6EE3E9C7A9E8EF62E2078E5
:1053F0006E1CEC2A3ACEE60AB61E387C7C6E76D855
:1054000000020100080009000A000B000C000D005A
:105410000E0000000100020003000E000F0010004B
:10542000110004080C10182030404350590045204A
:1054300020004552200045525300434C5200434146
:105440004C00455252004D454D002E62696E0000E1
:00000001FF
