:100000000C9443010C94C7010C94A0010C946B0157
:100010000C946B010C946B010C946B010C946B01B0
:100020000C946B010C946B010C946B010C946B01A0
:100030000C946B010C946B010C946B010C946B0190
:100040000C9409210C946B010C946B010C946B01C2
:100050000C946B010C946B010C946B010C946B0170
:100060000C946B010C946B015E266826C326C72690
:10007000E9267D27CB2624042604FE030904140464
:100080002604240429042B043504490449044904A2
:10009000EC17FC17EA17E617E317FC17EE17FC1727
:1000A000F017F217F417F617F61724182C18011981
:1000B0006818A01801190119D018B41801190119EC
:1000C0000119011901190119011901191D188518C2
:1000D00000000000230026002900010001000100AB
:1000E0000100010001000101000101000100010007
:1000F00001010001010100000101000101000101F5
:1001000001010001010001010101000100010100E4
:1001100001000101010100010101010100000100D4
:1001200001000100000100010100010001000001C7
:1001300000010000010100010100010001010001B6
:1001400000010100010001010001000100010101A5
:1001500001010101010101010101010143203100FF
:1001600042203000426230004120300041623000C5
:1001700047203000476230004620300045203000E4
:10018000456230004420300044623000432030009B
:100190008C018801840180017C0178017401700167
:1001A0006C016801640160015C0100000000240032
:1001B00027002A0000000000250028002B0004046E
:1001C00004040404040402020202020203030303FF
:1001D00003030102040810204080010204081020DB
:1001E00001020408102000000008000201000003C2
:1001F000040700000000000000005455330054556F
:10020000320054553100524F4C0053545400524E5A
:1002100044005354500046525A00474C4400545234
:1002200053004F4354005245560052455000574822
:100230004F00444F520050485200424C4D00424C37
:10024000550050454D0050454E004D494E004D4122
:100250004A00434852002A02260222021E021A02C3
:10026000160212020E020A0206020202FE01FA0140
:1002700052024E024A02460242023E023A0236024E
:1002800032022E029F2B11241FBECFEFD8E0DEBF1B
:10029000CDBF12E0A0E0B1E0EEEEFFE502C00590B8
:1002A0000D92A03BB107D9F726E0A0EBB2E001C068
:1002B0001D92AF3FB207E1F711E0C3E4D1E004C003
:1002C0002197FE010E947D2DC234D107C9F70E94FB
:1002D00053210C94F52F0C9400000895CF92DF92D7
:1002E000EF92FF926091690470916A04072E000CEE
:1002F000880B990B0E94BA2E6B017C0160917406E9
:1003000070E080E090E00E94B82E9B01AC01C70134
:10031000B6010E946F2F20E030E048EC52E40E94CA
:10032000102E0E94892E7093BB026093BA02FF9038
:10033000EF90DF90CF90089581E08093C2020895FE
:100340001F920F920FB60F9211242F933F934F934A
:100350005F936F937F938F939F93AF93BF93EF932D
:10036000FF93E0910201F09103010995FF91EF9154
:10037000BF91AF919F918F917F916F915F914F91BD
:100380003F912F910F900FBE0F901F9018951F92C5
:100390000F920FB60F9211242F933F934F935F93B9
:1003A0006F937F938F939F93AF93BF93EF93FF933D
:1003B000E0910001F09101010995FF91EF91BF914A
:1003C000AF919F918F917F916F915F914F913F91ED
:1003D0002F910F900FBE0F901F901895FC018081F8
:1003E0008F3119F49181993859F1228190EF920F50
:1003F000903128F090EE920F963078F4265081E0FC
:1004000090E0A0E0B0E0BC01CD0104C0660F771F12
:10041000881F991F2A95D2F70895811106C08181FE
:10042000811113C0211111C007C08F3F71F4818168
:100430008F3F59F42F3F49F460E070E0CB010895FD
:1004400060E070E080E091E0089560E070E080E1BD
:1004500090E0089508950CB405FC0DC09EBD000009
:100460000DB407FEFDCF9EB58EBD00000DB407FE96
:10047000FDCF8EB508958EBD00000DB407FEFDCFF3
:100480008EB59EBD00000DB407FEFDCF9EB508954C
:100490008CBD9DBD0895CF93CFB7F89480913C0358
:1004A000811127C0E8ECF1E08491ECEDF1E094914A
:1004B000E82FF0E0EE0FFF1FE655FE4FA591B49137
:1004C000EC91E92321F461E08AE00E94711061E07F
:1004D0008AE00E94AE148CB580618CBD8CB58064BE
:1004E0008CBD61E08DE00E94AE1461E08BE00E9463
:1004F000AE1480913C038F5F80933C03CFBFCF91BC
:100500000895CF93DF93EEE6F4E0AEEEB4E080E43E
:1005100020E530E01082EF01C05CDF4F18822D93A0
:100520003D93C054DF4F1882C05CDF4F1882C05C1F
:10053000DF4F1882C05CDF4F1882815031968111E5
:10054000E9CF82E380936E0690E190936F0691E08D
:100550009093700610927106809372061092730643
:1005600084E08093740688E1809376061092770683
:1005700010927806DF91CF9108958F929F92AF925B
:10058000BF92CF92DF92EF92FF927B01BA01550F9B
:10059000880B990B0E94BA2E20E030E040E450E432
:1005A0000E949F2D20E030E040E451E40E946F2F34
:1005B0004B015C01B701FF0C880B990B0E94BA2E0E
:1005C0009B01AC01C501B4010E949F2D6B017C0110
:1005D00060917606062E000C770B880B990B0E9413
:1005E000BA2E9B01AC01C701B6010E949F2D20E0ED
:1005F00030E040EC51E40E949E2D6B017C0120E034
:1006000030E0A9010E946A2F18166CF420E030E057
:100610004EEF52E4C701B6010E940B2E87FD06C0C3
:100620008FE790E008C080E090E005C0C701B60108
:100630000E94822ECB016CE070E00E94692DFC01CB
:10064000EE0FFF1FE057FE4F659174918FEE92E021
:100650000E94822C20E030E04EEF52E4C701B60148
:100660000E940B2E87FF0BC020E030E040E451E4F5
:10067000C701B6010E94102E0E94822E01C06AE0BE
:10068000605D6093F1028FEE92E0FF90EF90DF905B
:10069000CF90BF90AF909F908F900895CF92DF92B0
:1006A000EF92FF928091C002882359F080917306E7
:1006B000843039F48091740624E0829FC0011124B3
:1006C00003C080916E0690E090930A018093090127
:1006D0006091090170910A01072E000C880B990B9B
:1006E0000E94BA2E20E030E048EC52E40E94102E26
:1006F0006B017C016091690470916A04072E000C03
:10070000880B990B0E94BA2E9B01AC01C701B60160
:100710000E946F2F0E94822E7093EE026093ED0272
:10072000FF90EF90DF90CF900895CF939C0160935E
:10073000C0028091080180933B039091730694302E
:1007400021F4C901CF910C944E03953039F4C62F92
:1007500080E00E947110C093BE0227C0963019F449
:100760001092BF0222C09B3001F520916F0630E04D
:10077000EEE6F4E080E090E0AF014E5654404217C0
:1007800053072CF090933A03809339030EC0DF0196
:10079000A05CBE4F4C91442331F0DC01A750BD4F0B
:1007A00040814C9301963196E7CFCF9108950F93F6
:1007B000FB018081811102C047FD0BC0840F081727
:1007C00010F4008305C0821710F0808301C02083DD
:1007D00080810F9108950F931F93CF93DF93E09142
:1007E00073060E2F10E00D30110508F059C0462F8A
:1007F000EC01F801E55CFF4F0C947D2D08E020E052
:1008000064E776E00E94D7038091740690E0049735
:100810004AC000E320E064E776E00E94D7038091BD
:10082000740690E048973FC004E621E064E776E074
:100830000E94D703CE010E944E038091740624E0EB
:10084000829FC00111242FC000E124C001E020E0FC
:1008500022C002E31FC004E621E064E776E00E94C4
:10086000D703CE010E946E011BC008E021E064E7BF
:1008700076E00E94D7036091740670E0809169046D
:1008800090916A040E94692D7093BD026093BC022E
:1008900007C004E121E064E776E0CE010E94D703BF
:1008A0008091740690E0DF91CF911F910F91089590
:1008B00020917106CB01820F911D97FF02C080E04D
:1008C00090E08A30910514F089E090E08093710601
:1008D000FC01EE0FFF1FEF51FE4F60817181ADEF04
:1008E000B3E020E030E0FB01E20FF31FE49141E0D0
:1008F000E11101C040E04D932F5F3F4F2D30310596
:1009000091F70895CF92DF92EF92FF92CF93DF930A
:10091000C0916904D0916A046091720670E080E031
:1009200090E00E94B82E6B017C01BE010D2E000CE0
:10093000880B990B0E94BA2E9B01AC01C701B6012E
:100940000E946F2F20E030E048E452E40E94102E15
:100950006B017C016093C3027093C4028093C50253
:100960009093C602BE01660F771F072E000C880BFE
:10097000990B0E94BA2EA70196010E949E2D6093AA
:10098000C7027093C8028093C9029093CA02DF9194
:10099000CF91FF90EF90DF90CF900895CF93DF93AA
:1009A000EC0180913501680F711D6B3F710534F4C6
:1009B000643171052CF464E170E002C06AEF70E00C
:1009C000262F6093350188E99AE30E94692D709380
:1009D0006C0460936B0480915603882321F070931C
:1009E0006A046093690420937506CE010E94820414
:1009F0006091740670E08091690490916A040E948D
:100A0000692D7093BD026093BC02CE010E946E01FD
:100A10008091350190E0DF91CF910895CF93DF93DE
:100A2000EC01809130018F5F80933001082E000C23
:100A3000990B20916F0630E082179307D4F0109243
:100A40003001809153038823A1F080915403909149
:100A50005503019690935503809354032091780693
:100A6000022E000C330B821793071CF081E0809359
:100A700052038091C102811107C081E08093C102BD
:100A800061E082E00E9471108091B502E09108015E
:100A90000E2E000CFF0BE25DF94F882321F08091B0
:100AA000B402808313C090818091C002992321F009
:100AB00081110CC061E007C0882341F08091B4022D
:100AC000811104C060E0CE010E9495039091C002A4
:100AD0009923E1F180917306811127C0809108016B
:100AE000482F082E000C550B20913B0330E0421795
:100AF000530761F490917406891B8F5F80930801FE
:100B000087FF2AC090916F06890F1BC08F5F80936B
:100B10000801082E000C990B20916F0630E0821717
:100B20009307D1F41092080117C0813069F48091C5
:100B3000080181508093080187FF0EC080916F06E5
:100B400081508093080108C0853031F080913001D8
:100B500080930801992349F080914503882329F067
:100B6000809173068B508230D8F080910801E82F75
:100B7000082E000CFF0BE255FA4F9081992351F09B
:100B8000809331018091B8029091B9029093B7029D
:100B90008093B60281E08093CB02DF91CF910895DC
:100BA0000E94722CE09108010E2E000CFF0BE25502
:100BB000FA4F64E170E00E94692DAC012091740647
:100BC00030E091E0241735070CF490E09083CDCF0E
:100BD000CF93DF938FEF80933001809308011092C1
:100BE000CB0281E0809305011092550310925403CB
:100BF0008091C20281111CC0E9EEF1E08491E5ED23
:100C0000F1E0D491E1ECF1E0C491CC2371F08111D9
:100C10000E944810EC2FF0E0EE0FFF1FE053FF4F53
:100C2000A591B491EC91ED2319F481E08093C20277
:100C3000DF91CF9108958EBD00000DB407FEFDCF6A
:100C40008EB50895CF93DF9300D0CDB7DEB7CE0138
:100C500001960E94DC1E89819A810E944802E091DF
:100C60003F03F0914003928180913E038095892358
:100C700082838091420381FF18C080E70E941B0697
:100C800080E00E941B06E0913F03F0914003228127
:100C900090913E03922B928387FFD9CF109241030C
:100CA0000F900F90DF91CF91089585E00E941B0671
:100CB00080E00E941B06E0913F03F09140032281F7
:100CC00090913E03922B928380FDC1CFE7CF0F938B
:100CD0001F93CF93DF9300D0CDB7DEB78C01809107
:100CE000410381110E942206CE0101960E94DC1E62
:100CF00089819A810E944802E0913F03F09140036C
:100D0000928180913E038095892382838FE90E949E
:100D10001B0680E00E941B06F801808380E00E9491
:100D20001B06F801818380E00E941B06F801828384
:100D30008081813051F480E00E941B06F80183839A
:100D400080E00E941B06F8018483E0913F03F0914C
:100D50004003928180913E03892B82830F900F90F4
:100D6000DF91CF911F910F910895FF920F931F93E1
:100D7000CF93DF93CDB7DEB727970FB6F894DEBFDA
:100D80000FBECDBF8091410381110E942206CE018A
:100D900001960E9467068981803209F066C09B81B6
:100DA00080EE890F833008F060C0913211F424E0A6
:100DB00001C022E080914203082F10E036E0159533
:100DC00007953A95E1F78F7380934203021708F075
:100DD0007DC0923219F428E0F22E02C092E0F92E82
:100DE000CE0106960E94DC1E8E819F810E944802E1
:100DF000E0913F03F0914003928180913E03809502
:100E00008923828386E00E941B06E0913F03F091D4
:100E10004003928180913E03982B9283928180952A
:100E20008923828384EC0E941B0680E0F09E902D33
:100E300011240E942B0280E090E00E942B02E0919E
:100E40003F03F0914003928180913E03892B82837E
:100E50000F5F1F4F86E0000F111F8A95E1F7809109
:100E60004203082B009342032EC0CE0106960E9437
:100E7000DC1E8E819F810E944802E0913F03F09129
:100E80004003928180913E0380958923828386E08E
:100E90000E941B06E0913F03F091400392818091F4
:100EA0003E03982B9283928180958923828387ECDD
:100EB0000E941B06E0913F03F091400392818091D4
:100EC0003E03892B828383E08093410327960FB6EC
:100ED000F894DEBF0FBECDBFDF91CF911F910F9170
:100EE000FF900895CF93DF9300D0CDB7DEB7809108
:100EF0004103811102C081E042C0CE0101960E94EF
:100F0000DC1E89819A810E944802E0913F03F091A2
:100F10004003928180913E03809589238283809152
:100F2000420381FF1AC080E70E941B0680E00E94F6
:100F30001B06E0913F03F0914003228190913E0314
:100F4000922B928387FF1AC0109241038091420333
:100F5000807C89F20E94B50611C085E00E941B06C4
:100F600080E00E941B06E0913F03F0914003228144
:100F700090913E03922B928380FFE6CF80E00F900A
:100F80000F90DF91CF9108952F923F924F925F92F1
:100F90006F927F928F929F92AF92BF92CF92DF9289
:100FA000EF92FF920F931F93CF93DF9300D000D067
:100FB00000D0CDB7DEB76B837C838D839E831A010F
:100FC000480159018091410381110E942206CE01FE
:100FD00001960E94DC1E89819A810E944802E0915C
:100FE0003F03F0914003928180913E0380958923D5
:100FF000828386E00E941B06E0913F03F09140034C
:10100000928180913E03982B928340E051E060E012
:1010100070E02B81421B510961097109750164015E
:10102000481559056A057B0510F46A017B01928118
:10103000809589238283809142032B813C814D815D
:101040005E812A016624772480FF05C082E00E9429
:101050001B06C20103C0C201992792600E942B02A5
:101060008B819C810E942B028B819C81AD81BE81F2
:101070008C0D9D1DAE1DBF1D8B839C83AD83BE83D8
:101080008C189D08AE08BF08810126013701D801E0
:101090008D918D010E941B06B1E04B1A5108610829
:1010A0007108A9F7E1E0CE1AD108E108F108FFEFD5
:1010B000CF1ADF0A2C0C3D1CE0913F03F091400356
:1010C000928180913E03892B828324E02093410307
:1010D00081149104A104B10409F074CF26960FB6CF
:1010E000F894DEBF0FBECDBFDF91CF911F910F915E
:1010F000FF90EF90DF90CF90BF90AF909F908F9038
:101100007F906F905F904F903F902F9008952F9217
:101110003F924F925F926F927F928F929F92AF9287
:10112000BF92CF92DF92EF92FF920F931F93CF93D4
:10113000DF93CDB7DEB728970FB6F894DEBF0FBEAA
:10114000CDBF6B017C011A0148015901A80160E083
:1011500070E0C1010E94DC2F00914203CE01019694
:101160000E94DC1E89819A810E94480210914103ED
:10117000112309F483C0E0913F03F0914003928171
:1011800080913E038095892382838091420381FF71
:101190000AC080E70E941B0680E00E941B0687FFB2
:1011A0000AC010E008C085E00E941B0680E00E9493
:1011B0001B0680FFF6CFE0913F03F0914003928140
:1011C00080913E03982B9283111103C0109241032A
:1011D00055C0133008F047C09281809589238283DF
:1011E00086E00E941B06E0913F03F091400382815C
:1011F00090913E03892B828302FF02C0113011F0CF
:1012000085E701C085E822819095922392830E9410
:101210001B06E0913F03F0914003928180913E03D1
:10122000982B9283809592818923828301FF09C044
:1012300080E70E941B0680E00E941B0687FFFBCF11
:1012400008C085E00E941B0680E00E941B0680FD0E
:10125000FBCFE0913F03F0914003928180913E03E8
:10126000892B82830BC00E942206CE0101960E9428
:10127000DC1E89819A810E94480210E0802F8870CC
:101280008F83902F91709887AF81AA2311F1D70196
:10129000C601880D991DAA1DBB1D0197A109B109A1
:1012A0008C259D25AE25BF2588279927AA27BE7F97
:1012B000892B8A2B8B2B69F0D701C601B170412C89
:1012C000512C612C22E0722E481A590A6A0A7B0AB4
:1012D00002C024013501E0913F03F0914003928167
:1012E00080913E03809589238283C701AA27BB276B
:1012F0008B839C83AD83BE839885992331F083E0F3
:101300000E941B068B819C8104C08B819C81992744
:1013100093600E942B02C6010E942B02920141148D
:101320005104C1F0D1018C918EBDF101C201019730
:1013300041F051810DB407FEFDCF4EB55EBD419326
:10134000F6CFF9013197E20DF31D0DB407FEFDCF85
:101350008EB58083E0913F03F091400392818091AC
:101360003E03982B9283220E331EC40CD51CE61C20
:10137000F71C84189508A608B70809F085CF112333
:1013800031F1928180958923828386E00E941B0639
:10139000E0913F03F0914003828190913E03892BBD
:1013A000828302FF04C0113011F48AE801C08AE789
:1013B00022819095922392830E941B06E0913F0325
:1013C000F0914003928180913E03892B828328967D
:1013D0000FB6F894DEBF0FBECDBFDF91CF911F9146
:1013E0000F91FF90EF90DF90CF90BF90AF909F90C4
:1013F0008F907F906F905F904F903F902F900895C7
:101400000F931F93CF93DF93CDB7DEB728970FB617
:10141000F894DEBF0FBECDBF08E010E020E030E062
:10142000AE014F5F5F4F60E070E0CB010E94870824
:1014300089819A81AB81BC818C3425E5920726E9AC
:10144000A2072AEFB207F1F18F3F9F4FAF4FBF4F77
:1014500021F060E070E0CB0139C08CE495E5A6E9AD
:10146000BAEF89839A83AB83BC8388E592E0A6EFC9
:10147000B8E18D839E83AF83B88708E010E020E059
:1014800030E0AE014F5F5F4F60E070E0CB010E9443
:10149000C4070E9472078823E1F308E010E020E00F
:1014A00030E0AE014F5F5F4F60E070E0CB010E9423
:1014B000870889819A81AB81BC818C349545A64986
:1014C000BA4F39F66D817E818F81988528960FB647
:1014D000F894DEBF0FBECDBFDF91CF911F910F916A
:1014E00008951F93CF93DF93EC01162F0E94BE2C1B
:1014F000181739F0612FCE01DF91CF911F910C9415
:10150000C62CDF91CF911F9108950F931F93CF9316
:10151000DF930CE011E0C0E0D0E0CE010E94BE2CD1
:1015200090E0845691099C0197FF04C0222733273D
:10153000281B390BF801243631051CF49183808374
:1015400002C01182108221960E5F1F4FC930D10553
:1015500021F7DF91CF911F910F9108952F923F9224
:101560004F925F926F927F928F929F92AF92BF92B3
:10157000CF92DF92EF92FF920F931F93CF93DF935F
:1015800000D000D000D0CDB7DEB76A017B0120E0EB
:1015900030E040EC52E4C701B6010E946A2F1816F1
:1015A0006CF020E030E0A901C701B6010E940B2ECB
:1015B00087FF0AC0C12CD12C760106C0C12CD12CCA
:1015C00040ECE42E42E4F42E20E030E040E451E42C
:1015D000C701B6010E94102E0E94822E2B013C01F1
:1015E0001B01C701B6010E94822ECB016CE070E0A6
:1015F0000E94692D01E010E01816190614F000E0B1
:1016000010E0040D151DC201880F991FFC01E8555B
:10161000FE4FDC01A45FBE4F208131818D919C91F2
:10162000280F391F3E832D83B90180E090E00E948E
:10163000B82E4B015C01F801EE0FFF1FDF01A8552A
:10164000BE4FE45FFE4F6D917C9180819181680F68
:10165000791F80E090E00E94B82E69837A838B83A3
:101660009C832016310681F1B201550C880B990B31
:101670000E94BA2E20E030E040E451E40E946F2F37
:101680009B01AC01C701B6010E949E2D6B017C013C
:10169000A501940169817A818B819C810E949E2D94
:1016A0009B01AC01C701B6010E946F2F20E030E022
:1016B00040E451E40E94102EA50194010E949F2D48
:1016C0000E94892E7E836D838D819E8126960FB622
:1016D000F894DEBF0FBECDBFDF91CF911F910F9168
:1016E000FF90EF90DF90CF90BF90AF909F908F9042
:1016F0007F906F905F904F903F902F900895CF9282
:10170000DF92EF92FF920F931F93EFB7F89400913F
:10171000F6061091F7062091F8063091F906EFBF12
:1017200068017901C41AD50AE60AF70AFC01C082E9
:10173000D182E282F3821F910F91FF90EF90DF90B0
:10174000CF9008950F931F93FC012FB7F8948091C9
:10175000F6069091F706A091F806B091F9062FBF12
:101760000081118122813381BC01CD01601B710B8D
:10177000820B930B1F910F910895CF93DF9300D0AD
:1017800000D0CDB7DEB780910801082E000C990B70
:101790009C01261B370B37FF07C020916F06820F75
:1017A000911D9C01261B370B8091690490916A045E
:1017B000289FA001299F500D389F500D1124052E00
:1017C000000C660B770B8091650490916604A091E4
:1017D0006704B0916804841B950BA60BB70B898333
:1017E0009A83AB83BC83CE0101960E94A20BCB01EE
:1017F0000F900F900F900F90DF91CF9108958F92DF
:101800009F92AF92BF92CF92DF92EF92FF92CF93CF
:10181000DF934091C002442309F469C0209173060C
:10182000263009F064C02091BF022111E9C0609107
:101830003B0370E00E94BD0BEC0120917406809187
:10184000690490916A04289FB001299F700D1124AA
:10185000072E000C880B990B0E94BA2E6B017C019D
:101860006091B8027091B902072E000C880B990B99
:101870000E94BA2E4B015C01BE01DD0F880B990B53
:101880000E94BA2E9B01AC01C701B6010E949E2D99
:101890009B01AC01C501B4010E946F2FA701960105
:1018A0000E94102E6B017C0120E030E040E85FE3F5
:1018B0000E940B2E881F8827881F8093BF02B701C4
:1018C000A6018091B2029091B3020E94AE0ABC01BF
:1018D00080E00E945B1D8091BF02882309F490C0C4
:1018E00060E080E00E9471101092BE0289C0609199
:1018F0003101062E000C770B9B0122593B4FF90159
:10190000E05CFE4F5081552329F0E05CFF4F2081C1
:10191000211108C0442309F473C0209173062430B8
:1019200009F06EC00E94BD0BC091ED02D091EE0295
:101930008C179D070CF047C01092BF02AE01481BE8
:10194000590B2091B6023091B702429FB001439FDC
:10195000700D529F700D11244091B8025091B90240
:10196000849F9001859F300D949F300D1124620F4C
:10197000731F072E000C880B990B0E94BA2E6B0167
:101980007C01BE01DD0F880B990B0E94BA2E9B01D2
:10199000AC01C701B6010E94102EAB01BC018091C1
:1019A000B2029091B3020E94AE0ABC0180E0DF91C6
:1019B000CF91FF90EF90DF90CF90BF90AF909F902E
:1019C0008F900C945B1D8091BF02811119C06091B2
:1019D000B8027091B902072E000C880B990B0E9477
:1019E000BA2EAB01BC018091B2029091B3020E9469
:1019F000AE0ABC0180E00E945B1D81E08093BF02C3
:101A0000DF91CF91FF90EF90DF90CF90BF90AF909C
:101A10009F908F900895CF92DF92EF92FF920F9355
:101A20001F93CF93DF93EC01E09108010E2E000C81
:101A3000FF0BE255FA4F80812091C002882309F400
:101A400062C22223F1F0809173068630D1F4CE0178
:101A50000E94FF0B8091BF02811162C2E0913101AF
:101A60000E2E000CFF0BE255FA4F60810E947110A0
:101A7000E09131010E2E000CFF0BE255FA4F8081F0
:101A80004DC21092BF0200913101002E000C110BCB
:101A900002591B4FF8018081082E000C990B90937E
:101AA000EC028093EB021092EA021092E9022223E8
:101AB00009F405C120917306273009F50E94722CA4
:101AC0006091740670E00E94692D8C010E94722C56
:101AD0006AE070E00E94692D06971CF421E030E076
:101AE00002C02FEF3FEF029FC001039F900D129F96
:101AF000900D11242091EB023091EC02DAC030916C
:101B00004503332309F4CEC02A30F9F40E94722C25
:101B10006091740670E00E94692D182F0E94722C4B
:101B20006AE070E00E94692D069714F491E001C00C
:101B30009FEFE09131010E2E000CFF0BE259FB4F9D
:101B40008081199F800D112477C02B3029F50E94C8
:101B5000722C00913101002E000C110B98012259BA
:101B60003B4F6091390370913A030E94692DFC014B
:101B7000E750FD4F8081F90180830E94722C000F95
:101B8000111FF801E251FB4F62E870E00E94692DDD
:101B900044969183808351C02C3009F04EC00E943E
:101BA000722C68E170E00E94692DF82E0E94722C60
:101BB0006AE070E00E94692D069714F481E001C08C
:101BC0008FEF8F9D802D1124F801808300913101CA
:101BD000002E000C110B0E94722CF801E251FA4FFA
:101BE0006AE070E00E94692D9C0191E02930310586
:101BF0000CF490E0908300913101002E000C110B49
:101C00000E94722C000F111FF801E251FB4F62E895
:101C100070E00E94692D4496918380830091310188
:101C2000002E000C110B0E94722CF801E259FA4FA1
:101C30006AE570E00E94692D8083E09131010E2EEB
:101C4000000CFF0BE259FB4F8081282F082E000C5F
:101C5000330B37FF03C03195219531092D30310504
:101C6000E4F0181614F02FEF01C021E0DF01A05CB2
:101C7000BF4F9C91920F9F3F24F093301CF092E055
:101C800001C09EEFDF01A05CBF4F9C936CE00E94FF
:101C9000472D929F902D112490838081082E000C57
:101CA000990B09C0233059F42091740630E0285173
:101CB0003109820F931F9093EC028093EB02809185
:101CC000EB029091EC028D3091057CF0853291050C
:101CD0001CF023E030E01AC0883191051CF421E0AB
:101CE00030E014C022E030E011C0843FFFEF9F07D6
:101CF000CCF48D3D2FEF920724F0893EEFEF9E0745
:101D00001CF42EEF3FEF02C02FEF3FEF3093EA02BB
:101D10002093E9026CE070E00E94692D9093EC0240
:101D20008093EB028091EB029091EC029C0197FF73
:101D300002C0245F3F4FF901E350FC4F2081211185
:101D400029C020917106233049F49C0197FF02C0FD
:101D5000245F3F4FF901EC52FE4F13C0243049F489
:101D60009C0197FF02C0245F3F4FF901E953FE4FEA
:101D700008C09C0197FF02C0245F3F4FF901E65461
:101D8000FE4F2081820F911D27FD9A959093EC02C2
:101D90008093EB0280913101082E000C990B82593F
:101DA0009B4FFC01E05CFF4F4081042E000C550B63
:101DB0004D5F5F4F6CE0649FF001659FF00D112453
:101DC0002091EB023091EC022E0F3F1F40917606DE
:101DD000042E000C550B48515109240F351FE0917A
:101DE000E902F091EA026E9FA0016F9F500D11244D
:101DF000240F351F3093B9022093B8024091C002DE
:101E00004423A1F040917306423081F4409174065E
:101E100050E044505109649FF001659FF00D11247A
:101E20002E0F3F1F3093B9022093B802FC01E058F7
:101E3000FE4F8081882321F0CE010E94FF0B16C047
:101E40006091B8027091B902072E000C880B990BB3
:101E50000E94BA2EAB01BC018091B2029091B302F4
:101E60000E94AE0ABC0180E00E945B1DE09131013E
:101E70000E2E000CFF0BE255FA4F608180E00E94AD
:101E8000711080913101082E000C990B82599B4FE3
:101E9000FC01E05CFE4F20812093BE02E054F1097A
:101EA0006081F8E26F02B001112481E00E945B1DA5
:101EB000E0913101EE0FFF0BE251FB4F6081718128
:101EC00080E090E00E94B82E20E030E048EC52E440
:101ED0000E94102E6B017C016091690470916A046C
:101EE000072E000C880B990B0E94BA2E9B01AC01A7
:101EF000C701B6010E946F2F0E94892E70930701BF
:101F0000609306010DC0222359F08091730688303A
:101F100039F461E080E00E94711081E08093BE029C
:101F2000DF91CF911F910F91FF90EF90DF90CF90B5
:101F3000089580933D03882309F445C080914303AD
:101F4000811141C08091CC06823029F580912E010B
:101F500090E00E942415882331F043E050E064E6CD
:101F600070E081E00BC080915003909151030E947A
:101F7000810241E050E064E670E080E00E94431E90
:101F80001092CC0680912E0180932F011092CB06E7
:101F900080E00C94701E811116C08091490381115C
:101FA0000C94451682E08093CC0680912F0180939B
:101FB0002E0190E00E948A1D40E050E06CE271E04A
:101FC00081E00C94431E0895CF92DF92EF92FF922E
:101FD0000F931F93FC016A017B014091C50650914C
:101FE000C6066091C7067091C8060091C10610919F
:101FF000C2062091C3063091C406DB01CA018C0DD4
:102000009D1DAE1DBF1D081719072A073B0758F471
:10201000401751076207730780F568017901C41AF8
:10202000D50AE60AF70A0091BD061091BE06209176
:10203000BF063091C006CB01BA01600F711F821F2D
:10204000931F97018601AF010E94C4078091C506C6
:102050009091C606A091C706B091C8068C0D9D1D33
:10206000AE1DBF1D8093C5069093C606A093C706FC
:10207000B093C806B601C70104C060E070E080E01C
:1020800090E01F910F91FF90EF90DF90CF90089517
:10209000833081F028F4813099F08230A1F00895E6
:1020A0008730A9F08830B9F08430D1F48091800075
:1020B0008F7D03C0809180008F778093800008958A
:1020C00084B58F7702C084B58F7D84BD08958091DB
:1020D000B0008F7703C08091B0008F7D8093B000F7
:1020E00008951F93CF93DF93282F30E0F901EA5131
:1020F000FE4F8491F901EE52FE4FD491F901E25462
:10210000FE4FC491CC23C1F0162F81110E944810BC
:10211000EC2FF0E0EE0FFF1FEC54FE4FA591B491B1
:102120009FB7F894111104C08C91D095D82302C0A8
:10213000EC91DE2BDC939FBFDF91CF911F9108952F
:102140002F923F924F925F926F927F928F929F92C7
:10215000AF92BF92CF92DF92EF92FF920F931F93B5
:10216000CF93DF93CDB7DEB7EE970FB6F894DEBF0F
:102170000FBECDBF80934403882309F4D6C380915A
:10218000CC06813029F51092CC067CE0C72E71E098
:10219000D72E00E010E0D6018C91B2E0CB0ED11C1E
:1021A00064E6F62EF80EC8010E94BE2CF81621F047
:1021B0006F2DC8010E94C62C0F5F1F4F09301105FB
:1021C00051F760E080E00E9471100E94CB1EADC309
:1021D000833009F0C6C110912E010E947207882336
:1021E00009F42FC1812F90E00E94BD200E94241687
:1021F00081110FC08091420385FD25C184FFC7C1B5
:1022000000E010E024E030E00BA71CA72DA73EA7BC
:1022100022C1CE014D960E94461F8EE0FE017D96A2
:10222000ADEBB6E001900D928A95E1F78091420303
:10223000982F907184FF09C000E010E024E030E0A6
:102240000FA718AB29AB3AAB08C020E030E041E063
:1022500050E02FA738AB49AB5AAB85FD08C0992396
:1022600061F0812C912C44E0A42EB12C0AC0812C69
:1022700030E1932EA12CB12C04C0812C912C54015F
:10228000A39495018401015011092109310940915C
:10229000BD065091BE066091BF067091C0064023F6
:1022A000512362237323452B462B472B11F082E0E9
:1022B00040C18091C1069091C206A091C306B09121
:1022C000C40680239123A223B323892B8A2B8B2B33
:1022D00071F71BA61CA61DA61EA68091C106909193
:1022E000C206A091C306B091C4060BA51CA52DA5DE
:1022F0003EA5081719072A073B07C8F62090420396
:10230000C090BD06D090BE06E090BF06F090C0061B
:10231000809141032FA538A949A95AA9821693068D
:10232000A406B506B8F50BA51CA52DA53EA5C00EA7
:10233000D11EE21EF31E81110E942206CE010196DB
:102340000E94DC1E89819A810E94480200913F030D
:1023500010914003D80112968C91129730903E0351
:10236000732C7094872112968C9386E00E941B0632
:10237000F8018281832982838281782272822701F7
:102380006624772420FE02C080E236C0C20199276D
:10239000906239C00BA51CA52DA53EA5C00ED11E6F
:1023A000E21EF31E81110E942206CE0101960E94B8
:1023B000DC1E89819A810E94480200913F0310919E
:1023C0004003D80112968C91129730903E03732CE3
:1023D0007094872112968C9386E00E941B06F80168
:1023E00082818329828382817822728227016624F6
:1023F000772420FE05C088ED0E941B06C20103C0A1
:10240000C2019927986D0E942B02C6010E942B02DF
:10241000D80112968C911297382A12963C920E94FB
:102420002A02B2E0B09341030BA51CA52DA53EA541
:10243000080D191D2A1D3B1D0BA71CA72DA73EA784
:102440004CCF80E076C020E030E140E050E02BA7A8
:102450003CA74DA75EA70E942416811169C00E9467
:10246000000A6B017C01611571058105910509F474
:102470005FC09B01AC01442755272FA738AB49AB60
:102480005AAB812C912C5401D501C4010896A11D91
:10249000B11D0FA518A929A93AA9081719072A07D4
:1024A0003B0708F07DC028013901481859086A081F
:1024B0007B08D501C4010496A11DB11DBC01CD014D
:1024C000660F771F881F991F93018201000F111F4C
:1024D000221F331FAE014F5F5F4F0E948708FE012E
:1024E000319680E090E0DC01481659066A067B06CA
:1024F00009F460C0219131912F3F3F4F09F056C040
:10250000A5019401280F391F4A1F5B1F2BAB3CAB61
:102510004DAB5EAB2FA538A949A95AA98BA99CA997
:10252000ADA9BEA982179307A407B50708F458C040
:1025300081E090912E0190932F018150823060F4C0
:1025400081E08093430345E050E064E670E00E9440
:10255000431E1092CC06E9C187E892E00E94001E5B
:10256000E4C1809143038111E0C183E08093CC06F4
:1025700080912F0180932E0190E00E948A1D40E0FF
:1025800050E06CE271E081E00E94431ECEC180E029
:1025900090E0A1E0B0E08BA79CA7ADA7BEA75BCF62
:1025A00058E0452E512C612C712C83CF0196A11D32
:1025B000B11D9ACF840C951CA61CB71C8FA598A999
:1025C000A9A9BAA988169906AA06BB0608F45CCF81
:1025D0000FEF1FEF98010BAB1CAB2DAB3EAB9ACFAF
:1025E000ACE0B0E00E94F32C6FAB78AF89AF9AAF4C
:1025F0004B015C0198E0890E911CA11CB11C0BA938
:102600001CA92DA93EA9012B022B032BA1F4CC243C
:10261000DD240EE0F694E794D794C7940A95D1F799
:10262000A7019601280D391D4A1D5B1D2BAF3CAF3C
:102630004DAF5EAF86C0198E1A8E1B8E1C8E1E018A
:1026400031E1230E311CA5E0B0E02BA93CA94DA936
:102650005EA90E94F32C0FA518A929A93AA9015037
:10266000110921093048DC01CB01800F911FA21F05
:10267000B31FBC01CD01660F771F881F991F0AE0A9
:1026800010E020E030E0A1010E94870849895A89C2
:102690006B897C898D899E89AF89B88D8A019B0160
:1026A000080F191F2A1F3B1F0BAF1CAF2DAF3EAFEA
:1026B000898D9A8DAB8DBC8D12E0880F991FAA1F52
:1026C000BB1F1A95D1F76C017D01C80CD91CEA1CFF
:1026D000FB1C46015701412C512C320100E110E056
:1026E00020E030E0AE014F5F5F4FC501B4010E94B2
:1026F0008708FE013196D301C2011FEF411A510A2A
:10270000610A710A2191211111C04601570124E08B
:10271000820E911CA11CB11C880E991EAA1EBB1E04
:102720003CEF832233E0A322BB240BC0D301C201C0
:102730002E163F0611F740E1840E911CA11CB11C1E
:10274000CDCF8BA59CA5ADA5BEA50197A109B109CB
:102750000BAD1CAD2DAD3EAD080F191F2A1F3B1F41
:10276000C901B8012BA53CA54DA55EA50E94062D6B
:10277000CA01B9012BA53CA54DA55EA50E94372D28
:102780006B017C01CA01B9016150704F8F4F9F4F9F
:102790000E94062DCA01B9012BA53CA54DA55EA539
:1027A0000E94372D2B013C01E6E3F1E0019000206F
:1027B000E9F731978F0106531140CE0101960E942F
:1027C0006706A7019601240D351D461D571D2BA731
:1027D0003CA74DA75EA7CE0101960E94EE012BA556
:1027E0003CA54DA55EA5621773078407950708F4FD
:1027F0009FCE20E030E00F5F1F4F2F4F3F4F46E34B
:1028000051E0C501B4010E94C407C98ADA8AEB8A83
:10281000FC8A4D8A5E8A6F8A788E8FA998ADA9ADA1
:10282000BAAD881A990AAA0ABB0A98E0891A9108CF
:10283000A108B10862E0B694A794979487946A952A
:10284000D1F7898E9A8EAB8EBC8EA5E0B0E02BA915
:102850003CA94DA95EA90E94F32C0FA518A929A98E
:102860003AA90C5F1F4F2F4F3F4FDC01CB01800F68
:10287000911FA21FB31FBC01CD01660F771F881FD8
:10288000991F0AE010E020E030E0AE014F5E5F4F9C
:102890000E94C4070E9472078823E1F3E6E3F1E097
:1028A00065EC7DE98CE191E82191222391F0022FE2
:1028B000220F110B220B330BA90198012627372772
:1028C0004827592763E971E080E091E00E94372DA5
:1028D000EBCF2EEF3FEF40E050E00E94062DDC01F1
:1028E000CB010196A11DB11D898B9A8BAB8BBC8B43
:1028F0008BA89CA8ADA8BEA8A4E08A0E911CA11C20
:10290000B11CC501B401660F771F881F991F02E033
:1029100010E020E030E0AE014F5E5F4F0E94C40740
:102920000E9472078823E1F303CEEE960FB6F89467
:10293000DEBF0FBECDBFDF91CF911F910F91FF90F2
:10294000EF90DF90CF90BF90AF909F908F907F904F
:102950006F905F904F903F902F900895CF93DF93AB
:1029600090E0FC01EE52FE4F2491FC01E254FE4F38
:102970008491882361F190E0880F991FFC01E6554E
:10298000FE4FC591D491FC01EC54FE4FA591B4913A
:10299000611109C09FB7F8948881209582238883AC
:1029A000EC912E230BC0623061F49FB7F8948881BC
:1029B000322F309583238883EC912E2B2C939FBF4D
:1029C00006C08FB7F894E8812E2B28838FBFDF9144
:1029D000CF9108958F929F92AF92BF92CF92DF9244
:1029E000EF92FF926B017C010E94E4204B015C019D
:1029F000C114D104E104F104F1F00E94E420DC01EF
:102A0000CB0188199909AA09BB09883E9340A10501
:102A1000B10570F321E0C21AD108E108F10888EE8F
:102A2000880E83E0981EA11CB11CC114D104E104DE
:102A3000F10419F7DDCFFF90EF90DF90CF90BF90BA
:102A4000AF909F908F9008950F931F93CF93DF9334
:102A5000CDB7DEB76A970FB6F894DEBF0FBECDBF15
:102A60000E94BD20CE010D960E94461F8EE0FE0101
:102A70003D96ADEBB6E001900D928A95E1F780911D
:102A8000BD069091BE06A091BF06B091C006892BED
:102A90008A2B8B2B11F480E0CCC040E450E060E046
:102AA00070E08EE694E00E94E21E40E450E060E0B8
:102AB00070E08EEA94E00E94E21E40E850E060E0A0
:102AC00070E087E593E00E94E21E40E450E060E0A1
:102AD00070E08EE695E00E94E21E40E450E060E087
:102AE00070E08EEA95E00E94E21E40E450E060E073
:102AF00070E08EEE95E00E94E21E48E050E060E05B
:102B000070E0CE0101960E94E21E44E050E060E0D9
:102B100070E0CE0109960E94E21E40E450E060E0C1
:102B200070E08EE296E00E94E21EE7E5F3E0AEEE92
:102B3000B4E0819190E0982F882727AD820F911DF6
:102B40008D939D9383E0E739F80799F78981809306
:102B50006E068A8180936F068B81809370068C81CC
:102B6000809371068D81809372068E8180937306A7
:102B70008F8180937406688560937506898580933C
:102B800076068A85809377068B85809378060091F8
:102B9000D7031091D8038091560381110DC070E0C6
:102BA00088E99AE30E94692D70936C0460936B042A
:102BB00070936A046093690460E070E0C8010E9449
:102BC000CE04C8010E944E0360E070E0C8010E947C
:102BD000580460E070E0C8010E94EB0390916F061A
:102BE00020916D04921791F080913001181624F411
:102BF000821B890F809330018091300187FF02C0D2
:102C0000890FFCCF8093300190936D04109255038F
:102C1000109254038091770618162CF481E090915D
:102C2000780619160CF080E080935303109252033B
:102C300081E06A960FB6F894DEBF0FBECDBFDF917C
:102C4000CF911F910F910895CF93DF93CDB7DEB74A
:102C50002E970FB6F894DEBF0FBECDBFCE01019602
:102C60000E94461F81E049815A816B817C81452BFE
:102C7000462B472B09F480E02E960FB6F894DEBF62
:102C80000FBECDBFDF91CF9108951F93CF93DF93F8
:102C900010917706C12F012E000CDD0B1C161D06AE
:102CA000ECF4CE010E94BD200E9424168823B1F0CE
:102CB00010932F0110932E01CE010E9424158091B4
:102CC0002F0190E00E948A1D45E050E064E670E02C
:102CD00081E0DF91CF911F910C94431EDF91CF9142
:102CE0001F9108951092E5038091CC069FEF980FF5
:102CF000943088F4813021F460E080E00E9471100B
:102D00000E94CB1E41E050E064E670E081E00E944A
:102D1000431E81E0089510924F0341E050E061E0CE
:102D200070E080E00E94431E80E00895CF93DF931F
:102D3000EC018F309105A9F48BE892E00E94001E0F
:102D400043E050E064E670E081E00E94431E60E0F2
:102D500084E190E00E94710A109211041092100414
:102D60005BC08E309105B9F48FE892E00E94001E9E
:102D700043E050E064E670E081E00E94431E6FE7AC
:102D800084E190E00E94710A8FE790E09093110433
:102D90008093100441C08830910549F488E0809305
:102DA0004C0383E992E0DF91CF910C94001E8930AF
:102DB000910594F580934C039093E4068093E30689
:102DC00080E1EEE1F1E0A2EDB6E001900D928A958E
:102DD000E1F7FE01EE0FFF1FE45FFE4F808191815E
:102DE0000E948A1D8CE08C9FB0018D9F700D112474
:102DF000072E000C880B990B0E94BA2EAB01BC0168
:102E000080914D0390914E030E94AE0ABC0180E078
:102E1000DF91CF910C945B1DDF91CF9108950F93BB
:102E20001F93CF93DF93BC018091CC06813009F0D2
:102E300059C000914C030830A1F58091D9039091BD
:102E4000DA03861B970B8530910520F49093DA0303
:102E50008093D9038091D9039091DA03909347032B
:102E60008093460382309105B1F02CF40197B1F4C0
:102E700083EA92E00AC08330910529F0049771F447
:102E800087E992E002C08BE992E0DF91CF911F9138
:102E90000F910C94001E8FE992E0F7CF87EA92E041
:102EA000F4CF10E09801220F331FF901E45FFE4FC9
:102EB00040815181640F751FCB018D599F4F873C15
:102EC000910510F471836083F901E45FFE4F808106
:102ED00091810E948A1DC801DF91CF911F910F91AE
:102EE0000C9496169091E503911105C09EEF980FF2
:102EF000923088F505C0811103C082E08093CC0632
:102F000040912E01640F19F060932E0103C083E6F7
:102F100080932E0180912E01843618F081E08093F9
:102F20002E01C0912E01D0E0CE010E948A1DCE015B
:102F30000E94BD200E9424168093F5060E947E1DEB
:102F400040E050E06CE271E081E0DF91CF911F91B1
:102F50000F910C94431E843009F05CC1E0910B0189
:102F6000EA30A1F480915003909151030E945804DB
:102F7000880F991FFC01E059FD4F6591749180EE17
:102F800093E00E94822C80EE93E07FCFE53109F040
:102F900048C0C0915003D09151030CE020E0462F6F
:102FA00063E776E0CE010E94D70310924503E091DB
:102FB00073068E2F90E08D309105F0F4FC01E85BF4
:102FC000FF4F0C947D2D80916E0601C088E18093A7
:102FD000740612C085E0FBCF84E0F9CF88E0F7CF1C
:102FE00080E5F5CF82E0F3CF84E001C08CE08093F0
:102FF000740681E08093450360E070E0CE010E949A
:10300000EB03E0917306F0E0EE0FFF1FEA5AFD4F6D
:10301000659174918BED93E00E94822C8BED93E08F
:1030200034CF8E2F90E0FC013897E331F10508F0A2
:10303000E8C0EB5AFF4F0C947D2D80915003909186
:1030400051030E94EB0306C08091500390915103FD
:103050000E94CE04EC01D7C08091490320916F06F5
:10306000882311F161157105F9F030E0A6EFB1E0A8
:1030700041E050E0CA01ED910E2E000CFF0BE2176B
:10308000F3072CF44F5F5F4F4730510599F7161641
:10309000170614F4019601C00197FC01EB50FE4F96
:1030A000808180936F060FC0620F711D61347105BE
:1030B00034F4161617062CF061E070E002C060E4EC
:1030C00070E060936F06C0916F06C0936D041BC0E3
:1030D000809150039091510320917206620F711DEF
:1030E0006B35710534F46A3071052CF46AE070E0D8
:1030F00002C06AE570E06093720660E070E00E94D2
:10310000CE04C0917206D0E07EC0809150039091B1
:10311000510320916E06620F711D6F3F710509F01A
:1031200034F4161617062CF061E070E002C06FEF61
:1031300070E060936E060E944E03C0916E06E3CF6E
:1031400080917606EB01C80FD11D87FDDA95D7FF78
:1031500002C0C0E0D0E0C133D10514F0C0E3D0E03C
:10316000C093760668974FC080914803811102C0D2
:10317000EB0102C0C0E0D0E080917806C80FD11DFD
:1031800087FDDA95D7FF02C0C0E0D0E0C436D10594
:1031900014F0C3E6D0E0C09378061092480333C021
:1031A00080914803811102C0EB0102C0C0E0D0E071
:1031B00080917706C80FD11D87FDDA95D7FF02C031
:1031C000C0E0D0E0C436D10514F0C3E6D0E0C0932F
:1031D0007706CC2341F080917806181624F481E01C
:1031E0008093530302C01092530310924803CE0100
:1031F0000E94BD200E9424168093F5060E947E1D29
:1032000002C0C0E0D0E0CE01DF91CF911F910F91BD
:103210000C948A1D80914903882389F040913001E4
:10322000640F60933001062E000C770B80916F06BF
:1032300090E0681779076CF0109230010AC0809115
:103240002F0180932E0190E00E948A1D81E08093DF
:10325000E503DF91CF911F910F910895DC018C91CF
:10326000E9E1F4E0808311968C91119781831296A5
:103270008C91828381E080931804089590931704C1
:103280008093160480911004909111048F3791055A
:1032900031F48091140490911504029720F081E09C
:1032A000809318040895E0910E04F0910F04E25900
:1032B000FB4FDF01A05CBF4F4C91042E000C550B5F
:1032C0006081062E000C770B8091120490911304FC
:1032D0000E94BD020E942E19E2CFCF92DF92EF92A0
:1032E000FF92CF93DF93AC01440F551FFA01EB5DC2
:1032F000FD4F20812E3008F02E506091320130E4D5
:10330000639FB00111242770262B20937C0020910D
:103310007A00206420937A0020917A0026FDFCCF69
:10332000209178006091790030E0362BFA01E55564
:10333000F94F3183208310921804FA01ED55F94FAB
:1033400060817181F901E61BF70BBF01F7FF03C034
:10335000719561957109E0913301F0913401E6179F
:10336000F7070CF019C161E060930D04FA01ED5507
:10337000F94F3183208320910C04222309F40CC1DE
:103380009C018130910509F450C01CF4892B51F047
:1033900003C18230910509F46CC08330910509F4B2
:1033A00095C0FAC06091AB067091AC0610921504FE
:1033B00010921404072E000C880B990B0E94BA2E51
:1033C00026E636E648E252E40E94102E2AE939E960
:1033D00041E451E40E949E2D0E94822E6B017C01EB
:1033E0009B0180910B048111A1C0C601D7FC0C96F2
:1033F000FC01E350FC4F8081882309F4CDC080910B
:103400000A04882319F0E091310102C0E0910E0412
:10341000F0E0E259FB4F8081082E000C990BC0822E
:103420002817390709F082C0B7C08091AD06909186
:10343000AE06309315042093140468E770E00E94F0
:10344000692DEB01249780910B0481117EC09C2F84
:1034500080910A04882319F0E091310102C0E091C3
:103460000E04F0E0E255FB4F8081C08398136DC0DD
:1034700093C0A091AF06B091B006909315048093CD
:1034800014049D010E94832D27E33AE040E050E0C0
:103490000E94D42C80910B04811173C0B9018091DA
:1034A0000A04882319F0E091310102C0E0910E0472
:1034B000F0E0EE0FFF1FE251FB4F808191813183DD
:1034C00020836817790709F05CC066C06091B10677
:1034D0007091B2069093150480931404072E000C8B
:1034E000880B990B0E94BA2E24E13EEA43E251E494
:1034F0000E94102E0E94822ECB0120910B042111DC
:1035000042C020910A04222319F0E091310102C047
:10351000E0910E04F0E0E259FA4F2081022E000CF7
:10352000330B60838217930771F536C0C6010E9482
:103530003E19E0910E04F0910F04E255FB4F4081DB
:10354000042E000C550BB6010EC0CE010E943E1990
:10355000E0910E04F0910F04E259FB4F6081062EBA
:10356000000C770BAE0180911204909113040E941D
:10357000BD02DF91CF91FF90EF90DF90CF900C9440
:103580002E19C90101C0CB01DF91CF91FF90EF90BF
:10359000DF90CF900C943E19DF91CF91FF90EF9088
:1035A000DF90CF9008958091A1069091A206019698
:1035B000843091052CF49093A2068093A10604C058
:1035C0001092A2061092A1068091A1069091A206E7
:1035D000FC01EE0FFF1FE35EFD4F4091140450917C
:1035E0001504208131814217530719F424E030E09B
:1035F00002C02AE030E030933401209333010C9470
:103600006D1980911404909115048130910589F011
:103610001CF4892B39F008958230910589F00397C5
:10362000D1F00895E0910E04F0910F04E259FB4FA0
:1036300018C0E0910E04F0910F04E255FB4F11C049
:10364000E0910E04F0910F04EE0FFF1FE251FB4FCB
:10365000808191810AC0E0910E04F0910F04E2593B
:10366000FA4F8081082E000C990B0C943E19CF93D1
:10367000DF932091FC03222309F448C0EC0183EB83
:1036800096E00E94A20B6A3071058105910550F405
:1036900020919F063091A0068881998199278217F1
:1036A0009307A1F18091FA039091FB030897F0F43E
:1036B0002091F8033091F9032F5F3F4F2770332794
:1036C00088819981F901EE0FFF1FEA51FC4F918328
:1036D00080833093F9032093F8038091FA0390914B
:1036E000FB0301969093FB038093FA0388819981F1
:1036F00099279093A00680939F0640E050E0BA017E
:1037000083EB96E0DF91CF910C947F0BDF91CF910B
:103710000895CF93DF938631F8F4C82FD0918806AF
:10372000D770DD0FD06460E0809187060E94711031
:103730008D2F0E941B068C2F0E941B06EC2FF0E0A1
:10374000EB57F94F84810E941B0661E08091870648
:10375000DF91CF910C947110DF91CF910895982F44
:10376000883028F0985085E17DE0E1E003C084E1F5
:103770007CE0E0E0492FF0E0EB57F94F248130E0A6
:1037800002C0359527959A95E2F720FD1EC0282F97
:1037900030E061110DC0F901EB57F94F21E030E045
:1037A00001C0220F4A95EAF72095948129230BC086
:1037B000F901EB57F94F21E030E001C0220F4A95A3
:1037C000EAF79481292B248311C0611111C0E72FDE
:1037D000F0E0EB57F94F21E030E001C0220F4A95AD
:1037E000EAF72095848128232483872F0C94891B52
:1037F000E72FF0E0EB57F94F21E030E001C0220F56
:103800004A95EAF78481282BEFCF0F931F93CF932C
:10381000DF93D82F05E816E0F801C381C770CC0FFD
:10382000C16460E082810E9471108C2F0E941B068F
:103830008D2F0E941B068FEF0E941B06ED2FF0E0DC
:10384000EB57F94F848361E0F8018281DF91CF91DA
:103850001F910F910C947110AF92BF92CF92DF9293
:10386000EF92FF920F931F93CF93DF9300D0CDB7CA
:10387000DEB78CB58F7D8CBD80915F049091600424
:103880000196843091052CF49093600480935F043A
:1038900004C01092600410925F0480915F048C5FFA
:1038A000803118F460E00E94AF1B82E10E94051C89
:1038B00083E10E94051C80919B0690919C06909349
:1038C00062048093610400E010E0EE24E394F12CA4
:1038D000E0915F04F0916004EE0FFF1FEE0FFF1FF9
:1038E000E00FF11FEE0FFF1FE35EFB4F6081718160
:1038F00020916104309162042F703327A701002EBC
:1039000002C0440F551F0A94E2F724233523309355
:10391000640420936304002E02C0369527950A9410
:10392000E2F791E0232B09F090E0FB01E35EFB4F0F
:1039300080A1981769F090A3892F90E0982F88278D
:10394000862B972B9A838983CE0101960E94371B81
:103950000F5F1F4F0430110509F0BACF80915F044B
:103960008C5F803118F461E00E94AF1B809161048C
:103970009091620480959095892F99278F77992748
:1039800090936404809363046DE1E62E64E0F62E68
:1039900075E5C72E72E0D72E00E010E0AA24A394AC
:1039A000B12C80916304909164049501002E02C0B3
:1039B000220F331F0A94E2F72823392391E0232BA7
:1039C00009F490E0F70182A9981791F092ABF60103
:1039D00020813181285F3F4F892F90E0982F8827E1
:1039E000822B932B9A838983CE0101960E94371BE9
:1039F0000F5F1F4FFFEFEF1AFF0A82E0C80ED11CC6
:103A00000730110571F60F900F90DF91CF911F9144
:103A10000F91FF90EF90DF90CF90BF90AF900895FF
:103A20000F931F93CF93DF93982F162F883020F09A
:103A300098500DE081E002C00CE080E0113021F0F0
:103A400090F0123099F50FC0E82FF0E0EB57F94FE6
:103A500021E030E001C0220F9A95EAF72095948189
:103A6000292324831DC0E82FF0E0C1E0D0E001C08D
:103A7000CC0F9A95EAF7EB57F94F94819C2B9483DE
:103A80000E94891BE02FF0E0EB57F94F123019F438
:103A90008481C82B03C0C0958481C823C483802F30
:103AA000DF91CF911F910F910C94891BDF91CF91E2
:103AB0001F910F9108950F931F93CF938B01611561
:103AC000704110F00FEF1FE0C82FC795CC27C795A6
:103AD000C061C12B8CB58F7D8CBD60E081E00E9400
:103AE00071108C2F0E941B06802F0E941B0661E024
:103AF00081E0CF911F910F910C9471109091F50678
:103B00008091F206992311F08E7F01C0816080932D
:103B1000F20608950F931F93CF93DF939C0180913A
:103B20004A0190914B018217930709F464C03093C6
:103B30004B0120934A01890137FF04C00027112758
:103B4000021B130BCAE0D0E0C801BE010E94692D20
:103B5000FC019093EF068093EE06CB01BE010E941C
:103B6000692D9093ED068093EC0637FF03C085E244
:103B700090E012C0C9018D599F4F873C910550F0CC
:103B8000C80164E670E00E94692DCB01BE010E946D
:103B9000692D02C084E290E09093EB068093EA06E0
:103BA000275F3F4F2331310530F484E290E090935A
:103BB000ED068093EC06A091EA06B091EB06A35DBA
:103BC000BD4F8C9180958093F406A091EC06B09146
:103BD000ED06A35DBD4F8C9180958093F306E35D68
:103BE000FD4F808180958093F206DF91CF911F91E8
:103BF0000F910C947E1DDF91CF911F910F9108952D
:103C00000F931F93CF93DF9327EE33E030934B0155
:103C100020934A018C01EAEEF6E0A5EFB6E044E21B
:103C200050E06BE070E0E80129918E01223619F432
:103C30007183608316C0203219F45183408311C010
:103C4000213434F0022E000C330B2753310907C006
:103C500020333CF0022E000C330B2053310931830A
:103C6000208381919191835D9D4FEC019881909586
:103C70009E93D6E0A23FBD07B1F6DF91CF911F9191
:103C80000F910C947E1D0F931F93CF93DF938B01A5
:103C9000EA018093E90640E050E0BA0181E896E04D
:103CA0000E947F0B1093E8060093E706D093E60688
:103CB000C093E506DF91CF911F910F910895E09198
:103CC000E306F091E406EE52F94F908181E08927F6
:103CD000808340E050E0BA0189E796E00C947F0BC6
:103CE0008093D00620E1829FC0011124FC01E2559F
:103CF000FA4F20E1A2EDB6E001900D922A95E1F78E
:103D000020910E0430910F042817390724F04096B3
:103D1000821793073CF480E190E09093E40680934F
:103D2000E30608952F7033273093E4062093E306CB
:103D30000895CF93DF9300D000D0CDB7DEB7809148
:103D40001004909111048F37910531F4809114047F
:103D500090911504029738F0809116049091170401
:103D60000E948A1D11C019821A821B821C828091B6
:103D70001904898380911A048A8380911B048B83A0
:103D8000CE0101960E94001E0F900F900F900F9091
:103D9000DF91CF9108951092CC06E2EDF6E01192FA
:103DA00086E0E23EF807D9F78091CB060E94701EAC
:103DB0000E94011B0C94991E20E5FC01208321E048
:103DC00021830895CF92DF92EF92FF920F931F937A
:103DD000FC016A017B014091C5065091C6066091C5
:103DE000C7067091C8060091C1061091C2062091C5
:103DF000C3063091C406DB01CA018C0D9D1DAE1DAA
:103E0000BF1D081719072A073B0758F44017510729
:103E10006207730780F568017901C41AD50AE60ABA
:103E2000F70A0091BD061091BE062091BF063091A1
:103E3000C006CB01BA01600F711F821F931F97014B
:103E40008601AF010E9487088091C5069091C60641
:103E5000A091C706B091C8068C0D9D1DAE1DBF1D5B
:103E60008093C5069093C606A093C706B093C80674
:103E7000B601C70104C060E070E080E090E01F91EF
:103E80000F91FF90EF90DF90CF9008952F923F9287
:103E90004F925F926F927F928F929F92AF92BF925A
:103EA000CF92DF92EF92FF920F931F93CF93DF9306
:103EB000CDB7DEB7C254D1090FB6F894DEBF0FBE3E
:103EC000CDBF9AAB89AB8EE0A9A9BAA91D928A95FC
:103ED000E9F70E94000A611571058105910509F451
:103EE00030C19B01AC01442755272BAB3CAB4DABFC
:103EF0005EABE6E3F1E065EC7DE98CE191E82191D0
:103F0000222391F0022F220F110B220B330BA90158
:103F10009801262737274827592763E971E080E071
:103F200091E00E94372DEBCF2EEF3FEF40E050E0C5
:103F30000E94062DDC01CB010196A11DB11D9EAF93
:103F40008DAFA3E0B0E02BA93CA94DA95EA90E94CA
:103F5000F32C69AF7AAF8BAF9CAFC12CD12C76011B
:103F6000DA01C9010496A11DB11D23968CAF9DAF46
:103F7000AEAFBFAF23972BA93CA94DA95EA9C2162E
:103F8000D306E406F50608F0DCC049015A018C1896
:103F90009D08AE08BF0838E083169104A104B1045F
:103FA00028F0F8E08F2E912CA12CB12CD701C6015E
:103FB0000496A11DB11DBC01CD01660F771F881F9E
:103FC000991F95018401000F111F221F331FAE019D
:103FD0004F5E5F4F0E948708AE014F5E5F4F58AF44
:103FE0004FAB1DA61EA61FA618AA8DA59EA5AFA500
:103FF000B8A988169906AA06BB0609F49DC0AFA900
:10400000B8AD8D919D91B8AFAFABEDADFEAD8E1754
:104010009F0709F069C019A61AA61BA61CA6A5E051
:10402000B0E02DA53EA54FA558A92C0D3D1D4E1D58
:104030005F1D0E94F32C23962CAD3DAD4EAD5FADC0
:104040002397260F371F481F591FCA01B901660F52
:10405000771F881F991F0AE010E020E030E0AE01D2
:104060004F5D5F4F0E94870849A45AA46BA47CA4AB
:1040700032E0430E511C611C711C89AD9AADABAD91
:10408000BCAD480E591E6A1E7B1E32E0440C551C06
:10409000661C771C3A95D1F746E3242E41E0342E76
:1040A00000E110E020E030E0AE014F5F5F4FC30160
:1040B000B2010E94870890E1490E511C611C711CDD
:1040C000FE0131969101205F3F4FC1010196DC0155
:1040D00011974C915191451309C04423A1F0190146
:1040E0008217930799F7DCCF019659F12DA53EA5CC
:1040F0004FA558A92F5F3F4F4F4F5F4F2DA73EA7AA
:104100004FA758AB72CF89A19AA1ABA1BCA1E9A9D5
:10411000FAA980839183A283B3838DA19EA1AFA1CD
:10412000B8A584839583A683B7832DA53EA5C20E2B
:10413000D31ED586C48605C0C80CD91CEA1CFB1C3E
:104140001ACF89A99AA9CE5BDF4F0FB6F894DEBFCC
:104150000FBECDBFDF91CF911F910F91FF90EF90D8
:10416000DF90CF90BF90AF909F908F907F906F9097
:104170005F904F903F902F900895CF93DF9300D0A2
:104180001F92CDB7DEB74AE0BE016F5F7F4F0E943E
:10419000892C84E1E6E3F1E0DF011D928A95E9F7DD
:1041A000BE016F5F7F4FCF010E94EE2F6BEA72E07E
:1041B00086E391E00E94E32F86E391E00F900F9059
:1041C0000F90DF91CF9108953FB7F8948091FB064F
:1041D0009091FC06A091FD06B091FE0626B5A89B25
:1041E00005C02F3F19F00196A11DB11D3FBFBA2F89
:1041F000A92F982F8827820F911DA11DB11DBC01E9
:10420000CD0142E0660F771F881F991F4A95D1F7AD
:1042100008951F920F920FB60F9211242F933F9380
:104220008F939F93AF93BF938091F6069091F7067B
:10423000A091F806B091F9063091FA0623E0230F19
:104240002D3720F40196A11DB11D05C026E8230FCE
:104250000296A11DB11D2093FA068093F606909355
:10426000F706A093F806B093F9068091FB069091AB
:10427000FC06A091FD06B091FE060196A11DB11DA0
:104280008093FB069093FC06A093FD06B093FE0678
:10429000BF91AF919F918F913F912F910F900FBE42
:1042A0000F901F901895CF93DF93CDB7DEB76A9725
:1042B0000FB6F894DEBF0FBECDBF789484B5826090
:1042C00084BD84B5816084BD85B5826085BD85B5BA
:1042D000816085BD80916E00816080936E00109238
:1042E00081008091810082608093810080918100B3
:1042F0008160809381008091800081608093800044
:104300008091B10084608093B1008091B0008160A1
:104310008093B00080917A00846080937A008091CD
:104320007A00826080937A0080917A008160809325
:104330007A0080917A00806880937A001092C100A0
:10434000109232018DEC92E00E94850A8DEC92E091
:104350009093B3028093B2028CEC92E09093B102FE
:104360008093B0028EE695E0EEEEF4E020E530E0DA
:10437000219331938E179F07D9F761E080E00E9467
:10438000AE1461E082E00E94AE1462E083E00E941D
:10439000AE1462E084E00E94AE148CE991E0909348
:1043A00003018093020180916900837F886080937C
:1043B0006900E99A1092710680916F0680936D04EE
:1043C00060E070E088EE92E00E94580460E070E0E7
:1043D00088EE92E00E94CE0488EE92E00E944E03A6
:1043E00061E08AE00E94AE1461E089E00E94AE14B0
:1043F00061E088E00E94AE1461E081E00E94AE14AA
:1044000061E08AE00E94711061E089E00E94711011
:1044100061E088E00E94711061E081E00E9471100B
:104420008DEC92E090934E0380934D038CEC92E0E0
:1044300090934B0380934A0308EE12E010935103CC
:104440000093500360E08EE00E94AE1460E08FE0C5
:104450000E94AE1460E080E10E94AE1460E081E151
:104460000E94AE1410931304009312040E94D31AF6
:104470000E94D31A0E94D31A0E94D31A81E080931B
:104480000C048CB58F7D8CBD0E944B0261E0809145
:1044900087060E94AE1461E0809187060E94711029
:1044A00060E0809187060E94711080E40E941B06E4
:1044B0008AE00E941B0688E10E941B0661E0809151
:1044C00087060E947110109188061770110F1064F2
:1044D00060E0809187060E947110812F0E941B0668
:1044E00080E00E941B0609E816E0AFE9EA2EA6E08C
:1044F000FA2ED8018D918D010E941B06E016F1065F
:10450000C1F761E0809187060E94711010E004E01D
:10451000010F61E0802F0E94101D61E0802F0E943A
:10452000AF1B62E0812F0E94101D62E088E0810FC6
:104530000E94101D62E08CE0810F0E94101D1F5F21
:10454000143029F761E08FE00E94101D62E08EE0D8
:104550000E94101D0E942C1C0E942C1C0E942C1CCE
:104560000E942C1C81E08093FC0361E085E00E94A6
:10457000AE1461E087E00E94AE1461E086E00E9424
:10458000AE1460E085E00E94711060E087E00E9458
:10459000711060E086E00E94711080E090E00E945F
:1045A0008A1D62E082E10E94AE1462E083E10E9413
:1045B000AE1480E190E00E94BE2C8093040161E083
:1045C00089E00E94AE140E944B028AEE96E090931E
:1045D000DD028093DC0288EE92E09093CF06809318
:1045E000CE0684E190E00E94BE2C90E090931104EE
:1045F00080931004E0E6EE2EE1E0FE2EF0E5CF2EF3
:10460000F1E0DF2E01E060E089E00E947110F70127
:1046100011917F01612F6170602785E00E94711008
:1046200011FB662760F9602786E00E94711012FB7B
:10463000662760F9602787E00E9471108CB5806260
:104640008CBDD6018D916D0180950E941B0680E086
:104650000E941B0661E089E00E94711066E470E030
:1046600080E090E00E94EA14BEE6EB16B1E0FB06A3
:1046700051F664E670E080E090E00E94EA1488EE73
:1046800092E09093D8038093D703E6ECF1E0E491B5
:10469000F0E0EE0FFF1FE053FF4F85919491909350
:1046A000400380933F03EAEDF1E0E491E0933E03A1
:1046B0000E944B0261E088E00E94AE14E0913F034B
:1046C000F0914003928180913E03892B8283CE0139
:1046D00001960E9467068981811107C08A81811134
:1046E0000DC08B8181110AC0A3C78F3F39F48A8125
:1046F0008F3F21F48B818F3F09F49AC7CE01019639
:104700000E94EE01613071058105914008F441C0BD
:10471000CE0109960E94DC1E89859A850E94480276
:104720009981E0913F03F091400380913E039130E5
:1047300049F4928180958923828380E897E10E94E1
:104740002B0217C0928180958923828386E00E9484
:104750001B06E0913F03F0914003928180913E035C
:10476000982B9283928180958923828387EB0E9484
:104770001B06E0913F03F0914003928180913E033C
:10478000892B82830E942A028981803221F489E068
:1047900003C080E001C081E09981913041F4982FFD
:1047A00094602D81211142C7982F94613FC79032A8
:1047B00011F4826003C09F3E09F48062809342033B
:1047C000CE0101960E9467060E94CB1E57E9A52ED6
:1047D00053E0B52E62EE862E66E0962E94E0792E9A
:1047E00025E1622E37E0232E312C40E0442E40E0BC
:1047F000542E80914303882309F48BC00E947207D2
:10480000882309F486C080916E06898380916F06A3
:104810008A83809170068B83809171068C8380914E
:1048200072068D83809173068E83809174068F83C8
:1048300080917506888780917606898780917706B2
:104840008A87809178068B87E7E5F3E0AEEEB4E0E7
:104850008C9111969C9111971296919387AFAE16F9
:10486000BF06B1F7CE010D960E94461F8EE0FE01F5
:104870003D96ADEBB6E001900D928A95E1F740E4EC
:1048800050E060E070E08EE694E00E94E40F40E4C7
:1048900050E060E070E08EEA94E00E94E40F40E8AF
:1048A00050E060E070E087E593E00E94E40F40E4B0
:1048B00050E060E070E08EE695E00E94E40F40E496
:1048C00050E060E070E08EEA95E00E94E40F40E482
:1048D00050E060E070E08EEE95E00E94E40F48E06A
:1048E00050E060E070E0CE0101960E94E40F44E0E9
:1048F00050E060E070E0CE0109960E94E40F40E4D1
:1049000050E060E070E08EE296E00E94E40F1092CA
:1049100043030E942C1C1A8619868091FA039091F9
:10492000FB03892B09F428C38091F6039091F703C8
:104930008F5F877090E0FC01EE0FFF1FEA51FC4F84
:10494000208131813A8729879093F7038093F6037A
:104950008091FA039091FB0301979093FB0380935E
:10496000FA03E984FA84870111276701CC24F1E076
:10497000DF22CD2CDD24003111050CF092C1CD28B1
:1049800009F48CC18091CC06813021F4C8010E94C9
:104990009616F2C280914903882309F424C1083095
:1049A00011050CF095C0043011050CF0E5C28091A2
:1049B000D302882309F474C04091CB0650E09A01D9
:1049C000B4E0220F331FBA95E1F7C80164E0880F05
:1049D000991F6A95E1F7DC01A255BA4FF901E2553A
:1049E000FA4F60E101900D926A95E1F7DC01A25562
:1049F000BB4FF901E255FB4F60E101900D926A95C2
:104A0000E1F7DC01A259BB4FF901E259FB4F60E12C
:104A100001900D926A95E1F7D80175E0AA0FBB1FCE
:104A20007A95E1F7A251BB4FFA0115E0EE0FFF1F97
:104A30001A95E1F7E251FB4F40E201900D924A9541
:104A4000E1F7DC01A259BA4FF901E259FA4F40E10E
:104A500001900D924A95E1F7DC01A251BA4FF9019C
:104A6000E251FA4F40E101900D924A95E1F7DC01E5
:104A7000A25DB94FF901E25DF94F80E101900D921D
:104A80008A95E1F783E692E00E94001E41E050E043
:104A900064E670E081E00E94431E1092D30212C0CF
:104AA00019821A821B821C828BE5898382E48A83A5
:104AB00081E38E0D8B83CE0101960E94001E81E062
:104AC0008093D302E092CB068E2D0E94701E54C2BA
:104AD0000E301105F1F10F30110531F10D301105D6
:104AE00009F078C00E94721681E08093CC06809114
:104AF0004D0390914E030E94850A80914C0390E0F3
:104B00000E9496168FE792E00E94001E80E1EEE17F
:104B1000F1E0A2EDB6E001900D928A95E1F761E037
:104B200080E00E94711028C27092CC0681E08093D0
:104B3000480380910B018F3031F480E180930B01A9
:104B400087E692E038C08FE080930B018BE692E01D
:104B500032C08FE692E00E94001E80915003909137
:104B600051030E9481021092CB0680E00E94701EC9
:104B700080914F038F5F80934F038330D1F030F4E7
:104B8000823009F0F9C183E792E015C08430B1F0BA
:104B9000853009F0F1C10E94B50680E090E00E94E6
:104BA0008A1D10924F0340E050E064E670E080E020
:104BB0000EC087E792E00E94001EDEC18BE792E004
:104BC0000E94001E40E050E064EF71E081E00E942E
:104BD000431ED2C17092CC06E0920B0180E090E0BF
:104BE0000E940F17C9C180913D03882361F081E0C5
:104BF0008E0D80932E0190E00E948A1D80913D03CE
:104C00000E94990FB9C180914403882361F081E02B
:104C10008E0D80932E0190E00E948A1D80914403A6
:104C20000E94A010A9C10E9472168091CB0620E1BB
:104C3000829F000D111D112420910E0430910F044C
:104C4000D801A259BB4F0217130731F0FD01E05CF8
:104C5000FE4F9081911106C0A05CBE4F2C9191E057
:104C600092279C9310930F0400930E049091CC060E
:104C7000911102C00E94701E0E94011B0E94991E89
:104C8000E0910E04F0910F04E251FA4F60818CB56F
:104C90008F7D8CBD8FE00E94AF1B6EC11092D3023E
:104CA0006BC14C2D4170F42EF8017097E730F1057F
:104CB00008F05EC1EC5CFF4F0C947D2D40934903DE
:104CC000CD2809F017C11092D30210924F0350C1A2
:104CD000CD2809F44DC180914903882389F0E2ED84
:104CE000F6E011928E169F06E1F78091CB060E94A6
:104CF000701E80915003909151030E94E80538C1C5
:104D00008091CC06813009F433C10E947216E2ED25
:104D1000F6E0119266E0E23EF607D9F78091CB0605
:104D20000E94701E00915003109151039091560300
:104D300081E0892780935603811105C060E00E94BD
:104D400071101092BE0240E050E0BA0185E694E096
:104D50000E947F0B80916B0490916C0490936A0485
:104D60008093690480910501882309F401C1809131
:104D70005603882309F4FCC0C8010E940E05C8012F
:104D80000E940B0DF5C0842F0E94990FF1C0842F53
:104D90000E94A010EDC0CD2809F4EAC0809149031B
:104DA000882331F07092CC068AE180930B01B1C068
:104DB000E0910E04F0910F04E251FA4F608181E01E
:104DC000682760838CB58F7D8CBD8FE00E94AF1B00
:104DD000CFC08091CC06813009F4CAC080914903CC
:104DE000811105C08091D202882309F477C02091F7
:104DF0000801CD2839F10091500310915103E22FA1
:104E0000022E000CFF0BE255FA4F81E080832093C5
:104E1000D102209331018091B8029091B902909310
:104E2000B7028093B60285E694E00E94A20B7093CD
:104E3000D0026093CF02C8010E940B0D1092BE02F7
:104E400061E046C0E090D1022E1927FF03C0809197
:104E50006F06280F00910601109107014091CF02C3
:104E60005091D0028091650490916604A0916704EE
:104E7000B0916804840F951FA11DB11D2003A001EE
:104E8000219F500D1124841B950BA109B109898321
:104E90009A83AB83BC83CE0101960E94A20B2E2D78
:104EA000220F330BF901E251FB4F24E6269FA001AC
:104EB000279F500D1124CA01B8010E94552D613958
:104EC00081E0780710F060E971E07183608360E051
:104ED00080E00E947110F092D2024AC04093E70233
:104EE00040930A04CD2811F41092B50210920D04DB
:104EF000F0920B040E9472163BC08091CC06813068
:104F0000B9F180914903882349F07092CC066092F0
:104F10000B0180E090E00E940F172AC0C114D10459
:104F200061F00E9472167092CC0699E190930B0189
:104F300080E090E00E940F1702C01092CC06809192
:104F4000500390915103F092B4026F2D0E9495038B
:104F500080910A04882361F0CD2851F0E091080186
:104F60000E2E000CFF0BE25DF94FF082F092B502BD
:104F7000F092F5060E947E1D1092D7021092D60282
:104F8000E091CE028E2F880F880F8093CE02E6B17B
:104F9000E073E295EF70E82BE093CE02EF70F0E063
:104FA000E059FE4F8081082E000C990B009701F10B
:104FB0002091D4023091D502820F931F9093D50295
:104FC0008093D4029C012D5F3F4F2730310580F044
:104FD000181619061CF08FEF9FEF02C081E090E0D9
:104FE0009093D7028093D6021092D5021092D402E9
:104FF000409104012091D6023091D7024203C001B2
:10500000439F900D1124009711F00E940F1780917B
:10501000CC068B7F51F40E94D31A80911804882308
:1050200021F00E94991E0E9472168DE796E00E9460
:10503000A20B672B682B692B09F4F9C040E050E004
:10504000BA018DE796E00E947F0B4091E2025091F9
:10505000E302C101841B950B61E070E001C0660FA3
:105060008A95EAF7440F551F440F551FFA01EE0FBA
:10507000FF1FEA57FE4F10EF80E090E0008132966C
:10508000DC01A40FB51FAE52B94F2C9101C0220F05
:105090000A95EAF7120F01968430910579F710937B
:1050A000E0029093DF028093DE021095160F1093BA
:1050B000E10229988CB580628CBD0091DC021091D0
:1050C000DD02D8011696ED91FC911797EE0FFF1FA8
:1050D000E058FE4F61E080810E947110809146038C
:1050E00090914703D8011696ED91FC911797009780
:1050F00009F4B9C28130910549F48091DA029091A6
:10510000DB02E817F90709F0AEC221C08230910531
:1051100041F48091DA029091DB02019709F0A3C279
:1051200016C08330910541F48091DA029091DB0240
:10513000E817F90761F497C2049709F094C28091C7
:10514000DA029091DB02181619060CF08CC2EE50B0
:10515000F94F808180952091DA023091DB02232B78
:1051600009F46BC290EF892380950E941B06809101
:10517000E1020E941B06299A0091DC021091DD02D7
:10518000F801868197810196833091050CF057C212
:10519000978386838091E906882309F468C281E8B1
:1051A00096E00E94A20B2091E7063091E806690183
:1051B000E12CF12CC616D706E806F90608F057C20E
:1051C00081E896E00E94A20B2091E7063091E80664
:1051D000220F331F890120E030E006171707280748
:1051E0003907C0F440E050E0BA0181E896E00E943F
:1051F0007F0B8091D8029091D90201969093D902A9
:105200008093D8022091E5063091E6061216130627
:105210000CF440C28091E2029091E3020196843046
:10522000910509F432C29093E3028093E2028091E7
:10523000D006E091E306F091E406B0E18B9FE00D2B
:10524000F11D1124E255FA4F8081882371F089E71E
:1052500096E00E94A20BE091E306F091E406EE5284
:10526000F94F208121110EC019C089E796E00E94F4
:10527000A20BE091E306F091E406EE52F94F208193
:1052800021110CC008E512E020E030E006171707F6
:105290002807390740F40E945F1E05C004E610E0AD
:1052A00020E030E0F3CF8091CC06813009F4B7C123
:1052B00080915603811105C08091E602882309F48C
:1052C00049C085E694E00E94A20B0E94B82E20916E
:1052D0003001217827FF03C021502E6F2F5F21302E
:1052E00049F42091C7023091C8024091C9025091FF
:1052F000CA0208C02091C3023091C4024091C50285
:105300005091C6020E946A2F181614F58091560318
:10531000882361F088EE92E00E940E0540E050E0A4
:10532000BA0185E694E00E947F0B2CC18091E602D1
:10533000882381F088EE92E00E940E0540E050E064
:10534000BA0185E694E00E947F0B1092E6021AC132
:105350001092CB0288EE92E00E94FF0B8091C10276
:10536000882351F085E694E00E94A20B6B30710512
:105370008105910508F099C14091C002442309F4C8
:1053800045C080917306853009F4AAC09091BF0290
:10539000992319F0863009F4A3C08930B9F5DD24CA
:1053A000D394809174068D1508F49AC08091BE0242
:1053B0000D2D10E0882309F491C185E694E00E9448
:1053C000A20B2091BC023091BD02029F7001039F8D
:1053D000F00C129FF00C112497012550310989011E
:1053E00020E030E0061717072807390768F485E63C
:1053F00094E00E94A20B870120E030E06017710763
:105400008207930708F458C1D394CBCF8091BE0292
:10541000882309F465C0E09108010E2E000CFF0BF3
:1054200020913101022E000C330BCF01821B930B14
:105430000196181619064CF080916F06BF01680F8F
:10544000711DCB01821B930B0196442301F1209126
:1054500073062830E1F4E255FA4F2081211117C07C
:1054600085E694E00E94A20B2091BA023091BB0223
:10547000890120E030E0061717072807390780F573
:1054800060E080E00E9471101092BE0229C0019776
:105490002091690430916A04829FA001839F500D7E
:1054A000929F500D1124052E000C660B770B8091F6
:1054B000650490916604A0916704B0916804841B10
:1054C000950BA60BB70B89839A83AB83BC83CE0164
:1054D00001960E94A20B2091060130910701C8CFCE
:1054E0008091E502811103C04C9BEDC002C04C9934
:1054F000F2C08091C202882309F442C08091050164
:10550000882361F040916B0450916C0460E070E07E
:1055100085E694E00E947F0B1092050181E0809364
:10552000C2029091E402992319F01092E40225C07E
:1055300090917206933340F09091300190FD04C039
:105540008093E4028093E60285E694E00E94A20B39
:1055500070936A046093690488EE92E00E9482046A
:1055600088EE92E00E940E0540E050E0BA0185E628
:1055700094E00E947F0B109256031092C20202C068
:105580001092CB028091CB02882309F448C080910D
:105590005203882321F0109252030E9445168091F5
:1055A000CB060E94701EE09108012E2F0E2E000CDB
:1055B000330B8091D00670E1879FC001112428171A
:1055C000390774F040962817390754F4EF700E2EFF
:1055D000000CFF0BEE52F94F908181E08927808308
:1055E0008091E7028823A9F080910D04882389F037
:1055F00010920B048FEF9FEF90933401809333014F
:1056000080911404909115040E946D1981E080939B
:105610000B0480915003909151030E940B0D411493
:10562000510409F4E6C80E940000D8C8892FC6C8F2
:1056300083E892E00E94001EC9C89FE094CD1782C3
:1056400016828091DA029091DB02019683309105F7
:105650002CF49093DB028093DA029CCD1092DB0253
:105660001092DA0297CDEE50F94F80817ECDD801AD
:105670001696ED91FC911797EE0FFF1FE058FE4F25
:1056800060E080810E947110C5CD1092E3021092FB
:10569000E202CDCD281739070CF0BCCD1092E906F7
:1056A0001092D9021092D802B5CD60E082E00E943B
:1056B00071101092C10260CE60E080E00E94711013
:1056C0001092BE02A1CE88EE92E00E94E80581E031
:1056D0008093E5020ECF1092E5020BCF85E694E0B1
:1056E0000E94A20B2091BC023091BD02029FA0013A
:1056F000039F500D129F500D11248A0120E030E0CD
:10570000601771078207930708F47ECE61E080E09E
:105710000E94711081E08093BE0276CE2FB7F8947C
:105720004091F6065091F7066091F8067091F906DF
:105730002FBFFC0140835183628373830895CF930D
:1057400080E2EDEFF1E0ADE1B4E001900D928A95D9
:10575000E1F780E1EDE3F4E0DF01982F1D929A95E7
:10576000E9F710924E0410924D04109260041092CA
:105770005F04EEEAF5E090E4DF011D929A95E9F707
:1057800091E0908322E320936E0680936F069093BE
:10579000700690937106209372061092730694E03F
:1057A0009093740698E790937506C8E1C0937606C7
:1057B000109277061092780680936D0460913501FF
:1057C00070E088E99AE30E94692D70936C046093FD
:1057D0006B0470936A046093690485E694E00E9408
:1057E0008E2B8DE796E00E948E2B89E796E00E9433
:1057F0008E2B81E896E00E948E2BE5E8F6E087EBA1
:1058000096E0918380838AE0828313828FEF848382
:105810008583168217821086118612861386148657
:105820001586C687C787108A118A128A138A148A36
:10583000158A168A178A108E118E83EB96E00E94C5
:105840008E2B88EB96E0CF910C948E2B8F929F92AB
:10585000AF92BF92CF92DF92EF92FF92CF93DF93FE
:10586000EC01688179818A819B81611571058105CF
:10587000910521F464E279ED8BE597E02DE133EFBA
:1058800041E050E00E94D42C49015A019B01AC0137
:10589000A7EAB1E40E94F32C6B017C01ACEEB4EFFB
:1058A000A50194010E94012DDC01CB018C0D9D1DF1
:1058B000AE1DBF1DB7FF03C00197A109B048888383
:1058C0009983AA83BB839F77DF91CF91FF90EF905D
:1058D000DF90CF90BF90AF909F908F9008950E94DF
:1058E000262C08958CE491E00E94262C0895A0E0D7
:1058F000B0E080934C0190934D01A0934E01B09382
:105900004F010895FB01DC0105900D920020E1F7A5
:105910000895BB274A3031F4992322F4BDE29095D3
:1059200081959F4F0C94952CBB27FB015527AA27E7
:10593000880F991FAA1FA41710F0A41B839550511C
:10594000B9F7A05DAA3308F0A95DA193009779F794
:10595000B111B1931192CB010C94AE2CDC01FC017E
:10596000672F71917723E1F7329704C07C916D9393
:1059700070836291AE17BF07C8F30895F999FECFFF
:1059800092BD81BDF89A992780B50895262FF9997F
:10599000FECF1FBA92BD81BD20BD0FB6F894FA9A12
:1059A000F99A0FBE01960895052E97FB1EF40094F8
:1059B0000E94EB2C57FD07D00E94062D07FC03D058
:1059C0004EF40C94EB2C50954095309521953F4F1B
:1059D0004F4F5F4F089590958095709561957F4FDB
:1059E0008F4F9F4F08950E94282DA59F900DB49F23
:1059F000900DA49F800D911D11240895B7FF0C9464
:105A0000F32C0E94F32C821B930B0895A1E21A2E13
:105A1000AA1BBB1BFD010DC0AA1FBB1FEE1FFF1F52
:105A2000A217B307E407F50720F0A21BB30BE40BA2
:105A3000F50B661F771F881F991F1A9469F76095E9
:105A40007095809590959B01AC01BD01CF010895A3
:105A5000A29FB001B39FC001A39F700D811D1124AF
:105A6000911DB29F700D811D1124911D0895DB01C0
:105A70008F939F930E94F32CBF91AF91A29F800DB3
:105A8000911DA39F900DB29F900D1124089587FB47
:105A9000082E062687FD819567FD61950E94922D4F
:105AA0000EF4919507FC81950895AA1BBB1B51E14B
:105AB00007C0AA1FBB1FA617B70710F0A61BB70B7E
:105AC000881F991F5A95A9F780959095BC01CD0123
:105AD000089597FB072E16F4009407D077FD09D0A0
