:100000000C94EC000C9414010C9414010C94140145
:100010000C9414010C9414010C9414010C9414010C
:100020000C9414010C9414010C9414010C941401FC
:100030000C9414010C9414010C9414010C941401EC
:100040000C94E1140C9414010C9414010C941401FC
:100050000C9414010C9414010C9414010C941401CC
:100060000C9414010C941401D319DF19031A491AC2
:10007000711C931C521C680260024502500260020F
:1000800068026A026D0277020100010001000100AE
:100090000100010001010001010001000100010156
:1000A0000001010100000101000101000101010145
:1000B0000001010001010101000100010100010036
:1000C0000101010100010101010100000100010025
:1000D0000100000100010100010001000001000118
:1000E0000000010100010100010001010001000107
:1000F00001000100010100010001000101010101F5
:1001000001010101010101010101524F4C00535451
:100110005400524E44005354500046525A00474C2B
:1001200044004F4354005245560052455000574832
:100130004F00444F520050485200424C3200424C53
:1001400055005045320050454E004D494E004D413E
:100150004A004348520000000000240027002A0003
:1001600000000000250028002B00000000002300F4
:100170002600290004040404040404040202020208
:10018000020203030303030301020408102040805A
:1001900001020408102001020408102000000008D9
:1001A000000201000003040700000000000000003E
:1001B0002A01260122011E011A01160112010E0157
:1001C0000A0152014E014A01460142013E013A0133
:1001D000360132012E01812411241FBECFEFD8E059
:1001E000DEBFCDBF12E0A0E0B1E0E2E7F1E502C082
:1001F00005900D92A435B107D9F725E0A4E5B2E04A
:1002000001C01D92A83FB207E1F710E0CCEED0E0AC
:1002100004C02197FE010E943726CB3ED107C9F7C3
:100220000E942B150C94B7280C940000CF92DF92FB
:10023000EF92FF926091C0037091C103072E000CF2
:10024000880B990B0E947C276B017C0160918B05C8
:1002500070E080E090E00E947A279B01AC01C7012A
:10026000B6010E94312820E030E048EC52E40E94C0
:10027000D2260E944B2770935E0260935D02FF902E
:10028000EF90DF90CF900895FC0180818F3119F4B9
:100290009181993859F1228190EF920F903128F095
:1002A00090EE920F963078F4265081E090E0A0E036
:1002B000B0E0BC01CD0104C0660F771F881F991FF5
:1002C0002A95D2F70895811106C08181811113C04A
:1002D000211111C007C08F3F71F481818F3F59F404
:1002E0002F3F49F460E070E0CB01089560E070E0DA
:1002F00080E091E0089560E070E080E190E0089592
:1003000008950CB405FC0DC09EBD00000DB407FEA1
:10031000FDCF9EB58EBD00000DB407FEFDCF8EB59E
:1003200008958EBD00000DB407FEFDCF8EB59EBDB5
:1003300000000DB407FEFDCF9EB508958CBD9DBD98
:100340000895CF93CFB7F89480911C03811127C0F3
:10035000EEE7F1E08491E2E9F1E09491E82FF0E03A
:10036000EE0FFF1FEA5AFE4FA591B491EC91E923DD
:1003700021F461E08AE00E94241461E08AE00E9496
:100380006B148CB580618CBD8CB580648CBD61E0D4
:100390008DE00E946B1461E08BE00E946B148091F1
:1003A0001C038F5F80931C03CFBFCF910895CF9222
:1003B000DF92EF92FF9280917802882359F080912A
:1003C0008A05833039F480918B0524E0829FC00137
:1003D000112403C08091850590E0909308018093DB
:1003E00007016091070170910801072E000C880B2E
:1003F000990B0E947C2720E030E048EC52E40E94F8
:10040000D2266B017C016091C0037091C103072E5D
:10041000000C880B990B0E947C279B01AC01C70143
:10042000B6010E9431280E94442770931B036093F9
:100430001A03FF90EF90DF90CF9008950F93FB0188
:100440008081811102C047FD0BC0840F081710F492
:10045000008305C0821710F0808301C02083808153
:100460000F9108950F931F93CF93DF93E0918A0527
:100470000E2F10E00930110508F04CC0462FEC019A
:10048000F801E55CFF4F0C94372608E020E06BE8AC
:1004900075E00E941E0280918B0590E004973DC09C
:1004A00004E621E06BE875E00E941E02CE010E9486
:1004B000D70180918B0524E0829FC00111242DC0BB
:1004C00001E020E06BE875E0CE010E941E0222C030
:1004D00000E101C002E321E0F5CF04E621E06BE892
:1004E00075E00E941E02CE010E94160113C008E0B2
:1004F00021E06BE875E00E941E0260918B0570E0C0
:100500008091C0039091C1030E94232670936002E2
:1005100060935F0280918B0590E0DF91CF911F91F6
:100520000F91089520918805CB01820F911D97FFAF
:1005300002C080E090E08A30910514F089E090E0FC
:1005400080938805FC01EE0FFF1FEC54FE4F608185
:100550007181ABE5B3E020E030E0FB01E20FF31F77
:10056000E49141E0E11101C040E04D932F5F3F4F26
:100570002D30310591F70895CF92DF92EF92FF92DF
:10058000CF93DF93C091C003D091C10360918905DF
:1005900070E080E090E00E947A276B017C01BE0150
:1005A0000D2E000C880B990B0E947C279B01AC013F
:1005B000C701B6010E94312820E030E048E452E44F
:1005C0000E94D2266B017C016093620270936302E9
:1005D0008093640290936502BE01660F771F072E19
:1005E000000C880B990B0E947C27A70196010E94A2
:1005F000602660936602709367028093680290930E
:100600006902DF91CF91FF90EF90DF90CF90089536
:10061000CF93DF93EC0180911001680F711D6B3F48
:10062000710534F4643171052CF464E170E002C0AA
:100630006AEF70E0262F6093100188E99AE30E9428
:1006400023267093C3036093C20380916A028823B8
:1006500021F07093C1036093C00320938C05CE01F9
:100660000E94BC0260918B0570E08091C003909164
:10067000C1030E9423267093600260935F02CE0143
:100680000E9416018091100190E0DF91CF910895B2
:10069000809103018F5F80930301082E000C990B5A
:1006A0002091860530E08217930714F01092030121
:1006B00080916102811107C081E08093610261E055
:1006C00082E00E942414809178028823D1F18091E5
:1006D0008A05811127C080910601482F082E000C41
:1006E000550B20915C0230E04217530761F4909162
:1006F0008B05891B8F5F8093060187FF26C0909131
:100700008605890F20C08F5F80930601082E000C9C
:10071000990B2091860530E082179307B1F410926F
:10072000060113C0813059F48091060181508093F5
:10073000060187FF0AC080918605815004C084307D
:1007400021F0809103018093060190915B028091DA
:100750000601992341F0E82F082E000CFF0BEB5FF8
:10076000FA4F91E09083E82F082E000CFF0BEB5F0F
:10077000FA4F9081992351F080930C01809174027B
:1007800090917502909319038093180381E08093F0
:100790006B020895CF92DF92EF92FF920F931F9317
:1007A000EFB7F8940091CF051091D0052091D105B5
:1007B0003091D205EFBF68017901C41AD50AE60A63
:1007C000F70AFC01C082D182E282F3821F910F916D
:1007D000FF90EF90DF90CF9008958EBD00000DB494
:1007E00007FEFDCF8EB50895CF93DF9300D0CDB730
:1007F000DEB7CE0101960E94071089819A810E947E
:100800009E01E0915702F091580292818091560228
:1008100080958923828380915A0281FF18C080E7E6
:100820000E94ED0380E00E94ED03E0915702F091F9
:100830005802228190915602922B928387FFD9CF42
:10084000109259020F900F90DF91CF91089585E09B
:100850000E94ED0380E00E94ED03E0915702F091C9
:100860005802228190915602922B928380FDC1CF33
:10087000E7CF0F931F93CF93DF9300D0CDB7DEB7B1
:100880008C018091590281110E94F403CE010196DE
:100890000E94071089819A810E949E01E09157026F
:1008A000F09158029281809156028095892382832B
:1008B0008FE90E94ED0380E00E94ED03F801808340
:1008C00080E00E94ED03F801818380E00E94ED0347
:1008D000F80182838081813051F480E00E94ED0331
:1008E000F801838380E00E94ED03F8018483E091A6
:1008F0005702F0915802928180915602892B82838F
:100900000F900F90DF91CF911F910F910895FF925B
:100910000F931F93CF93DF93CDB7DEB727970FB613
:10092000F894DEBF0FBECDBF80915902811102C085
:1009300081E0E0C0CE0101960E94071089819A8172
:100940000E949E01E0915702F0915802928180919D
:10095000560280958923828380915A0281FF18C0B4
:1009600080E70E94ED0380E00E94ED03E0915702D2
:10097000F0915802228190915602922B928387FF28
:10098000B8C01092590280915A02807C89F212C03C
:1009900085E00E94ED0380E00E94ED03E0915702A4
:1009A000F0915802228190915602922B928380FFFF
:1009B000E8CF9FC0CE0101960E9439048981803220
:1009C00009F066C09B8180EE890F833008F060C01B
:1009D000913211F424E001C022E080915A02082FE4
:1009E00010E036E0159507953A95E1F78F738093FF
:1009F0005A02021708F07DC0923219F428E0F22E54
:100A000002C092E0F92ECE0106960E9407108E8158
:100A10009F810E949E01E0915702F09158029281BD
:100A20008091560280958923828386E00E94ED039F
:100A3000E0915702F0915802928180915602982BD2
:100A40009283928180958923828384EC0E94ED03B6
:100A500080E0F09E902D11240E94810180E090E0C2
:100A60000E948101E0915702F09158029281809199
:100A70005602892B82830F5F1F4F86E0000F111FE4
:100A80008A95E1F780915A02082B00935A022EC0F2
:100A9000CE0106960E9407108E819F810E949E01C2
:100AA000E0915702F0915802928180915602809510
:100AB0008923828386E00E94ED03E0915702F09142
:100AC0005802928180915602982B92839281809550
:100AD0008923828387EC0E94ED03E0915702F09115
:100AE0005802928180915602892B828383E0809301
:100AF000590280E027960FB6F894DEBF0FBECDBF37
:100B0000DF91CF911F910F91FF9008952F923F9207
:100B10004F925F926F927F928F929F92AF92BF920D
:100B2000CF92DF92EF92FF920F931F93CF93DF93B9
:100B300000D000D000D0CDB7DEB76B837C838D832F
:100B40009E831A01480159018091590281110E9426
:100B5000F403CE0101960E94071089819A810E94B8
:100B60009E01E0915702F0915802928180915602C5
:100B700080958923828386E00E94ED03E0915702ED
:100B8000F0915802928180915602982B928340E016
:100B900051E060E070E02B81421B5109610971094D
:100BA00075016401481559056A057B0510F46A0151
:100BB0007B01928180958923828380915A022B81C7
:100BC0003C814D815E812A016624772480FF05C027
:100BD00082E00E94ED03C20103C0C2019927926026
:100BE0000E9481018B819C810E9481018B819C816B
:100BF000AD81BE818C0D9D1DAE1DBF1D8B839C8361
:100C0000AD83BE838C189D08AE08BF088101260104
:100C10003701D8018D918D010E94ED03B1E04B1A8F
:100C2000510861087108A9F7E1E0CE1AD108E1087E
:100C3000F108FFEFCF1ADF0A2C0C3D1CE0915702A0
:100C4000F0915802928180915602892B828324E090
:100C50002093590281149104A104B10409F074CFC6
:100C600026960FB6F894DEBF0FBECDBFDF91CF91B1
:100C70001F910F91FF90EF90DF90CF90BF90AF90BA
:100C80009F908F907F906F905F904F903F902F90AC
:100C900008952F923F924F925F926F927F928F9220
:100CA0009F92AF92BF92CF92DF92EF92FF920F93FB
:100CB0001F93CF93DF93CDB7DEB728970FB6F89485
:100CC000DEBF0FBECDBF6B017C011A014801590187
:100CD000A80160E070E0C1010E949E2800915A02C4
:100CE000CE0101960E94071089819A810E949E017F
:100CF00010915902112309F483C0E0915702F09139
:100D00005802928180915602809589238283809136
:100D10005A0281FF0AC080E70E94ED0380E00E9432
:100D2000ED0387FF0AC010E008C085E00E94ED03D4
:100D300080E00E94ED0380FFF6CFE0915702F09132
:100D40005802928180915602982B9283111103C010
:100D50001092590255C0133008F047C09281809517
:100D60008923828386E00E94ED03E0915702F0918F
:100D70005802828190915602892B828302FF02C021
:100D8000113011F085E701C085E82281909592230A
:100D900092830E94ED03E0915702F09158029281F4
:100DA00080915602982B9283809592818923828329
:100DB00001FF09C080E70E94ED0380E00E94ED037F
:100DC00087FFFBCF08C085E00E94ED0380E00E9412
:100DD000ED0380FDFBCFE0915702F0915802928124
:100DE00080915602892B82830BC00E94F403CE01AE
:100DF00001960E94071089819A810E949E0110E04D
:100E0000802F88708F83902F91709887AF81AA234D
:100E100011F1D701C601880D991DAA1DBB1D0197AF
:100E2000A109B1098C259D25AE25BF2588279927C5
:100E3000AA27BE7F892B8A2B8B2B69F0D701C6018D
:100E4000B170412C512C612C22E0722E481A590AA3
:100E50006A0A7B0A02C024013501E0915702F09131
:100E60005802928180915602809589238283C7011E
:100E7000AA27BB278B839C83AD83BE839885992348
:100E800031F083E00E94ED038B819C8104C08B8153
:100E90009C81992793600E948101C6010E94810173
:100EA000920141145104C1F0D1018C918EBDF10128
:100EB000C201019741F051810DB407FEFDCF4EB53F
:100EC0005EBD4193F6CFF9013197E20DF31D0DB4EC
:100ED00007FEFDCF8EB58083E0915702F091580256
:100EE000928180915602982B9283220E331EC40C5D
:100EF000D51CE61CF71C84189508A608B70809F04D
:100F000085CF112331F1928180958923828386E0F8
:100F10000E94ED03E0915702F09158028281909176
:100F20005602892B828302FF04C0113011F48AE833
:100F300001C08AE722819095922392830E94ED035B
:100F4000E0915702F0915802928180915602892BCC
:100F5000828328960FB6F894DEBF0FBECDBFDF9117
:100F6000CF911F910F91FF90EF90DF90CF90BF90A6
:100F7000AF909F908F907F906F905F904F903F9039
:100F80002F9008950F931F93CF93DF93CDB7DEB7C4
:100F900028970FB6F894DEBF0FBECDBF08E010E073
:100FA00020E030E0AE014F5F5F4F60E070E0CB01CA
:100FB0000E94490689819A81AB81BC818C3425E5E8
:100FC000920726E9A2072AEFB207F1F18F3F9F4F60
:100FD000AF4FBF4F21F060E070E0CB0139C08CE42F
:100FE00095E5A6E9BAEF89839A83AB83BC8388E54C
:100FF00092E0A6EFB8E18D839E83AF83B88708E0C7
:1010000010E020E030E0AE014F5F5F4F60E070E045
:10101000CB010E9486050E9487048823E1F308E043
:1010200010E020E030E0AE014F5F5F4F60E070E025
:10103000CB010E94490689819A81AB81BC818C34A5
:101040009545A649BA4F39F66D817E818F81988585
:1010500028960FB6F894DEBF0FBECDBFDF91CF91BB
:101060001F910F9108950F931F93CF93DF9305E284
:1010700011E0C0E0D0E0CE010E949A2590E08456B5
:1010800091099C0197FF04C022273327281B390BA5
:10109000F801243631051CF49183808302C011824B
:1010A000108221960E5F1F4FC930D10521F7DF91C5
:1010B000CF911F910F9108952F923F924F925F927F
:1010C0006F927F928F929F92AF92BF92CF92DF9258
:1010D000EF92FF920F931F93CF93DF9300D000D036
:1010E00000D0CDB7DEB76A017B0120E030E040ECF4
:1010F00052E4C701B6010E942C2818166CF020E0BB
:1011000030E0A901C701B6010E94CD2687FF0AC0C1
:10111000C12CD12C760106C0C12CD12C40ECE42E80
:1011200042E4F42E20E030E040E451E4C701B6018F
:101130000E94D2260E9444272B013C011B01C701BB
:10114000B6010E944427CB016CE070E00E94232688
:1011500001E010E01816190614F000E010E0040D8C
:10116000151DC201880F991FFC01EE55FE4FDC01D1
:10117000AB5DBE4F208131818D919C91280F391F2D
:101180003E832D83B90180E090E00E947A274B01D5
:101190005C01F801EE0FFF1FDF01AE55BE4FEB5DA6
:1011A000FE4F6D917C9180819181680F791F80E065
:1011B00090E00E947A2769837A838B839C83201630
:1011C000310681F1B201550C880B990B0E947C27E6
:1011D00020E030E040E451E40E9431289B01AC0162
:1011E000C701B6010E9460266B017C01A501940134
:1011F00069817A818B819C810E9460269B01AC0170
:10120000C701B6010E94312820E030E040E451E4FB
:101210000E94D226A50194010E9461260E944B27BC
:101220007E836D838D819E8126960FB6F894DEBFF6
:101230000FBECDBFDF91CF911F910F91FF90EF9027
:10124000DF90CF90BF90AF909F908F907F906F90E6
:101250005F904F903F902F900895CF93DF93EC01D4
:101260008093E705E1E2F3E081E393E011928E17CA
:101270009F07E1F7FE01EF5DFC4F81E08083FE01F7
:10128000EE0FFF1FEB5DFE4F808191810E949E0E4D
:101290008CE08C9FB0018D9F700D1124072E000CE7
:1012A000880B990B0E947C27AB01BC018091E5055E
:1012B0009091E6050E945C08BC0180E0DF91CF912F
:1012C0000C946F0E0F931F93FC012FB7F89480912D
:1012D000CF059091D005A091D105B091D2052FBF37
:1012E0000081118122813381BC01CD01601B710B12
:1012F000820B930B1F910F910895CF93DF9300D032
:1013000000D0CDB7DEB780910601082E000C990BF6
:101310009C01261B370B37FF07C020918605820FE3
:10132000911D9C01261B370B8091C0039091C10336
:10133000289FA001299F500D389F500D1124052E84
:10134000000C660B770B8091BC039091BD03A091BC
:10135000BE03B091BF03841B950BA60BB70B89830B
:101360009A83AB83BC83CE0101960E946209CB01B4
:101370000F900F900F900F90DF91CF9108958F9263
:101380009F92AF92BF92CF92DF92EF92FF92CF9354
:10139000DF9340917802442309F469C020918A05C3
:1013A000253009F064C0209177022111E9C06091D5
:1013B0005C0270E00E947D09EC0120918B05809118
:1013C000C0039091C103289FB001299F700D112483
:1013D000072E000C880B990B0E947C276B017C0167
:1013E0006091740270917502072E000C880B990BA6
:1013F0000E947C274B015C01BE01DD0F880B990B1D
:101400000E947C279B01AC01C701B6010E946026A7
:101410009B01AC01C501B4010E943128A7019601CE
:101420000E94D2266B017C0120E030E040E85FE3BF
:101430000E94CD26881F8827881F80937702B701D6
:10144000A60180917202909173020E945C08BC0117
:1014500080E00E946F0E80917702882309F490C08B
:1014600060E080E00E9424141092760289C06091AE
:101470000C01062E000C770B9B012B533C4FF901FE
:10148000E05CFE4F5081552329F0E05CFF4F208146
:10149000211108C0442309F473C020918A05233028
:1014A00009F06EC00E947D09C0911A03D0911B0300
:1014B0008C179D070CF047C010927702AE01481BB5
:1014C000590B2091180330911903429FB001439F9B
:1014D000700D529F700D112440917402509175024D
:1014E000849F9001859F300D949F300D1124620FD1
:1014F000731F072E000C880B990B0E947C276B0131
:101500007C01BE01DD0F880B990B0E947C279B019B
:10151000AC01C701B6010E94D226AB01BC0180918B
:101520007202909173020E945C08BC0180E0DF911E
:10153000CF91FF90EF90DF90CF90BF90AF909F90B2
:101540008F900C946F0E80917702811119C0609179
:10155000740270917502072E000C880B990B0E9483
:101560007C27AB01BC0180917202909173020E94B2
:101570005C08BC0180E00E946F0E81E080937702DE
:10158000DF91CF91FF90EF90DF90CF90BF90AF9021
:101590009F908F900895CF93DF9320915A03222339
:1015A00071F1EC0186EC95E00E9462096B307105E7
:1015B0008105910520F18091580390915903089776
:1015C000F0F420915603309157032F5F3F4F27705F
:1015D000332788819981F901EE0FFF1FEC5BFC4FE7
:1015E000918380833093570320935603809158034F
:1015F0009091590301969093590380935803DF917A
:10160000CF910895CF93DF938631F8F4C82FD0910E
:101610009D05D770DD0FD06460E080919C050E942D
:1016200024148D2F0E94ED038C2F0E94ED03EC2FCC
:10163000F0E0E656FA4F84810E94ED0361E080916C
:101640009C05DF91CF910C942414DF91CF910895E4
:101650000F931F93CF93DF93D82F0AE915E0F8017A
:10166000C381C770CC0FC16460E082810E942414E2
:101670008C2F0E94ED038D2F0E94ED038FEF0E94AF
:10168000ED03ED2FF0E0E656FA4F848361E0F801B8
:101690008281DF91CF911F910F910C942414AC01A2
:1016A000440F551FFA01EA5DFD4F20812E3008F0EE
:1016B0002E5060910D0130E4639FB001112427701A
:1016C000262B20937C0020917A00206420937A00BE
:1016D00020917A0026FDFCCF20917800609179005E
:1016E00030E0362BFA01E254FA4F31832083109216
:1016F0007303FA01EA54FA4F60817181F901E61B24
:10170000F70BBF01F7FF03C0719561957109E09177
:101710000E01F0910F01E617F7070CF0F0C0FA0187
:10172000EA54FA4F3183208320917203222309F473
:10173000E6C08130910509F450C01CF4892B51F0AA
:1017400008958230910509F46DC08330910509F444
:1017500095C008956091BE057091BF0510926F030A
:1017600010926E03072E000C880B990B0E947C27A9
:1017700026E636E648E252E40E94D2262AE939E912
:1017800041E451E40E9460260E944427AB0120916D
:101790006D032111A3C09B0177FF02C0245F3F4F5F
:1017A000F901E55AFC4F2081222309F4A8C02091B9
:1017B0006A03222319F0E0910C0102C0E091680352
:1017C000F0E0EB53FC4F2081022E000C330B6083C2
:1017D0004217530709F082C008952091C005309147
:1017E000C10590936F0380936E03C90168E770E0B1
:1017F0000E9423266450710980916D0381116EC08F
:10180000962F80916A03882319F0E0910C0102C0A1
:10181000E0916803F0E0EB5FFB4F808160839813F9
:101820005DC00895A091C205B091C30590936F0368
:1018300080936E039D010E943D2627E33AE040E03D
:1018400050E00E94B02580916D0381114CC0B90118
:1018500080916A03882319F0E0910C0102C0E091A5
:101860006803F0E0EE0FFF1FEB5BFB4F808191817F
:101870003183208368177907B1F508956091C40515
:101880007091C50590936F0380936E03072E000C33
:10189000880B990B0E947C2724E13EEA43E251E445
:1018A0000E94D2260E944427CB0120916D03211172
:1018B0001FC020916A03222319F0E0910C0102C09D
:1018C000E0916803F0E0EB53FB4F2081022E000C07
:1018D000330B60838217930759F408957093710353
:1018E0006093700309C0309371032093700304C0A8
:1018F000709371036093700381E080937303089584
:101900008091B4059091B5050196843091052CF431
:101910009093B5058093B40504C01092B50510925C
:10192000B4058091B4059091B505FC01EE0FFF1F41
:10193000E25EFD4F40916E0350916F032081318133
:101940004217530719F424E030E002C02AE030E0E7
:1019500030930F0120930E010C944F0B80916E0376
:1019600090916F038130910589F01CF4892B39F037
:1019700008958230910589F00397D1F00895E091A0
:101980006803F0916903EB53FC4F18C0E0916803C2
:10199000F0916903EB5FFB4F11C0E0916803F09198
:1019A0006903EE0FFF1FEB5BFB4F808191810AC043
:1019B000E0916803F0916903EB53FB4F8081082E9F
:1019C000000C990B909371038093700381E08093D6
:1019D00073030895982F883028F0985085E17DE0B2
:1019E000E1E003C084E17CE0E0E0492FF0E0E6566E
:1019F000FA4F248130E002C0359527959A95E2F799
:101A000020FD1EC0282F30E061110DC0F901E656FF
:101A1000FA4F21E030E001C0220F4A95EAF7209505
:101A2000948129230BC0F901E656FA4F21E030E0FA
:101A300001C0220F4A95EAF79481292B248311C013
:101A4000611111C0E72FF0E0E656FA4F21E030E0D7
:101A500001C0220F4A95EAF7209584812823248328
:101A6000872F0C94020BE72FF0E0E656FA4F21E0A7
:101A700030E001C0220F4A95EAF78481282BEFCF8E
:101A8000AF92BF92CF92DF92EF92FF920F931F938C
:101A9000CF93DF9300D0CDB7DEB78CB58F7D8CBDF3
:101AA0008091B6039091B7030196843091052CF490
:101AB0009093B7038093B60304C01092B7031092BB
:101AC000B6038091B6038C5F803118F460E00E9409
:101AD000EA0C82E10E94280B83E10E94280B80918E
:101AE000B0059091B1059093B9038093B80300E0DD
:101AF00010E0EE24E394F12CE091B603F091B703EB
:101B0000EE0FFF1FEE0FFF1FE00FF11FEE0FFF1F85
:101B1000EC58FC4F608171812091B8033091B9037A
:101B20002F703327A701002E02C0440F551F0A94BF
:101B3000E2F7242335233093BB032093BA03002E0E
:101B400002C0369527950A94E2F791E0232B09F01D
:101B500090E0FB01EC58FC4F80A1981769F090A32E
:101B6000892F90E0982F8827862B972B9A8389833B
:101B7000CE0101960E94CB0A0F5F1F4F0430110562
:101B800009F0BACF8091B6038C5F803118F461E020
:101B90000E94EA0C8091B8039091B90380959095CA
:101BA000892F99278F7799279093BB038093BA0346
:101BB00064E7E62E63E0F62E70E1C72E72E0D72EC2
:101BC00000E010E0AA24A394B12C8091BA03909174
:101BD000BB039501002E02C0220F331F0A94E2F7C7
:101BE0002823392391E0232B09F490E0F70182A9FF
:101BF000981791F092ABF60120813181285F3F4F19
:101C0000892F90E0982F8827822B932B9A838983A2
:101C1000CE0101960E94CB0A0F5F1F4FFFEFEF1A14
:101C2000FF0A82E0C80ED11C0730110571F60F9033
:101C30000F90DF91CF911F910F91FF90EF90DF9068
:101C4000CF90BF90AF9008950F931F93CF93DF93E2
:101C5000982F162F883020F098500DE081E002C0B8
:101C60000CE080E0113021F090F0123099F50FC0B7
:101C7000E82FF0E0E656FA4F21E030E001C0220FF5
:101C80009A95EAF720959481292324831DC0E82F93
:101C9000F0E0C1E0D0E001C0CC0F9A95EAF7E6563B
:101CA000FA4F94819C2B94830E94020BE02FF0E06A
:101CB000E656FA4F123019F48481C82B03C0C09540
:101CC0008481C823C483802FDF91CF911F910F910E
:101CD0000C94020BDF91CF911F910F9108950F93F8
:101CE0001F93CF938B016115704110F00FEF1FE030
:101CF000C82FC795CC27C795C061C12B8CB58F7DE8
:101D00008CBD60E081E00E9424148C2F0E94ED03C2
:101D1000802F0E94ED0361E081E0CF911F910F9130
:101D20000C94241490910B0180914103992311F09C
:101D3000816001C08E7F8093410308950F931F93AC
:101D4000CF93DF939C018091090190910A01821742
:101D5000930709F464C030930A01209309018901B3
:101D600037FF04C000271127021B130BCAE0D0E085
:101D7000C801BE010E942326FC0190933E0380937C
:101D80003D03CB01BE010E94232690933C03809328
:101D90003B0337FF03C085E290E012C0C9018D59B3
:101DA0009F4F873C910550F0C80164E670E00E94A7
:101DB0002326CB01BE010E94232602C084E290E0CC
:101DC00090933A0380933903275F3F4F23313105C6
:101DD00030F484E290E090933C0380933B03A09125
:101DE0003903B0913A03A851BE4F8C9180958093EE
:101DF0004303A0913B03B0913C03A851BE4F8C918B
:101E0000809580934203E851FE4F808180958093B6
:101E10004103DF91CF911F910F910C94920EDF91AE
:101E2000CF911F910F910895DC0187EE93E090937D
:101E30000A01809309014C91042E000C550B475365
:101E40005109E9E3F3E05183408311962C911197F6
:101E5000022E000C330B2753310933832283129651
:101E60008C91082E000C990BC79795838483E1E42D
:101E7000F3E0DA01A851BE4F4C9140954283D9015D
:101E8000A851BE4F2C9120952183DC01A851BE4F53
:101E90008C91809580830C94920E0F931F93CF9317
:101EA000DF938C01EB0181E08093380340E050E048
:101EB000BA0186E995E00E94CA03109337030093A4
:101EC0003603D0933503C0933403DF91CF911F9134
:101ED0000F910895E0913203F0913303EF5DFC4FD1
:101EE000908181E08927808340E050E0BA018EE84C
:101EF00095E00C94CA0380931F0320E1829FC001E8
:101F00001124FC01EB5FFA4F20E1A1E2B3E0019064
:101F10000D922A95E1F72091680330916903281703
:101F2000390724F04096821793073CF480E190E053
:101F3000909333038093320308952F7033273093A7
:101F40003303209332030895833081F028F48130E5
:101F500099F08230A1F008958730A9F08830B9F067
:101F60008430D1F4809180008F7D03C08091800007
:101F70008F7780938000089584B58F7702C084B5F1
:101F80008F7D84BD08958091B0008F7703C08091CC
:101F9000B0008F7D8093B00008953FB7F894809192
:101FA000EC059091ED05A091EE05B091EF0526B5F9
:101FB000A89B05C02F3F19F00196A11DB11D3FBF81
:101FC000BA2FA92F982F8827820F911DA11DB11D0F
:101FD000BC01CD0142E0660F771F881F991F4A950B
:101FE000D1F708951092EA05E1E2F3E0119283E05F
:101FF000E133F807D9F78091E9050E947B0F0E9431
:10200000AE0C80917003909171030C949E0E20E5AC
:10201000FC01208321E021830895EF92FF920F932A
:10202000CF93DF93BC01C091EA05C13041F5C09167
:10203000E705D0E09E01220F331FF901EB5DFE4F53
:1020400080819181680F791FCB018D599F4F873C0B
:10205000910510F471836083F901EB5DFE4F80817F
:1020600091810E949E0EC930D1050CF037C1CE017E
:10207000DF91CF910F91FF90EF900C942D098EEF8F
:102080008C0F8230A0F480913801680F19F06093B2
:10209000380103C083E6809338018091380184368B
:1020A00018F081E08093380180913801EFC0C4308E
:1020B00009F007C1809137018A30A1F48091E305CE
:1020C0009091E4050E949202880F991FFC01EE5343
:1020D000FE4F6591749184EF95E00E945E2584EF38
:1020E00095E041C0853109F045C0E090E305F090EE
:1020F000E40508E020E0462F6AE875E0C7010E9489
:102100001E0280918A05833079F030F4882379F0BB
:102110008230A9F485E011C0873061F0883061F029
:10212000853069F488E009C08091850506C0C093B8
:102130008B0505C080E501C082E080938B0560E0DF
:1021400070E0C7010E943202E0918A05F0E0EE0FD4
:10215000FF1FE055FE4F6591749180EF95E00E945E
:102160005E2580EF95E0DF91CF910F91FF90EF908A
:102170000C94140F8B3009F453C030F4883009F4F8
:10218000A0C0893089F09AC0893139F08A3109F4C8
:1021900063C08C3009F092C07BC08091E3059091C0
:1021A000E4050E94320293C08091E20520918605E9
:1021B000882311F161157105F9F030E0AFE2B2E06A
:1021C00041E050E0CA01ED910E2E000CFF0BE2172A
:1021D000F3072CF44F5F5F4F4730510599F7161600
:1021E000170614F4019601C00197FC01E25DFD4F52
:1021F0008081809386050FC0620F711D6134710567
:1022000034F4161617062CF061E070E002C060E4AA
:1022100070E060938605809186058093C40336C084
:102220008091E3059091E40520918905620F711D6D
:102230006B35710534F46A3071052CF46AE070E096
:1022400002C06AE570E06093890560E070E00E947A
:102250000803809189051AC08091E3059091E405F7
:1022600020918505620F711D6F3F710509F034F4EF
:10227000161617062CF061E070E002C06FEF70E0F8
:10228000609385050E94D7018091850590E01FC06D
:1022900080918D059B01280F311D87FD3A95C9015D
:1022A0008C3D3FEF930714F48CED9FEF8532910541
:1022B00014F084E290E080938D0509C080E090E006
:1022C00006C08091E3059091E4050E940803DF9128
:1022D000CF910F91FF90EF900C949E0EDF91CF91D4
:1022E0000F91FF90EF900895CF92DF92EF92FF92BF
:1022F0000F931F93FC016A017B014091DC05509113
:10230000DD056091DE057091DF050091D805109123
:10231000D9052091DA053091DB05DB01CA018C0D6E
:102320009D1DAE1DBF1D081719072A073B0758F44E
:10233000401751076207730780F568017901C41AD5
:10234000D50AE60AF70A0091D4051091D505209127
:10235000D6053091D705CB01BA01600F711F821FDE
:10236000931F97018601AF010E9449068091DC0509
:102370009091DD05A091DE05B091DF058C0D9D1DCE
:10238000AE1DBF1D8093DC059093DD05A093DE0597
:10239000B093DF05B601C70104C060E070E080E0E3
:1023A00090E01F910F91FF90EF90DF90CF900895F4
:1023B0002F923F924F925F926F927F928F929F9255
:1023C000AF92BF92CF92DF92EF92FF920F931F9343
:1023D000CF93DF93CDB7DEB7C254D1090FB6F894CF
:1023E000DEBF0FBECDBF9AAB89AB8EE0A9A9BAA95B
:1023F0001D928A95E9F70E94C20761157105810552
:10240000910509F430C19B01AC01442755272BAB42
:102410003CAB4DAB5EABE1E1F1E065EC7DE98CE11D
:1024200091E82191222391F0022F220F110B220B10
:10243000330BA9019801262737274827592763E935
:1024400071E080E091E00E941326EBCF2EEF3FEF8A
:1024500040E050E00E94E225DC01CB010196A11D85
:10246000B11D9EAF8DAFA3E0B0E02BA93CA94DA953
:102470005EA90E94CF2569AF7AAF8BAF9CAFC12C0C
:10248000D12C7601DA01C9010496A11DB11D239654
:102490008CAF9DAFAEAFBFAF23972BA93CA94DA981
:1024A0005EA9C216D306E406F50608F0DCC04901B1
:1024B0005A018C189D08AE08BF0838E083169104B5
:1024C000A104B10428F0F8E08F2E912CA12CB12C9E
:1024D000D701C6010496A11DB11DBC01CD01660F37
:1024E000771F881F991F95018401000F111F221F5C
:1024F000331FAE014F5E5F4F0E944906AE014F5E33
:102500005F4F58AF4FAB1DA61EA61FA618AA8DA5DC
:102510009EA5AFA5B8A988169906AA06BB0609F418
:102520009DC0AFA9B8AD8D919D91B8AFAFABEDADEA
:10253000FEAD8E179F0709F069C019A61AA61BA643
:102540001CA6A5E0B0E02DA53EA54FA558A92C0DD1
:102550003D1D4E1D5F1D0E94CF2523962CAD3DAD28
:102560004EAD5FAD2397260F371F481F591FCA0175
:10257000B901660F771F881F991F0AE010E020E05D
:1025800030E0AE014F5D5F4F0E94490649A45AA456
:102590006BA47CA432E0430E511C611C711C89ADFC
:1025A0009AADABADBCAD480E591E6A1E7B1E32E023
:1025B000440C551C661C771C3A95D1F741E1242E3A
:1025C00041E0342E00E110E020E030E0AE014F5F4A
:1025D0005F4FC301B2010E94490690E1490E511CB0
:1025E000611C711CFE0131969101205F3F4FC101BA
:1025F0000196DC0111974C915191451309C0442378
:10260000A1F019018217930799F7DCCF019659F1D0
:102610002DA53EA54FA558A92F5F3F4F4F4F5F4FA8
:102620002DA73EA74FA758AB72CF89A19AA1ABA106
:10263000BCA1E9A9FAA980839183A283B3838DA168
:102640009EA1AFA1B8A584839583A683B7832DA54A
:102650003EA5C20ED31ED586C48605C0C80CD91CA3
:10266000EA1CFB1C1ACF89A99AA9CE5BDF4F0FB6D3
:10267000F894DEBF0FBECDBFDF91CF911F910F91B8
:10268000FF90EF90DF90CF90BF90AF909F908F9092
:102690007F906F905F904F903F902F900895CF93D1
:1026A000DF9300D01F92CDB7DEB74AE0BE016F5F67
:1026B0007F4F0E94652584E1E1E1F1E0DF011D9299
:1026C0008A95E9F7BE016F5F7F4FCF010E94B02866
:1026D0006EE472E081E191E00E94A52881E191E041
:1026E0000F900F900F90DF91CF910895CF93DF93CC
:1026F000CDB7DEB72E970FB6F894DEBF0FBECDBFB5
:10270000CE0101960E94D81181E049815A816B81E6
:102710007C81452B462B472B09F480E02E960FB683
:10272000F894DEBF0FBECDBFDF91CF910895CF9259
:10273000DF92EF92FF920F931F93FC016A017B01DE
:102740004091DC055091DD056091DE057091DF055B
:102750000091D8051091D9052091DA053091DB055B
:10276000DB01CA018C0D9D1DAE1DBF1D0817190789
:102770002A073B0758F4401751076207730780F593
:1027800068017901C41AD50AE60AF70A0091D4054E
:102790001091D5052091D6053091D705CB01BA010E
:1027A000600F711F821F931F97018601AF010E9466
:1027B00086058091DC059091DD05A091DE05B09144
:1027C000DF058C0D9D1DAE1DBF1D8093DC05909314
:1027D000DD05A093DE05B093DF05B601C70104C097
:1027E00060E070E080E090E01F910F91FF90EF902B
:1027F000DF90CF900895CF93DF93282F30E0F90139
:10280000E456FE4F8491F901E857FE4FD491F90147
:10281000EC58FE4FC491CC2391F081110E94A40F7B
:10282000EC2FF0E0EE0FFF1FE659FE4FA591B4919B
:10283000EC91ED2381E090E021F480E002C080E0A3
:1028400090E0DF91CF9108951F93CF93DF93282FCE
:1028500030E0F901E456FE4F8491F901E857FE4F4C
:10286000D491F901EC58FE4FC491CC23C1F0162F3E
:1028700081110E94A40FEC2FF0E0EE0FFF1FE05A31
:10288000FE4FA591B4919FB7F894111104C08C919B
:10289000D095D82302C0EC91DE2BDC939FBFDF9153
:1028A000CF911F9108958091EA059FEF980F943082
:1028B00080F4813021F460E080E00E9424140E94C2
:1028C000F20F61E070E084E690E00E944D0F81E03D
:1028D000089580E00895CF93DF9390E0FC01E857DE
:1028E000FE4F2491FC01EC58FE4F8491882361F146
:1028F00090E0880F991FFC01EA5AFE4FC591D491D0
:10290000FC01E05AFE4FA591B491611109C09FB737
:10291000F8948881209582238883EC912E230BC024
:10292000623061F49FB7F8948881322F3095832309
:102930008883EC912E2B2C939FBF06C08FB7F89401
:10294000E8812E2B28838FBFDF91CF9108958F923E
:102950009F92AF92BF92CF92DF92EF92FF926B0164
:102960007C010E94CD0F4B015C01C114D104E10434
:10297000F104F1F00E94CD0FDC01CB018819990917
:10298000AA09BB09883E9340A105B10570F321E077
:10299000C21AD108E108F10888EE880E83E0981E7B
:1029A000A11CB11CC114D104E104F10419F7DDCF5D
:1029B000FF90EF90DF90CF90BF90AF909F908F905F
:1029C00008951F920F920FB60F9211242F933F93E9
:1029D0008F939F93AF93BF938091CF059091D00534
:1029E000A091D105B091D2053091EB0523E0230FE2
:1029F0002D3720F40196A11DB11D05C026E8230F37
:102A00000296A11DB11D2093EB058093CF059093F5
:102A1000D005A093D105B093D2058091EC0590919B
:102A2000ED05A091EE05B091EF050196A11DB11D38
:102A30008093EC059093ED05A093EE05B093EF0520
:102A4000BF91AF919F918F913F912F910F900FBEAA
:102A50000F901F901895CF93DF93CDB7DEB7C25478
:102A6000D1090FB6F894DEBF0FBECDBF789484B500
:102A7000826084BD84B5816084BD85B5826085BD7A
:102A800085B5816085BD80916E00816080936E0008
:102A900010928100809181008260809381008091FA
:102AA00081008160809381008091800081608093AB
:102AB00080008091B10084608093B1008091B0006B
:102AC00081608093B00080917A00846080937A0066
:102AD00080917A00826080937A0080917A00816090
:102AE00080937A0080917A00806880937A001092B7
:102AF000C10010920D018AE792E00E9433088AE734
:102B000092E0909373028093720289E792E090932F
:102B10006D0280936C0285EC94E0E5E4F4E020E53E
:102B200030E0219331938E179F07D9F761E080E061
:102B30000E946B1461E082E00E946B1462E083E00B
:102B40000E946B1462E084E00E946B14109288056E
:102B5000809186058093C40360E070E087E193E094
:102B60000E94920260E070E087E193E00E94080317
:102B700087E193E00E94D70161E08AE00E946B1434
:102B800061E089E00E946B1461E088E00E946B14B0
:102B900061E081E00E946B1461E08AE00E942414ED
:102BA00061E089E00E94241461E088E00E9424141E
:102BB00061E081E00E9424148AE792E09093E605A8
:102BC0008093E50589E792E0909355028093540243
:102BD00007E113E01093E4050093E30560E08EE065
:102BE0000E946B1460E08FE00E946B1460E080E153
:102BF0000E946B1460E081E10E946B1410936C03DF
:102C000000936B030E94800C0E94800C0E94800C39
:102C10000E94800C81E0809372038CB58F7D8CBD07
:102C20000E94A10161E080919C050E946B1461E00B
:102C300080919C050E94241460E080919C050E9474
:102C4000241480E40E94ED038AE00E94ED0388E1F1
:102C50000E94ED0361E080919C050E942414109174
:102C60009D051770110F106460E080919C050E9413
:102C70002414812F0E94ED0380E00E94ED030EE9F1
:102C800015E064EBE62E65E0F62ED8018D918D01FE
:102C90000E94ED03E016F106C1F761E080919C050A
:102CA0000E94241410E004E0010F61E0802F0E94D4
:102CB000240E61E0802F0E94EA0C62E0812F0E94C6
:102CC000240E62E088E0810F0E94240E62E08CE016
:102CD000810F0E94240E1F5F143029F761E08FE0FE
:102CE0000E94240E62E08EE00E94240E0E94400D9D
:102CF0000E94400D0E94400D0E94400D81E0809393
:102D00005A0361E085E00E946B1461E087E00E9455
:102D10006B1461E086E00E946B1460E085E00E9425
:102D2000241460E087E00E94241460E086E00E94A2
:102D3000241480E090E00E949E0E62E082E10E94F6
:102D40006B1462E083E10E946B1480E190E00E94CA
:102D50009A258093010161E089E00E946B140E9432
:102D6000A10189E393E0909307038093060387E131
:102D700093E090931E0380931D034DE4E42E41E005
:102D8000F42E5DE3C52E51E0D52E01E060E089E030
:102D90000E942414F70111917F01612F6170602757
:102DA00085E00E94241411FB662760F9602786E005
:102DB0000E94241412FB662760F9602787E00E94B6
:102DC00024148CB580628CBDD6018D916D018095E7
:102DD0000E94ED0380E00E94ED0361E089E00E9423
:102DE000241466E470E080E090E00E94A714BBE544
:102DF000EB16B1E0FB0651F664E670E080E090E08F
:102E00000E94A71487E193E09093FE028093FD0255
:102E1000ECE7F1E0E491F0E0EE0FFF1FE659FE4F22
:102E2000059114911093580200935702E0E9F1E0E4
:102E3000F490F09256020E94A10161E088E00E94A5
:102E40006B14F80182818F298283CE0101960E9442
:102E500039048981811108C08A8181110FC08B8159
:102E600081110CC00C946B218F3F41F48A818F3FFC
:102E700029F48B818F3F11F40C946B21CE010196C4
:102E80000E944401613071058105914008F43FC002
:102E9000CE0141960E94071089899A890E949E015D
:102EA0008981EF2CE094813061F4D80112968C91E5
:102EB0001297E8221296EC9280E897E10E94810135
:102EC00018C0F80182818E21828386E00E94ED0382
:102ED000D80112968C9112978F2912968C93129783
:102EE00012968C911297E8221296EC9287EB0E9430
:102EF000ED03D8011296EC911297FE2A1296FC92DD
:102F00000E9480018981803221F081E003C080E04D
:102F100001C089E09981913051F4982F94602D81FE
:102F200021110C946821982F94610C94682190329F
:102F300011F4826003C09F3E09F4806280935A02BC
:102F4000CE0101960E9439040E94F20F8091030382
:102F5000882309F47FC00E948704882309F47AC07B
:102F6000809185058983809186058A838091870574
:102F70008B83809188058C83809189058D838091D6
:102F80008A058E8380918B058F8380918C0588873D
:102F900080918D05898BEDE7F2E08DEB92E0A5E461
:102FA000B4E02C9111963C9111971296319327AF72
:102FB0008E179F07B1F7CE014F960E94D8118EE071
:102FC000FE017F96A4EDB5E001900D928A95E1F7A0
:102FD00040E450E060E070E085EC93E00E949713DD
:102FE00040E450E060E070E085E094E00E949713D8
:102FF00040E850E060E070E08DE792E00E949713B7
:1030000040E450E060E070E085EC94E00E949713AB
:1030100040E450E060E070E085E095E00E949713A6
:1030200040E450E060E070E085E495E00E94971392
:1030300048E050E060E070E0CE0101960E949713F6
:1030400041E050E060E070E0CE0141960E949713AD
:10305000109203030E94400D1E8E1D8E8091580316
:1030600090915903892B09F4ABC48091540390913A
:1030700055038F5F877090E0FC01EE0FFF1FEC5B44
:10308000FC4F208131813E8F2D8F9093550380938B
:1030900054038091580390915903019790935903D9
:1030A000809358030D8D1E8D7801FF24C801882759
:1030B0009170892E99249AAA89AA20E1E216F10436
:1030C0000CF065C1892809F45FC18091EA0581305F
:1030D00049F439E0E316F1040CF072C4C7010E9410
:1030E0002D096EC48091E205882309F40FC148E0E0
:1030F000E416F1040CF088C054E0E516F1040CF07D
:103100005FC480917C02882309F468C08091E9053E
:1031100090E0AC0124E0440F551F2A95E1F7970198
:1031200064E0220F331F6A95E1F7D901AB5FBA4F14
:10313000FA01EB5FFA4F60E101900D926A95E1F7B9
:10314000D901AB5FBB4FFA01EB5FFB4F60E1019030
:103150000D926A95E1F7D901AB53BC4FFA01EB53DD
:10316000FC4F60E101900D926A95E1F7D70175E09F
:10317000AA0FBB1F7A95E1F7AB5BBB4FFC0115E0D3
:10318000EE0FFF1F1A95E1F7EB5BFB4F80E201901A
:103190000D928A95E1F7D901AB53BB4FFA01EB537E
:1031A000FB4F80E101900D928A95E1F7D901AB5B6D
:1031B000BA4FFA01EB5BFA4F80E101900D928A95CC
:1031C000E1F786E392E00E94140F61E070E084E68C
:1031D00090E00E944D0F10927C0212C019821A8258
:1031E0001B821C828BE5898382E48A8388E3800FBB
:1031F0008B83CE0101960E94140F81E080937C02A4
:103200000093E905802F59C06EE0E616F104C1F085
:103210007FE0E716F10431F08DE0E816F10409F0E3
:103220006BC04EC06091010161956093010180E126
:1032300090E00E94A2258AE392E00E94140FC0C38E
:103240008EE392E00E94140FE5ECF3E045E454E0D5
:1032500080E410829F01205C3F4FD9011C92DA016B
:1032600000E5802E912C8D929D92AD0120543F4F10
:10327000D9011C92205C3F4FD9011C92205C3F4F2A
:10328000D9011C92815031968111E3CF82E3809362
:10329000850590E19093860591E090938705909342
:1032A00088058093890510928A0584E080938B05B8
:1032B00010928D051092E90580E00E947B0F80C37B
:1032C0000E94531481E08093EA058091E505909176
:1032D000E6050E9433088091E70590E0893091056A
:1032E00014F40E942D0982E492E00E94140F61E020
:1032F00080E00E94241464C384E08093EA05009374
:10330000370180E090E00E940D105AC30E945314D0
:103310008091E905F701B0E18B9FE00DF11D1124CB
:103320002091680330916903AF014B535C4FE21762
:10333000F30739F09A01205C3E4FD9019C9191111D
:1033400007C0DA01A05CBE4F2C9191E092279C93BC
:10335000F0936903E09368030E947B0F0E94AE0C18
:1033600080917003909171030E949E0EE09168031A
:10337000F0916903EB5BFA4F60818CB58F7D8CBD5A
:103380008FE00E94EA0C1CC310927C0219C319A999
:103390001170F7017097E730F10508F008C3EC5C95
:1033A000FF4F0C9437261093E20589A89AA8892824
:1033B00019F00E945314FBC210927C02F8C2A9A813
:1033C000BAA8AB2809F4F3C28091E2058823A9F0DA
:1033D0004091C2035091C30360E070E08CEB93E036
:1033E0000E94CA038FEF809303018093060110921D
:1033F0006B0281E080930201DAC28091EA0581309C
:1034000009F06FC7D4C289A89AA8892809F4CFC245
:10341000809103038111CBC28091EA058230A9F526
:103420008091380190E00E944F13CE014F960E9488
:10343000D8118EE0FE017F96A4EDB5E001900D92CB
:103440008A95E1F78091D4059091D505A091D60594
:10345000B091D705892B8A2B8B2B09F071C786E495
:1034600092E00E94140F63E070E084E690E00E9416
:103470004D0F1092EA05809138018093000110925F
:10348000E90580E00E947B0F92C2811190C282E028
:10349000F9C189A89AA8892809F489C28091EA0506
:1034A000813021F51092EA0505E211E0E12CF12CC2
:1034B000D8018C910E5F1F4FA4E6DA2ED80EC701FB
:1034C0000E949A25D81621F06D2DC7010E94A225D1
:1034D000BFEFEB1AFB0AE9E0EE16F10449F760E0F2
:1034E00080E00E9424140E94F20F61C2833009F030
:1034F000C4C1109138010E948704882309F429C1AE
:10350000812F90E00E944F130E94761381110CC00E
:1035100080915A0285FD1FC184FFBCC7C12CD12CEC
:10352000F4E0EF2EF12C1CC1CE014F960E94D81171
:103530008EE0FE017F96A4EDB5E001900D928A9594
:10354000E1F780915A02982F907184FF06C0812C78
:10355000912C64E0A62EB12C04C0812C912C540136
:10356000A3948BAA9CAAADAABEAA85FD08C09923E4
:1035700061F0812C912C44E0A42EB12C0AC0812C46
:1035800030E1932EA12CB12C04C0812C912C54013C
:10359000A394950184010150110921093109409139
:1035A000D4055091D5056091D6057091D70540237B
:1035B000512362237323452B462B472B11F082E0C6
:1035C00044C18091D8059091D905A091DA05B091B8
:1035D000DB0580239123A223B323892B8A2B8B2BFA
:1035E00071F71DA61EA61FA618AA8091D805909156
:1035F000D905A091DA05B091DB050DA51EA52FA573
:1036000038A9081719072A073B07C8F6C090D40540
:10361000D090D505E090D605F090D70520905A02BD
:10362000809159022BA93CA94DA95EA98216930647
:10363000A406B506B8F54DA55EA56FA578A9C40E7C
:10364000D51EE61EF71E81110E94F403CE010196DD
:103650000E94071089819A810E949E010091570261
:1036600010915802D80112968C9112973090560200
:10367000732C7094872112968C9386E00E94ED0340
:10368000F8018281832982838281782272822701D4
:103690006624772420FE02C080E236C0C20199274A
:1036A000906239C00DA51EA52FA538A9C00ED11E48
:1036B000E21EF31E81110E94F403CE0101960E94C6
:1036C000071089819A810E949E01009157021091F2
:1036D0005802D80112968C91129730905602732C92
:1036E0007094872112968C9386E00E94ED03F80176
:1036F00082818329828382817822728227016624D3
:10370000772420FE05C088ED0E94ED03C20103C0AE
:10371000C2019927986D0E948101C6010E94810112
:10372000D80112968C911297382A12963C920E94D8
:103730008001B2E0B09359020DA51EA52FA538A9AE
:10374000080D191D2A1D3B1D0DA71EA72FA738AB5D
:103750004CCF80E07AC0C12C70E1D72EE12CF12C47
:103760000E947613811170C00E94C2076115710515
:103770008105910509F468C08B019C010027112780
:1037800048015901EEE0B694A79497948794EA957E
:10379000D1F78BAA9CAAADAABEAA8B019C012227B5
:1037A00033270DA71EA72FA738AB812C912C5401CE
:1037B000D501C4010896A11DB11D2DA53EA54FA59B
:1037C00058A9281739074A075B0708F068C6290176
:1037D0003A01481859086A087B08D501C4010496C3
:1037E000A11DB11DBC01CD01660F771F881F991F58
:1037F00093018201000F111F221F331FAE014F5F83
:103800005F4F0E944906FE01319680E090E0DC01A6
:10381000481659066A067B0609F44BC62191319178
:103820002F3F3F4F09F041C624013501480E591E74
:103830006A1E7B1E8DA49EA4AFA4B8A84814590488
:103840006A047B0408F448C681E0909138019093A3
:1038500000018150823060F481E08093030365E0D1
:1038600070E084E690E00E944D0F1092EA059FC040
:1038700086E492E00E94140F9AC0809103038111A4
:1038800096C083E08093EA0580910001809338011F
:1038900090E00E949E0E60E070E08CE291E00E9459
:1038A0004D0F85C089A89AA8892809F480C0809105
:1038B000E205882329F084E08093EA058AE140C08C
:1038C000E0916803F0916903EB5BFA4F608181E05E
:1038D000682760838CB58F7D8CBD8FE00E94EA0CD9
:1038E00066C08091EA05813009F461C0A9A8BAA830
:1038F000AB2881F08091E205882361F0E091060118
:103900000E2E000CFF0BEB5FFA4F81E0808380935B
:103910005B024DC01093160310936A0310936D035E
:1039200010925B0244C08091EA05813009F43FC0E7
:103930008091E205882359F084E08093EA0585E1CF
:103940008093370180E090E00E940D1030C089A87C
:103950009AA8892859F084E08093EA0589E1809348
:10396000370180E090E00E940D1002C01092EA053D
:103970002091E3053091E4051093780280910601CF
:1039800080935C0290918A05933021F4C9010E94D2
:10399000D7010DC0943039F469A980E00E94241445
:1039A0001093760204C0953011F41092770289A921
:1039B0009AA901E08027817080930B010E94920EEA
:1039C0001092020310920103E0917B028E2F880F68
:1039D000880F80937B02E6B1E073E295EF70E82BED
:1039E000E0937B02EF70F0E0E35AFE4F8081082EF7
:1039F000000C990B009701F12091FF023091000318
:103A0000820F931F909300038093FF029C012D5F10
:103A10003F4F2730310580F0181619061CF481E05D
:103A200090E002C08FEF9FEF909302038093010319
:103A3000109200031092FF024091010120910103B6
:103A4000309102034203C001439F900D112400975F
:103A500011F00E940D108091EA058B7F61F40E94A5
:103A6000800C80917303882331F0809170039091D2
:103A700071030E949E0E82E995E00E946209672B05
:103A8000682B692B09F4C2C040E050E0BA0182E91A
:103A900095E00E94CA0360910C0370910D0327E02A
:103AA00030E0261B370B81E090E001C0880F2A959B
:103AB000EAF7660F771F660F771FFB01EE0FFF1FF8
:103AC000ED58FE4F10EF20E030E000813296D90132
:103AD000A60FB71FAF5DBC4F4C9101C0440F0A95B4
:103AE000EAF7140F2F5F3F4F2430310571F7109321
:103AF0000A0330930903209308031095180F1093BD
:103B00000B0360E089E00E9424148CB580628CBDB8
:103B10000091060310910703D8011696ED91FC91D0
:103B20001797EE0FFF1FE359FE4F61E080810E945F
:103B30002414D8011696ED91FC911797EF5BFC4F7A
:103B400080810E94ED0380910B030E94ED0361E0F0
:103B500089E00E942414F8018681978101968330C0
:103B6000910519F09783868302C01782168280918F
:103B70003803882309F468C686E995E00E94620943
:103B800020913603309137036901330FEE08FF08A7
:103B9000C616D706E806F90608F056C686E995E087
:103BA0000E9462092091360330913703220F331FA0
:103BB0008901330F220B330B061717072807390724
:103BC000C0F440E050E0BA0186E995E00E94CA03E3
:103BD00080910403909105030196909305038093CF
:103BE00004032091340330913503121613060CF4AC
:103BF0003EC680910C0390910D030196843091058F
:103C000009F430C690930D0380930C0380911F0339
:103C1000E0913203F0913303B0E18B9FE00DF11D91
:103C20001124EB5FFA4F8081882371F08EE895E0D4
:103C30000E946209E0913203F0913303EF5DFC4F83
:103C40002081222371F019C08EE895E00E9462095C
:103C5000E0913203F0913303EF5DFC4F208122238A
:103C600061F004E610E020E030E0061717072807AF
:103C7000390740F40E946A0F05C008E512E020E011
:103C800030E0F3CF8091EA05813009F417C3109139
:103C90006A02111105C080911103882309F447C0FD
:103CA0008CEB93E00E9462090E947A272091030125
:103CB000217827FF03C021502E6F2F5F213049F458
:103CC000209166023091670240916802509169022A
:103CD00008C02091620230916302409164025091C9
:103CE00065020E942C28181604F5112361F087E163
:103CF00093E00E94480340E050E0BA018CEB93E06F
:103D00000E94CA034FC180911103882381F087E18B
:103D100093E00E94480340E050E0BA018CEB93E04E
:103D20000E94CA03109211033DC110926B0287E1F9
:103D300093E00E94BF0980916102882351F08CEBCF
:103D400093E00E9462096B3071058105910508F0CE
:103D500099C540917802442309F444C080918A05B2
:103D6000843009F4A9C090917702992319F0853025
:103D700009F4A2C08830B1F5DD24D39480918B057D
:103D80008D1508F499C080917602ED2CF12C8823D2
:103D900009F486C58CEB93E00E94620920915F02D2
:103DA00030916002E29E8001E39E100DF29E100DA4
:103DB00011249801255031094901A12CB12C8616F6
:103DC0009706A806B90660F48CEB93E00E9462099E
:103DD00020E030E0601771078207930708F459C5A7
:103DE000D394CCCF80917602882309F465C0E0910A
:103DF00006010E2E000CFF0B20910C01022E000C70
:103E0000330BCF01821B930B0196181619064CF049
:103E1000809186054F01880E911CC401821B930B73
:103E20000196442301F120918A052730E1F4EB5FEC
:103E3000FA4F2081211117C08CEB93E00E94620998
:103E400020915D0230915E02890120E030E006178A
:103E500017072807390780F560E080E00E942414E6
:103E60001092760229C001972091C0033091C103BE
:103E7000829FA001839F500D929F500D1124052E0B
:103E8000000C660B770B8091BC039091BD03A09151
:103E9000BE03B091BF03841B950BA60BB70B8983A0
:103EA0009A83AB83BC83CE0101960E946209209164
:103EB000040130910501C8CF83E00E94FB138C01FF
:103EC00084E00E94FB13892B01F58091100381117E
:103ED0001EC0FF24F394F09210034091C20350914E
:103EE000C30360E070E08CEB93E00E94CA038FEFA5
:103EF000809303018093060110926B02F0920201FD
:103F000087E193E00E94480302C010921003012B46
:103F100009F044C080910F03811142C080910201D9
:103F2000882361F04091C2035091C30360E070E0C8
:103F30008CEB93E00E94CA031092020181E080930F
:103F40000F0390910E03992319F010920E032AC0CB
:103F500090918905933340F09091030190FD04C046
:103F600080930E03809311038CEB93E00E9462090F
:103F70007093C1036093C00387E193E00E94BC0289
:103F800087E193E00E94480340E050E0BA018CEBE7
:103F900093E00E94CA0310926A0204C010920F03B9
:103FA00010926B0280916B02882309F487C1809183
:103FB000E9050E947B0FE09106010E2F0E2E000CEA
:103FC000110B80911F0320E1829FC001112408176B
:103FD000190774F040960817190754F4EF700E2E65
:103FE000000CFF0BEF5DFC4F908181E089278083FF
:103FF00080911603882389F010926D038FEF9FEF55
:1040000090930F0180930E0180916E0390916F0346
:104010000E944F0B81E080936D03F801EB5FFA4F34
:10402000908180917802992309F43BC10091E305C6
:104030001091E4058823F1F090918A059530D1F430
:10404000C8010E94BF0980917702811137C1E091B8
:104050000C010E2E000CFF0BEB5FFA4F60810E94EB
:104060002414E0910C010E2E000CFF0BEB5FFA4FB5
:10407000808122C110927702E0910C010E2E000C7B
:10408000FF0BEB53FC4F2081022E000C330B3093BF
:104090001503209314031092130310921203882324
:1040A00051F180918A05863031F50E944E2560914C
:1040B0008B0570E00E942326209114033091150394
:1040C000820F931F8D3091051CF021E030E005C078
:1040D0008C30910531F02FEF3FEF30931303209395
:1040E00012030C9668E170E00E9423260C979093CF
:1040F00015038093140380911403909115039C0180
:1041000097FF02C0245F3F4FF901E55AFC4F208121
:10411000211111C09C0197FF02C0245F3F4FF9019C
:10412000EB56FE4F2081820F911D27FD9A959093AB
:1041300015038093140380910C01082E000C990B39
:104140008B539C4FFC01E05CFF4F2081022E000C42
:10415000330B2D5F3F4FECE0E29FA001E39F500D3A
:1041600011242091140330911503420F531F209105
:104170008D05420F511D27FD5A95609112037091D4
:104180001303E69F9001E79F300D1124420F531F48
:104190005093750240937402209178022223A1F07B
:1041A00020918A05223081F420918B0530E0245043
:1041B0003109E29FB001E39F700D1124460F571F94
:1041C0005093750240937402FC01E058FE4F8081C9
:1041D000882321F0C8010E94BF0916C060917402B3
:1041E00070917502072E000C880B990B0E947C279A
:1041F000AB01BC0180917202909173020E945C0835
:10420000BC0180E00E946F0EE0910C010E2E000CAC
:10421000FF0BEB5FFA4F608180E00E9424148091D5
:104220000C01082E000C990B8B539C4FFC01E05C99
:10423000FE4F208120937602E054F109608138E23C
:104240006302B001112481E00E946F0EE0910C0125
:10425000EE0FFF0BEB5BFB4F6081718180E090E024
:104260000E947A2720E030E048EC52E40E94D226F7
:104270006B017C016091C0037091C103072E000C9B
:10428000880B990B0E947C279B01AC01C701B601EA
:104290000E9431280E944B2770930501609304010E
:1042A0000DC0882359F080918A05873039F461E088
:1042B00080E00E94241481E08093760280E090E008
:1042C000892B11F40C94A6170E9400000C94A617D9
:1042D000892F0C949E178AE492E00E94140F0C948C
:1042E000A6170E9453140091E3051091E405F09085
:1042F0006A0281E0F826F0926A02F11006C060E0DE
:1043000080E00E9424141092760240E050E0BA014E
:104310008CEB93E00E94CA038091C2039091C30387
:104320009093C1038093C00380910201882309F414
:104330003ECBFF2009F43BCBC8010E94480337CB9A
:1043400040E450E060E070E085EC93E00E9474117E
:1043500040E450E060E070E085E094E00E94741179
:1043600040E850E060E070E08DE792E00E94741158
:1043700040E450E060E070E085EC94E00E9474114D
:1043800040E450E060E070E085E095E00E94741148
:1043900040E450E060E070E085E495E00E94741134
:1043A00048E050E060E070E0CE0101960E94741198
:1043B00044E050E060E070E0CE0141960E9474114C
:1043C000EDE7F2E0A5E4B4E0819190E0982F882732
:1043D00027AD820F911D8D939D9302E0ED3BF00779
:1043E00099F78981809385058A81809386058B81E1
:1043F000809387058C81809388058D8180938905C2
:104400008E8180938A058F8180938B056885609368
:104410008C05898980938D050091FD021091FE0223
:1044200080916A0281110DC070E088E99AE30E94D0
:1044300023267093C3036093C2037093C1036093F8
:10444000C00360E070E0C8010E940803C8010E9438
:10445000D70160E070E0C8010E94920260E070E065
:10446000C8010E943202909186052091C4039217E0
:1044700011F40C94331A80910301821B890F8093ED
:10448000030187FF03C0890F809303019093C40346
:104490000C94331AC12CD12C7601E39461C958E0F5
:1044A000452E512C612C712C98C90196A11DB11D6E
:1044B000AFC9840C951CA61CB71C6DA57EA58FA545
:1044C00098A986169706A806B90608F471C9442467
:1044D0004A94542C3201AEC9ACE0B0E0A50194017D
:1044E0000E94CF2523966CAF7DAF8EAF9FAF2397F1
:1044F0004B015C0108E0800E911CA11CB11C411411
:1045000051046104710469F42BA93CA94DA95EA969
:10451000280D391D4A1D5B1D2BAB3CAB4DAB5EAB73
:1045200096C0198E1A8E1B8E1C8E1E0131E1230E31
:10453000311CA5E0B0E0A30192010E94CF250DA59A
:104540001EA52FA538A90150110921093048DC0109
:10455000CB01800F911FA21FB31FBC01CD01660FBD
:10456000771F881F991F0AE010E020E030E0A101CA
:104570000E94490649895A896B897C898D899E895F
:10458000AF89B88D8A019B01080F191F2A1F3B1F95
:104590000BAB1CAB2DAB3EAB898D9A8DAB8DBC8D1F
:1045A00012E0880F991FAA1FBB1F1A95D1F79C0113
:1045B000AD01280D391D4A1D5B1D2BAF3CAF4DAF22
:1045C0005EAF2FAB38AF49AF5AAF812C912C54015D
:1045D00000E110E020E030E0AE014F5F5F4F6FA9D7
:1045E00078AD89AD9AAD0E944906FE013196D5019C
:1045F000C4013FEF831A930AA30AB30A2191211140
:1046000014C04BAD5CAD6DAD7EAD4C5F5F4F6F4F79
:104610007F4F840F951FA61FB71F4C015D014CEF04
:10462000842243E0A422BB2412C0D501C401E215B8
:10463000F305F9F66FA978AD89AD9AAD605F7F4F4C
:104640008F4F9F4F6FAB78AF89AF9AAFC1CFD70174
:10465000C6010197A109B1090BA91CA92DA93EA961
:10466000080F191F2A1F3B1FC901B801A701960196
:104670000E94E225CA01B901A70196010E941326F2
:104680006BAB7CAB8DAB9EABC701B6016150704F7D
:104690008F4F9F4F0E94E225CA01B901A7019601E1
:1046A0000E9413266B017C01E1E1F1E00190002002
:1046B000E9F73197E151F1409F0140E050E02FAB25
:1046C00038AF49AF5AAFCE0101960E9439044BA9C9
:1046D0005CA96DA97EA94C0D5D1D6E1D7F1D4BAFA4
:1046E0005CAF6DAF7EAFCE0101960E9444010BAD71
:1046F0001CAD2DAD3EAD601771078207930708F41E
:10470000A3C80FA918AD29AD3AAD0F5F1F4F2F4FAA
:104710003F4F41E151E0C501B4010E9486052BA93C
:104720003CA94DA95EA9298B3A8B4B8B5C8BCD8A1A
:10473000DE8AEF8AF88E88EF9FEFAFEFBFEF239608
:104740004CAD5DAD6EAD7FAD2397841B950BA60B75
:10475000B70B880D991DAA1DBB1DF2E0B695A79554
:1047600097958795FA95D1F7898F9A8FAB8FBC8FE4
:10477000CDA4DEA4EFA4F8A854E0C50ED11CE11C22
:10478000F11CA5E0B0E0A30192010E94CF25DC015D
:10479000CB018C0D9D1DAE1DBF1DBC01CD01660F53
:1047A000771F881F991F0AE010E020E030E0AE017B
:1047B0004F5E5F4F0E9486050E9487048823E1F3C5
:1047C000E1E1F1E065EC7DE98CE191E821912223C2
:1047D00091F0022F220F110B220B330BA90198012C
:1047E000262737274827592763E971E080E091E0C1
:1047F0000E941326EBCF2EEF3FEF40E050E00E94E7
:10480000E225DC01CB010196A11DB11D898B9A8B9C
:10481000AB8BBC8BD301C2010496A11DB11DBC01A1
:10482000CD01660F771F881F991F02E010E020E07E
:1048300030E0AE014F5E5F4F0E9486050E94870404
:104840008823E1F30C94241CD8011696ED91FC9179
:104850001797EE0FFF1FE359FE4F60E080810E9423
:104860002414C7C910920D0310920C03CFC9281746
:1048700039070CF0BEC9109238031092050310924C
:104880000403B7C960E082E00E9424141092610220
:1048900060CA60E080E00E94241410927602A0CAF0
:1048A0008CEB93E00E94620920915F0230916002DC
:1048B000E29EA001E39E500DF29E500D11248A014C
:1048C00020E030E0601771078207930708F488CA78
:1048D00061E080E00E94241481E08093760280CA27
:1048E0002FB7F8944091CF055091D0056091D10534
:1048F0007091D2052FBFFC01408351836283738383
:10490000089580E2E8ECF1E0A4E7B3E001900D92B5
:104910008A95E1F780E1E4E9F3E0DF01982F1D9249
:104920009A95E9F71092A5031092A4031092B70389
:104930001092B603E5E0F5E090E4DF011D929A9550
:10494000E9F791E0908322E3209385058093860523
:1049500090938705909388052093890510928A0586
:1049600094E090938B0598E790938C0510928D05B9
:104970008093C4036091100170E088E99AE30E947B
:1049800023267093C3036093C2037093C1036093A3
:10499000C0038CEB93E00E94702482E995E00E94B2
:1049A00070248EE895E00E94702486E995E00E94CC
:1049B0007024EAE9F5E08AEC95E0918380838AE04F
:1049C000828313828FEF84838583168217821086F9
:1049D0001186128613861486158688E18687878756
:1049E000108A118A128A138A148A158A168A178ADB
:1049F000108E118E86EC95E00E9470248BEC95E071
:104A00000C9470248F929F92AF92BF92CF92DF92BC
:104A1000EF92FF92CF93DF93EC01688179818A81D5
:104A20009B81611571058105910521F464E279EDA1
:104A30008BE597E02DE133EF41E050E00E94B02597
:104A400049015A019B01AC01A7EAB1E40E94CF25BC
:104A50006B017C01ACEEB4EFA50194010E94DD2551
:104A6000DC01CB018C0D9D1DAE1DBF1DB7FF03C02A
:104A70000197A109B04888839983AA83BB839F7754
:104A8000DF91CF91FF90EF90DF90CF90BF90AF90EC
:104A90009F908F9008950E940225089589E391E0E8
:104AA0000E9402250895A0E0B0E080933901909320
:104AB0003A01A0933B01B0933C010895FB01DC0156
:104AC00005900D920020E1F70895BB274A3031F49C
:104AD000992322F4BDE2909581959F4F0C94712506
:104AE000BB27FB015527AA27880F991FAA1FA417C8
:104AF00010F0A41B83955051B9F7A05DAA3308F0BC
:104B0000A95DA193009779F7B111B1931192CB01EF
:104B10000C948A25DC01FC01672F71917723E1F762
:104B2000329704C07C916D9370836291AE17BF077A
:104B3000C8F30895F999FECF92BD81BDF89A9927DF
:104B400080B50895262FF999FECF1FBA92BD81BD79
:104B500020BD0FB6F894FA9AF99A0FBE01960895FF
:104B6000052E97FB1EF400940E94C72557FD07D021
:104B70000E94E22507FC03D04EF40C94C725509503
:104B80004095309521953F4F4F4F5F4F0895909539
:104B90008095709561957F4F8F4F9F4F08950E942C
:104BA0000426A59F900DB49F900DA49F800D911D8C
:104BB00011240895B7FF0C94CF250E94CF25821BA6
:104BC000930B0895A1E21A2EAA1BBB1BFD010DC079
:104BD000AA1FBB1FEE1FFF1FA217B307E407F507AD
:104BE00020F0A21BB30BE40BF50B661F771F881F89
:104BF000991F1A9469F760957095809590959B011F
:104C0000AC01BD01CF010895A29FB001B39FC001C7
:104C1000A39F700D811D1124911DB29F700D811DE8
:104C20001124911D0895DB018F939F930E94CF253E
:104C3000BF91AF91A29F800D911DA39F900DB29F38
:104C4000900D1124089597FB072E16F4009407D0B9
:104C500077FD09D00E944C2607FC05D03EF49095C4
:104C600081959F4F0895709561957F4F0895EE0F40
:104C7000FF1F0590F491E02D09940E940426332330
:104C800012F48A1B9B0B0C9447260E940426B7FF44
:104C90000895821B930B0895AA1BBB1B51E107C00B
:104CA000AA1FBB1FA617B70710F0A61BB70B881FBC
:104CB000991F5A95A9F780959095BC01CD0108954B
:104CC0005058BB27AA270E9478260C94F2270E94EE
:104CD000E42738F00E94EB2720F039F49F3F19F4C5
:104CE00026F40C94E1270EF4E095E7FB0C94DB2707
:104CF000E92F0E94032858F3BA1762077307840745
:104D0000950720F079F4A6F50C9425280EF4E0958B
:104D10000B2EBA2FA02D0B01B90190010C01CA0175
:104D2000A0011124FF27591B99F0593F50F4503E20
:104D300068F11A16F040A22F232F342F4427585F12
:104D4000F3CF469537952795A795F0405395C9F72A
:104D50007EF41F16BA0B620B730B840BBAF09150E2
:104D6000A1F0FF0FBB1F661F771F881FC2F70EC081
:104D7000BA0F621F731F841F48F487957795679554
:104D8000B795F7959E3F08F0B0CF9395880F08F040
:104D90009927EE0F9795879508950E94B72708F4F5
:104DA00081E008950E94E6260C94F2270E94EB27EA
:104DB00058F00E94E42740F029F45F3F29F00C945A
:104DC000DB2751110C9426280C94E1270E9403281C
:104DD00068F39923B1F3552391F3951B550BBB272A
:104DE000AA2762177307840738F09F5F5F4F220F6F
:104DF000331F441FAA1FA9F335D00E2E3AF0E0E866
:104E000032D091505040E695001CCAF72BD0FE2FAF
:104E100029D0660F771F881FBB1F26173707480743
:104E2000AB07B0E809F0BB0B802DBF01FF279358FB
:104E30005F4F3AF09E3F510578F00C94DB270C94BD
:104E400026285F3FE4F3983ED4F3869577956795DF
:104E5000B795F7959F5FC9F7880F911D9695879530
:104E600097F90895E1E0660F771F881FBB1F62174F
:104E700073078407BA0720F0621B730B840BBA0B0D
:104E8000EE1F88F7E09508950E944B276894B111B2
:104E90000C94262808950E940B2888F09F5798F0BC
:104EA000B92F9927B751B0F0E1F0660F771F881F2F
:104EB000991F1AF0BA95C9F714C0B13091F00E9449
:104EC0002528B1E008950C942528672F782F88278E
:104ED000B85F39F0B93FCCF3869577956795B39570
:104EE000D9F73EF490958095709561957F4F8F4FDF
:104EF0009F4F0895E89409C097FB3EF490958095E4
:104F0000709561957F4F8F4F9F4F9923A9F0F92F8F
:104F100096E9BB279395F695879577956795B7950D
:104F2000F111F8CFFAF4BB0F11F460FF1BC06F5FF3
:104F30007F4F8F4F9F4F16C0882311F096E911C005
:104F4000772321F09EE8872F762F05C0662371F026
:104F500096E8862F70E060E02AF09A95660F771F3A
:104F6000881FDAF7880F9695879597F90895990F16
:104F70000008550FAA0BE0E8FEEF16161706E80723
:104F8000F907C0F012161306E407F50798F0621B44
:104F9000730B840B950B39F40A2661F0232B242B19
:104FA000252B21F408950A2609F4A140A6958FEF38
:104FB000811D811D089597F99F6780E870E060E08A
:104FC00008959FEF80EC089500240A9416161706A2
:104FD00018060906089500240A94121613061406EA
:104FE00005060895092E0394000C11F4882352F04D
:104FF000BB0F40F4BF2B11F460FF04C06F5F7F4F05
:105000008F4F9F4F089557FD9058440F551F59F0EB
:105010005F3F71F04795880F97FB991F61F09F3FA5
:1050200079F087950895121613061406551FF2CFCE
:105030004695F1DF08C0161617061806991FF1CF1E
:1050400086957105610508940895E894BB27662745
:105050007727CB0197F908950E94B72708F48FEFBF
:1050600008950E9444280C94F2270E94E42738F007
:105070000E94EB2720F0952311F00C94DB270C9471
:10508000E12711240C9426280E94032870F3959F91
:10509000C1F3950F50E0551F629FF001729FBB272F
:1050A000F00DB11D639FAA27F00DB11DAA1F649FCB
:1050B0006627B00DA11D661F829F2227B00DA11D7E
:1050C000621F739FB00DA11D621F839FA00D611D04
:1050D000221F749F3327A00D611D231F849F600D25
:1050E000211D822F762F6A2F11249F5750409AF04E
:1050F000F1F088234AF0EE0FFF1FBB1F661F771FDA
:10510000881F91505040A9F79E3F510580F00C94A4
:10511000DB270C9426285F3FE4F3983ED4F3869572
:1051200077956795B795F795E7959F5FC1F7FE2B44
:10513000880F911D9695879597F90895DC0101C018
:105140006D9341505040E0F70895FB01DC010D9054
:105150000020E9F7119701900D920020E1F70895E2
:10516000FB01DC0101900D920020E1F70895F89415
:02517000FFCF6F
:10517200010101FF0A00FF3200E70301FF010A00FB
:10518200783030312E62696E0000000000000000AD
:1051920000000000000000FCFFFAFFF4FFF1FFEF47
:1051A200FFEEFFEBFFEAFF08010100000010101004
:1051B20020408080800408101010000000010204CA
:1051C2000404040201010101020400000000FF01C5
:1051D20000010000FFFF0000010001FF00050007C1
:1051E20000060003000200010000000000010002AE
:1051F20000030003000200010000000000010002A1
:1052020000030000000001FF01FFFF01FF01FF0199
:10521200FF000000F401E803DC05D007C409B80B65
:10522200AC0DA00FFD00F000E300D600C900BC00E9
:10523200AF00A200950088000C000D000E000F00C8
:105242000B000A0009000800040005000600070020
:105252000300020001000000FC60DAF266B6BEE064
:10526200FEF6EE3E9C7A9E8EF62E20786E1CEC2A7E
:105272003ACEE60AB662387C7C6E76DA000201002B
:10528200080009000A000B000C000D000E000000CF
:105292000100020003000E000F00100011000408BC
:1052A2000C101820304043505900494E5600434CD0
:1052B200520043414C00455252004D454D002E6272
:0452C200696E000011
:00000001FF
