:100000000C9478010C94011D0C94DA1C0C94A00142
:100010000C94A0010C94A0010C94A0010C94A001DC
:100020000C94A0010C94A0010C94A0010C94A001CC
:100030000C94A0010C94A0010C94A0010C94A001BC
:100040000C940E270C94A0010C94A0010C94A00118
:100050000C94A0010C94A0010C94A0010C94A0019C
:100060000C94A0010C94A0017B2C852CE02CE42C9A
:10007000042DA02DE82CCF04D104A904B404BF049E
:10008000D104CF04D304D504DF04F304F304F30450
:10009000F604F60401050C0577128D128A1275120A
:1000A00072128D1279128D127B1288127D127F12BC
:1000B0007F128612861288128A12B512BD1292130E
:1000C000F912311392139213611345139213921381
:1000D000921392139213921392139213AE12161359
:1000E00005A84CCDB2D44EB93836A9020C50B991FE
:1000F0008688083CA6AAAA2ABE000000803F00000D
:100100000000230026002900010001000100010079
:1001100001000100010100010100010001000101D5
:1001200000010101000001010001010001010101C4
:1001300000010100010101010001000101000100B5
:1001400001010101000101010101000001000100A4
:100150000100000100010100010001000001000197
:100160000000010100010100010001010001000186
:100170000100010001010001000100010101010174
:10018000010101010101010101014320310042206F
:100190003000426230004120300041623000472090
:1001A0003000476230004620300045203000456274
:1001B0003000442030004462300043203000BA0157
:1001C000B601B201AE01AA01A601A2019E019A01E7
:1001D000960192018E018A01564942005355420010
:1001E0004348510043484F005455330054553200A2
:1001F00054553100524F4C0053545400524E440059
:100200005354500046525A00474C44005452530035
:100210004F435400524556005245500057484F0036
:10022000444F520050485200424C4D00424C550041
:1002300050454D0050454E004D494E004D414A003D
:10024000434852001802140210020C020802040271
:100250000002FC01F801F401F001EC01E801E40105
:10026000E001DC01D80140023C02380234023002D5
:100270002C022802240220021C02415544004F4651
:1002800046004E4F5400494E54004C464F00204308
:1002900056007E027A028E028A02860282020000E4
:1002A0000000240027002A0000000000250028008C
:1002B0002B000404040404040404020202020202E7
:1002C000030303030303010204081020408001021A
:1002D0000408102001020408102000000008000299
:1002E0000100000304070000000000000000573276
:1002F00011241FBECFEFD8E0DEBFCDBF12E0A0E0DB
:10030000B1E0E2E8FEE602C005900D92A23DB10721
:10031000D9F727E0A2EDB2E001C01D92A334B207E5
:10032000E1F711E0C8E7D1E004C02197FE010E9487
:100330004334C737D107C9F70E9458270C943F3779
:100340000C940000CF92DF92EF92FF926091A40490
:100350007091A504072E000C880B990B0E94743530
:100360006B017C016091AF0670E080E090E00E943C
:1003700072359B01AC01C701B6010E94293620E00D
:1003800030E048EC52E40E94CA340E944335709336
:10039000DF026093DE02FF90EF90DF90CF90089530
:1003A00081E08093E6020895CF93DF93C62F1092E9
:1003B0000E0310920D038091E402882309F18091CD
:1003C000AE068730B9F40E942C336091AF0670E01E
:1003D0000E942F34D82F0E942C336AE070E00E94D4
:1003E0002F34069714F481E001C08FEF8D9FC00D6C
:1003F000112406C0833021F48091AF068851C80FC4
:10040000CD30B4F0C4321CF083E090E007C0C831B6
:100410001CF481E090E002C082E090E090930E0333
:1004200080930D038C2F6CE00E940D34C92F16C0F1
:10043000C43F94F4CD3D14F0C93E1CF48EEF9FEF01
:1004400002C08FEF9FEF90930E0380930D038C2FCC
:100450006CE00E940D34C92FC7FD05C08C2F0C2EF7
:10046000000C990B05C08C2F0C2E000C990B0C96D0
:10047000FC01EC5CFB4F808181111DC02091AC061A
:100480008C2F0C2E000C990B233031F4C7FD0C96E9
:10049000FC01EA51FE4F0DC0243031F4C7FD0C962B
:1004A000FC01E752FE4F05C0C7FD0C96FC01E4536A
:1004B000FE4F8081C80F8C2FDF91CF910895089552
:1004C0000CB405FC0DC09EBD00000DB407FEFDCFB1
:1004D0009EB58EBD00000DB407FEFDCF8EB508950C
:1004E0008EBD00000DB407FEFDCF8EB59EBD000091
:1004F0000DB407FEFDCF9EB508958CBD9DBD08953A
:10050000CF93CFB7F89480916E03811127C0ECEBA5
:10051000F2E08491E0EDF2E09491E82FF0E0EE0F4C
:10052000FF1FE256FD4FA591B491EC91E92321F410
:1005300061E08AE00E94141861E08AE00E94631C76
:100540008CB580618CBD8CB580648CBD61E08DE024
:100550000E94631C61E08BE00E94631C80916E032B
:100560008F5F80936E03CFBFCF910895CF93DF93BA
:10057000E9EAF4E0A9E2B5E080E420E530E01082A9
:10058000EF01C05CDF4F18822D933D93C054DF4FC5
:100590001882C05CDF4F1882C05CDF4F1882C05CDD
:1005A000DF4F1882815031968111E9CF82E3809329
:1005B000A90690E19093AA0691E09093AB06109261
:1005C000AC068093AD061092AE0684E08093AF0631
:1005D00088E18093B1061092B2061092B306109291
:1005E000B406DF91CF910895CF93C62F862F6CE08C
:1005F0000E940134E92FF0E0EE0FFF1FE254FE4F9E
:100600006591749189E193E00E943C33CF3738F4CF
:100610008C2F90E06CE070E00E942F3401C06AE003
:10062000605D60931B0389E193E0CF9108958F9201
:100630009F92AF92BF92CF92DF92EF92FF927B0197
:10064000BA01550F880B990B0E94743520E030E0F9
:1006500040E450E40E94593420E030E040E451E4AA
:100660000E9429364B015C01B701FF0C880B990BE6
:100670000E9474359B01AC01C501B4010E9459343C
:100680006B017C016091B106062E000C770B880B84
:10069000990B0E9474359B01AC01C701B6010E9401
:1006A000593420E030E040EC51E40E9458346B01B2
:1006B0007C0120E030E0A9010E94243618166CF479
:1006C00020E030E04EEF52E4C701B6010E94C5348D
:1006D00087FD06C08FE790E008C080E090E005C08D
:1006E000C701B6010E943C35CB01FF90EF90DF902F
:1006F000CF90BF90AF909F908F900895CF92DF9250
:10070000EF92FF928091E402882359F08091AE0627
:10071000843039F48091AF0624E0829FC001112417
:1007200003C08091A90690E090930901809308018D
:100730006091080170910901072E000C880B990B3C
:100740000E94743520E030E048EC52E40E94CA3444
:100750006B017C016091A4047091A504072E000C2C
:10076000880B990B0E9474359B01AC01C701B6013F
:100770000E9429360E943C3570931803609317033A
:10078000FF90EF90DF90CF900895CF939C016093FE
:10079000E4028091070180936D039091AE0694303E
:1007A00021F4C901CF910C947E03C62F953031F40A
:1007B00080E00E941418C093E20249C0963019F4F8
:1007C0001092E30244C09B3001F52091AA0630E06C
:1007D000E9EAF4E080E090E0AF01495A5440421762
:1007E00053072CF090936C0380936B0330C0DF01B0
:1007F000A05CBE4F4C91442331F0DC01A55DBC4FA1
:1008000040814C9301963196E7CF903101F560918C
:100810002703709128038091290390912A030E9455
:10082000433580E00E94F6138091B40682508230F6
:1008300070F46091230370912403809125039091BB
:1008400026030E94433581E0CF910C94F613CF919B
:100850000895CF93C62F0E94C50380913304882347
:1008600071F08091D402882351F0E09107010E2E9F
:10087000000CFF0BE759F94FC083C093D502CF910D
:1008800008958091B406823029F17CF487FD38C048
:10089000072E000C880B990B0E94743524E13EEA68
:1008A00043E251E40E94CA3427C0833049F5072E41
:1008B000000C880B990B0E9474352DEC3CEC48EA37
:1008C00051E40E94CA3420E030E040E451E40E9448
:1008D000593412C0072E000C880B990B0E947435F6
:1008E0002DEC3CEC48EA51E40E94CA3420E030E0B0
:1008F00040EC51E40E9458340E943C35862F089504
:1009000080E008950F93FB018081811102C047FDB3
:100910000BC0840F081710F4008305C0821710F075
:10092000808301C0208380810F9108950F931F93CE
:10093000CF93DF93E091AE060E2F10E00131110549
:1009400008F071C0462FEC01F801E55CFF4F0C94F4
:10095000433408E020E06FEA76E00E948204809150
:10096000AF0690E0049762C000E320E06FEA76E013
:100970000E9482048091AF0690E0489757C004E639
:1009800021E06FEA76E00E948204CE010E947E039D
:100990008091AF0624E0829FC001112447C000E18E
:1009A00023C001E03AC002E31FC004E621E06FEA81
:1009B00076E00E948204CE010E94A20134C008E0C9
:1009C00021E06FEA76E00E9482046091AF0670E059
:1009D0008091A4049091A5040E942F347093E102A9
:1009E0006093E00220C004E121E018C008E120E0AB
:1009F0006FEA76E00E9482048091AF0690E00C9747
:100A000015C006E020E06FEA76E00E948204809143
:100A1000AF0690E003970AC00EE120E06FEA76E0AF
:100A2000CE010E9482048091AF0690E0DF91CF91C9
:100A30001F910F9108952091AC06CB01820F911D5B
:100A400097FF02C080E090E08A30910514F089E0C1
:100A500090E08093AC06FC01EE0FFF1FED50FE4FBF
:100A600060817181A4E3B4E020E030E0FB01E20F9B
:100A7000F31FE49141E0E11101C040E04D932F5F8D
:100A80003F4F2D30310591F70895CF92DF92EF92CD
:100A9000FF92CF93DF93C091A404D091A5046091FD
:100AA000AD0670E080E090E00E9472356B017C0141
:100AB000BE010D2E000C880B990B0E9474359B0112
:100AC000AC01C701B6010E94293620E030E048E4BD
:100AD00052E40E94CA346B017C016093EB02709374
:100AE000EC028093ED029093EE02BE01660F771F39
:100AF000072E000C880B990B0E947435A7019601F4
:100B00000E9458346093EF027093F0028093F102D8
:100B10009093F202DF91CF91FF90EF90DF90CF9012
:100B20000895CF93DF93EC0180914701680F711D09
:100B30006B3F710534F4643171052CF464E170E0AD
:100B400002C06AEF70E0262F6093470188E99AE3BC
:100B50000E942F347093A7046093A60480918703AA
:100B6000882321F07093A5046093A4042093B00619
:100B7000CE010E9445056091AF0670E08091A4040B
:100B80009091A5040E942F347093E1026093E002DB
:100B9000CE010E94A2018091470190E0DF91CF91A8
:100BA0000895DF92EF92FF920F931F93CF93DF93FD
:100BB000EC01809142018F5F80934201082E000C6E
:100BC000990B2091AA0630E082179307D4F0109277
:100BD0004201809184038823A1F080918503909144
:100BE0008603019690938603809385032091B30634
:100BF000022E000C330B821793071CF081E08093C8
:100C000083038091E502811107C081E08093E502B2
:100C100061E082E00E9414188091D502E091070102
:100C20000E2E000CFF0BE759F94F882321F080911D
:100C3000D40280831BC090818091E402992321F02B
:100C4000811114C061E00FC0882381F08091D4022B
:100C500081110CC080917603882321F08091E702F6
:100C6000811104C060E0CE010E94C5039091E402AE
:100C70009923E1F18091AE06811127C0809107018F
:100C8000482F082E000C550B20916D0330E04217C1
:100C9000530761F49091AF06891B8F5F8093070122
:100CA00087FF2AC09091AA06890F1BC08F5F80938F
:100CB0000701082E000C990B2091AA0630E082173C
:100CC0009307D1F41092070117C0813069F4809125
:100CD000070181508093070187FF0EC08091AA060B
:100CE00081508093070108C0853031F08091420126
:100CF00080930701992351F080916F03882331F08D
:100D00008091AE068B50823008F4EBC0D090070182
:100D1000ED2C0D2C000CFF08870107551B4FF80127
:100D2000E05CFE4F8081882309F4D0C0D09243015B
:100D30008091DC029091DD029093DB028093DA02D5
:100D40008091D8029091D9029093D7028093D602D5
:100D50008091B406813009F0B9C080912F04909140
:100D60003004A0913104B091320480930F0390932A
:100D70001003A0931103B093120380E090E0A0E869
:100D8000BFEB80932F0490933004A0933104B09371
:100D90003204C1E0CD0DD091AA06CD1710F58C2FED
:100DA00090E087559B4FFC01E05CFE4F20812223A1
:100DB000B1F0E054F1096081062E000C770B880B2E
:100DC000990B0E94743560932F04709330048093C4
:100DD000310490933204CD19C0930C0302C0CF5F4D
:100DE000DCCF20E030E040E85FEB60912F047091B1
:100DF000300480913104909132040E94C5348111F5
:100E000027C0C0E08C2F90E08E159F050CF587550C
:100E10009B4FFC01E05CFE4F20812223B9F0E0549F
:100E2000F1096081062E000C770B880B990B0E944C
:100E3000743560932F047093300480933104909341
:100E40003204DD19CD0FC0930C0302C0CF5FDACF9F
:100E500020E030E040E85FEB60912F0470913004B7
:100E600080913104909132040E94C534811115C0E3
:100E7000F801F3956081062E000C770B880B990B17
:100E80000E94743560932F04709330048093310472
:100E90009093320481E080930C0320910C038091A5
:100EA000A4049091A504289FB001299F700D1124DE
:100EB000072E000C880B990B0E9474356093130366
:100EC00070931403809315039093160381E080932D
:100ED000F302DF91CF911F910F91FF90EF90DF9080
:100EE00008950E942C33E09107010E2E000CFF0B99
:100EF000E751FA4F64E170E00E942F34AC01209179
:100F0000AF0630E091E0241735070CF490E09083B1
:100F1000FDCECF93DF938FEF809342018093070143
:100F20001092F30281E080930401109286031092E4
:100F300085038091E60281111CC0EDEDF2E0849101
:100F4000E9ECF2E0D491E5EBF2E0C491CC2371F04E
:100F500081110E94EB17EC2FF0E0EE0FFF1FE25023
:100F6000FF4FA591B491EC91ED2319F481E08093AA
:100F7000E602DF91CF9108958EBD00000DB407FE0B
:100F8000FDCF8EB50895EF92FF920F931F93CF93ED
:100F9000DF93CBE0D1E07E0100E010E0C8010E94C9
:100FA000783390E0845691099C0197FF04C0222772
:100FB0003327281B390BF701243631051CF49183A4
:100FC000808302C0118210820F5F1F4FF2E0EF0E8C
:100FD000F11C0930110511F701E210E0C8010E946F
:100FE000783390E0845691099C0197FF04C0222732
:100FF0003327281B390B243631051CF49B8B8A8B35
:1010000002C01B8A1A8A0F5F1F4F22960A321105EF
:1010100029F7DF91CF911F910F91FF90EF900895E5
:101020002F923F924F925F926F927F928F929F92F8
:10103000AF92BF92CF92DF92EF92FF920F931F93E6
:10104000CF93DF9300D000D000D0CDB7DEB76A01D8
:101050007B01622E20E030E040EC52E4C701B60193
:101060000E94243618166CF020E030E0A901C70178
:10107000B6010E94C53487FF0AC0C12CD12C76016D
:1010800006C0C12CD12C40ECE42E42E4F42E20E02A
:1010900030E040E451E4C701B6010E94CA340E9426
:1010A0003C354B015C011B01C701B6010E943C3578
:1010B000CB016CE070E00E942F3401E010E01816C4
:1010C000190614F000E010E0080D191D29E0629ED9
:1010D00030011124F301E80DF91DEE0FFF1FE55F4C
:1010E000FE4FD401AA0FBB1FA654BE4F8081918131
:1010F0002D913C91280F391F3E832D83B90180E04B
:1011000090E00E94723569837A838B839C83F80117
:10111000E60DF71DEE0FFF1FE55FFE4FD801AA0F8A
:10112000BB1FA654BE4F808191816D917C91680F49
:10113000791F80E090E00E9472352B013C0120165F
:10114000310691F1B401990C880B990B0E9474350A
:1011500020E030E040E451E40E9429369B01AC01DC
:10116000C701B6010E9458346B017C0129813A8184
:101170004B815C81C301B2010E9458349B01AC01D8
:10118000C701B6010E94293620E030E040E451E476
:101190000E94CA3429813A814B815C810E94593472
:1011A0000E9443357E836D838D819E8126960FB686
:1011B000F894DEBF0FBECDBFDF91CF911F910F918D
:1011C000FF90EF90DF90CF90BF90AF909F908F9067
:1011D0007F906F905F904F903F902F900895FF9277
:1011E0000F931F93CF93DF93EC01F62E08811981A3
:1011F000C8010E947833F81621F06F2DC8010E94B3
:101200008033CE01DF91CF911F910F91FF90089510
:10121000CF92DF92EF92FF920F931F93EFB7F89464
:1012200000913A0710913B0720913C0730913D0710
:10123000EFBF68017901C41AD50AE60AF70AFC0172
:10124000C082D182E282F3821F910F91FF90EF90D2
:10125000DF90CF9008950F931F93FC012FB7F89460
:1012600080913A0790913B07A0913C07B0913D07D0
:101270002FBF0081118122813381BC01CD01601B10
:10128000710B820B930B1F910F910895CF93DF93F6
:1012900000D000D0CDB7DEB780910701082E000C3A
:1012A000990B9C01261B370B37FF07C02091AA061C
:1012B000820F911D9C01261B370B8091A4049091F5
:1012C000A504289FA001299F500D389F500D11247F
:1012D000052E000C660B770B8091A0049091A10461
:1012E000A091A204B091A304841B950BA60BB70B8D
:1012F00089839A83AB83BC83CE0101960E942B091C
:10130000CB010F900F900F900F90DF91CF91089528
:101310004F925F926F927F928F929F92AF92BF9205
:10132000CF92DF92EF92FF920F931F93CF93DF93B1
:10133000EC012091E402222309F4DAC08091AE0688
:10134000863009F077C08091E302811140C260913C
:101350006D0370E0CE010E9446098C012091AF061A
:101360008091A4049091A504289FB001299F700D3D
:101370001124072E000C880B990B0E9474356B0109
:101380007C016091DC027091DD02072E000C880B5D
:10139000990B0E9474354B015C01B801110F880B49
:1013A000990B0E9474359B01AC01C701B6010E94E4
:1013B00058349B01AC01C501B4010E942936A70134
:1013C00096010E94CA346B017C0120E030E040E8C5
:1013D0005FE30E94C534881F8827881F8093E3023B
:1013E00020E0B701A60180917403909175030E94DB
:1013F00010088C01BC01990F880B990B0E94743561
:1014000060932703709328038093290390932A0302
:10141000B80180E00E94F6138091E302882309F46A
:1014200076C160E080E00E9414181092E2021092EF
:10143000EA026DC1803109F05BC060914301062E64
:10144000000C770BCE010E944609BC01990F880B56
:10145000990B0E94743520E030E040EA51E40E948C
:10146000CA340E9496366B017C016091AF0670E031
:1014700080E090E00E9474354B015C01A701960169
:10148000C701B6010E9459349B01AC01C501B401EA
:101490000E9429360E943C35072E000C880B990BC0
:1014A0000E9474356B017C01209127033091280341
:1014B0004091290350912A030E9459340E944335D8
:1014C00080E00E94F6138091B4068250823008F0CA
:1014D0001EC1209123033091240340912503509194
:1014E0002603C701B6010E9459340E944335B3C098
:1014F00060914301062E000C770BCB0187559B4F63
:10150000FC01E05CFE4F3081332329F0E05CFF4FAB
:101510008081811108C0222309F4F9C08091AE06B0
:10152000843009F0F4C0CE010E9446098C0160911C
:10153000170370911803861797070CF090C010924C
:10154000E3027B01E81AF90A072E000C880B990BBD
:101550000E9474354B015C018091DC029091DD02A8
:10156000089FB001099F700D189F700D11242091E4
:10157000DA023091DB02E29EC001E39E900DF29E02
:10158000900D1124680F791F072E000C880B990B02
:101590000E947435A50194010E94CA34AB01BC01BC
:1015A00020E080917403909175030E9410086C01F3
:1015B000BC01990F880B990B0E9474356093270327
:1015C000709328038093290390932A03B60180E047
:1015D0000E94F6138091B4068250823008F097C0C2
:1015E0008091D8029091D902089FB001099F700D97
:1015F000189F700D11242091D6023091D702E29EDF
:10160000C001E39E900DF29E900D1124680F791F8A
:10161000072E000C880B990B0E947435A5019401CC
:101620000E94CA34AB01BC0120E080917403909108
:1016300075030E9410088C01BC01990F880B990B4F
:101640000E947435609323037093240380932503D1
:1016500090932603B80181E00E94F61358C0809150
:10166000E302811154C06091DC027091DD02072E0B
:10167000000C880B990B0E947435AB01BC0120E073
:1016800080917403909175030E9410088C01BC0135
:10169000990F880B990B0E94743560932703709300
:1016A00028038093290390932A03B80180E00E94C5
:1016B000F6138091B4068250823030F56091D802E2
:1016C0007091D902072E000C880B990B0E9474357B
:1016D000AB01BC0120E080917403909175030E94DE
:1016E00010088C01BC01990F880B990B0E9474356E
:1016F0006093230370932403809325039093260320
:10170000B80181E00E94F61381E08093E3028091AA
:10171000B406813009F05BC060914301062E000CD5
:10172000770BCE010E944609BC01990F880B990BDB
:101730000E9474354B015C01C0901303D0901403D8
:10174000E0901503F09016039B01AC01C701B601B0
:101750000E94583420910F033091100340911103DF
:10176000509112030E9429362B013C0120912F0435
:10177000309130044091310450913204C501B401DC
:101780000E9429369B01AC01C301B2010E94593469
:10179000A70196010E94CA3420E030E040E252E402
:1017A0000E9429360E94433581E0DF91CF911F913D
:1017B0000F91FF90EF90DF90CF90BF90AF909F90F0
:1017C0008F907F906F905F904F900C94F613DF9105
:1017D000CF911F910F91FF90EF90DF90CF90BF902E
:1017E000AF909F908F907F906F905F904F900895F3
:1017F000EF92FF920F931F93CF93DF937C01C62F3D
:101800008091E402882309F4F3C080916F03882358
:1018100009F4EEC08091AE068A30F9F40E942C33B0
:101820006091AF0670E00E942F34D82F0E942C33B5
:101830006AE070E00E942F34069714F491E001C032
:101840009FEFE09143010E2E000CFF0BE755FB4F7D
:101850008081D99F800D11249AC08B3029F50E9478
:101860002C3300914301002E000C110B98012755D9
:101870003B4F60916B0370916C030E942F34FC010D
:10188000E55DFC4F8081F90180830E942C33000FBD
:10189000111FF801E75DFA4F62E870E00E942F34F3
:1018A00044969183808374C08C3009F071C000919C
:1018B0004301002E000C110B0E942C3368E170E0F4
:1018C0000E942F34D82F0E942C336AE070E00E94CF
:1018D0002F34069714F481E001C08FEFF801E7552B
:1018E000FB4F8D9F802D1124808300914301002E9A
:1018F000000C110B0E942C33F801E75DF94F6AE0F0
:1019000070E00E942F349C0191E0293031050CF4E5
:1019100090E0908300914301002E000C110B0E9477
:101920002C33000F111FF801E75DFA4F62E870E0F9
:101930000E942F344496918380838091B406009155
:101940004301002E000C110B823059F40E942C33FD
:10195000F801E755FA4F68E170E00E942F348C508F
:1019600016C0833059F40E942C33F801E755FA4F22
:1019700060E370E00E942F34845F09C00E942C3322
:10198000F801E755FA4F6AE570E00E942F34808332
:10199000E09143010E2E000CFF0BE755FB4F8081B9
:1019A000282F082E000C330B37FF03C031952195EB
:1019B00031092D303105E4F0181614F02FEF01C075
:1019C00021E0DF01A05CBF4F9C91920F9F3F24F06C
:1019D00093301CF092E001C09EEFDF01A05CBF4F8E
:1019E0009C936CE00E940D34929F902D1124908363
:1019F000D0E0C755DB4F6881C7010E94D401FE01CA
:101A0000E05CFF4F4081042E000C550B4D5F5F4F93
:101A10006CE0649F9001659F300D11244091B106E8
:101A2000F901E80FF11D87FDFA95CF01840F911D93
:101A300047FD9A9540910D0350910E03649F9001CC
:101A4000659F300D1124820F931F9093DD028093C8
:101A5000DC022091E4022223A1F02091AE06223084
:101A600081F42091AF0630E024503109629FA0013B
:101A7000639F500D1124840F951F9093DD02809376
:101A8000DC02FE01E058FE4F8081882341F0809106
:101A9000EA02811104C0C7010E94880926C0609132
:101AA000DC027091DD02072E000C880B990B0E945E
:101AB0007435AB01BC0120E08091740390917503F3
:101AC0000E9410088C01BC01990F880B990B0E9491
:101AD00074356093270370932803809329039093B0
:101AE0002A03B80180E00E94F6138091E402882363
:101AF00009F476C02091AE0683EF820F833008F0A0
:101B00006FC06091AF062E3071F56C508881680F00
:101B1000C7010E94D401C05CDF4F4881042E000C35
:101B2000550B4D5F5F4F6CE0649F9001659F300DDA
:101B300011249091B106280F311D87FD3A95290F88
:101B4000311D97FD3A9540910D0350910E03649F0E
:101B5000C001659F900D1124280F391F3093D902C1
:101B60002093D80219C08091DC029091DD022D30C3
:101B700021F4860F911D0C970BC070E06350710922
:101B80004CE0469F9001479F300D1124820F931F18
:101B90009093D9028093D8026091D8027091D902B3
:101BA000072E000C880B990B0E947435AB01BC0109
:101BB00021E080917403909175030E941008EC015C
:101BC000BC01990F880B990B0E9474356093230315
:101BD000709324038093250390932603BE0189C04C
:101BE0008091B406823079F16CF487FD78C0D3958A
:101BF0006881F8E26F02B0011124072E000C880BF7
:101C0000990B63C0833009F06AC0D395688168512D
:101C1000C7010E94D4016091B106062E000C770B1B
:101C20006851710940910D0350910E039CE0949FFF
:101C30009001959F300D1124620F731F082E000C28
:101C4000990B849629C0FE01F39568818081680F05
:101C5000C7010E94D401C05CDF4F2881022E000C16
:101C6000330B2D5F3F4F4CE0429FB001439F700DFF
:101C700011249091B106680F711D87FD7A95690F47
:101C8000711D97FD7A9520910D0330910E03429FAF
:101C9000C001439F900D1124680F791F7093D902E2
:101CA0006093D802072E000C880B990B0E947435A4
:101CB000AB01BC0121E080917403909175030E94F7
:101CC0001008BC01990F880B990B0E947435609322
:101CD000230370932403809325039093260360913C
:101CE00023037091240380912503909126030E9481
:101CF000433581E0DF91CF911F910F91FF90EF90DD
:101D00000C94F613CF92DF92EF92FF929C01E09138
:101D100007010E2E000CFF0BE751FA4F80819091C6
:101D2000E402882309F467C09923F1F08091AE069C
:101D30008630D1F4C9010E9488098091E3028111A3
:101D400067C0E09143010E2E000CFF0BE751FA4FE4
:101D500060810E941418E09143010E2E000CFF0BCD
:101D6000E751FA4F808152C01092E3026091430123
:101D7000C9010E94F80BE09143010E2E000CFF0BED
:101D8000E751FA4F608180E00E941418809143016E
:101D9000082E000C990BFC01E751FA4F208120938B
:101DA000E202880F991FFC01E75DFA4F60817181A3
:101DB00080E090E00E94723520E030E048EC52E490
:101DC0000E94CA346B017C016091A4047091A50447
:101DD000072E000C880B990B0E9474359B01AC01F7
:101DE000C701B6010E9429360E944335709306014F
:101DF000609305010DC0992359F08091AE0688309B
:101E000039F461E080E00E94141881E08093E202DE
:101E1000FF90EF90DF90CF900895FF920F931F9364
:101E2000CF93DF9300D000D0CDB7DEB7F62E8A0176
:101E300060914B040E94F80B6F2D80E00E941418F3
:101E4000F092E202F092EA02A801110F660B770B02
:101E50008091A0049091A104A091A204B091A30448
:101E6000841B950BA60BB70B89839A83AB83BC832A
:101E7000CE0101960E942B097093E9026093E8025B
:101E80000F900F900F900F90DF91CF911F910F91B6
:101E9000FF9008950F931F93CF93DF93CDB7DEB7D5
:101EA0006A970FB6F894DEBF0FBECDBF0E94C22660
:101EB000CE010D960E944B258EE0FE013D96AFEFC0
:101EC000B6E001900D928A95E1F78091FF0690911E
:101ED0000007A0910107B0910207892B8A2B8B2B59
:101EE00011F480E0D4C040E450E060E070E089EAA2
:101EF00094E00E94E72440E450E060E070E089EE66
:101F000094E00E94E72440E850E060E070E088E858
:101F100093E00E94E72440E450E060E070E089EA4A
:101F200095E00E94E72440E450E060E070E089EE34
:101F300095E00E94E72440E450E060E070E089E230
:101F400096E00E94E72448E050E060E070E0CE01B7
:101F500001960E94E72444E050E060E070E0CE018A
:101F600009960E94E72440E450E060E070E089E6D2
:101F700096E00E94E724E8E8F3E0A9E2B5E0819169
:101F800090E0982F882727AD820F911D8D939D9308
:101F900083E0E83CF80799F789818093A9068A8154
:101FA0008093AA068B818093AB068C818093AC06CC
:101FB0008D818093AD068E818093AE068F81809354
:101FC000AF0668856093B00689858093B1068A85DF
:101FD0008093B2068B858093B3068C858093B4067C
:101FE00000910804109109048091870381110DC0AC
:101FF00070E088E99AE30E942F347093A7046093FD
:10200000A6047093A5046093A40460E070E0C80186
:102010000E949105C8010E947E0360E070E0C80143
:102020000E941B0560E070E0C8010E949604909138
:10203000AA062091A8049217B9F0809142011816BF
:1020400044F4921710F085306CF0821B890F809356
:1020500042018091420187FD03C08093420102C08A
:10206000890FF9CF9093A8041092860310928503EC
:102070008091B20618162CF481E09091B3061916DF
:102080000CF080E0809384031092830381E06A96D1
:102090000FB6F894DEBF0FBECDBFDF91CF911F9179
:1020A0000F910895CF93DF93CDB7DEB72E970FB67C
:1020B000F894DEBF0FBECDBFCE0101960E944B2526
:1020C00081E049815A816B817C81452B462B472BCE
:1020D00009F480E02E960FB6F894DEBF0FBECDBF98
:1020E000DF91CF9108951F93CF93DF931091B206A4
:1020F000C12F012E000CDD0B1C161D06ECF4CE01C9
:102100000E94C2260E9452108823B1F01093410110
:1021100010934001CE010E944A0F8091410190E04E
:102120000E94852345E050E064E670E081E0DF91A5
:10213000CF911F910C943E24DF91CF911F91089570
:102140001092160480910E079FEF980F943088F438
:10215000813021F460E080E00E9414180E94D024B5
:1021600041E050E064E670E081E00E943E2481E0BE
:1021700008951092800341E050E061E070E080E05B
:102180000E943E2480E00895CF92DF92EF92FF926A
:102190000F931F93CF93DF9300D0CDB7DEB78F306F
:1021A0009105C9F489E992E00E94FB2343E050E0E5
:1021B00064E670E081E00E943E2484E190E09A832E
:1021C000898360E0CE0101960E94EF08109210070B
:1021D00010920F07A5C08E309105D9F48DE992E0D9
:1021E0000E94FB2343E050E064E670E081E00E943F
:1021F0003E2484E190E09A8389836FE7CE010196C3
:102200000E94EF088FE790E09093100780930F07EC
:1022100087C08C309105D1F48CE080937D03609170
:102220002F01619560932F01660F660B80E190E0AE
:102230000E94803380912F0118161CF481EA92E0ED
:1022400002C085EA92E00E94FB236AC08A309105B1
:10225000D9F48BE080937D036091760381E0682759
:102260006093760384E290E09A838983CE0101969D
:102270000E94EF0880917603882319F089EA92E0A2
:10228000E2CF8DEA92E0DFCF8830910531F489E02A
:1022900080937D0381EB92E0D6CF893091050CF0DD
:1022A0003FC011E0180F10937D039093280780938F
:1022B000270780E1E0E3F1E0A6E1B7E001900D92AD
:1022C0008A95E1F7E12FF0E0EE0FFF1FE55FFE4F8B
:1022D000808191810E9485238CE0189FB001112498
:1022E000072E000C880B990B0E9474356B017C0142
:1022F00000917E0310917F0320E0AB01BC01C80177
:102300000E941008BC0180E00E94F61321E0B70192
:10231000A601C8010E941008BC0181E00E94F613CA
:102320000F900F90DF91CF911F910F91FF90EF9041
:10233000DF90CF9008950F931F93CF93DF93BC014D
:1023400080910E07813009F05AC000917D03093059
:10235000A1F580910A0490910B04861B970B8530A0
:10236000910520F490930B0480930A0480910A0451
:1023700090910B04909371038093700382309105C8
:10238000B1F02CF40197B1F481EC92E00AC08330F3
:10239000910529F0049771F485EB92E002C089EB76
:1023A00092E0DF91CF911F910F910C94FB238DEB65
:1023B00092E0F7CF85EC92E0F4CF10E09801220F85
:1023C000331FF901E55FFE4F40815181640F751F96
:1023D000CB018D599F4F873C910510F47183608329
:1023E000F901E55FFE4F808191810E948523C8013C
:1023F0000197DF91CF911F910F910C94C410909190
:102400001604911105C09EEF980F923088F505C013
:10241000811103C082E080930E0740914001640F58
:1024200019F06093400103C083E6809340018091DE
:102430004001843618F081E080934001C091400152
:10244000D0E0CE010E948523CE010E94C2260E94C8
:102450005210809339070E94792340E050E06CE2EB
:1024600071E081E0DF91CF911F910F910C943E2498
:10247000843009F060C110921604E0910A01EA303C
:10248000A1F480918103909182030E941B05880F23
:10249000991FFC01EA59FD4F6591749181E194E027
:1024A0000E943C3381E194E07CCFE53109F04AC0E1
:1024B000C0918103D091820300E120E0462F6EEAB3
:1024C00076E0CE010E94820410926F03E091AE0686
:1024D0008E2F90E08131910500F5FC01E45BFF4F08
:1024E0000C9443348091A90616C088E114C084E09E
:1024F00012C088E010C080E50EC084E001C08CE00E
:102500008093AF0681E080936F0307C083E103C02F
:1025100082E001C085E08093AF0660E070E0CE010C
:102520000E949604E091AE06F0E0EE0FFF1FEC5B18
:10253000FD4F659174918CE094E00E943C338CE0F7
:1025400094E02FCF8E2F90E0FC013897E331F10516
:1025500008F0E8C0E35AFF4F0C94433480918103A4
:10256000909182030E94960406C08091810390910D
:1025700082030E949105EC01D7C0809173032091E2
:10258000AA06882311F161157105F9F030E0A8E081
:10259000B2E041E050E0CA01ED910E2E000CFF0BBD
:1025A000E217F3072CF44F5F5F4F4730510599F75F
:1025B0001616170614F4019601C00197FC01E95F95
:1025C000FD4F80818093AA060FC0620F711D613498
:1025D000710534F4161617062CF061E070E002C0A5
:1025E00060E470E06093AA06C091AA06C093A804B4
:1025F0001BC080918103909182032091AD06620FF0
:10260000711D6B35710534F46A3071052CF46AE084
:1026100070E002C06AE570E06093AD0660E070E0D3
:102620000E949105C091AD06D0E07EC080918103EB
:10263000909182032091A906620F711D6F3F710571
:1026400009F034F4161617062CF061E070E002C0B1
:102650006FEF70E06093A9060E947E03C091A90607
:10266000E3CF8091B106EB01C80FD11D87FDDA954C
:10267000D7FF02C0C0E0D0E0C133D10514F0C0E301
:10268000D0E0C093B10668974FC08091720381116A
:1026900002C0EB0102C0C0E0D0E08091B306C80FD9
:1026A000D11D87FDDA95D7FF02C0C0E0D0E0C43667
:1026B000D10514F0C3E6D0E0C093B30610927203C4
:1026C00033C080917203811102C0EB0102C0C0E0EF
:1026D000D0E08091B206C80FD11D87FDDA95D7FFF3
:1026E00002C0C0E0D0E0C436D10514F0C3E6D0E0AB
:1026F000C093B206CC2341F08091B306181624F49F
:1027000081E08093840302C01092840310927203CC
:10271000CE010E94C2260E945210809339070E9467
:10272000792302C0C0E0D0E0CE01DF91CF911F91AC
:102730000F910C94852380917303882389F0409135
:102740004201640F60934201062E000C770B8091CA
:10275000AA0690E0681779076CF0109242010AC04F
:10276000809141018093400190E00E94852381E0A7
:1027700080931604DF91CF911F910F910895DC0192
:102780008C91E4E5F4E0808311968C91119781831C
:1027900012968C91828381E0809353040895CF93A5
:1027A000DF93C0914D04D0914E044DEF5FEFBC011B
:1027B000CE010E941703682FCE010E94F402DF9120
:1027C000CF910C94BF13CF93DF93AB01C0914D0415
:1027D000D0914E04BC01CE010E941703682FCE0198
:1027E0000E94F402DF91CF910C94BF130F931F93BB
:1027F000CF938B016115704110F00FEF1FE0C82FD0
:10280000C795CC27C795C061C12B8CB58F7D8CBD7A
:1028100060E081E00E9414188C2F0E94BC07802F7A
:102820000E94BC0761E081E0CF911F910F910C9451
:10283000141880914F04909150048130910519F142
:102840001CF4892B41F0089582309105B1F1039772
:1028500009F445C00895E0914B04F0914C04E7550C
:10286000FB4F8081082E000C990B909352048093AB
:10287000510421E020935304E05CFF4F6081062E59
:10288000000C770B18C0E0914B04F0914C04E75515
:10289000FB4FDF01A05CBF4F6C91062E000C770B45
:1028A000709352046093510481E0809353048081BB
:1028B000082E000C990B0C94E313E0914B04F0915B
:1028C0004C04EE0FFF1FE75DFA4F808191819093DA
:1028D00052048093510481E0809353040895E09161
:1028E0004B04F0914C04E755FA4F8081082E000C00
:1028F000990B909352048093510421E02093530448
:102900002091B406233011F40C94CF130895CF9284
:10291000DF92EF92FF920F931F93CF93DF93FC010F
:10292000EE0FFF1FDF01A95CBD4F2C912E3008F088
:102930002E50A091440130E4A39FD00111242770B0
:102940002A2B20937C0020917A00206420937A0027
:1029500020917A0026FDFCCF2091780050917900DB
:1029600030E0352BDF01AD5BBB4F2D933C931092D4
:102970005304DF01AB51B94F0D90BC91A02DE9017B
:10298000CA1BDB0BDE01D7FF03C0B195A195B109CE
:10299000611105C0C0914501D091460102C0C4E15A
:1029A000D0E0CA17DB070CF062C151E0509342043B
:1029B000EB51F94F31832083442309F494C1462F0E
:1029C0009C018130910509F480C01CF4892B51F0E1
:1029D0008AC18230910509F49CC08330910509F4C5
:1029E000C5C081C16091430470914404442361F1E6
:1029F00084E090E09093500480934F0465387340D6
:102A00005CF05093DF06E4E9F2E06591749180EEAA
:102A100096E00E943C3313C0E2E9F2E065917491C4
:102A200080EE96E00E943C331092DF0641E050E0D9
:102A300060E080914D0490914E040E940D0F80EE55
:102A400096E00E94BF134CC11092500410924F04A4
:102A5000072E000C880B990B0E94743526E636E68B
:102A600048E252E40E94CA342AE939E941E451E4D7
:102A70000E9458340E943C35DC01CB01AC0120910E
:102A800041042111F6C09C0197FF02C0245F3F4F13
:102A9000F901EC5CFB4F2081222309F424C1209131
:102AA0003304222319F0E091430102C0E0914B046A
:102AB000F0E0E755FB4F2081022E000C330B8083A2
:102AC0004217530709F0D5C00EC18091450490917B
:102AD00046043093500420934F0468E770E00E944E
:102AE0002F3464507109809141048111D4C0962F14
:102AF00080913304882319F0E091430102C0E091F2
:102B00004B04F0E0E751FB4F808160839813C3C012
:102B1000EAC0A0914704B091480490935004809378
:102B20004F049D010E94493427E33AE040E050E021
:102B30000E948E33809141048111CEC0B9018091F1
:102B40003304882319F0E091430102C0E0914B0463
:102B5000F0E0EE0FFF1FE75DFA4F80819181318336
:102B600020836817790709F0B7C0BDC0C091490438
:102B7000D0914A04662359F184E090E09093500488
:102B800080934F04CF3FD10551F04CF0C11532E096
:102B9000D3073CF0C115D34034F0C3E005C0C0E01A
:102BA00003C0C1E001C0C2E0EC2FF0E0EE0FFF1F58
:102BB000EA56FD4F6591749180EE96E00E943C3399
:102BC00080EE96E00E94BF13C093B40689C0909334
:102BD000500480934F0480914104E0904D04F090A4
:102BE0004E041091B406811180C0BE01C7010E943D
:102BF0004104082FC82E880FDD08133061F4C60188
:102C00006CE070E00E942F34FC01EC5CFB4F808193
:102C1000811117C068C01130A1F48091330488235A
:102C200081F0602F002E000C770B880B990B0E940F
:102C3000743560932F047093300480933104909323
:102C4000320480913304882319F0E091430102C0DB
:102C5000E0914B04F0E0E755FA4F8081082E000C1C
:102C6000990B0083C816D90609F03FC03CC0C0E0EC
:102C70004FC0909352048093510421E02093530459
:102C8000E0914B04F0914C04E751FB4F6081062E1C
:102C9000000C770B11C0709352046093510481E0D3
:102CA00080935304E0914B04F0914C04E755FB4FA3
:102CB0008081082E000C990B0E94E313C091DF065F
:102CC000CC2389F048E750E061E080914D04909179
:102CD0004E040E940D0F1CC03093520420935104E7
:102CE00081E080935304C1E013C0BE01C7010E947C
:102CF0004104082E000C990B9093520480935104C8
:102D000021E020935304133071F70E94CF13EBCFCF
:102D10008C2FDF91CF911F910F91FF90EF90DF905B
:102D2000CF900895682F2091DD063091DE062F5F49
:102D30003F4F243031052CF43093DE062093DD061E
:102D400004C01092DE061092DD068091DD0690919F
:102D5000DE06FC01EE0FFF1FE15DFD4F40914F04C9
:102D600050915004208131814217530719F425E016
:102D700030E002C02CE030E0309346012093450162
:102D800040912E040C948714CF93DF9320912D044F
:102D9000222309F448C0EC018DEE96E00E942B0935
:102DA0006A3071058105910550F42091DB06309160
:102DB000DC0688819981992782179307A1F1809178
:102DC0002B0490912C040897F0F420912904309161
:102DD0002A042F5F3F4F2770332788819981F9019B
:102DE000EE0FFF1FE95EFB4F9183808330932A042F
:102DF0002093290480912B0490912C0401969093A8
:102E00002C0480932B048881998199279093DC0668
:102E10008093DB0640E050E0BA018DEE96E0DF9152
:102E2000CF910C940809DF91CF910895CF93DF9350
:102E30008631F8F4C82FD091C406D770DD0FD06466
:102E400060E08091C3060E9414188D2F0E94BC0779
:102E50008C2F0E94BC07EC2FF0E0EF53F94F8481D8
:102E60000E94BC0761E08091C306DF91CF910C9472
:102E70001418DF91CF9108958093F606882309F402
:102E800045C08091FC06811141C080910E078230BF
:102E900029F58091400190E00E944A0F882331F08B
:102EA00043E050E064E670E081E00BC08091810374
:102EB000909182030E94B60241E050E064E670E027
:102EC00080E00E943E2410920E0780914001809382
:102ED000410110920D0780E00C946B24811116C003
:102EE0008091730381110C94731082E080930E071C
:102EF000809141018093400190E00E94852340E051
:102F000050E06CE271E081E00C943E240895CF9291
:102F1000DF92EF92FF920F931F93FC016A017B01F6
:102F200040910707509108076091090770910A07BF
:102F300000910307109104072091050730910607BF
:102F4000DB01CA018C0D9D1DAE1DBF1D08171907A1
:102F50002A073B0758F4401751076207730780F5AB
:102F600068017901C41AD50AE60AF70A0091FF063A
:102F7000109100072091010730910207CB01BA019F
:102F8000600F711F821F931F97018601AF010E947E
:102F90001A1F8091070790910807A0910907B09127
:102FA0000A078C0D9D1DAE1DBF1D809307079093D2
:102FB0000807A0930907B0930A07B601C70104C028
:102FC00060E070E080E090E01F910F91FF90EF9043
:102FD000DF90CF900895833081F028F4813099F00C
:102FE0008230A1F008958730A9F08830B9F084309C
:102FF000D1F4809180008F7D03C0809180008F7715
:1030000080938000089584B58F7702C084B58F7D4A
:1030100084BD08958091B0008F7703C08091B00087
:103020008F7D8093B00008951F93CF93DF93282F57
:1030300030E0F901E652FD4F8491F901EA53FD4F6A
:10304000D491F901EE54FD4FC491CC23C1F0162F59
:1030500081110E94EB17EC2FF0E0EE0FFF1FE855F7
:10306000FD4FA591B4919FB7F894111104C08C91B4
:10307000D095D82302C0EC91DE2BDC939FBFDF916B
:10308000CF911F9108952F923F924F925F926F922E
:103090007F928F929F92AF92BF92CF92DF92EF92E8
:1030A000FF920F931F93CF93DF93CDB7DEB7EE97C9
:1030B0000FB6F894DEBF0FBECDBF8093FD06882308
:1030C00009F4E8C380910E078130B9F510920E071C
:1030D0007BE0E72E71E0F72E00E010E0D7016C9165
:1030E000B2E0EB0EF11C1A8309836C59CE010196F4
:1030F0000E94EF080F5F1F4F0930110579F76DE14E
:10310000E62E61E0F62E01E210E0F7016081F2E0C8
:10311000EF0EF11C1A8309836C59CE0101960E94AF
:10312000EF080F5F1F4F0A32110579F760E080E06A
:103130000E9414180E94D024ADC3833009F0C6C188
:10314000109140010E94C01E882309F42FC1812FD5
:1031500090E00E94C2260E94521081110FC08091FF
:10316000FB0685FD25C184FFC7C100E010E024E017
:1031700030E00BA71CA72DA73EA722C1CE014D967C
:103180000E944B258EE0FE017D96AFEFB6E00190E8
:103190000D928A95E1F78091FB06982F907184FF3C
:1031A00009C000E010E024E030E00FA718AB29AB25
:1031B0003AAB08C020E030E041E050E02FA738AB48
:1031C00049AB5AAB85FD08C0992361F0812C912C45
:1031D00044E0A42EB12C0AC0812C30E1932EA12C06
:1031E000B12C04C0812C912C5401A394950184012D
:1031F00001501109210931094091FF065091000742
:1032000060910107709102074023512362237323C9
:10321000452B462B472B11F082E040C180910307DC
:1032200090910407A0910507B09106078023912390
:10323000A223B323892B8A2B8B2B71F71BA61CA6E9
:103240001DA61EA68091030790910407A091050773
:10325000B09106070BA51CA52DA53EA508171907BB
:103260002A073B07C8F62090FB06C090FF06D090C7
:103270000007E0900107F09002078091FA062FA561
:1032800038A949A95AA982169306A406B506B8F525
:103290000BA51CA52DA53EA5C00ED11EE21EF31E3A
:1032A00081110E94641DCE0101960E94E124898152
:1032B0009A810E947D020091F8061091F906D801CA
:1032C00012968C9112973090F706732C7094872188
:1032D00012968C9386E00E94BC07F80182818329B4
:1032E000828382817822728227016624772420FEDD
:1032F00002C080E236C0C2019927906239C00BA596
:103300001CA52DA53EA5C00ED11EE21EF31E8111E7
:103310000E94641DCE0101960E94E12489819A8158
:103320000E947D020091F8061091F906D8011296CC
:103330008C9112973090F706732C70948721129617
:103340008C9386E00E94BC07F801828183298283E6
:1033500082817822728227016624772420FE05C0AC
:1033600088ED0E94BC07C20103C0C2019927986D75
:103370000E946002C6010E946002D80112968C91E0
:103380001297382A12963C920E945F02B2E0B093E4
:10339000FA060BA51CA52DA53EA5080D191D2A1D75
:1033A0003B1D0BA71CA72DA73EA74CCF80E076C0E6
:1033B00020E030E140E050E02BA73CA74DA75EA7FE
:1033C0000E945210811169C00E945C216B017C0136
:1033D000611571058105910509F45FC09B01AC0180
:1033E000442755272FA738AB49AB5AAB812C912CDA
:1033F0005401D501C4010896A11DB11D0FA518A93E
:1034000029A93AA9081719072A073B0708F07DC020
:1034100028013901481859086A087B08D501C401F8
:103420000496A11DB11DBC01CD01660F771F881F39
:10343000991F93018201000F111F221F331FAE013C
:103440004F5F5F4F0E94DF1FFE01319680E090E0EA
:10345000DC01481659066A067B0609F460C0219112
:1034600031912F3F3F4F09F056C0A5019401280F1D
:10347000391F4A1F5B1F2BAB3CAB4DAB5EAB2FA57F
:1034800038A949A95AA98BA99CA9ADA9BEA9821797
:103490009307A407B50708F458C081E09091400154
:1034A000909341018150823060F481E08093FC066A
:1034B00045E050E064E670E00E943E2410920E0762
:1034C000E9C189EC92E00E94FB23E4C18091FC06F3
:1034D0008111E0C183E080930E07809141018093C8
:1034E000400190E00E94852340E050E06CE271E0F2
:1034F00081E00E943E24CEC180E090E0A1E0B0E0F7
:103500008BA79CA7ADA7BEA75BCF58E0452E512C3B
:10351000612C712C83CF0196A11DB11D9ACF840C13
:10352000951CA61CB71C8FA598A9A9A9BAA988168D
:103530009906AA06BB0608F45CCF0FEF1FEF9801AF
:103540000BAB1CAB2DAB3EAB9ACFACE0B0E00E9416
:10355000AD336FAB78AF89AF9AAF4B015C0198E0A8
:10356000890E911CA11CB11C0BA91CA92DA93EA957
:10357000012B022B032BA1F4CC24DD240EE0F694C6
:10358000E794D794C7940A95D1F7A7019601280D1F
:10359000391D4A1D5B1D2BAF3CAF4DAF5EAF86C0E2
:1035A000198E1A8E1B8E1C8E1E0131E1230E311CCA
:1035B000A5E0B0E02BA93CA94DA95EA90E94AD33BE
:1035C0000FA518A929A93AA90150110921093048C4
:1035D000DC01CB01800F911FA21FB31FBC01CD01E5
:1035E000660F771F881F991F0AE010E020E030E087
:1035F000A1010E94DF1F49895A896B897C898D89C5
:103600009E89AF89B88D8A019B01080F191F2A1F57
:103610003B1F0BAF1CAF2DAF3EAF898D9A8DAB8D8D
:10362000BC8D12E0880F991FAA1FBB1F1A95D1F7F6
:103630006C017D01C80CD91CEA1CFB1C460157011A
:10364000412C512C320100E110E020E030E0AE01CD
:103650004F5F5F4FC501B4010E94DF1FFE0131962D
:10366000D301C2011FEF411A510A610A710A219167
:10367000211111C04601570124E0820E911CA11CAA
:10368000B11C880E991EAA1EBB1E3CEF832233E09C
:10369000A322BB240BC0D301C2012E163F0611F793
:1036A00040E1840E911CA11CB11CCDCF8BA59CA523
:1036B000ADA5BEA50197A109B1090BAD1CAD2DADFE
:1036C0003EAD080F191F2A1F3B1FC901B8012BA5CA
:1036D0003CA54DA55EA50E94C033CA01B9012BA52A
:1036E0003CA54DA55EA50E94F1336B017C01CA018A
:1036F000B9016150704F8F4F9F4F0E94C033CA0174
:10370000B9012BA53CA54DA55EA50E94F1332B0167
:103710003C01E8E4F1E001900020E9F731978F01E6
:1037200008541140CE0101960E94B11DA7019601D7
:10373000240D351D461D571D2BA73CA74DA75EA781
:10374000CE0101960E94281D2BA53CA54DA55EA586
:10375000621773078407950708F49FCE20E030E0D6
:103760000F5F1F4F2F4F3F4F48E451E0C501B40199
:103770000E941A1FC98ADA8AEB8AFC8A4D8A5E8AFD
:103780006F8A788E8FA998ADA9ADBAAD881A990ABB
:10379000AA0ABB0A98E0891A9108A108B10862E058
:1037A000B694A794979487946A95D1F7898E9A8E48
:1037B000AB8EBC8EA5E0B0E02BA93CA94DA95EA9BB
:1037C0000E94AD330FA518A929A93AA90C5F1F4F74
:1037D0002F4F3F4FDC01CB01800F911FA21FB31F62
:1037E000BC01CD01660F771F881F991F0AE010E00A
:1037F00020E030E0AE014F5E5F4F0E941A1F0E9432
:10380000C01E8823E1F3E8E4F1E065EC7DE98CE19A
:1038100091E82191222391F0022F220F110B220B0C
:10382000330BA9019801262737274827592763E931
:1038300071E080E091E00E94F133EBCF2EEF3FEF9B
:1038400040E050E00E94C033DC01CB010196A11D95
:10385000B11D898B9A8BAB8BBC8B8BA89CA8ADA818
:10386000BEA8A4E08A0E911CA11CB11CC501B40124
:10387000660F771F881F991F02E010E020E030E0FC
:10388000AE014F5E5F4F0E941A1F0E94C01E882328
:10389000E1F303CEEE960FB6F894DEBF0FBECDBFB8
:1038A000DF91CF911F910F91FF90EF90DF90CF901C
:1038B000BF90AF909F908F907F906F905F904F9050
:1038C0003F902F900895CF93DF9390E0FC01EA534F
:1038D000FD4F2491FC01EE54FD4F8491882361F14A
:1038E00090E0880F991FFC01E256FD4FC591D491DD
:1038F000FC01E855FD4FA591B491611109C09FB736
:10390000F8948881209582238883EC912E230BC024
:10391000623061F49FB7F8948881322F3095832309
:103920008883EC912E2B2C939FBF06C08FB7F89401
:10393000E8812E2B28838FBFDF91CF9108958F923E
:103940009F92AF92BF92CF92DF92EF92FF926B0164
:103950007C010E94E9264B015C01C114D104E10401
:10396000F104F1F00E94E926DC01CB0188199909E4
:10397000AA09BB09883E9340A105B10570F321E077
:10398000C21AD108E108F10888EE880E83E0981E7B
:10399000A11CB11CC114D104E104F10419F7DDCF5D
:1039A000FF90EF90DF90CF90BF90AF909F908F905F
:1039B000089508951F920F920FB60F9211242F931E
:1039C0003F934F935F936F937F938F939F93AF93A7
:1039D000BF93EF93FF93E0910201F09103010995EA
:1039E000FF91EF91BF91AF919F918F917F916F91D7
:1039F0005F914F913F912F910F900FBE0F901F90AD
:103A000018951F920F920FB60F9211242F933F9388
:103A10004F935F936F937F938F939F93AF93BF93D6
:103A2000EF93FF93E0910001F09101010995FF915F
:103A3000EF91BF91AF919F918F917F916F915F9126
:103A40004F913F912F910F900FBE0F901F9018959F
:103A5000FC0180818F3119F49181993859F12281CB
:103A600090EF920F903128F090EE920F963078F40C
:103A7000265081E090E0A0E0B0E0BC01CD0104C0A0
:103A8000660F771F881F991F2A95D2F70895811115
:103A900006C08181811113C0211111C007C08F3F61
:103AA00071F481818F3F59F42F3F49F460E070E059
:103AB000CB01089560E070E080E091E0089560E05F
:103AC00070E080E190E008951F93CF93DF9300D0E2
:103AD000CDB7DEB7CE0101960E94E12489819A819B
:103AE0000E947D02E091F806F091F90692818091A2
:103AF000F7068095892382838091FB0681FF1CC095
:103B000080E70E94BC0780E00E94BC07182FE0916C
:103B1000F806F091F90692818091F706892B82834D
:103B20000E945F0217FFD6CF1092FA060F900F90F7
:103B3000DF91CF911F91089585E00E94BC0780E03E
:103B40000E94BC07182FE091F806F091F9069281C7
:103B50008091F706892B82830E945F0210FDBACF05
:103B6000E3CF0F931F93CF93DF9300D0CDB7DEB792
:103B70008C018091FA0681110E94641DCE0101968C
:103B80000E94E12489819A810E947D02E091F806D9
:103B9000F091F90692818091F706809589238283BE
:103BA0008FE90E94BC0780E00E94BC07F801808377
:103BB00080E00E94BC07F801818380E00E94BC077E
:103BC000F80182838081813051F480E00E94BC073B
:103BD000F801838380E00E94BC07F8018483E091B0
:103BE000F806F091F90692818091F706892B82837D
:103BF0000E945F020F900F90DF91CF911F910F9164
:103C00000895FF920F931F93CF93DF93CDB7DEB745
:103C100027970FB6F894DEBF0FBECDBF8091FA068E
:103C200081110E94641DCE0101960E94B11D8981FF
:103C3000803209F066C09B8180EE890F833008F0E6
:103C400060C0913211F424E001C022E08091FB06B3
:103C5000082F10E036E0159507953A95E1F78F7338
:103C60008093FB06021708F07FC0923219F428E017
:103C7000F22E02C092E0F92ECE0106960E94E124B7
:103C80008E819F810E947D02E091F806F091F906F5
:103C900092818091F70680958923828386E00E9435
:103CA000BC07E091F806F091F90692818091F70641
:103CB000982B9283928180958923828384EC0E9441
:103CC000BC0780E0F09E902D11240E94600280E0ED
:103CD00090E00E946002E091F806F091F90692816E
:103CE0008091F706892B82830F5F1F4F86E0000FBC
:103CF000111F8A95E1F78091FB06082B0093FB06C4
:103D000030C0CE0106960E94E1248E819F810E94E0
:103D10007D02E091F806F091F90692818091F70614
:103D200080958923828386E00E94BC07E091F80693
:103D3000F091F90692818091F706982B92839281F7
:103D400080958923828387EC0E94BC07E091F80666
:103D5000F091F90692818091F706892B82830E9467
:103D60005F0283E08093FA0627960FB6F894DEBFD1
:103D70000FBECDBFDF91CF911F910F91FF9008959E
:103D80001F93CF93DF9300D0CDB7DEB78091FA06B3
:103D9000811102C081E048C0CE0101960E94E12459
:103DA00089819A810E947D02E091F806F091F906DE
:103DB00092818091F7068095892382838091FB060A
:103DC00081FF1DC080E70E94BC0780E00E94BC0705
:103DD000182FE091F806F091F90692818091F7068C
:103DE000892B82830E945F0217FF1DC01092FA0682
:103DF0008091FB06807C71F20E94011E14C085E058
:103E00000E94BC0780E00E94BC07182FE091F806D2
:103E1000F091F90692818091F706892B82830E94A6
:103E20005F0210FFE3CF80E00F900F90DF91CF9102
:103E30001F9108952F923F924F925F926F927F92BF
:103E40008F929F92AF92BF92CF92DF92EF92FF92AA
:103E50000F931F93CF93DF9300D000D000D0CDB746
:103E6000DEB76B837C838D839E831A0148015901E1
:103E70008091FA0681110E94641DCE0101960E9474
:103E8000E12489819A810E947D02E091F806F091F7
:103E9000F90692818091F70680958923828386E0D6
:103EA0000E94BC07E091F806F091F906928180919A
:103EB000F706982B928340E051E060E070E02B81A0
:103EC000421B5109610971097501640148155905C1
:103ED0006A057B0510F46A017B0192818095892334
:103EE00082838091FB062B813C814D815E812A017A
:103EF0006624772480FF05C082E00E94BC07C201CF
:103F000003C0C201992792600E9460028B819C814C
:103F10000E9460028B819C81AD81BE818C0D9D1DB4
:103F2000AE1DBF1D8B839C83AD83BE838C189D0803
:103F3000AE08BF08810126013701D8018D918D019E
:103F40000E94BC07B1E04B1A510861087108A9F73B
:103F5000E1E0CE1AD108E108F108FFEFCF1ADF0A3D
:103F60002C0C3D1CE091F806F091F90692818091AD
:103F7000F706892B828324E02093FA060E945F02D1
:103F800081149104A104B10409F072CF26960FB6F2
:103F9000F894DEBF0FBECDBFDF91CF911F910F917F
:103FA000FF90EF90DF90CF90BF90AF909F908F9059
:103FB0007F906F905F904F903F902F9008952F9239
:103FC0003F924F925F926F927F928F929F92AF92A9
:103FD000BF92CF92DF92EF92FF920F931F93CF93F6
:103FE000DF93CDB7DEB728970FB6F894DEBF0FBECC
:103FF000CDBF6B017C011A0148015901A80160E0A5
:1040000070E0C1010E9426370091FB06CE010196A7
:104010000E94E12489819A810E947D021091FA0612
:10402000112309F485C0E091F806F091F906928118
:104030008091F7068095892382838091FB0681FF1A
:104040000AC080E70E94BC0780E00E94BC0787FF8F
:104050000AC010E008C085E00E94BC0780E00E9412
:10406000BC0780FFF6CFE091F806F091F906928147
:104070008091F706982B9283111103C01092FA06D3
:1040800057C0133008F047C09281809589238283FE
:1040900086E00E94BC07E091F806F091F906828163
:1040A0009091F706892B828302FF02C0113011F034
:1040B00085E701C085E822819095922392830E9432
:1040C000BC07E091F806F091F90692818091F7061D
:1040D000982B9283809592818923828301FF09C066
:1040E00080E70E94BC0780E00E94BC0787FFFBCFEF
:1040F00008C085E00E94BC0780E00E94BC0780FDEC
:10410000FBCFE091F806F091F90692818091F706D5
:10411000892B82830DC00E945F020E94641DCE0124
:1041200001960E94E12489819A810E947D0210E01B
:10413000802F88708F83902F91709887AF81AA23EA
:1041400011F1D701C601880D991DAA1DBB1D01974C
:10415000A109B1098C259D25AE25BF258827992762
:10416000AA27BE7F892B8A2B8B2B69F0D701C6012A
:10417000B170412C512C612C22E0722E481A590A40
:104180006A0A7B0A02C024013501E091F806F09129
:10419000F90692818091F706809589238283C70171
:1041A000AA27BB278B839C83AD83BE8398859923E5
:1041B00031F083E00E94BC078B819C8104C08B811D
:1041C0009C81992793600E946002C6010E94600250
:1041D000920141145104C1F0D1018C918EBDF101C5
:1041E000C201019741F051810DB407FEFDCF4EB5DC
:1041F0005EBD4193F6CFF9013197E20DF31D0DB489
:1042000007FEFDCF8EB58083E091F806F091F906A8
:1042100092818091F706982B9283220E331EC40C54
:10422000D51CE61CF71C84189508A608B70809F0E9
:1042300085CF112331F1928180958923828386E095
:104240000E94BC07E091F806F091F90682819091F6
:10425000F706892B828302FF04C0113011F48AE82B
:1042600001C08AE722819095922392830E94BC0725
:10427000E091F806F091F90692818091F706892B7A
:1042800082830E945F0228960FB6F894DEBF0FBEAD
:10429000CDBFDF91CF911F910F91FF90EF90DF90F5
:1042A000CF90BF90AF909F908F907F906F905F90D6
:1042B0004F903F902F9008950F931F93CF93DF93CC
:1042C000CDB7DEB728970FB6F894DEBF0FBECDBFCF
:1042D00008E010E020E030E0AE014F5F5F4F60E0AB
:1042E00070E0CB010E94DF1F89819A81AB81BC8184
:1042F0008C3425E5920726E9A2072AEFB207F1F1EF
:104300008F3F9F4FAF4FBF4F21F060E070E0CB0178
:1043100039C08CE495E5A6E9BAEF89839A83AB832B
:10432000BC8388E592E0A6EFB8E18D839E83AF83DE
:10433000B88708E010E020E030E0AE014F5F5F4F4B
:1043400060E070E0CB010E941A1F0E94C01E88230B
:10435000E1F308E010E020E030E0AE014F5F5F4F96
:1043600060E070E0CB010E94DF1F89819A81AB8100
:10437000BC818C349545A649BA4F39F66D817E8152
:104380008F81988528960FB6F894DEBF0FBECDBFFB
:10439000DF91CF911F910F9108950F931F93CF93AA
:1043A000DF93D82F01EC16E0F801C381C770CC0F62
:1043B000C16460E082810E9414188C2F0E94BC07A7
:1043C0008D2F0E94BC078FEF0E94BC07ED2FF0E0FD
:1043D000EF53F94F848361E0F8018281DF91CF913F
:1043E0001F910F910C941418982F883028F0985032
:1043F00085E17DE0E1E003C084E17CE0E0E0492F7D
:10440000F0E0EF53F94F248130E002C03595279555
:104410009A95E2F720FD1EC0282F30E061110DC0F3
:10442000F901EF53F94F21E030E001C0220F4A9526
:10443000EAF72095948129230BC0F901EF53F94F36
:1044400021E030E001C0220F4A95EAF79481292B40
:10445000248311C0611111C0E72FF0E0EF53F94F31
:1044600021E030E001C0220F4A95EAF720958481CF
:1044700028232483872F0C941617E72FF0E0EF539F
:10448000F94F21E030E001C0220F4A95EAF784811C
:10449000282BEFCFAF92BF92CF92DF92EF92FF9295
:1044A0000F931F93CF93DF9300D0CDB7DEB78CB5BA
:1044B0008F7D8CBD80919A0490919B0401968430ED
:1044C00091052CF490939B0480939A0404C010925D
:1044D0009B0410929A0480919A048C5F803118F4A6
:1044E00060E00E94F42182E10E94CD2183E10E94DC
:1044F000CD218091D7069091D80690939D0480930A
:104500009C0400E010E0EE24E394F12CE0919A0486
:10451000F0919B04EE0FFF1FEE0FFF1FE00FF11F46
:10452000EE0FFF1FE85AFB4F6081718120919C04C0
:1045300030919D042F703327A701002E02C0440F35
:10454000551F0A94E2F72423352330939F042093C8
:104550009E04002E02C0369527950A94E2F791E05A
:10456000232B09F090E0FB01E85AFB4F80A198173C
:1045700069F090A3892F90E0982F8827862B972B9E
:104580009A838983CE0101960E94C4160F5F1F4F44
:104590000430110509F0BACF80919A048C5F803104
:1045A00018F461E00E94F42180919C0490919D0494
:1045B00080959095892F99278F77992790939F04BD
:1045C00080939E0468E5E62E64E0F62E77E6C72E1B
:1045D00072E0D72E00E010E0AA24A394B12C8091C1
:1045E0009E0490919F049501002E02C0220F331F5C
:1045F0000A94E2F72823392391E0232B09F490E071
:10460000F70182A9981791F092ABF60120813181D0
:10461000285F3F4F892F90E0982F8827822B932B7C
:104620009A838983CE0101960E94C4160F5F1F4FA3
:10463000FFEFEF1AFF0A82E0C80ED11C0730110508
:1046400071F60F900F90DF91CF911F910F91FF9016
:10465000EF90DF90CF90BF90AF9008950F931F938E
:10466000CF93DF93982F162F883020F098500DE0CD
:1046700081E002C00CE080E0113021F090F01230B7
:1046800099F50FC0E82FF0E0EF53F94F21E030E04B
:1046900001C0220F9A95EAF720959481292324835B
:1046A0001DC0E82FF0E0C1E0D0E001C0CC0F9A952A
:1046B000EAF7EF53F94F94819C2B94830E941617CD
:1046C000E02FF0E0EF53F94F123019F48481C82B3A
:1046D00003C0C0958481C823C483802FDF91CF910C
:1046E0001F910F910C941617DF91CF911F910F918D
:1046F00008959091390780913607992311F08E7FA4
:1047000001C081608093360708950F931F93CF9364
:10471000DF939C0180915C0190915D01821793076A
:1047200009F464C030935D0120935C01890137FF77
:1047300004C000271127021B130BCAE0D0E0C801F8
:10474000BE010E942F34FC019093330780933207FF
:10475000CB01BE010E942F34909331078093300724
:1047600037FF03C085E290E012C0C9018D599F4F09
:10477000873C910550F0C80164E670E00E942F3438
:10478000CB01BE010E942F3402C084E290E09093DE
:104790002F0780932E07275F3F4F2331310530F4D9
:1047A00084E290E09093310780933007A0912E0728
:1047B000B0912F07A15CBD4F8C91809580933807F5
:1047C000A0913007B0913107A15CBD4F8C918095CD
:1047D00080933707E15CFD4F808180958093360799
:1047E000DF91CF911F910F910C947923DF91CF919D
:1047F0001F910F9108950F931F93CF93DF9327EE8F
:1048000033E030935D0120935C018C01EEE2F7E030
:10481000A9E3B7E044E250E06BE070E0E8012991E1
:104820008E01223619F47183608316C0203219F488
:104830005183408311C0213434F0022E000C330B1D
:104840002753310907C020333CF0022E000C330BF4
:10485000205331093183208381919191815C9D4F57
:10486000EC01988190959E93D7E0A633BD07B1F6F1
:10487000DF91CF911F910F910C9479230F931F9388
:10488000CF93DF938B01EA0180932D0740E050E046
:10489000BA018DEB96E00E94080910932C07009353
:1048A0002B07D0932A07C0932907DF91CF911F913F
:1048B0000F910895E0912707F0912807EA5EF84FDD
:1048C000908181E08927808340E050E0BA0185EB48
:1048D00096E00C9408098093140720E1829FC001A0
:1048E0001124FC01E751FA4F20E1A6E1B7E0019065
:1048F0000D922A95E1F720914B0430914C04281732
:10490000390724F04096821793073CF480E190E049
:10491000909328078093270708952F7033273093AB
:104920002807209327070895CF93DF9300D000D066
:10493000CDB7DEB720910F073091100780914F045B
:10494000909150042F37310519F48230910548F0C9
:104950008430910531F00397B1F48091B40683302F
:1049600091F419821A821B821C82809154048983DB
:10497000809155048A83809156048B83CE010196E1
:104980000E94FB2306C080915104909152040E9422
:1049900085230F900F900F900F90DF91CF91089586
:1049A00010920E07E6E1F7E0119287E0E632F80791
:1049B000D9F780910D070E946B240E9419140C9462
:1049C000942420E5FC01208321E021830895CF92E7
:1049D000DF92EF92FF920F931F93FC016A017B011C
:1049E00040910707509108076091090770910A07E5
:1049F00000910307109104072091050730910607E5
:104A0000DB01CA018C0D9D1DAE1DBF1D08171907C6
:104A10002A073B0758F4401751076207730780F5D0
:104A200068017901C41AD50AE60AF70A0091FF065F
:104A3000109100072091010730910207CB01BA01C4
:104A4000600F711F821F931F97018601AF010E94A3
:104A5000DF1F8091070790910807A0910907B09187
:104A60000A078C0D9D1DAE1DBF1D809307079093F7
:104A70000807A0930907B0930A07B601C70104C04D
:104A800060E070E080E090E01F910F91FF90EF9068
:104A9000DF90CF9008952F923F924F925F926F9246
:104AA0007F928F929F92AF92BF92CF92DF92EF92BE
:104AB000FF920F931F93CF93DF93CDB7DEB7C2540E
:104AC000D1090FB6F894DEBF0FBECDBF9AAB89AB4C
:104AD0008EE0A9A9BAA91D928A95E9F70E945C21E6
:104AE000611571058105910509F430C19B01AC0187
:104AF000442755272BAB3CAB4DAB5EABE8E4F1E074
:104B000065EC7DE98CE191E82191222391F0022F5F
:104B1000220F110B220B330BA901980126273727EF
:104B20004827592763E971E080E091E00E94F13362
:104B3000EBCF2EEF3FEF40E050E00E94C033DC01AE
:104B4000CB010196A11DB11D9EAF8DAFA3E0B0E0DA
:104B50002BA93CA94DA95EA90E94AD3369AF7AAFDC
:104B60008BAF9CAFC12CD12C7601DA01C901049620
:104B7000A11DB11D23968CAF9DAFAEAFBFAF2397E4
:104B80002BA93CA94DA95EA9C216D306E406F506D9
:104B900008F0DCC049015A018C189D08AE08BF0816
:104BA00038E083169104A104B10428F0F8E08F2EB8
:104BB000912CA12CB12CD701C6010496A11DB11DC9
:104BC000BC01CD01660F771F881F991F95018401D5
:104BD000000F111F221F331FAE014F5E5F4F0E9457
:104BE000DF1FAE014F5E5F4F58AF4FAB1DA61EA635
:104BF0001FA618AA8DA59EA5AFA5B8A988169906C7
:104C0000AA06BB0609F49DC0AFA9B8AD8D919D91D0
:104C1000B8AFAFABEDADFEAD8E179F0709F069C021
:104C200019A61AA61BA61CA6A5E0B0E02DA53EA5B8
:104C30004FA558A92C0D3D1D4E1D5F1D0E94AD3383
:104C400023962CAD3DAD4EAD5FAD2397260F371F9C
:104C5000481F591FCA01B901660F771F881F991F86
:104C60000AE010E020E030E0AE014F5D5F4F0E94AF
:104C7000DF1F49A45AA46BA47CA432E0430E511C4C
:104C8000611C711C89AD9AADABADBCAD480E591E0F
:104C90006A1E7B1E32E0440C551C661C771C3A953C
:104CA000D1F748E4242E41E0342E00E110E020E06A
:104CB00030E0AE014F5F5F4FC301B2010E94DF1FC2
:104CC00090E1490E511C611C711CFE01319691014D
:104CD000205F3F4FC1010196DC0111974C9151912A
:104CE000451309C04423A1F019018217930799F7CE
:104CF000DCCF019659F12DA53EA54FA558A92F5FF0
:104D00003F4F4F4F5F4F2DA73EA74FA758AB72CFD6
:104D100089A19AA1ABA1BCA1E9A9FAA98083918339
:104D2000A283B3838DA19EA1AFA1B8A584839583EF
:104D3000A683B7832DA53EA5C20ED31ED586C486F5
:104D400005C0C80CD91CEA1CFB1C1ACF89A99AA95A
:104D5000CE5BDF4F0FB6F894DEBF0FBECDBFDF9145
:104D6000CF911F910F91FF90EF90DF90CF90BF9068
:104D7000AF909F908F907F906F905F904F903F90FB
:104D80002F900895CF93DF9300D01F92CDB7DEB759
:104D90004AE0BE016F5F7F4F0E94433384E1E8E445
:104DA000F1E0DF011D928A95E9F7BE016F5F7F4F49
:104DB000CF010E9438376DEC72E088E491E00E94E8
:104DC0002D3788E491E00F900F900F90DF91CF91F5
:104DD00008953FB7F89480913F0790914007A091C4
:104DE0004107B091420726B5A89B05C02F3F19F097
:104DF0000196A11DB11D3FBFBA2FA92F982F88275B
:104E0000820F911DA11DB11DBC01CD0142E0660FB5
:104E1000771F881F991F4A95D1F708951F920F9207
:104E20000FB60F9211242F933F938F939F93AF93BD
:104E3000BF9380913A0790913B07A0913C07B091B6
:104E40003D0730913E0723E0230F2D3720F40196D4
:104E5000A11DB11D05C026E8230F0296A11DB11D9D
:104E600020933E0780933A0790933B07A0933C071B
:104E7000B0933D0780913F0790914007A091410773
:104E8000B09142070196A11DB11D80933F079093F9
:104E90004007A0934107B0934207BF91AF919F9104
:104EA0008F913F912F910F900FBE0F901F901895EB
:104EB000CF93DF93CDB7DEB76A970FB6F894DEBF16
:104EC0000FBECDBF789484B5826084BD84B5816007
:104ED00084BD85B5826085BD85B5816085BD8091C5
:104EE0006E00816080936E0010928100809181003D
:104EF0008260809381008091810081608093810035
:104F0000809180008160809380008091B1008460F6
:104F10008093B1008091B00081608093B000809157
:104F20007A00846080937A0080917A008260809316
:104F30007A0080917A00816080937A0080917A0073
:104F4000806880937A001092C1001092440185EF2E
:104F500092E00E94C30785EF92E0909375038093DF
:104F6000740384EF92E09093D3028093D20289EA93
:104F700095E0E9E2F5E020E530E0219331938E17EA
:104F80009F07D9F761E080E00E94631C61E082E046
:104F90000E94631C62E083E00E94631C62E084E084
:104FA0000E94631C80ED91E09093030180930201C5
:104FB00080916900837F886080936900E99A1092EC
:104FC000AC068091AA068093A80460E070E08BE0B4
:104FD00093E00E941B0560E070E08BE093E00E948C
:104FE00091058BE093E00E947E0384E290E00E94B2
:104FF000783391E0811101C090E09093760361E0F5
:105000008AE00E94631C61E089E00E94631C61E009
:1050100088E00E94631C61E081E00E94631C61E003
:105020008AE00E94141861E089E00E94141861E08F
:1050300088E00E94141861E081E00E94141885EF56
:1050400092E090937F0380937E0384EF92E09093AD
:105050007C0380937B030BE013E0109382030093A7
:10506000810360E08EE00E94631C60E08FE00E949C
:10507000631C60E080E10E94631C60E081E10E94AB
:10508000631C10934E0400934D0480E00E9492161E
:1050900080E00E94921680E00E94921680E00E94BA
:1050A000921681E080932E048CB58F7D8CBD0E947A
:1050B000800261E08091C3060E94631C61E08091E0
:1050C000C3060E94141860E08091C3060E94141861
:1050D00080E40E94BC078AE00E94BC0788E10E942D
:1050E000BC0761E08091C3060E9414181091C406A9
:1050F0001770110F106460E08091C3060E941418AD
:10510000812F0E94BC0780E00E94BC0705EC16E0DE
:105110008BEDE82E86E0F82ED8018D918D010E944E
:10512000BC07E016F106C1F761E08091C3060E945A
:10513000141810E004E0010F61E0802F0E942E237C
:1051400061E0802F0E94F42162E0812F0E942E23D3
:1051500062E088E0810F0E942E2362E08CE0810FE4
:105160000E942E231F5F143029F761E08FE00E9418
:105170002E2362E08EE00E942E230E944A220E948B
:105180004A220E944A220E944A2281E080932D04F2
:1051900061E085E00E94631C61E087E00E94631C7F
:1051A00061E086E00E94631C60E085E00E941418C4
:1051B00060E087E00E94141860E086E00E94141806
:1051C00080E090E00E94852362E082E10E94631CFF
:1051D00062E083E10E94631C80E190E00E947833EA
:1051E000811102C081E001C08FEF80932F0161E047
:1051F00089E00E94631C0E9480028EE297E09093F7
:105200000103809300038BE093E090931307809356
:10521000120784E190E00E94783390E090931007A9
:1052200080930F07B2E7EB2EB1E0FB2E12E6C12E02
:1052300011E0D12E01E060E089E00E941418F7012E
:1052400011917F01612F6170602785E00E94141821
:1052500011FB662760F9602786E00E94141812FB94
:10526000662760F9602787E00E9414188CB5806279
:105270008CBDD6018D916D0180950E94BC0780E0A8
:105280000E94BC0761E089E00E94141866E470E0A7
:1052900080E090E00E949F1CB0E8EB16B1E0FB06B6
:1052A00051F664E670E080E090E00E949F1C8BE085
:1052B00093E09093090480930804EAEBF2E0E49110
:1052C000F0E0EE0FFF1FE250FF4F85919491909315
:1052D000F9068093F806EEECF2E0E491E093F7062D
:1052E0000E94800261E088E00E94631CE091F80661
:1052F000F091F90692818091F706892B8283CE0185
:1053000001960E94B11D8981811108C08A81811195
:105310000FC08B8181110CC00C94CA318F3F41F4B6
:105320008A818F3F29F48B818F3F11F40C94CA310D
:10533000CE0101960E94281D6130710581059140C2
:1053400008F441C0CE0109960E94E12489859A851E
:105350000E947D029981E091F806F091F906809112
:10536000F706913049F4928180958923828380E801
:1053700097E10E94600217C0928180958923828301
:1053800086E00E94BC07E091F806F091F906928150
:105390008091F706982B928392818095892382834E
:1053A00087EB0E94BC07E091F806F091F906928124
:1053B0008091F706892B82830E945F028981803267
:1053C00021F489E003C080E001C081E0998191303F
:1053D00041F4982F94602D812111DAC7982F9461A0
:1053E000D7C7903211F4826003C09F3E09F48062F7
:1053F0008093FB06CE0101960E94B11D0E94D0242D
:1054000076E2A72E77E0B72E34E0932E4AE0242EE2
:10541000312C57E0452E512C60E0662E60E0762E50
:105420008091FC06882309F490C00E94C01E882346
:1054300009F48BC08091A90689838091AA068A838A
:105440008091AB068B838091AC068C838091AD06F6
:105450008D838091AE068E838091AF068F8380917D
:10546000B00688878091B10689878091B2068A87C5
:105470008091B3068B878091B4068C87E8E8F3E0CF
:10548000A9E2B5E08C9111969C9111971296919397
:1054900087AF68EC73E06E177F07A1F7CE010D961A
:1054A0000E944B258EE0FE013D96AFEFB6E00190E5
:1054B0000D928A95E1F740E450E060E070E089EAFF
:1054C00094E00E94871740E450E060E070E089EECD
:1054D00094E00E94871740E850E060E070E088E8C0
:1054E00093E00E94871740E450E060E070E089EAB2
:1054F00095E00E94871740E450E060E070E089EE9C
:1055000095E00E94871740E450E060E070E089E297
:1055100096E00E94871748E050E060E070E0CE011E
:1055200001960E94871744E050E060E070E0CE01F1
:1055300009960E94871740E450E060E070E089E639
:1055400096E00E9487171092FC060E944A221A8653
:10555000198680912B0490912C04892B09F41FC388
:1055600080912704909128048F5F877090E0FC0160
:10557000EE0FFF1FE95EFB4F208131813A872987BB
:10558000909328048093270480912B0490912C04FD
:10559000019790932C0480932B04E984FA8487016B
:1055A0001127C70188279170892F9927003111058C
:1055B0000CF094C1892B09F48EC180910E078130C3
:1055C00021F4C8010E94C410EAC2809173038823A9
:1055D00009F426C1083011050CF095C004301105FE
:1055E0000CF0DDC28091FB02882309F474C0409165
:1055F0000D0750E09A01B4E0220F331FBA95E1F78E
:10560000C80164E0880F991F6A95E1F7DC01A75192
:10561000BA4FF901E751FA4F60E101900D926A9596
:10562000E1F7DC01A751BB4FF901E751FB4F60E106
:1056300001900D926A95E1F7DC01A755BB4FF90186
:10564000E755FB4F60E101900D926A95E1F7D801B3
:1056500075E0AA0FBB1F7A95E1F7A75DBA4FFA0173
:1056600015E0EE0FFF1F1A95E1F7E75DFA4F50E2E4
:1056700001900D925A95E1F7DC01A755BA4FF90157
:10568000E755FA4F40E101900D924A95E1F7DC01B0
:10569000A75DB94FF901E75DF94F40E101900D9227
:1056A0004A95E1F7DC01A759B94FF901E759F94FDC
:1056B00080E101900D928A95E1F785E792E00E94E2
:1056C000FB2341E050E064E670E081E00E943E246C
:1056D0001092FB0212C019821A821B821C828BE577
:1056E000898382E48A8381E38E0D8B83CE010196C8
:1056F0000E94FB2381E08093FB02E0920D078E2D38
:105700000E946B244CC20E30110509F43FC00F30CB
:10571000110539F10D30110509F079C00E94A01072
:1057200081E080930E0780917E0390917F030E9419
:10573000C30780917D0390E001970E94C41081E926
:1057400092E00E94FB2380E1E0E3F1E0A6E1B7E014
:1057500001900D928A95E1F761E080E00E941418B3
:105760001EC290920E0781E08093720380910A011D
:105770008F3031F480E180930A0189E792E038C0EC
:105780008FE080930A018DE792E032C081E892E0D9
:105790000E94FB2380918103909182030E94B602B4
:1057A00010920D0780E00E946B24809180038F5F30
:1057B000809380038330D1F030F4823009F0EFC160
:1057C00085E892E015C08430B1F0853009F0E7C17A
:1057D0000E94011E80E090E00E94852310928003C9
:1057E00040E050E064E670E080E00EC089E892E0BE
:1057F0000E94FB23D4C18DE892E00E94FB2340E08D
:1058000050E064EF71E081E00E943E24C8C19092B4
:105810000E07E0920A0180E090E00E949B11BFC158
:105820008091F606882361F081E08E0D809340011F
:1058300090E00E9485238091F6060E943C17AFC13C
:105840008091FD06882361F081E08E0D80934001F8
:1058500090E00E9485238091FD060E9443189FC11D
:105860000E94A01080910D0770E1879F000D111D0F
:10587000112420914B0430914C04D801A755BB4F03
:105880000217130731F0FD01E05CFE4F908191118A
:1058900006C0A05CBE4F2C9191E092279C93109380
:1058A0004C0400934B0490910E07911102C00E948A
:1058B0006B240E9419140E949424E0914B04F091EF
:1058C0004C04E75DF94F60818CB58F7D8CBD8FE016
:1058D0000E94F42164C11092FB0261C1A82FA17043
:1058E000FA2EF8017097E730F10508F054C1EC5C2E
:1058F000FF4F0C944334A0937303892B09F01DC10F
:105900001092FB021092800346C1892B09F443C117
:1059100080917303882389F0E6E1F7E01192AE16D7
:10592000BF06E1F780910D070E946B2480918103EF
:10593000909182030E9489072EC180910E078130C9
:1059400009F429C10E94A010E6E1F7E01192B7E046
:10595000E632FB07D9F780910D070E946B24009176
:105960008103109182039091870381E089278093BE
:105970008703811105C060E00E9414181092E202B2
:1059800040E050E0BA0180EA94E00E94080980916A
:10599000A6049091A7049093A5048093A4048091F9
:1059A0000401882309F4F7C080918703882309F450
:1059B000F2C0C8010E94D105C8010E94820EEBC04E
:1059C0008A2F0E943C17E7C08A2F0E944318E3C029
:1059D000892B09F4E0C080917303882321F0909211
:1059E0000E078AE1B8C0E0914B04F0914C04E75DEA
:1059F000F94F608181E0682760838CB58F7D8CBD15
:105A00008FE00E94F421C7C020910E07213009F4D5
:105A1000C2C020917303211105C02091FA022223F4
:105A200009F47FC020910701892B79F1009181034E
:105A300010918203E22F022E000CFF0BE751FA4F68
:105A400081E080832093F902209343018091DC025E
:105A50009091DD029093DB028093DA028091D8026C
:105A60009091D9029093D7028093D60280EA94E075
:105A70000E942B097093F8026093F702C8010E94FC
:105A8000820E1092E20261E046C0E090F9022E1907
:105A900027FF03C08091AA06280F009105011091ED
:105AA00006014091F7025091F8028091A004909174
:105AB000A104A091A204B091A304840F951FA11D7D
:105AC000B11D2003A001219F500D1124841B950BB3
:105AD000A109B10989839A83AB83BC83CE01019666
