:100000000C9462000C948A000C948A000C948A0070
:100010000C948A000C948A000C948A000C948A0038
:100020000C948A000C948A000C948A000C948A0028
:100030000C948A000C948A000C948A000C948A0018
:100040000C94F7080C948A000C948A000C948A0093
:100050000C948A000C948A000C948A000C948A00F8
:100060000C948A000C948A000000000024002700F1
:100070002A0000000000250028002B0000000000DE
:1000800023002600290004040404040404040202DA
:100090000202020203030303030301020408102007
:1000A0004080010204081020010204081020000012
:1000B0000008000201000003040700000000000027
:1000C0000000410911241FBECFEFD8E0DEBFCDBF35
:1000D00011E0A0E0B1E0E6E7FDE102C005900D927D
:1000E000A43CB107D9F722E0A4ECB1E001C01D9215
:1000F000A53EB207E1F710E0C2E6D0E004C02197C8
:10010000FE010E94B30EC136D107C9F70E94B009A3
:100110000C94B90E0C940000833081F028F48130E7
:1001200099F08230A9F008958730A9F08830C9F09D
:100130008430B1F4809180008F7D03C08091800075
:100140008F7780938000089584B58F7784BD08955C
:1001500084B58F7DFBCF8091B0008F778093B00006
:1001600008958091B0008F7DF9CFCF93DF93282F32
:1001700030E0F901E255FF4F8491F901E656FF4F57
:10018000D491F901EA57FF4FC491CC23A1F081111A
:100190000E948C00EC2FF0E0EE0FFF1FE458FF4FA1
:1001A000A591B491EC91ED2381E090E009F480E019
:1001B000DF91CF91089580E090E0FACF1F93CF9325
:1001C000DF93282F30E0F901E255FF4F8491F901C8
:1001D000E656FF4FD491F901EA57FF4FC491CC2363
:1001E000A9F0162F81110E948C00EC2FF0E0EE0F89
:1001F000FF1FEE58FF4FA591B4918FB7F894EC9183
:10020000111108C0D095DE23DC938FBFDF91CF9111
:100210001F910895DE2BF8CFCF93DF9390E0FC0180
:10022000E656FF4F24918A579F4FFC018491882303
:10023000C9F090E0880F991FFC01E859FF4FA59184
:10024000B491FC01EE58FF4FC591D49161110DC0DE
:100250009FB7F8948C91209582238C9388812823D2
:1002600028839FBFDF91CF910895623051F49FB7EB
:10027000F8943C91822F809583238C93E8812E2BD8
:10028000EFCF8FB7F894EC912E2B2C938FBFEACF42
:100290002FB7F894609160027091610280916202C0
:1002A000909163022FBF08950F931F93CF93DF9315
:1002B000EC010E944801088119812A813B81601B61
:1002C000710B820B930BDF91CF911F910F910895CA
:1002D000CF93DF932091FF0130910002E90137FFB6
:1002E00004C0CC27DD27C21BD30BEAE0F0E0CE012F
:1002F000BF010E942C0E9093F8018093F701CB016F
:10030000BF010E942C0E9093FA018093F90180E1C5
:1003100090E037FD0FC0C9018D599F4F873C910573
:10032000D8F0CE0164E670E00E942C0ECB01BF0134
:100330000E942C0E9093FC018093FB01275F3F4F9E
:100340002331310530F481E190E09093FA018093FC
:10035000F901DF91CF91089581E190E0EBCF809199
:1003600012019091130182309105C9F01CF401979C
:1003700039F0089583309105D9F0049711F108956B
:10038000E0917802F0917902EE0FFF1FEA5FFD4FD6
:1003900080819181909300028093FF010895E09104
:1003A0007802F0917902EE0FFF1FEA5DFD4FF0CF6A
:1003B000E0917802F0917902EE0FFF1FE558FD4FB2
:1003C000E7CFE0917802F0917902EE0FFF1FEA5239
:1003D000FE4FDECFCF93DF938091D4019091D50172
:1003E0000196853091050CF092C09093D5018093D1
:1003F000D4018091D4019091D5018430910508F009
:10040000FBC020912C0140E4249F90011124282B53
:1004100020937C0020917A00206420937A00209120
:100420007A0026FDFCCF2091780040917900542F6E
:10043000422F9C01220F331FF901E453FE4F5183D9
:100440004083F901EF5AFE4F0190F081E02D609159
:10045000120170911301E617F70709F45DC0E4E695
:10046000F0E0D901AC53BE4F6D917C91DA01A61B2F
:10047000B70BBD01B7FF03C0719561957109E61710
:10048000F7070CF0B9C02C533E4FF901518340835C
:10049000C0917802D0917902CC0FDD1F8230910596
:1004A00009F45CC08330910509F47FC00197B9F16C
:1004B0006091CC017091CD0181E090E090931301A7
:1004C00080931201072E000C880B990B0E940A0DD5
:1004D00026E636E64AE252E40E94600C20E030E074
:1004E00040E451E40E94EE0B0E94D20CFE01EA5F50
:1004F000FD4F208131812617370721F070930002CC
:100500006093FF01CA5FDD4F798368834AC0109210
:10051000D5011092D4016DCFE4E0F0E0A2CF80913C
:10052000CE019091CF0122E030E03093130120936F
:10053000120168E770E00E942C0E64507109FE0100
:10054000EA5DFD4F808191816817790721F07093F2
:1005500000026093FF01CA5DDD4FD6CFA091D001AC
:10056000B091D10183E090E0909313018093120148
:100570009D010E945F0E27E33AE040E050E00E94B8
:10058000400EFE01E558FD4F80819181821793074F
:1005900021F0309300022093FF01C558DD4F3983CD
:1005A0002883DF91CF910C9468016091D201709102
:1005B000D30184E090E09093130180931201072E01
:1005C000000C880B990B0E940A0D24E13EEA43E2DD
:1005D00051E40E94600C0E94D20CFE01EA52FE4FD0
:1005E000208131812617370721F070930002609334
:1005F000FF01CA52DE4F88CFDF91CF9108958EBDA3
:1006000000000DB407FEFDCF8EB50895FF920F9345
:100610001F93CF93DF938C01F62E87E024E1C2E194
:10062000E0E0861728F4E8EFFE0E25E1C3E1E1E003
:10063000E00FF12FF11D848190E00F2C02C0959501
:1006400087950A94E2F780FD11C0020F111DF80191
:10065000848190E002C095958795FA94E2F78170C5
:10066000DF91CF911F910F91FF900895F801D381F1
:10067000DD0FDE70D16460E082810E94DE008D2F8C
:100680000E94FF028C2F0E94FF02D0E08FEF0E9499
:10069000FF02C00FD11F8C8361E0F80182810E94AC
:1006A000DE008C81D6CF0F931F93CF93DF938C0105
:1006B000D62FFC01C381CC0FCE70C06460E0828174
:1006C0000E94DE008C2F0E94FF028D2F0E94FF02ED
:1006D000F801ED0FF11D84810E94FF0261E0F80135
:1006E0008281DF91CF911F910F910C94DE006631D2
:1006F00010F40C9453030895562F74E16CE0E0E07D
:10070000583020F0585075E16DE0E1E021E030E034
:10071000052E01C0220F0A94EAF7E80FF92FF11D08
:10072000E481F0E002C0F595E7955A95E2F7E0FD27
:1007300009C0FC01E70FF11D5481442361F0252B12
:1007400024830CC0FC01E60FF11D5481442349F0C1
:10075000252B248304C0209552235483672F0C94A7
:100760007703209552235483FACF603110F40C9410
:100770007C030895FF920F931F93CF93DF938C0117
:10078000962F8CE0F82E60E0983020F098502DE005
:10079000F22E61E0F801E60FF11D8481C1E0D0E0A6
:1007A00001C0CC0F9A95EAF7423059F0C0958C23DE
:1007B0008483C801DF91CF911F910F91FF900C941A
:1007C00077038C2B8483C8010E947703F801EF0D17
:1007D000F11D8481C82BC4836F2DEBCFEF92FF9264
:1007E0000F931F93CF93DF93EC011FB7F894809181
:1007F0005A02811127C0E0E9F0E08491E4EAF0E0D8
:100800009491E82FF0E0EE0FFF1FE859FF4FA591FC
:10081000B491EC91E92321F461E08AE00E94DE00CA
:1008200061E08AE00E940C018CB580618CBD8CB5C2
:1008300080648CBD61E08DE00E940C0161E08BE082
:100840000E940C0180915A028F5F80935A021FBF51
:1008500061E08A810E940C0161E08A810E94DE00D1
:1008600060E08A810E94DE0080E40E94FF028AE04C
:100870000E94FF0288E10E94FF0261E08A810E94DB
:10088000DE001B81110F1E70106460E08A810E94DF
:10089000DE00812F0E94FF0280E00E94FF028E0195
:1008A0000C5F1F4F7E018AE1E80EF11CF801819177
:1008B0008F010E94FF020E151F05C1F761E08A81BA
:1008C000DF91CF911F910F91FF90EF900C94DE007C
:1008D0002F923F924F925F926F927F928F929F9250
:1008E000AF92BF92CF92DF92EF92FF920F931F933E
:1008F000CF93DF932B013C0120E030E040EC52E449
:100900000E94BA0D181634F4412C512C60EC662E5E
:1009100062E4762E20E030E040E451E4C301B2010D
:100920000E94600C0E94D20C6B015B01C301B201FA
:100930000E94D20CCB016CE070E00E942C0E21E0F2
:1009400030E01816190614F030E020E0C9018C0DD3
:100950009D1D9601220F331FF901E75AFE4F2050CB
:100960003F4FC081D181F90160817181C60FD71FCE
:100970009C01220F331FF901E75AFE4F208031807E
:1009800020503F4FF90100811181A816B906C9F125
:10099000BE0190E080E00E94080D4B015C01B601B1
:1009A000DD0C880B990B0E940A0D20E030E040E43A
:1009B00051E40E94BF0D9B01AC01C301B2010E9432
:1009C000EE0B6B017C01020D131DB80190E080E07D
:1009D0000E94080DA50194010E94EE0B9B01AC0141
:1009E000C701B6010E94BF0D20E030E040E451E4B1
:1009F0000E94600CA50194010E94EF0B0E94D90C8B
:100A0000EB011C2F0D2FC115F0E1DF0710F01FEFD8
:100A10000FE060E089E00E94DE00802F80610E948C
:100A2000FF02812F0E94FF0261E089E00E94DE0048
:100A3000CE01DF91CF911F910F91FF90EF90DF904A
:100A4000CF90BF90AF909F908F907F906F905F906E
:100A50004F903F902F9008958F929F92AF92BF92A8
:100A6000CF92DF92EF92FF920F931F93CF93DF937A
:100A700000D000D0CDB7DEB780914D0190E0FC01F1
:100A8000E35CFE4F2081222309F47BC0FC01E65B7E
:100A9000FD4F2081222309F474C020914E0130E0E3
:100AA000B901681B790B77FF05C0205F3F4FB90183
:100AB000681B790BE090E302F090E402E69EA0014F
:100AC000E79E500DF69E500D1124052E000C660B6E
:100AD000770B8091D7029091D802A091D902B09162
:100AE000DA02841B950BA60BB70B89839A83AB8321
:100AF000BC83CE0101960E9454014B01B701FF0C4B
:100B0000880B990B0E940A0D20E030E040E05FE383
:100B10000E94BF0D0E94D20C6B01861697068CF5C1
:100B20009B01281939098091460290914702289F1C
:100B3000B001299F700D389F700D1124209148023B
:100B400030914902289DC001299D900D389D900D3E
:100B50001124680F791F072E000C880B990B0E9437
:100B60000A0D4B015C01B601DD0C880B990B0E944C
:100B70000A0D9B01AC01C501B4010E94600C0E94EA
:100B800068040F900F900F900F90DF91CF911F91FD
:100B90000F91FF90EF90DF90CF90BF90AF909F901C
:100BA0008F90089580914E01282F30E0F901E35D88
:100BB000FE4F235C3E4FD9019C9190838F5F803123
:100BC00009F447C080934E0130914E01832F90E08D
:100BD000FC01E35CFE4F4081FC01E35DFE4F21E040
:100BE000242720834423A1F130934D012091480212
:100BF0003091490230934702209346029C01220F14
:100C0000331FF901EA5DFD4F408151814E5F5F4F17
:100C1000ECE0E49FB001E59F700D11242A5F3D4F89
:100C2000F90120813181620F731F70934902609333
:100C30004802865B9D4FDC018C91882369F00E94FD
:100C40002C0561E080E00E94DE0081E080939B0241
:100C5000089510924E01B8CF072E000C880B990B07
:100C60000E940A0D0E946804ECCFEDE2F1E01192BF
:100C700081E0ED33F807D9F78091780290917902FD
:100C8000FC01E35DFE4F21E02083FC01EE0FFF1F1E
:100C9000E050FF4F20813181309300022093FF010B
:100CA0002CE0289FB001299F700D1124072E000C05
:100CB000880B990B0E940A0D0E9468040C9468012D
:100CC000E091F601EE0FEE0FE093F60186B190E0B1
:100CD00034E0959587953A95E1F783709927E82B4D
:100CE000E093F601EF70F0E0E559FE4F8081882334
:100CF00009F450C0082E000C990B20919C023091F1
:100D00009D0221303105B9F4E0917802F091790229
:100D1000EE0FFF1FE050FF4F20813181A901481BDA
:100D2000590B9A012D593F4F273C310598F55183B6
:100D300040830C94350620914F0130915001281BBF
:100D4000390B24313105FCF03093500120934F01D1
:100D500080914F0190915001853F914034F084EF94
:100D600091E09093500180934F0180914F019091B9
:100D70005001909300028093FF0110921301109292
:100D800012010C94680184E190E0909350018093EB
:100D90004F01DECF08957F928F929F92AF92BF92C4
:100DA000CF92DF92EF92FF920F931F93CF93DF9337
:100DB0008FED92E00E94540162307105810591052A
:100DC00008F407C20E9448016093DF027093E002BA
:100DD0008093E1029093E2020091040210910502D7
:100DE000E801CC0FDD1FCC0FDD1FDE01A35DBE4F80
:100DF0007E01EE0CFF1CF701E757FE4F45E050E087
:100E000020E04150510949F08D913081329601C066
:100E1000880F3A95EAF7280FF4CF84E090E090939A
:100E20000202809301028FE0821B4801880C991C0A
:100E3000F401E755FE4F9081892B80930302809344
:100E4000D20265E189EB92E00E94530340E0602FFB
:100E500089EB92E00E94B503C70187579E4F7C0142
:100E6000FE01E45EFE4F6F015E01F4E0AF0EB11CC7
:100E700077247394F7016081F2E0EF0EF11C6C5F50
:100E800080E0603120F489EB92E00E94060391E05B
:100E9000811101C090E0F6012081921799F09083B2
:100EA000811110C080919C0290919D02019709F0E0
:100EB00045C0C930D10530F4D0937902C09378028F
:100EC0000E9435062196FFEFCF1ADF0AAC16BD0649
:100ED00089F641E0602F89EB92E00E94B503F401AE
:100EE000EF57FE4FC081D18180E0C03128F46C2FD4
:100EF0008EE992E00E94060391E0811101C090E02A
:100F00007801EFEFEE1AFE0AF701E95EFE4F20814D
:100F1000921709F47DC09083C530D10509F43AC118
:100F200094F5249709F441C098012B5F3F4F4FE699
:100F3000429FC001439F900D112430C0FE01E35C2D
:100F4000FE4F808120917802309179022C173D0765
:100F500011F0811106C087258083FE01E35DFE4FFD
:100F60008083D0937902C09378020E94AF01FE0182
:100F7000E65BFD4F408163E08EE992E00E947C03D6
:100F80000E9468019FCFC630D10509F4EEC02797B3
:100F900059F6882309F4E6C08AE992E090930002AA
:100FA0008093FF010E94680133C0811131C080919C
:100FB0009C0290919D02019709F09FC010929D02A2
:100FC00010929C0280E1EDE3F1E0ADE2B1E001902E
:100FD0000D928A95E1F70E94AF0130E0A32E31E037
:100FE000B32ED0E0C0E0F5018081F2E0AF0EB11C7D
:100FF00024E6D22ED80ECE010E94D80BD81621F0AE
:101000006D2DCE010E94E00B2196C930D10559F714
:10101000F401E558FE4FC081D181209719F18C2F42
:101020000E94B500F801EC5EFE4F208128171906DA
:10103000C9F021E0009709F420E02083892B91F486
:10104000259709F0AFC0E0917802F0917902E65B54
:10105000FD4F408181E04827408363E08EE992E0C4
:101060000E947C03809104029091050201968430D5
:10107000910509F4A4C09093050280930402C091E5
:10108000FD01D091FE0140E06C2F8EE992E00E94BC
:10109000B5032196C330D10509F496C0D093FE0163
:1010A000C093FD01C091FD01D091FE01FE01EE0F44
:1010B000FF1FE950FE4F0190F081E02DEC59FD4FEC
:1010C0008081869580958093B70265E18EE992E0F4
:1010D0000E94530341E06C2F8EE992E0DF91CF91A3
:1010E0001F910F91FF90EF90DF90CF90BF90AF9046
:1010F0009F908F907F900C94B50381E090E0909347
:101100009D0280939C0285E090E090931301809370
:10111000120190E0C92E91E0D92ED0E0C0E0CE01BE
:101120000E94D80B8456990B9C0197FF04C022277C
:101130003327281B390BF6012436310584F49183BB
:1011400080832196F2E0CF0ED11CC930D10539F74A
:1011500010927902109278020E94350659CF1182BE
:101160001082EFCF8EEB9FEF19CF882381F081E0C3
:10117000809377020E9448016093D7027093D8024F
:101180008093D9029093DA0289E093E007CF83EB52
:101190009FEF04CF882319F08FE690E0FFCE85EF14
:1011A0009FEFFCCE2EED2E9DC0012F9D900D1124A2
:1011B000909300028093FF010E94680153CF109228
:1011C0000502109204025BCF1092FE011092FD0105
:1011D00069CFDF91CF911F910F91FF90EF90DF903A
:1011E000CF90BF90AF909F908F907F9008951F9267
:1011F0000F920FB60F9211242F933F938F939F93CB
:10120000AF93BF938091600290916102A0916202BE
:10121000B091630230915F0223E0230F2D3758F520
:101220000196A11DB11D20935F02809360029093EF
:101230006102A0936202B093630280915B0290917D
:101240005C02A0915D02B0915E020196A11DB11DEC
:1012500080935B0290935C02A0935D02B0935E0268
:10126000BF91AF919F918F913F912F910F900FBEA2
:101270000F901F90189526E8230F0296A11DB11D0F
:10128000D2CF0E9448016093DF027093E002809306
:10129000E1029093E2020E9448016093DB027093A6
:1012A000DC028093DD029093DE020E94480160938D
:1012B000D7027093D8028093D9029093DA020E94E9
:1012C00048016093D3027093D4028093D502909327
:1012D000D602E9EBF2E048EB52E0518340832AE08A
:1012E000228381E083839FEF948395831682178204
:1012F00010861186128613861486158688E18687E5
:101300008787108A118A128A138A148A158A168A84
:10131000178A108E118EEEE9F2E05183408322830A
:101320001382948395831682178210861186128603
:1013300013861486158686878787108A118A128AF3
:10134000138A148A158A168A178A108E118E809134
:101350004F01909150019093E4028093E30208952D
:10136000789484B5826084BD84B5816084BD85B580
:10137000826085BD85B5816085BD80916E0081608C
:1013800080936E0010928100809181008260809332
:101390008100809181008160809381008091800034
:1013A0008160809380008091B10084608093B1005F
:1013B0008091B00081608093B00080917A00846059
:1013C00080937A0080917A00826080937A00809185
:1013D0007A00816080937A0080917A00806880939F
:1013E0007A001092C10010922C0161E08AE00E9404
:1013F0000C0161E089E00E940C0189EB92E00E94FF
:10140000EE03D0E0C0E0C430D1056CF441E06C2FB5
:1014100089EB92E00E94BA0340E06C2F89EB92E0E6
:101420000E94B5030AC0CE010497049778F742E002
:101430006C2F89EB92E00E94BA032196C031D1054E
:1014400011F78FE08093D2021092D10264E189EB10
:1014500092E00E94530365E189EB92E00E945303FE
:101460008EE992E00E94EE03D0E0C0E0CE01049746
:1014700042E0049708F041E06C2F8EE992E00E9470
:10148000BA032196C031D10589F7E1EBF1E0A4E67A
:10149000B2E042EC51E0219130E0C9019695982FDD
:1014A000882797958795B901660F672F661F770B79
:1014B000862BB901D5E0660F771FDA95E1F76074E6
:1014C000862BB90113E0660F771F1A95E1F760725A
:1014D000862BB901660F771F6071862BB901759550
:1014E00067956870862BB901C3E075956795CA95B5
:1014F000E1F76470862BD5E035952795DA95E1F70D
:101500002270822B8D934E175F0729F662E082E1ED
:101510000E940C0162E083E10E940C0162E085E020
:101520000E940C0162E086E00E940C0162E087E00C
:101530000E940C0161E080E00E940C0161E082E009
:101540000E940C0160E083E00E940C0160E084E0F6
:101550000E940C0161E081E00E940C0160E081E0EA
:101560000E94DE00EBE7F2E08BE992E020E530E05C
:10157000219331938E179F07D9F7BB24B39400E0D2
:1015800010E0AA24A39480919C0290919D0201975F
:1015900061F40E94EA010E94CB060E9460060115D8
:1015A000110589F30E940000EECF80917702882315
:1015B00041F187ED92E00E94540120914F0130915A
:1015C00050016901330FEE08FF08C616D706E8067A
:1015D000F906B8F480917A02882309F454C060E0D7
:1015E00082E00E94DE0010927A020E94D2050E94E0
:1015F00048016093D7027093D8028093D9029093E8
:10160000DA020E942C0583E00E94B500892B09F0C4
:1016100041C080917602811118C0A092760210928A
:10162000770287ED92E00E9454017093E402609388
:10163000E3020E9448016093D7027093D80280931E
:10164000D9029093DA020E94D2050E94CB060E9432
:10165000EA01C0917802D0917902FE01E35CFE4F6D
:101660008081C35DDE4F8823C1F083ED92E00E944C
:10167000540128812223C1F038E5C32E32E0D32E55
:10168000E12CF12C16C061E082E00E94DE00A09205
:101690007A02ABCF10927602D8CF83ED92E00E940F
:1016A00054012881222341F344E6C42ED12CE12C9D
:1016B000F12CC616D706E806F90668F4822F8B25AA
:1016C00088830E9448016093D3027093D402809370
:1016D000D5029093D6020E94600687ED92E00E94A8
:1016E00054016B017C0120914E0130E080914D014D
:1016F00090E0E901C81BD90B21961C161D0624F0A9
:10170000E901C81BD90B619620919B02222309F4A1
:1017100045C0880F991FFC01E558FD4F608171811C
:10172000072E000C880B990B0E940A0D2B013C011F
:10173000C701B6010E94080D6B017C016091E302B4
:101740007091E402072E000C880B990B0E940A0D81
:101750009B01AC01C701B6010E94600C20E030E0A3
:1017600048EC52E40E94BF0D6B017C01BE01DD0F0D
:10177000880B990B0E940A0D9B01AC01C701B601B1
:101780000E94BF0D9B01AC01C301B2010E945B0C22
:1017900087FF04C060E080E00E94DE0080917A0252
:1017A000882309F4FCCE87ED92E00E945401F7CE25
:1017B000F999FECF92BD81BDF89A992780B5089519
:1017C000262FF999FECF1FBA92BD81BD20BD0FB65D
:1017D000F894FA9AF99A0FBE019608955058BB27CB
:1017E000AA270E94060C0C94800D0E94720D38F0FE
:1017F0000E94790D20F039F49F3F19F426F40C94DF
:101800006F0D0EF4E095E7FB0C94690DE92F0E9433
:10181000910D58F3BA17620773078407950720F0F4
:1018200079F4A6F50C94B30D0EF4E0950B2EBA2FB7
:10183000A02D0B01B90190010C01CA01A0011124D6
:10184000FF27591B99F0593F50F4503E68F11A1682
:10185000F040A22F232F342F4427585FF3CF469513
:1018600037952795A795F0405395C9F77EF41F1635
:10187000BA0B620B730B840BBAF09150A1F0FF0FFF
:10188000BB1F661F771F881FC2F70EC0BA0F621FEB
:10189000731F841F48F4879577956795B795F795DB
:1018A0009E3F08F0B0CF9395880F08F09927EE0F70
:1018B0009795879508950E94450D08F481E0089555
:1018C0000E94740C0C94800D0E94790D58F00E94B7
:1018D000720D40F029F45F3F29F00C94690D51110D
:1018E0000C94B40D0C946F0D0E94910D68F3992324
:1018F000B1F3552391F3951B550BBB27AA2762170C
:101900007307840738F09F5F5F4F220F331F441F18
:10191000AA1FA9F335D00E2E3AF0E0E832D091504C
:101920005040E695001CCAF72BD0FE2F29D0660F39
:10193000771F881FBB1F261737074807AB07B0E87C
:1019400009F0BB0B802DBF01FF2793585F4F3AF082
:101950009E3F510578F00C94690D0C94B40D5F3FD7
:10196000E4F3983ED4F3869577956795B795F79508
:101970009F5FC9F7880F911D9695879597F90895F0
:10198000E1E0660F771F881FBB1F6217730784078C
:10199000BA0720F0621B730B840BBA0BEE1F88F79B
:1019A000E09508950E94D90C6894B1110C94B40D7F
:1019B00008950E94990D88F09F5798F0B92F9927A4
:1019C000B751B0F0E1F0660F771F881F991F1AF02A
:1019D000BA95C9F714C0B13091F00E94B30DB1E0CF
:1019E00008950C94B30D672F782F8827B85F39F0CE
:1019F000B93FCCF3869577956795B395D9F73EF4C3
:101A000090958095709561957F4F8F4F9F4F08956A
:101A1000E89409C097FB3EF4909580957095619588
:101A20007F4F8F4F9F4F9923A9F0F92F96E9BB273E
:101A30009395F695879577956795B795F111F8CFBA
:101A4000FAF4BB0F11F460FF1BC06F5F7F4F8F4F25
:101A50009F4F16C0882311F096E911C0772321F01B
:101A60009EE8872F762F05C0662371F096E8862FB3
:101A700070E060E02AF09A95660F771F881FDAF70A
:101A8000880F9695879597F90895990F0008550F37
:101A9000AA0BE0E8FEEF16161706E807F907C0F0F4
:101AA00012161306E407F50798F0621B730B840BFC
:101AB000950B39F40A2661F0232B242B252B21F4D6
:101AC00008950A2609F4A140A6958FEF811D811D76
:101AD000089597F99F6780E870E060E008959FEFB0
:101AE00080EC089500240A941616170618060906B5
:101AF000089500240A941216130614060506089584
:101B0000092E0394000C11F4882352F0BB0F40F40B
:101B1000BF2B11F460FF04C06F5F7F4F8F4F9F4F4B
:101B2000089557FD9058440F551F59F05F3F71F0CD
:101B30004795880F97FB991F61F09F3F79F0879534
:101B40000895121613061406551FF2CF4695F1DFBD
:101B500008C0161617061806991FF1CF869571054D
:101B6000610508940895E894BB2766277727CB0181
:101B700097F908950E94450D08F48FEF08950E948B
:101B8000D20D0C94800D0E94720D38F00E94790DD8
:101B900020F0952311F00C94690D0C946F0D112415
:101BA0000C94B40D0E94910D70F3959FC1F3950FA5
:101BB00050E0551F629FF001729FBB27F00DB11DD1
:101BC000639FAA27F00DB11DAA1F649F6627B00D61
:101BD000A11D661F829F2227B00DA11D621F739F4A
:101BE000B00DA11D621F839FA00D611D221F749F58
:101BF0003327A00D611D231F849F600D211D822F9F
:101C0000762F6A2F11249F5750409AF0F1F08823C5
:101C10004AF0EE0FFF1FBB1F661F771F881F9150F2
:101C20005040A9F79E3F510580F00C94690D0C942B
:101C3000B40D5F3FE4F3983ED4F3869577956795AE
:101C4000B795F795E7959F5FC1F7FE2B880F911D1C
:101C50009695879597F9089597FB072E16F40094AB
:101C600007D077FD09D00E947D0E07FC05D03EF419
:101C7000909581959F4F0895709561957F4F089538
:101C8000052E97FB1EF400940E94570E57FD07D0B7
:101C90000E94910E07FC03D04EF40C94570E509501
:101CA0004095309521953F4F4F4F5F4F0895909548
:101CB0008095709561957F4F8F4F9F4F08950E943B
:101CC000670E332312F48A1B9B0B0C94780EA29F91
:101CD000B001B39FC001A39F700D811D1124911D00
:101CE000B29F700D811D1124911D08950E94670EF1
:101CF000B7FF0895821B930B0895AA1BBB1B51E1EC
:101D000007C0AA1FBB1FA617B70710F0A61BB70B6B
:101D1000881F991F5A95A9F780959095BC01CD0110
:101D20000895A1E21A2EAA1BBB1BFD010DC0AA1F1C
:101D3000BB1FEE1FFF1FA217B307E407F50720F034
:101D4000A21BB30BE40BF50B661F771F881F991FAF
:101D50001A9469F760957095809590959B01AC01F8
:101D6000BD01CF010895EE0FFF1F0590F491E02D06
:061D70000994F894FFCF76
:101D76000000FCFFFAFFF4FFF1FFEFFFEEFFEBFFC1
:101D8600EAFF010001010100010101010101010158
:101D9600010101010101010101010101010100002F
:101DA600000000000000000000000000000100002C
:101DB600000000000000000000000000000F0F9669
:101DC6000001000200030004000000F401E803DC47
:101DD60005D007C409B80BAC0DA00F00FF01000128
:101DE6000000FFFF0000010001FF000500060007DC
:101DF60000040005000600070003000200010000C1
:101E060000000001000200030003000200010000C0
:101E160000000001000200030080004000200010C6
:101E2600007E306D79335B5F707F7B771F4E3D4F51
:041E36004701000060
:107E0000112484B714BE81FFF0D085E080938100F7
:107E100082E08093C00088E18093C10086E0809377
:107E2000C20080E18093C4008EE0C9D0259A86E02C
:107E300020E33CEF91E0309385002093840096BBD3
:107E4000B09BFECF1D9AA8958150A9F7CC24DD24C4
:107E500088248394B5E0AB2EA1E19A2EF3E0BF2EE7
:107E6000A2D0813461F49FD0082FAFD0023811F036
:107E7000013811F484E001C083E08DD089C08234E0
:107E800011F484E103C0853419F485E0A6D080C0E4
:107E9000853579F488D0E82EFF2485D0082F10E0AE
:107EA000102F00270E291F29000F111F8ED06801E7
:107EB0006FC0863521F484E090D080E0DECF843638
:107EC00009F040C070D06FD0082F6DD080E0C81688
:107ED00080E7D80618F4F601B7BEE895C0E0D1E017
:107EE00062D089930C17E1F7F0E0CF16F0E7DF06D8
:107EF00018F0F601B7BEE89568D007B600FCFDCFD4
:107F0000A601A0E0B1E02C9130E011968C91119780
:107F100090E0982F8827822B932B1296FA010C0160
:107F200087BEE89511244E5F5F4FF1E0A038BF0790
:107F300051F7F601A7BEE89507B600FCFDCF97BE46
:107F4000E89526C08437B1F42ED02DD0F82E2BD052
:107F50003CD0F601EF2C8F010F5F1F4F84911BD097
:107F6000EA94F801C1F70894C11CD11CFA94CF0C13
:107F7000D11C0EC0853739F428D08EE10CD085E9AC
:107F80000AD08FE07ACF813511F488E018D01DD067
:107F900080E101D065CF982F8091C00085FFFCCF94
:107FA0009093C60008958091C00087FFFCCF809118
:107FB000C00084FD01C0A8958091C6000895E0E648
:107FC000F0E098E1908380830895EDDF803219F02E
:107FD00088E0F5DFFFCF84E1DECF1F93182FE3DFCA
:107FE0001150E9F7F2DF1F91089580E0E8DFEE27F6
:047FF000FF270994CA
:027FFE00040479
:0400000300007E007B
:00000001FF
