:100000000C94FA000C944F020C9428020C942201D8
:100010000C9422010C9422010C9422010C942201D4
:100020000C9422010C9422010C9422010C942201C4
:100030000C9422010C9422010C9422010C942201B4
:100040000C94B81C0C9422010C9422010C942201F3
:100050000C9422010C9422010C9422010C94220194
:100060000C9422010C942201E921F321452249221A
:100070006B22FE224D222B042304FD0308041304EB
:1000800023042B042D0430043A04FB0F0410F90F51
:10009000F70FF40F0410FD0F0410FF0F0110000004
:1000A00000002300260029000100010001000100DA
:1000B0000100010001010001010001000100010136
:1000C0000001010100000101000101000101010125
:1000D0000001010001010101000100010100010016
:1000E0000101010100010101010100000100010005
:1000F00001000001000101000100010000010001F8
:1001000000000101000101000100010100010001E6
:1001100001000100010100010001000101010101D4
:1001200001010101010101010101524F4C00535431
:100130005400524E44005354500046525A00474C0B
:100140004400545253004F43540052455600524508
:10015000500057484F00444F520050485200424C04
:100160004D00424C550050454D0050454E004D4904
:100170004E004D414A00434852004E014A0146019B
:1001800042013E013A01360132012E012A01760177
:1001900072016E016A01660162015E015A01560137
:1001A000520100000000240027002A000000000087
:1001B000250028002B0004040404040404040202A3
:1001C00002020202030303030303010204081020D6
:1001D00040800102040810200102040810200000E1
:1001E00000080002010000030407000000000000F6
:1001F0000000C22611241FBECFEFD8E0DEBFCDBF66
:1002000012E0A0E0B1E0E8EFF5E502C005900D9244
:10021000A837B107D9F726E0A8E7B2E001C01D92E0
:10022000A536B207E1F710E0CAEFD0E004C021978D
:10023000FE010E948E28C93FD107C9F70E94021D06
:100240000C94FA2A0C9400000895CF92DF92EF925A
:10025000FF926091870370918803072E000C880B32
:10026000990B0E94BF296B017C016091920570E09F
:1002700080E090E00E94BD299B01AC01C701B6015E
:100280000E94742A20E030E048EC52E40E941529D4
:100290000E948E297093850260938402FF90EF90F4
:1002A000DF90CF90089581E080938C0208952F9283
:1002B0003F924F925F926F927F928F929F92AF92F6
:1002C000BF92CF92DF92EF92FF920F931F93CF9343
:1002D000DF9300D000D000D0CDB7DEB76A017B013C
:1002E00020E030E040EC52E4C701B6010E946F2AE2
:1002F00018166CF020E030E0A901C701B6010E9499
:10030000102987FF0AC0C12CD12C760106C0C12C50
:10031000D12C40ECE42E42E4F42E20E030E040E426
:1003200051E4C701B6010E9415290E9487292B01BB
:100330003C011B01C701B6010E948729CB016CE07B
:1003400070E00E947A2801E010E01816190614F0F7
:1003500000E010E0040D151DC201880F991FFC017B
:10036000E856FE4FDC01A55FBE4F208131818D91A3
:100370009C91280F391F3E832D83B90180E090E0C6
:100380000E94BD294B015C01F801EE0FFF1FDF0148
:10039000A856BE4FE55FFE4F6D917C9180819181A3
:1003A000680F791F80E090E00E94BD2969837A83FD
:1003B0008B839C832016310681F1B201550C880B8A
:1003C000990B0E94BF2920E030E040E451E40E94F4
:1003D000742A9B01AC01C701B6010E94A3286B01DE
:1003E0007C01A501940169817A818B819C810E94A5
:1003F000A3289B01AC01C701B6010E94742A20E02A
:1004000030E040E451E40E941529A50194010E94C6
:10041000A4280E948E297E836D838D819E812696DD
:100420000FB6F894DEBF0FBECDBFDF91CF911F9105
:100430000F91FF90EF90DF90CF90BF90AF909F9083
:100440008F907F906F905F904F903F902F90089586
:100450001F920F920FB60F9211242F933F934F9339
:100460005F936F937F938F939F93AF93BF93EF931C
:10047000FF93E0910201F09103010995FF91EF9143
:10048000BF91AF919F918F917F916F915F914F91AC
:100490003F912F910F900FBE0F901F9018951F92B4
:1004A0000F920FB60F9211242F933F934F935F93A8
:1004B0006F937F938F939F93AF93BF93EF93FF932C
:1004C000E0910001F09101010995FF91EF91BF9139
:1004D000AF919F918F917F916F915F914F913F91DC
:1004E0002F910F900FBE0F901F901895FC018081E7
:1004F0008F3119F49181993859F1228190EF920F3F
:10050000903128F090EE920F963078F4265081E0EA
:1005100090E0A0E0B0E0BC01CD0104C0660F771F01
:10052000881F991F2A95D2F70895811106C08181ED
:10053000811113C0211111C007C08F3F71F4818157
:100540008F3F59F42F3F49F460E070E0CB010895EC
:1005500060E070E080E091E0089560E070E080E1AC
:1005600090E0089508950CB405FC0DC09EBD0000F8
:100570000DB407FEFDCF9EB58EBD00000DB407FE85
:10058000FDCF8EB508958EBD00000DB407FEFDCFE2
:100590008EB59EBD00000DB407FEFDCF9EB508953B
:1005A0008CBD9DBD0895CF93CFB7F8948091B902CB
:1005B000811127C0E0ECF1E08491E4EDF1E0949149
:1005C000E82FF0E0EE0FFF1FEE55FE4FA591B4911E
:1005D000EC91E92321F461E08AE00E94F51B61E0DF
:1005E0008AE00E94421C8CB580618CBD8CB5806411
:1005F0008CBD61E08DE00E94421C61E08BE00E94B6
:10060000421C8091B9028F5F8093B902CFBFCF9116
:100610000895CF93DF93EC018093D4020E941A1ABD
:10062000FE01EA51FD4F81E08083FE01EE0FFF1FC6
:10063000E55FFE4F808191810E943E198CE08C9F86
:10064000B0018D9F700D1124072E000C880B990BA3
:100650000E94BF29AB01BC018091D2029091D302CC
:100660000E945701BC0180E0DF91CF910C940F19DB
:10067000CF93DF93ECE8F3E0ACE0B4E080E420E576
:1006800030E01082EF01C05CDF4F18822D933D9364
:10069000C054DF4F1882C05CDF4F1882C05CDF4F50
:1006A0001882C05CDF4F1882815031968111E9CFEA
:1006B00082E380938C0590E190938D0591E0909377
:1006C0008E0510928F05809390051092910584E01D
:1006D0008093920588E180939405DF91CF910895EE
:1006E000CF92DF92EF92FF9280918A02882359F095
:1006F00080919105843039F48091920524E0829FA5
:10070000C001112403C080918C0590E090930A01F0
:10071000809309016091090170910A01072E000C74
:10072000880B990B0E94BF2920E030E048EC52E48E
:100730000E9415296B017C016091870370918803E9
:10074000072E000C880B990B0E94BF299B01AC015E
:10075000C701B6010E94742A0E9487297093B702CC
:100760006093B602FF90EF90DF90CF900895CF9303
:100770009C0160938A02809108018093B802909155
:100780009105943021F4C901CF910C9470039530F8
:1007900039F4C62F80E00E94F51BC093880204C084
:1007A000963011F410928902CF9108950F93FB01B6
:1007B0008081811102C047FD0BC0840F081710F41F
:1007C000008305C0821710F0808301C020838081E0
:1007D0000F9108950F931F93CF93DF93E0919105AD
:1007E0000E2F10E00A30110508F057C0462FEC011B
:1007F000F801E55CFF4F0C948E2808E020E062E9E8
:1008000075E00E94D6038091920590E0049748C05D
:1008100000E320E062E975E00E94D6038091920532
:1008200090E048973DC004E621E062E975E00E944F
:10083000D603CE010E9470038091920524E0829F2E
:10084000C00111242DC001E020E062E975E0CE0175
:100850000E94D60322C000E101C002E321E0F5CFEF
:1008600004E621E062E975E00E94D603CE010E9411
:10087000250113C008E021E062E975E00E94D6037B
:100880006091920570E080918703909188030E94A7
:100890007A2870938702609386028091920590E097
:1008A000DF91CF911F910F91089520918F05CB017A
:1008B000820F911D97FF02C080E090E08A30910581
:1008C00014F089E090E080938F05FC01EE0FFF1F8C
:1008D000EF52FE4F60817181A1E2B3E020E030E091
:1008E000FB01E20FF31FE49141E0E11101C040E0A0
:1008F0004D932F5F3F4F2D30310591F70895CF92E3
:10090000DF92EF92FF92CF93DF93C0918703D09154
:1009100088036091900570E080E090E00E94BD291E
:100920006B017C01BE010D2E000C880B990B0E94FF
:10093000BF299B01AC01C701B6010E94742A20E0C7
:1009400030E048E452E40E9415296B017C01609379
:100950008D0270938E0280938F0290939002BE015D
:10096000660F771F072E000C880B990B0E94BF297A
:10097000A70196010E94A3286093910270939202AE
:100980008093930290939402DF91CF91FF90EF9028
:10099000DF90CF900895CF93DF93EC0180913A01DF
:1009A000680F711D6B3F710534F4643171052CF4CF
:1009B00064E170E002C06AEF70E0262F60933A01B4
:1009C00088E99AE30E947A2870938A0360938903E6
:1009D0008091DC05882321F070938803609387035E
:1009E00020939305CE010E947F046091920570E0F0
:1009F00080918703909188030E947A2870938702E0
:100A000060938602CE010E94250180913A0190E018
:100A1000DF91CF910895CF93DF93EC0180913B015B
:100A20008F5F80933B01082E000C990B20918D0560
:100A300030E08217930714F010923B0180918B02F3
:100A4000811107C081E080938B0261E082E00E9407
:100A5000F51B80917F02E09108010E2E000CFF0B28
:100A6000E45BFA4F882321F080917E02808313C0DB
:100A7000908180918A02992321F081110CC061E05C
:100A800007C0882341F080917E02811104C060E09C
:100A9000CE010E94B70380918A028823D1F1809110
:100AA0009105811127C080910801482F082E000C64
:100AB000550B2091B80230E04217530761F4909132
:100AC0009205891B8F5F8093080187FF26C0909154
:100AD0008D05890F20C08F5F80930801082E000CC0
:100AE000990B20918D0530E082179307B1F4109295
:100AF000080113C0813059F480910801815080931E
:100B0000080187FF0AC080918D05815004C085309F
:100B100021F080913B018093080180910801E82F2A
:100B2000082E000CFF0BE453FB4F9081992351F0EA
:100B3000809336018091820290918302909381028A
:100B40008093800281E080939502DF91CF91089598
:100B50008EBD00000DB407FEFDCF8EB50895CF9376
:100B6000DF9300D0CDB7DEB7CE0101960E94780D9D
:100B700089819A810E94D002E091BB02F091BC026F
:100B800092818091BA028095892382838091BE02EE
:100B900081FF18C080E70E94A80580E00E94A80598
:100BA000E091BB02F091BC0222819091BA02922B9B
:100BB000928387FFD9CF1092BD020F900F90DF91E3
:100BC000CF91089585E00E94A80580E00E94A805C5
:100BD000E091BB02F091BC0222819091BA02922B6B
:100BE000928380FDC1CFE7CF0F931F93CF93DF9305
:100BF00000D0CDB7DEB78C018091BD0281110E947B
:100C0000AF05CE0101960E94780D89819A810E94DC
:100C1000D002E091BB02F091BC0292818091BA02B5
:100C20008095892382838FE90E94A80580E00E9435
:100C3000A805F801808380E00E94A805F80181835F
:100C400080E00E94A805F80182838081813051F400
:100C500080E00E94A805F801838380E00E94A80537
:100C6000F8018483E091BB02F091BC0292818091F3
:100C7000BA02892B82830F900F90DF91CF911F9141
:100C80000F910895FF920F931F93CF93DF93CDB7EA
:100C9000DEB727970FB6F894DEBF0FBECDBF8091A9
:100CA000BD0281110E94AF05CE0101960E94F4059C
:100CB0008981803209F066C09B8180EE890F833084
:100CC00008F060C0913211F424E001C022E080916C
:100CD000BE02082F10E036E0159507953A95E1F72A
:100CE0008F738093BE02021708F07DC0923219F410
:100CF00028E0F22E02C092E0F92ECE0106960E9464
:100D0000780D8E819F810E94D002E091BB02F0910C
:100D1000BC0292818091BA0280958923828386E009
:100D20000E94A805E091BB02F091BC0292818091E3
:100D3000BA02982B9283928180958923828384ECD6
:100D40000E94A80580E0F09E902D11240E94B3021D
:100D500080E090E00E94B302E091BB02F091BC02FF
:100D600092818091BA02892B82830F5F1F4F86E0A8
:100D7000000F111F8A95E1F78091BE02082B0093A6
:100D8000BE022EC0CE0106960E94780D8E819F81F4
:100D90000E94D002E091BB02F091BC02928180914E
:100DA000BA0280958923828386E00E94A805E0919B
:100DB000BB02F091BC0292818091BA02982B92837F
:100DC000928180958923828387EC0E94A805E09117
:100DD000BB02F091BC0292818091BA02892B82837E
:100DE00083E08093BD0227960FB6F894DEBF0FBE56
:100DF000CDBFDF91CF911F910F91FF900895CF93B9
:100E0000DF9300D0CDB7DEB78091BD02811102C063
:100E100081E042C0CE0101960E94780D89819A81BD
:100E20000E94D002E091BB02F091BC0292818091BD
:100E3000BA028095892382838091BE0281FF1AC005
:100E400080E70E94A80580E00E94A805E091BB020F
:100E5000F091BC0222819091BA02922B928387FF7B
:100E60001AC01092BD028091BE02807C89F20E945D
:100E7000420611C085E00E94A80580E00E94A805F6
:100E8000E091BB02F091BC0222819091BA02922BB8
:100E9000928380FFE6CF80E00F900F90DF91CF919B
:100EA00008952F923F924F925F926F927F928F920E
:100EB0009F92AF92BF92CF92DF92EF92FF920F93E9
:100EC0001F93CF93DF9300D000D000D0CDB7DEB713
:100ED0006B837C838D839E831A0148015901809125
:100EE000BD0281110E94AF05CE0101960E94780DCE
:100EF00089819A810E94D002E091BB02F091BC02EC
:100F000092818091BA0280958923828386E00E9433
:100F1000A805E091BB02F091BC0292818091BA02D7
:100F2000982B928340E051E060E070E02B81421BFF
:100F300051096109710975016401481559056A056E
:100F40007B0510F46A017B0192818095892382835D
:100F50008091BE022B813C814D815E812A016624F5
:100F6000772480FF05C082E00E94A805C20103C06B
:100F7000C201992792600E94B3028B819C810E94DA
:100F8000B3028B819C81AD81BE818C0D9D1DAE1DF8
:100F9000BF1D8B839C83AD83BE838C189D08AE08D8
:100FA000BF08810126013701D8018D918D010E9472
:100FB000A805B1E04B1A510861087108A9F7E1E0F2
:100FC000CE1AD108E108F108FFEFCF1ADF0A2C0C86
:100FD0003D1CE091BB02F091BC0292818091BA026B
:100FE000892B828324E02093BD0281149104A10403
:100FF000B10409F074CF26960FB6F894DEBF0FBE89
:10100000CDBFDF91CF911F910F91FF90EF90DF90B7
:10101000CF90BF90AF909F908F907F906F905F9098
:101020004F903F902F9008952F923F924F925F9252
:101030006F927F928F929F92AF92BF92CF92DF92E8
:10104000EF92FF920F931F93CF93DF93CDB7DEB74D
:1010500028970FB6F894DEBF0FBECDBF6B017C01A1
:101060001A0148015901A80160E070E0C1010E9425
:10107000E12A0091BE02CE0101960E94780D89817D
:101080009A810E94D0021091BD02112309F483C0FD
:10109000E091BB02F091BC0292818091BA028095EE
:1010A000892382838091BE0281FF0AC080E70E946B
:1010B000A80580E00E94A80587FF0AC010E008C0CC
:1010C00085E00E94A80580E00E94A80580FFF6CF79
:1010D000E091BB02F091BC0292818091BA02982B00
:1010E0009283111103C01092BD0255C0133008F055
:1010F00047C0928180958923828386E00E94A8055B
:10110000E091BB02F091BC0282819091BA02892BDE
:10111000828302FF02C0113011F085E701C085E82B
:1011200022819095922392830E94A805E091BB02B0
:10113000F091BC0292818091BA02982B92838095A3
:1011400092818923828301FF09C080E70E94A8055C
:1011500080E00E94A80587FFFBCF08C085E00E94C1
:10116000A80580E00E94A80580FDFBCFE091BB02AE
:10117000F091BC0292818091BA02892B82830BC0CC
:101180000E94AF05CE0101960E94780D89819A8157
:101190000E94D00210E0802F88708F83902F917072
:1011A0009887AF81AA2311F1D701C601880D991D37
:1011B000AA1DBB1D0197A109B1098C259D25AE254E
:1011C000BF2588279927AA27BE7F892B8A2B8B2B9F
:1011D00069F0D701C601B170412C512C612C22E07D
:1011E000722E481A590A6A0A7B0A02C02401350184
:1011F000E091BB02F091BC0292818091BA0280958D
:1012000089238283C701AA27BB278B839C83AD8355
:10121000BE839885992331F083E00E94A8058B81D5
:101220009C8104C08B819C81992793600E94B302AA
:10123000C6010E94B302920141145104C1F0D101D0
:101240008C918EBDF101C201019741F051810DB425
:1012500007FEFDCF4EB55EBD4193F6CFF901319744
:10126000E20DF31D0DB407FEFDCF8EB58083E09136
:10127000BB02F091BC0292818091BA02982B9283BA
:10128000220E331EC40CD51CE61CF71C84189508CE
:10129000A608B70809F085CF112331F19281809516
:1012A0008923828386E00E94A805E091BB02F09129
:1012B000BC0282819091BA02892B828302FF04C012
:1012C000113011F48AE801C08AE7228190959223B7
:1012D00092830E94A805E091BB02F091BC0292812A
:1012E0008091BA02892B828328960FB6F894DEBFCC
:1012F0000FBECDBFDF91CF911F910F91FF90EF9067
:10130000DF90CF90BF90AF909F908F907F906F9025
:101310005F904F903F902F9008950F931F93CF931E
:10132000DF93CDB7DEB728970FB6F894DEBF0FBEB8
:10133000CDBF08E010E020E030E0AE014F5F5F4F2E
:1013400060E070E0CB010E94140889819A81AB8132
:10135000BC818C3425E5920726E9A2072AEFB20763
:10136000F1F18F3F9F4FAF4FBF4F21F060E070E032
:10137000CB0139C08CE495E5A6E9BAEF89839A835D
:10138000AB83BC8388E592E0A6EFB8E18D839E83B2
:10139000AF83B88708E010E020E030E0AE014F5F97
:1013A0005F4F60E070E0CB010E9451070E94FF0692
:1013B0008823E1F308E010E020E030E0AE014F5F69
:1013C0005F4F60E070E0CB010E94140889819A8130
:1013D000AB81BC818C349545A649BA4F39F66D81F5
:1013E0007E818F81988528960FB6F894DEBF0FBE58
:1013F000CDBFDF91CF911F910F9108950F931F9350
:10140000CF93DF930BE011E0C0E0D0E0CE010E946B
:10141000DD2790E0845691099C0197FF04C02227A4
:101420003327281B390BF801243631051CF491832E
:10143000808302C01182108221960E5F1F4FC93037
:10144000D10521F7DF91CF911F910F910895CF9290
:10145000DF92EF92FF920F931F93EFB7F8940091F2
:10146000D8051091D9052091DA053091DB05EFBF41
:1014700068017901C41AD50AE60AF70AFC01C0829C
:10148000D182E282F3821F910F91FF90EF90DF9063
:10149000CF9008954091890350918A0360E070E0F5
:1014A00083E893E00E94270A8FEF80933B018093AB
:1014B00008011092950281E08093050108950F9331
:1014C0001F93FC012FB7F8948091D8059091D9050E
:1014D000A091DA05B091DB052FBF00811181228137
:1014E0003381BC01CD01601B710B820B930B1F91EB
:1014F0000F910895CF93DF9300D000D0CDB7DEB722
:1015000080910801082E000C990B9C01261B370BBB
:1015100037FF07C020918D05820F911D9C01261B6E
:10152000370B8091870390918803289FA001299F02
:10153000500D389F500D1124052E000C660B770BB3
:101540008091830390918403A0918503B0918603D9
:10155000841B950BA60BB70B89839A83AB83BC8343
:10156000CE0101960E945F0ACB010F900F900F9061
:101570000F90DF91CF9108958F929F92AF92BF927B
:10158000CF92DF92EF92FF92CF93DF9340918A0246
:10159000442309F469C020919105263009F064C004
:1015A000209189022111E9C06091B80270E00E9487
:1015B0007A0AEC012091920580918703909188032B
:1015C000289FB001299F700D1124072E000C880B55
:1015D000990B0E94BF296B017C016091820270917E
:1015E0008302072E000C880B990B0E94BF294B0128
:1015F0005C01BE01DD0F880B990B0E94BF299B0186
:10160000AC01C701B6010E94A3289B01AC01C50132
:10161000B4010E94742AA70196010E9415296B014A
:101620007C0120E030E040E85FE30E941029881F41
:101630008827881F80938902B701A60180917A02CA
:1016400090917B020E945701BC0180E00E940F191B
:1016500080918902882309F490C060E080E00E94B4
:10166000F51B1092880289C060913601062E000C8D
:10167000770B9B0124573C4FF901E05CFE4F5081F2
:10168000552329F0E05CFF4F2081211108C044233D
:1016900009F473C020919105243009F06EC00E94B6
:1016A0007A0AC091B602D091B7028C179D070CF050
:1016B00047C010928902AE01481B590B209180024D
:1016C00030918102429FB001439F700D529F700D77
:1016D00011244091820250918302849F9001859F42
:1016E000300D949F300D1124620F731F072E000CD4
:1016F000880B990B0E94BF296B017C01BE01DD0F95
:10170000880B990B0E94BF299B01AC01C701B60150
:101710000E941529AB01BC0180917A0290917B0255
:101720000E945701BC0180E0DF91CF91FF90EF90C4
:10173000DF90CF90BF90AF909F908F900C940F1937
:1017400080918902811119C0609182027091830297
:10175000072E000C880B990B0E94BF29AB01BC011E
:1017600080917A0290917B020E945701BC0180E037
:101770000E940F1981E080938902DF91CF91FF9041
:10178000EF90DF90CF90BF90AF909F908F90089593
:10179000CF92DF92EF92FF92CF93DF93EC01E09133
:1017A00008010E2E000CFF0BE453FB4F80812091AB
:1017B0008A02882309F478C12223F1F080919105EF
:1017C0008630D1F4CE010E94BC0A80918902811139
:1017D00078C1E09136010E2E000CFF0BE453FB4F55
:1017E00060810E94F51BE09136010E2E000CFF0B6C
:1017F000E453FB4F808163C110928902E09136016E
:101800000E2E000CFF0BE457FC4F8081082E000CBD
:10181000990B9093B5028093B4021092B302109288
:10182000B2022223E9F020919105273061F40E9451
:1018300091276091920570E00E947A282091B4026D
:101840003091B50207C0233059F42091920530E061
:1018500028513109820F931F9093B5028093B402EF
:101860008091B4029091B5028D3091057CF0853263
:1018700091051CF023E030E01AC0883191051CF47A
:1018800021E030E014C022E030E011C0843F2FEFAF
:101890009207CCF48D3D2FEF920724F0893E2FEF75
:1018A00092071CF42EEF3FEF02C02FEF3FEF309373
:1018B000B3022093B2026CE070E00E947A28909309
:1018C000B5028093B4028091B4029091B5029C015C
:1018D00097FF02C0245F3F4FF901EF5DFC4F20816D
:1018E000211129C020918F05233049F49C0197FFD5
:1018F00002C0245F3F4FF901EC53FE4F13C0243068
:1019000049F49C0197FF02C0245F3F4FF901E9545D
:10191000FE4F08C09C0197FF02C0245F3F4FF901B2
:10192000E655FE4F2081820F911D27FD9A959093D9
:10193000B5028093B40280913601082E000C990BF9
:1019400084579C4FFC01E05CFF4F4081042E000C4B
:10195000550B4D5F5F4F6CE0649FF001659FF00D8C
:1019600011242091B4023091B5022E0F3F1F4091F7
:101970009405042E000C550B48515109240F351FB6
:10198000E091B202F091B3026E9FA0016F9F500DE3
:101990001124240F351F309383022093820240913B
:1019A0008A024423A1F040919105423081F4409194
:1019B000920550E044505109649FF001659FF00D7D
:1019C00011242E0F3F1F3093830220938202FC01CB
:1019D000E058FE4F8081882321F0CE010E94BC0A8E
:1019E00016C06091820270918302072E000C880B52
:1019F000990B0E94BF29AB01BC0180917A029091A2
:101A00007B020E945701BC0180E00E940F19E09107
:101A100036010E2E000CFF0BE453FB4F608180E07B
:101A20000E94F51B80913601082E000C990B8457FB
:101A30009C4FFC01E05CFE4F208120938802E05423
:101A4000F109608188E26802B001112481E00E94FE
:101A50000F19E0913601EE0FFF0BE45FFB4F608141
:101A6000718180E090E00E94BD2920E030E048ECE8
:101A700052E40E9415296B017C01609187037091EB
:101A80008803072E000C880B990B0E94BF299B012D
:101A9000AC01C701B6010E94742A0E948E2970937E
:101AA0000701609306010DC0222359F08091910532
:101AB000883039F461E080E00E94F51B81E080937A
:101AC0008802DF91CF91FF90EF90DF90CF90089543
:101AD0001092D8020E941A1A8091D7020E94221AEC
:101AE0000E944E1780913603909137030C943E1953
:101AF00020E5FC01208321E0218308951092E1027A
:101B00008091D8029FEF980F943088F4813021F4AF
:101B100060E080E00E94F51B0E94680D41E050E00B
:101B200064E670E081E00E94ED1981E0089580E0B4
:101B300008952F923F924F925F926F927F928F9271
:101B40009F92AF92BF92CF92DF92EF92FF920F934C
:101B50001F93CF93DF93CDB7DEB7C254D1090FB631
:101B6000F894DEBF0FBECDBF9AAB89AB8EE0A9A9BA
:101B7000BAA91D928A95E9F70E948D096115710530
:101B80008105910509F430C19B01AC01442755271B
:101B90002BAB3CAB4DAB5EABE0E2F1E065EC7DE93D
:101BA0008CE191E82191222391F0022F220F110B59
:101BB000220B330BA90198012627372748275927DD
:101BC00063E971E080E091E00E945628EBCF2EEFB0
:101BD0003FEF40E050E00E942528DC01CB01019658
:101BE000A11DB11D9EAF8DAFA3E0B0E02BA93CA914
:101BF0004DA95EA90E94122869AF7AAF8BAF9CAF46
:101C0000C12CD12C7601DA01C9010496A11DB11DA8
:101C100023968CAF9DAFAEAFBFAF23972BA93CA946
:101C20004DA95EA9C216D306E406F50608F0DCC08D
:101C300049015A018C189D08AE08BF0838E0831688
:101C40009104A104B10428F0F8E08F2E912CA12C6E
:101C5000B12CD701C6010496A11DB11DBC01CD0157
:101C6000660F771F881F991F95018401000F111FB0
:101C7000221F331FAE014F5E5F4F0E941408AE015A
:101C80004F5E5F4F58AF4FAB1DA61EA61FA618AAEA
:101C90008DA59EA5AFA5B8A988169906AA06BB066C
:101CA00009F49DC0AFA9B8AD8D919D91B8AFAFAB10
:101CB000EDADFEAD8E179F0709F069C019A61AA6F3
:101CC0001BA61CA6A5E0B0E02DA53EA54FA558A9D2
:101CD0002C0D3D1D4E1D5F1D0E94122823962CAD1C
:101CE0003DAD4EAD5FAD2397260F371F481F591FDF
:101CF000CA01B901660F771F881F991F0AE010E01B
:101D000020E030E0AE014F5D5F4F0E94140849A40F
:101D10005AA46BA47CA432E0430E511C611C711CBC
:101D200089AD9AADABADBCAD480E591E6A1E7B1E87
:101D300032E0440C551C661C771C3A95D1F740E202
:101D4000242E41E0342E00E110E020E030E0AE012E
:101D50004F5F5F4FC301B2010E94140890E1490E2A
:101D6000511C611C711CFE0131969101205F3F4F97
:101D7000C1010196DC0111974C915191451309C0A5
:101D80004423A1F019018217930799F7DCCF01963C
:101D900059F12DA53EA54FA558A92F5F3F4F4F4F95
:101DA0005F4F2DA73EA74FA758AB72CF89A19AA12D
:101DB000ABA1BCA1E9A9FAA980839183A283B383D3
:101DC0008DA19EA1AFA1B8A584839583A683B78377
:101DD0002DA53EA5C20ED31ED586C48605C0C80C4F
:101DE000D91CEA1CFB1C1ACF89A99AA9CE5BDF4F2C
:101DF0000FB6F894DEBF0FBECDBFDF91CF911F911C
:101E00000F91FF90EF90DF90CF90BF90AF909F9099
:101E10008F907F906F905F904F903F902F9008959C
:101E2000CF93DF93CDB7DEB72E970FB6F894DEBF12
:101E30000FBECDBFCE0101960E94990D81E0498170
:101E40005A816B817C81452B462B472B09F480E01E
:101E50002E960FB6F894DEBF0FBECDBFDF91CF91A7
:101E60000895CF93DF9300D01F92CDB7DEB74AE03D
:101E7000BE016F5F7F4F0E94A82784E1E0E2F1E09E
:101E8000DF011D928A95E9F7BE016F5F7F4FCF0199
:101E90000E94F32A6FE672E080E291E00E94E82A55
:101EA00080E291E00F900F900F90DF91CF91089515
:101EB0000F93CF93DF93BC018091D802813031F52D
:101EC000C091D402D0E09E01220F331FF901E55FDB
:101ED000FE4F40815181640F751FCB018D599F4F7B
:101EE000873C910510F471836083F901E55FFE4F33
:101EF000808191810E943E19C930D1050CF057C1F3
:101F0000CE01DF91CF910F910C9409039091E102E2
:101F1000911105C09EEF980F923080F505C0811198
:101F200003C082E08093D80240911F01640F19F032
:101F300060931F0103C083E680931F0180911F01FE
:101F4000843618F081E080931F01C0911F01D0E01A
:101F5000CE010E943E19CE010E94310F0E94100F47
:101F6000809309030E94321940E050E06CE271E076
:101F700081E0DF91CF910F910C94ED19843009F03D
:101F80000CC180911E018A30A1F48091D002909101
:101F9000D1020E945504880F991FFC01E257FE4FA1
:101FA000659174918DED92E00E94A1278DED92E0F4
:101FB0003FC0853109F041C0C091D002D091D1021B
:101FC00009E020E0462F61E975E0CE010E94D603CA
:101FD000E09191058E2F90E08A309105A8F4FC01E4
:101FE000EB5BFF4F0C948E2880918C050BC088E131
:101FF00009C085E007C084E005C088E003C080E533
:1020000001C082E08093920560E070E0CE010E9402
:10201000EA03E0919105F0E0EE0FFF1FE658FE4F56
:102020006591749189ED92E00E94A12789ED92E07B
:10203000DF91CF910F910C94B4198B3009F459C0F2
:1020400028F4883099F08930C1F0A0C0893139F086
:102050008A3109F46AC08C3009F098C082C080913E
:10206000D0029091D1020E94EA0392C08091D002E6
:102070009091D1020E94CB048BC08091CF0220911D
:102080008D05882311F161157105F9F030E0A6EE98
:10209000B1E041E050E0CA01ED910E2E000CFF0BC3
:1020A000E217F3072CF44F5F5F4F4730510599F764
:1020B0001616170614F4019601C00197FC01EB51A6
:1020C000FE4F808180938D050FC0620F711D6134BA
:1020D000710534F4161617062CF061E070E002C0AA
:1020E00060E470E060938D0580918D0580938B0393
:1020F00036C08091D0029091D10220919005620F5C
:10210000711D6B35710534F46A3071052CF46AE089
:1021100070E002C06AE570E06093900560E070E0F6
:102120000E94CB04809190051AC08091D0029091BA
:10213000D10220918C05620F711D6F3F710509F06E
:1021400034F4161617062CF061E070E002C06FEF51
:1021500070E060938C050E94700380918C0590E084
:1021600017C0809194059B01280F311D87FD3A957A
:10217000C90137FF02C080E090E08133910514F07F
:1021800080E390E080939405489702C080E090E05F
:10219000DF91CF910F910C943E1980911D01809396
:1021A0001F0190E00E943E1981E08093E102DF91DF
:1021B000CF910F9108952F923F924F925F926F921D
:1021C0007F928F929F92AF92BF92CF92DF92EF92C7
:1021D000FF920F931F93CF93DF93CDB7DEB7EE97A8
:1021E0000FB6F894DEBF0FBECDBF8093CE0288231A
:1021F00009F4D6C38091D802813029F51092D80213
:102200007BE0C72E71E0D72E00E010E0D6018C9164
:10221000B2E0CB0ED11C64E6F62EF80EC8010E9487
:10222000DD27F81621F06F2DC8010E94E5270F5F0A
:102230001F4F0930110551F760E080E00E94F51B47
:102240000E94680DADC3833009F0C6C110911F0113
:102250000E94FF06882309F42FC1812F90E00E947D
:10226000310F0E94100F81110FC08091BE0285FDB9
:1022700025C184FFC7C100E010E024E030E00BA7D7
:102280001CA72DA73EA722C1CE014D960E94990DF5
:102290008EE0FE017D96AFEBB2E001900D928A9543
:1022A000E1F78091BE02982F907184FF09C000E091
:1022B00010E024E030E00FA718AB29AB3AAB08C020
:1022C00020E030E041E050E02FA738AB49AB5AABFB
:1022D00085FD08C0992361F0812C912C44E0A42E47
:1022E000B12C0AC0812C30E1932EA12CB12C04C05A
:1022F000812C912C5401A394950184010150110962
:10230000210931094091BF025091C0026091C10280
:102310007091C2024023512362237323452B462B25
:10232000472B11F082E040C18091C3029091C4021A
:10233000A091C502B091C60280239123A223B323AA
:10234000892B8A2B8B2B71F71BA61CA61DA61EA6FC
:102350008091C3029091C402A091C502B091C602BF
:102360000BA51CA52DA53EA5081719072A073B0795
:10237000C8F62090BE02C090BF02D090C002E0908C
:10238000C102F090C2028091BD022FA538A949A9CF
:102390005AA982169306A406B506B8F50BA51CA586
:1023A0002DA53EA5C00ED11EE21EF31E81110E9476
:1023B000AF05CE0101960E94780D89819A810E9415
:1023C000D0020091BB021091BC02D80112968C91F0
:1023D00012973090BA02732C7094872112968C93C6
:1023E00086E00E94A805F801828183298283828188
:1023F0007822728227016624772420FE02C080E2C0
:1024000036C0C2019927906239C00BA51CA52DA525
:102410003EA5C00ED11EE21EF31E81110E94AF0523
:10242000CE0101960E94780D89819A810E94D00286
:102430000091BB021091BC02D80112968C911297A8
:102440003090BA02732C7094872112968C9386E098
:102450000E94A805F80182818329828382817822E3
:10246000728227016624772420FE05C088ED0E9431
:10247000A805C20103C0C2019927986D0E94B3024A
:10248000C6010E94B302D80112968C911297382A85
:1024900012963C920E94B202B2E0B093BD020BA52C
:1024A0001CA52DA53EA5080D191D2A1D3B1D0BA71A
:1024B0001CA72DA73EA74CCF80E076C020E030E1DE
:1024C00040E050E02BA73CA74DA75EA70E94100F4D
:1024D000811169C00E948D096B017C016115710534
:1024E0008105910509F45FC09B01AC014427552784
:1024F0002FA738AB49AB5AAB812C912C5401D50195
:10250000C4010896A11DB11D0FA518A929A93AA9B2
:10251000081719072A073B0708F07DC02801390171
:10252000481859086A087B08D501C4010496A11D02
:10253000B11DBC01CD01660F771F881F991F930144
:102540008201000F111F221F331FAE014F5F5F4F2B
:102550000E941408FE01319680E090E0DC014816EC
:1025600059066A067B0609F460C0219131912F3F1C
:102570003F4F09F056C0A5019401280F391F4A1F8B
:102580005B1F2BAB3CAB4DAB5EAB2FA538A949A96C
:102590005AA98BA99CA9ADA9BEA982179307A40724
:1025A000B50708F458C081E090911F0190931D0178
:1025B0008150823060F481E08093CD0245E050E0AC
:1025C00064E670E00E94ED191092D802E9C184E738
:1025D00092E00E94B419E4C18091CD028111E0C162
:1025E00083E08093D80280911D0180931F0190E0C9
:1025F0000E943E1940E050E06CE271E081E00E94F0
:10260000ED19CEC180E090E0A1E0B0E08BA79CA7DF
:10261000ADA7BEA75BCF58E0452E512C612C712C85
:1026200083CF0196A11DB11D9ACF840C951CA61CC9
:10263000B71C8FA598A9A9A9BAA988169906AA06B0
:10264000BB0608F45CCF0FEF1FEF98010BAB1CAB80
:102650002DAB3EAB9ACFACE0B0E00E9412286FAB3E
:1026600078AF89AF9AAF4B015C0198E0890E911C5D
:10267000A11CB11C0BA91CA92DA93EA9012B022B41
:10268000032BA1F4CC24DD240EE0F694E794D79438
:10269000C7940A95D1F7A7019601280D391D4A1D47
:1026A0005B1D2BAF3CAF4DAF5EAF86C0198E1A8E4F
:1026B0001B8E1C8E1E0131E1230E311CA5E0B0E003
:1026C0002BA93CA94DA95EA90E9412280FA518A903
:1026D00029A93AA90150110921093048DC01CB018F
:1026E000800F911FA21FB31FBC01CD01660F771F82
:1026F000881F991F0AE010E020E030E0A1010E944D
:10270000140849895A896B897C898D899E89AF898A
:10271000B88D8A019B01080F191F2A1F3B1F0BAFA1
:102720001CAF2DAF3EAF898D9A8DAB8DBC8D12E065
:10273000880F991FAA1FBB1F1A95D1F76C017D0145
:10274000C80CD91CEA1CFB1C46015701412C512C1A
:10275000320100E110E020E030E0AE014F5F5F4F5A
:10276000C501B4010E941408FE013196D301C201D3
:102770001FEF411A510A610A710A2191211111C0FA
:102780004601570124E0820E911CA11CB11C880E49
:10279000991EAA1EBB1E3CEF832233E0A322BB245A
:1027A0000BC0D301C2012E163F0611F740E1840E83
:1027B000911CA11CB11CCDCF8BA59CA5ADA5BEA520
:1027C0000197A109B1090BAD1CAD2DAD3EAD080FB0
:1027D000191F2A1F3B1FC901B8012BA53CA54DA5F8
:1027E0005EA50E942528CA01B9012BA53CA54DA5CF
:1027F0005EA50E9456286B017C01CA01B901615097
:10280000704F8F4F9F4F0E942528CA01B9012BA5F9
:102810003CA54DA55EA50E9456282B013C01E0E297
:10282000F1E001900020E9F731978F01005211404B
:10283000CE0101960E94F405A7019601240D351DD5
:10284000461D571D2BA73CA74DA75EA7CE0101969D
:102850000E9476022BA53CA54DA55EA562177307C5
:102860008407950708F49FCE20E030E00F5F1F4FEC
:102870002F4F3F4F40E251E0C501B4010E94510784
:10288000C98ADA8AEB8AFC8A4D8A5E8A6F8A788ED8
:102890008FA998ADA9ADBAAD881A990AAA0ABB0A40
:1028A00098E0891A9108A108B10862E0B694A7944B
:1028B000979487946A95D1F7898E9A8EAB8EBC8E49
:1028C000A5E0B0E02BA93CA94DA95EA90E94122861
:1028D0000FA518A929A93AA90C5F1F4F2F4F3F4FE9
:1028E000DC01CB01800F911FA21FB31FBC01CD01E2
:1028F000660F771F881F991F0AE010E020E030E084
:10290000AE014F5E5F4F0E9451070E94FF06882371
:10291000E1F3E0E2F1E065EC7DE98CE191E8219101
:10292000222391F0022F220F110B220B330BA9014E
:102930009801262737274827592763E971E080E067
:1029400091E00E945628EBCF2EEF3FEF40E050E0A1
:102950000E942528DC01CB010196A11DB11D898BA8
:102960009A8BAB8BBC8B8BA89CA8ADA8BEA8A4E00F
:102970008A0E911CA11CB11CC501B401660F771F02
:10298000881F991F02E010E020E030E0AE014F5EAA
:102990005F4F0E9451070E94FF068823E1F303CE98
:1029A000EE960FB6F894DEBF0FBECDBFDF91CF918C
:1029B0001F910F91FF90EF90DF90CF90BF90AF905D
:1029C0009F908F907F906F905F904F903F902F904F
:1029D0000895CF92DF92EF92FF920F931F93FC0125
:1029E0006A017B014091C7025091C8026091C902FF
:1029F0007091CA020091C3021091C4022091C502D5
:102A00003091C602DB01CA018C0D9D1DAE1DBF1D9C
:102A1000081719072A073B0758F4401751076207A0
:102A2000730780F568017901C41AD50AE60AF70A26
:102A30000091BF021091C0022091C1023091C202E8
:102A4000CB01BA01600F711F821F931F970186018E
:102A5000AF010E9414088091C7029091C802A09112
:102A6000C902B091CA028C0D9D1DAE1DBF1D809381
:102A7000C7029093C802A093C902B093CA02B601DC
:102A8000C70104C060E070E080E090E01F910F910A
:102A9000FF90EF90DF90CF900895CF93DF93209138
:102AA0002003222309F448C0EC018FEC95E00E943A
:102AB0005F0A6A3071058105910550F42091BB05CC
:102AC0003091BC0588819981992782179307A1F1DC
:102AD00080911E0390911F030897F0F420911C032E
:102AE00030911D032F5F3F4F2770332788819981D5
:102AF000F901EE0FFF1FE65FFC4F91838083309357
:102B00001D0320931C0380911E0390911F030196C7
:102B100090931F0380931E03888199819927909336
:102B2000BC058093BB0540E050E0BA018FEC95E016
:102B3000DF91CF910C94270ADF91CF910895CF9325
:102B4000DF938631F8F4C82FD091A405D770DD0F3C
:102B5000D06460E08091A3050E94F51B8D2F0E9438
:102B6000A8058C2F0E94A805EC2FF0E0EF55FA4F36
:102B700084810E94A80561E08091A305DF91CF9137
:102B80000C94F51BDF91CF9108950F931F93CF9372
:102B9000DF93D82F01EA15E0F801C381C770CC0F8D
:102BA000C16460E082810E94F51B8C2F0E94A80501
:102BB0008D2F0E94A8058FEF0E94A805ED2FF0E051
:102BC000EF55FA4F848361E0F8018281DF91CF9164
:102BD0001F910F910C94F51BAC01440F551FFA0186
:102BE000E55BFD4F20812E3008F02E5060913701BB
:102BF00030E4639FB00111242770262B20937C00C2
:102C000020917A00206420937A0020917A0026FD9A
:102C1000FCCF209178006091790030E0362BFA01EA
:102C2000E953FA4F3183208310923A03FA01E154B9
:102C3000FA4F60817181F901E61BF70BBF01F7FFC5
:102C400003C0719561957109E0913801F0913901E6
:102C5000E617F7070CF0F3C061E060933903FA015F
:102C6000E154FA4F3183208320913803222309F461
:102C7000E6C08130910509F450C01CF4892B51F055
:102C800008958230910509F46DC08330910509F4EF
:102C900095C008956091C7057091C80510923503DD
:102CA00010923403072E000C880B990B0E94BF2949
:102CB00026E636E648E252E40E9415292AE939E977
:102CC00041E451E40E94A3280E948729AB0120918E
:102CD00033032111A3C09B0177FF02C0245F3F4F44
:102CE000F901EF5DFC4F2081222309F4A8C0209157
:102CF0003003222319F0E091360102C0E0912E0347
:102D0000F0E0E457FC4F2081022E000C330B60836F
:102D10004217530709F082C008952091C9053091E8
:102D2000CA059093350380933403C90168E770E0C6
:102D30000E947A28645071098091330381116EC01A
:102D4000962F80913003882319F0E091360102C05C
:102D5000E0912E03F0E0E453FC4F808160839813F0
:102D60005DC00895A091CB05B091CC05909335033B
:102D7000809334039D010E94942827E33AE040E0C9
:102D800050E00E94F3278091330381114CC0B901B8
:102D900080913003882319F0E091360102C0E09160
:102DA0002E03F0E0EE0FFF1FE45FFB4F8081918167
:102DB0003183208368177907B1F508956091CD05B7
:102DC0007091CE059093350380933403072E000C49
:102DD000880B990B0E94BF2924E13EEA43E251E4AB
:102DE0000E9415290E948729CB01209133032111CC
:102DF0001FC020913003222319F0E091360102C058
:102E0000E0912E03F0E0E457FB4F2081022E000CEE
:102E1000330B60838217930759F408957093370337
:102E20006093360309C0309337032093360304C000
:102E3000709337036093360381E080933A030895DB
:102E40008091BD059091BE050196843091052CF4CA
:102E50009093BE058093BD0504C01092BE051092EC
:102E6000BD058091BD059091BE05FC01EE0FFF1FD1
:102E7000ED5BFD4F4091340350913503208131814A
:102E80004217530719F424E030E002C02AE030E092
:102E900030933901209338010C94EC158091340360
:102EA000909135038130910589F01CF4892B39F01C
:102EB00008958230910589F00397D1F00895E0914B
:102EC0002E03F0912F03E457FC4F18C0E0912E031E
:102ED000F0912F03E453FC4F11C0E0912E03F091C9
:102EE0002F03EE0FFF1FE45FFB4F808191810AC02B
:102EF000E0912E03F0912F03E457FB4F8081082EC1
:102F0000000C990B909337038093360381E08093F4
:102F10003A030895982F883028F0985085E17DE095
:102F2000E1E003C084E17CE0E0E0492FF0E0EF5510
:102F3000FA4F248130E002C0359527959A95E2F743
:102F400020FD1EC0282F30E061110DC0F901EF55A2
:102F5000FA4F21E030E001C0220F4A95EAF72095B0
:102F6000948129230BC0F901EF55FA4F21E030E09D
:102F700001C0220F4A95EAF79481292B248311C0BE
:102F8000611111C0E72FF0E0EF55FA4F21E030E07A
:102F900001C0220F4A95EAF72095848128232483D3
:102FA000872F0C949F15E72FF0E0EF55FA4F21E0A3
:102FB00030E001C0220F4A95EAF78481282BEFCF39
:102FC000AF92BF92CF92DF92EF92FF920F931F9337
:102FD000CF93DF9300D0CDB7DEB78CB58F7D8CBD9E
:102FE00080917D0390917E030196843091052CF4AD
:102FF00090937E0380937D0304C010927E03109211
:103000007D0380917D038C5F803118F460E00E9425
:103010008A1782E10E94C51583E10E94C51580913F
:10302000B7059091B8059093800380937F0300E0EB
:1030300010E0EE24E394F12CE0917D03F0917E0307
:10304000EE0FFF1FEE0FFF1FE00FF11FEE0FFF1F30
:10305000E55CFC4F6081718120917F03309180039A
:103060002F703327A701002E02C0440F551F0A946A
:10307000E2F7242335233093820320938103002E2B
:1030800002C0369527950A94E2F791E0232B09F0C8
:1030900090E0FB01E55CFC4F80A1981769F090A3DC
:1030A000892F90E0982F8827862B972B9A838983E6
:1030B000CE0101960E944D150F5F1F4F0430110580
:1030C00009F0BACF80917D038C5F803118F461E004
:1030D0000E948A1780917F0390918003809590953C
:1030E000892F99278F779927909382038093810363
:1030F0006BE3E62E63E0F62E75E3C72E72E0D72E63
:1031000000E010E0AA24A394B12C80918103909157
:1031100082039501002E02C0220F331F0A94E2F7AA
:103120002823392391E0232B09F490E0F70182A9A9
:10313000981791F092ABF60120813181285F3F4FC3
:10314000892F90E0982F8827822B932B9A8389834D
:10315000CE0101960E944D150F5F1F4FFFEFEF1A32
:10316000FF0A82E0C80ED11C0730110571F60F90DE
:103170000F90DF91CF911F910F91FF90EF90DF9013
:10318000CF90BF90AF9008950F931F93CF93DF938D
:10319000982F162F883020F098500DE081E002C063
:1031A0000CE080E0113021F090F0123099F50FC062
:1031B000E82FF0E0EF55FA4F21E030E001C0220F98
:1031C0009A95EAF720959481292324831DC0E82F3E
:1031D000F0E0C1E0D0E001C0CC0F9A95EAF7EF55DE
:1031E000FA4F94819C2B94830E949F15E02FF0E06E
:1031F000EF55FA4F123019F48481C82B03C0C095E3
:103200008481C823C483802FDF91CF911F910F91B8
:103210000C949F15DF91CF911F910F9108950F93FB
:103220001F93CF938B016115704110F00FEF1FE0DA
:10323000C82FC795CC27C795C061C12B8CB58F7D92
:103240008CBD60E081E00E94F51B8C2F0E94A805D8
:10325000802F0E94A80561E081E0CF911F910F911E
:103260000C94F51B9091090380910603992311F0AA
:103270008E7F01C081608093060308950F931F9392
:10328000CF93DF939C018091340190913501821797
:10329000930709F464C03093350120933401890108
:1032A00037FF04C000271127021B130BCAE0D0E030
:1032B000C801BE010E947A28FC0190930303809309
:1032C0000203CB01BE010E947A28909301038093F0
:1032D000000337FF03C085E290E012C0C9018D5999
:1032E0009F4F873C910550F0C80164E670E00E9452
:1032F0007A28CB01BE010E947A2802C084E290E0C5
:103300009093FF028093FE02275F3F4F23313105E8
:1033100030F484E290E09093010380930003A09145
:10332000FE02B091FF02A35FBD4F8C918095809308
:103330000803A0910003B0910103A35FBD4F8C91DE
:10334000809580930703E35FFD4F80818095809394
:103350000603DF91CF911F910F910C943219DF91E9
:10336000CF911F910F910895DC0187EE93E0909328
:103370003501809334014C91042E000C550B4753BA
:103380005109EEEFF2E05183408311962C91119791
:10339000022E000C330B27533109338322831296FC
:1033A0008C91082E000C990BC79795838483E6E0D7
:1033B000F3E0DA01A35FBD4F4C9140954283D90100
:1033C000A35FBD4F2C9120952183DC01A35FBD4FEE
:1033D0008C91809580830C9432190F931F93CF9317
:1033E000DF938B01EA018093FD0240E050E0BA01D7
:1033F0008DE995E00E94270A1093FC020093FB02DE
:10340000D093FA02C093F902DF91CF911F910F91EF
:103410000895E091F702F091F802EA51FD4F908192
:1034200081E08927808340E050E0BA0185E995E09A
:103430000C94270AE6EEF2E0119282E0E63FF807EC
:10344000D9F708958093E40220E1829FC0011124FE
:10345000FC01E453FB4F20E1A6EEB2E001900D9297
:103460002A95E1F720912E0330912F032817390771
:1034700024F04096821793073CF480E190E090930B
:10348000F8028093F70208952F7033273093F802E3
:103490002093F70208953FB7F894809161069091C8
:1034A0006206A0916306B091640626B5A89B05C08C
:1034B0002F3F19F00196A11DB11D3FBFBA2FA92FB3
:1034C000982F8827820F911DA11DB11DBC01CD0130
:1034D00042E0660F771F881F991F4A95D1F708951C
:1034E0000F931F93CF93DF93CDB7DEB76A970FB6D5
:1034F000F894DEBF0FBECDBF80935F06882309F42A
:1035000005C18091CD02811101C18091D802823024
:10351000B9F580911F0190E00E94310FCE010D9608
:103520000E94990D8EE0FE013D96AFEBB2E0019056
:103530000D928A95E1F78091BF029091C002A0910F
:10354000C102B091C202892B8A2B8B2B69F5809125
:10355000D0029091D1020E94380341E050E064E62D
:1035600070E080E00E94ED191092D80280911F0156
:1035700080931D011092D70280E00E94221AC6C0DB
:103580008111C4C082E08093D80280911D01809394
:103590001F0190E00E943E1940E050E06CE271E0B3
:1035A00081E00E94ED19B2C040E450E060E070E0BC
:1035B0008CE893E00E94E91440E450E060E070E0A1
:1035C0008CEC93E00E94E91440E850E060E070E089
:1035D0008DED95E00E94E91440E450E060E070E079
:1035E0008CE894E00E94E91440E450E060E070E070
:1035F0008CEC94E00E94E91440E450E060E070E05C
:103600008CE095E00E94E91448E050E060E070E052
:10361000CE0101960E94E91444E050E060E070E0C1
:10362000CE0109960E94E91440E450E060E070E0A9
:103630008CE495E00E94E914EDEDF5E0ACE0B4E037
:103640002DE136E0819190E0982F882747AD840FD7
:10365000911D8D939D932E173F07A1F7898180932C
:103660008C058A8180938D058B8180938E058C815A
:1036700080938F058D81809390058E818093910535
:103680008F818093920568856093930589858093E7
:10369000940500915D0610915E068091DC05811114
:1036A0000DC070E088E99AE30E947A2870938A033B
:1036B00060938903709388036093870360E070E0F0
:1036C000C8010E94CB04C8010E94700360E070E052
:1036D000C8010E94550460E070E0C8010E94EA033E
:1036E00090918D0520918B03921751F080913B01B1
:1036F000821B890F87FD890F80933B0190938B0379
:1037000043E050E064E670E081E02CCF6A960FB6AB
:10371000F894DEBF0FBECDBFDF91CF911F910F9107
:103720000895CF92DF92EF92FF920F931F93FC01C7
:103730006A017B014091C7025091C8026091C902A1
:103740007091CA020091C3021091C4022091C50277
:103750003091C602DB01CA018C0D9D1DAE1DBF1D3F
:10376000081719072A073B0758F440175107620743
:10377000730780F568017901C41AD50AE60AF70AC9
:103780000091BF021091C0022091C1023091C2028B
:10379000CB01BA01600F711F821F931F9701860131
:1037A000AF010E9451078091C7029091C802A09179
:1037B000C902B091CA028C0D9D1DAE1DBF1D809324
:1037C000C7029093C802A093C902B093CA02B6017F
:1037D000C70104C060E070E080E090E01F910F91AD
:1037E000FF90EF90DF90CF90089590E0FC01E252BF
:1037F000FE4F2491FC01E653FE4F3491FC01EA5444
:10380000FE4FE491EE2309F43CC0222339F123302A
:1038100091F038F42130A9F0223001F584B58F7D84
:1038200012C0273091F02830A1F02430B9F48091F3
:1038300080008F7D03C0809180008F77809380000F
:103840000DC084B58F7784BD09C08091B0008F779B
:1038500003C08091B0008F7D8093B000F0E0EE0F48
:10386000FF1FE455FE4FA591B4919FB7F8946111E5
:1038700004C08C913095382302C0EC913E2B3C93D0
:103880009FBF0895CF93DF9390E0FC01E653FE4F76
:103890002491FC01EA54FE4F8491882361F190E069
:1038A000880F991FFC01EE55FE4FC591D491FC0184
:1038B000E455FE4FA591B491611109C09FB7F894EA
:1038C0008881209582238883EC912E230BC062305F
:1038D00061F49FB7F8948881322F309583238883D1
:1038E000EC912E2B2C939FBF06C08FB7F894E881E4
:1038F0002E2B28838FBFDF91CF9108958F929F92B7
:10390000AF92BF92CF92DF92EF92FF926B017C0158
:103910000E944B1A4B015C01C114D104E104F10473
:10392000F1F00E944B1ADC01CB0188199909AA0910
:10393000BB09883E9340A105B10570F321E0C21A8E
:10394000D108E108F10888EE880E83E0981EA11CDA
:10395000B11CC114D104E104F10419F7DDCFFF90CB
:10396000EF90DF90CF90BF90AF909F908F90089591
:103970001F920F920FB60F9211242F933F938F93A4
:103980009F93AF93BF938091D8059091D905A09153
:10399000DA05B091DB053091600623E0230F2D3767
:1039A00020F40196A11DB11D05C026E8230F029643
:1039B000A11DB11D209360068093D8059093D90571
:1039C000A093DA05B093DB058091610690916206C1
:1039D000A0916306B09164060196A11DB11D80936C
:1039E000610690936206A0936306B0936406BF914C
:1039F000AF919F918F913F912F910F900FBE0F909C
:103A00001F901895CF93DF93CDB7DEB76A970FB6A7
:103A1000F894DEBF0FBECDBF789484B5826084BDBC
:103A200084B5816084BD85B5826085BD85B58160C2
:103A300085BD80916E00816080936E001092810040
:103A400080918100826080938100809181008160FB
:103A500080938100809180008160809380008091BC
:103A6000B10084608093B1008091B0008160809348
:103A7000B00080917A00846080937A0080917A000F
:103A8000826080937A0080917A00816080937A00CE
:103A900080917A00806880937A001092C100109221
:103AA000370187E992E00E94FE0987E992E090934E
:103AB0007B0280937A0286E992E090937902809368
:103AC00078028CE894E0ECE0F4E020E530E021932B
:103AD00031938E179F07D9F761E080E00E94421C66
:103AE00061E082E00E94421C62E083E00E94421C8E
:103AF00062E084E00E94421C83E591E09093030120
:103B00008093020180916900837F886080936900BF
:103B1000E99A10928F0580918D0580938B0360E068
:103B200070E081EB92E00E94550460E070E081EB70
:103B300092E00E94CB0481EB92E00E94700361E06E
:103B40008AE00E94421C61E089E00E94421C61E020
:103B500088E00E94421C61E081E00E94421C61E01A
:103B60008AE00E94F51B61E089E00E94F51B61E09C
:103B700088E00E94F51B61E081E00E94F51B87E967
:103B800092E09093D3028093D20286E992E09093E0
:103B90007D0280937C0201EB12E01093D10200932E
:103BA000D00260E08EE00E94421C60E08FE00E9444
:103BB000421C60E080E10E94421C60E081E10E94C2
:103BC000421C10933203009331030E9420170E947D
:103BD00020170E9420170E94201781E0809338034D
:103BE0008CB58F7D8CBD0E94D30261E08091A305CE
:103BF0000E94421C61E08091A3050E94F51B60E0D9
:103C00008091A3050E94F51B80E40E94A8058AE02C
:103C10000E94A80588E10E94A80561E08091A305A3
:103C20000E94F51B1091A4051770110F106460E03D
:103C30008091A3050E94F51B812F0E94A80580E0BA
:103C40000E94A80505EA15E0ABEBEA2EA5E0FA2EE6
:103C5000D8018D918D010E94A805E016F106C1F7EB
:103C600061E08091A3050E94F51B10E004E0010FC4
:103C700061E0802F0E94C41861E0802F0E948A17A3
:103C800062E0812F0E94C41862E088E0810F0E94E8
:103C9000C41862E08CE0810F0E94C4181F5F1430CA
:103CA00029F761E08FE00E94C41862E08EE00E9474
:103CB000C4180E94E0170E94E0170E94E0170E94BB
:103CC000E01781E08093200361E085E00E94421CC0
:103CD00061E087E00E94421C61E086E00E94421C95
:103CE00060E085E00E94F51B60E087E00E94F51B24
:103CF00060E086E00E94F51B80E090E00E943E19A3
:103D000062E082E10E94421C62E083E10E94421C68
:103D100080E190E00E94DD278093040161E089E06A
:103D20000E94421C0E94D3028EEF92E09093A60262
:103D30008093A50281EB92E09093E3028093E202EC
:103D4000E0E5EE2EE1E0FE2EF0E4CF2EF1E0DF2EF6
:103D500001E060E089E00E94F51BF70111917F010D
:103D6000612F6170602785E00E94F51B11FB6627BB
:103D700060F9602786E00E94F51B12FB662760F958
:103D8000602787E00E94F51B8CB580628CBDD60150
:103D90008D916D0180950E94A80580E00E94A80584
:103DA00061E089E00E94F51B66E470E080E090E04D
:103DB0000E947E1CBEE5EB16B1E0FB0651F664E600
:103DC00070E080E090E00E947E1C81EB92E0909396
:103DD0005E0680935D06EEEBF1E0E491F0E0EE0F1D
:103DE000FF1FE256FF4F859194919093BC02809300
:103DF000BB02E2EDF1E0E491E093BA020E94D3024B
:103E000061E088E00E94421CE091BB02F091BC029C
:103E100092818091BA02892B8283CE0101960E9401
:103E2000F4058981811107C08A8181110DC08B81C0
:103E300081110AC03DC78F3F39F48A818F3F21F439
:103E40008B818F3F09F434C7CE0101960E94760220
:103E5000613071058105914008F441C0CE01099699
:103E60000E94780D89859A850E94D0029981E091FF
:103E7000BB02F091BC028091BA02913049F4928168
:103E800080958923828380E897E10E94B30217C05E
:103E9000928180958923828386E00E94A805E09123
:103EA000BB02F091BC0292818091BA02982B92835E
:103EB000928180958923828387EB0E94A805E091F7
:103EC000BB02F091BC0292818091BA02892B82835D
:103ED0000E94B2028981803221F489E003C080E02F
:103EE00001C081E09981913041F4982F94602D8137
:103EF0002111DCC6982F9461D9C6903211F48260EA
:103F000003C09F3E09F480628093BE02CE010196F9
:103F10000E94F4050E94680D5DE1A52E56E0B52EC5
:103F200088248A94982C94E0792E24E6622E37E037
:103F3000232E312C40E0442E40E0542E8091CD02BF
:103F4000882309F485C00E94FF06882309F480C0F5
:103F500080918C05898380918D058A8380918E055F
:103F60008B8380918F058C83809190058D838091C8
:103F700091058E83809192058F8380919305888728
:103F8000809194058987EDEDF5E0ACE0B4E08C918B
:103F900011969C9111971296919387AFAE16BF061A
:103FA000B1F7CE010D960E94990D8EE0FE013D966F
:103FB000AFEBB2E001900D928A95E1F740E450E05A
:103FC00060E070E08CE893E00E94911B40E450E0D8
:103FD00060E070E08CEC93E00E94911B40E850E0C0
:103FE00060E070E08DED95E00E94911B40E450E0B0
:103FF00060E070E08CE894E00E94911B40E450E0A7
:1040000060E070E08CEC94E00E94911B40E450E092
:1040100060E070E08CE095E00E94911B48E050E089
:1040200060E070E0CE0101960E94911B44E050E0F8
:1040300060E070E0CE0109960E94911B40E450E0E0
:1040400060E070E08CE495E00E94911B1092CD023C
:104050000E94E0171A86198680911E0390911F0313
:10406000892B09F40BC380911A0390911B038F5F76
:10407000877090E0FC01EE0FFF1FE65FFC4F208190
:1040800031813A87298790931B0380931A0380918B
:104090001E0390911F03019790931F0380931E03AB
:1040A000E984FA84870111276701CC24F1E0DF223B
:1040B000CD2CDD24003111050CF07EC1CD2809F492
:1040C00078C18091D802813041F4093011050CF09B
:1040D000D5C2C8010E940903D1C28091CF028823B2
:1040E00009F40CC1083011050CF095C0043011051D
:1040F0000CF0C4C280919E02882309F474C04091E0
:10410000D70250E09A01B4E0220F331FBA95E1F7CD
:10411000C80164E0880F991F6A95E1F7DC01A45398
:10412000BB4FF901E453FB4F60E101900D926A959A
:10413000E1F7DC01A453BC4FF901E453FC4F60E10B
:1041400001900D926A95E1F7DC01A457BC4FF9018B
:10415000E457FC4F60E101900D926A95E1F7D801B8
:1041600075E0AA0FBB1F7A95E1F7A45FBB4FFA0178
:1041700015E0EE0FFF1F1A95E1F7E45FFB4F40E2F9
:1041800001900D924A95E1F7DC01A457BB4FF9016C
:10419000E457FB4F40E101900D924A95E1F7DC01B5
:1041A000A45FBA4FF901E45FFA4F40E101900D922C
:1041B0004A95E1F7DC01A45BBA4FF901E45BFA4FE1
:1041C00080E101900D928A95E1F783E592E00E94EB
:1041D000B41941E050E064E670E081E00E94ED191E
:1041E00010929E0212C019821A821B821C828BE5D9
:1041F000898382E48A8388E38E0D8B83CE010196C6
:104200000E94B41981E080939E02E092D7028E2D25
:104210000E94221A33C20D30110509F453C06CF408
:10422000083011050CF42AC27092D802E0921E01E7
:1042300080E090E00E94580F21C20E30110509F075
:104240001DC287E592E00E94B4198091D00290913E
:10425000D1020E9438031092D70280E00E94221AF5
:1042600080919D028F5F80939D028330D1F030F466
:10427000823009F003C28BE592E015C08430B1F0C2
:10428000853009F0FBC10E94420680E090E00E9468
:104290003E1910929D0240E050E064E670E080E03C
:1042A0000EC08FE592E00E94B419E8C183E692E067
:1042B0000E94B41940E050E064EF71E081E00E9498
:1042C000ED19DCC10E947E0D81E08093D8028091BF
:1042D000D2029091D3020E94FE098091D40290E014
:1042E0008930910514F40E94090387E692E00E9448
:1042F000B41961E080E00E94F51BC0C180915F06A7
:10430000882361F081E08E0D80931F0190E00E9470
:104310003E1980915F060E94701AB0C18091CE0252
:10432000882361F081E08E0D80931F0190E00E9450
:104330003E198091CE020E94DB10A0C10E947E0D2A
:104340008091D70220E1829F000D111D1124209140
:104350002E0330912F03D801A457BC4F0217130727
:1043600031F0FD01E05CFE4F9081911106C0A05C30
:10437000BE4F2C9191E092279C9310932F030093B2
:104380002E030E94221A0E944E17809136039091AC
:1043900037030E943E19E0912E03F0912F03E45F52
:1043A000FA4F60818CB58F7D8CBD8FE00E948A179B
:1043B00065C110929E0262C14C2D4170F42EF8012D
:1043C0007097E730F10508F055C1EC5CFF4F0C9495
:1043D0008E284093CF02CD2809F00DC110929E0285
:1043E00010929D0247C1CD2809F444C18091CF02AB
:1043F000882369F00E941A1A8091D7020E94221A1B
:104400008091D0029091D1020E944A0A33C18091DA
:10441000D802813009F42EC10E947E0D0E941A1A22
:104420008091D7020E94221A0091D0021091D102ED
:104430009091DC0581E089278093DC05811105C01E
:1044400060E00E94F51B1092880240E050E0BA0143
:1044500083E893E00E94270A8091890390918A0360
:10446000909388038093870380910501882309F442
:1044700001C18091DC05882309F4FCC0C8010E94B9
:104480000B05C8010E94C80BF5C0842F0E94701A4A
:10449000F1C0842F0E94DB10EDC0CD2809F4EAC0E2
:1044A0008091CF02882331F07092D8028AE1809304
:1044B0001E01B1C0E0912E03F0912F03E45FFA4F8B
:1044C000608181E0682760838CB58F7D8CBD8FE033
:1044D0000E948A17CFC08091D802813009F4CAC0E7
:1044E0008091CF02811105C080919C02882309F43C
:1044F00076C020910801CD2839F10091D0021091A9
:10450000D102E22F022E000CFF0BE453FB4F81E09F
:10451000808320939B0220933601809182029091A8
:104520008302909381028093800283E893E00E944B
:104530005F0A70939A0260939902C8010E94C80BA7
:104540001092880261E045C0E0909B022E1927FF7F
:1045500003C080918D05280F00910601109107017D
:104560004091990250919A02809183039091840323
:10457000A0918503B0918603840F951FA11DB11DE5
:104580002003A001219F500D1124841B950BA1092C
:10459000B10989839A83AB83BC83CE0101960E94C3
:1045A0005F0A2E2D220F330BF901E45FFB4F669E4D
:1045B0009001679E300D1124C901B8010E94662840
:1045C000613981E0780710F060E971E07183608300
:1045D00060E080E00E94F51BF0929C024BC040938B
:1045E000B00240933003CD2811F410927F02109254
:1045F0003903F09233030E947E0D3CC08091D802B3
:104600008130C1F18091CF02882351F07092D8029D
:1046100095E190931E0180E090E00E94580F2AC01F
:10462000C114D10461F00E947E0D7092D802A9E1FC
:10463000A0931E0180E090E00E94580F02C01092EB
:10464000D8028091D0029091D102F0927E026F2D1B
:104650000E94B70380913003882361F0CD2851F088
:10466000E09108010E2E000CFF0BE45BFA4FF08284
:10467000F0927F02F09209030E9432191092A20276
:104680001092A102E09198028E2F880F880F8093DC
:104690009802E6B1E073E295EF70E82BE0939802A0
:1046A000EF70F0E0E05AFE4F8081082E000C990B6D
:1046B000009701F120919F023091A002820F931F79
:1046C0009093A00280939F029C012D5F3F4F273063
:1046D000310580F0181619061CF08FEF9FEF02C00D
:1046E00081E090E09093A2028093A1021092A00238
:1046F00010929F02409104012091A1023091A202E8
:104700004203C001439F900D1124009711F00E94B5
:10471000580F8091D8028B7F71F40E9420178091EE
:104720003A03882341F080913603909137030E9429
:104730003E190E947E0D89E995E00E945F0A672B71
:10474000682B692B09F4BEC040E050E0BA0189E94A
:1047500095E00E94270A6091AB027091AC02910132
:10476000261B370B81E090E001C0880F2A95EAF7FD
:10477000660F771F660F771FFB01EE0FFF1FEA58CA
:10478000FE4F10EF20E030E000813296D901A60FF5
:10479000B71FAA51BD4F4C9101C0440F0A95EAF7CB
:1047A000140F2F5F3F4F2430310571F71093A9028A
:1047B0003093A8022093A7021095180F1093AA0215
:1047C00029988CB580628CBD0091A5021091A6023B
:1047D000D8011696ED91FC911797EE0FFF1FE05947
:1047E000FE4F61E080810E94F51BD8011696ED9185
:1047F000FC911797EA5FFC4F80810E94A805809189
:10480000AA0280950E94A805299A0091A5021091FC
:10481000A602F8018681978101968330910519F0EF
:104820009783868302C0178216828091FD028823B7
:1048300009F453C28DE995E00E945F0A2091FB02C2
:104840003091FC026901E12CF12CC616D706E8066E
:10485000F90608F042C28DE995E00E945F0A2091B6
:10486000FB023091FC02220F331F890120E030E06F
:104870000617170728073907C0F440E050E0BA01CF
:104880008DE995E00E94270A8091A3029091A402ED
:1048900001969093A4028093A3022091F902309193
:1048A000FA02121613060CF408C28091AB02909122
:1048B000AC0201968430910509F40AC29093AC02CF
:1048C0008093AB028091E402E091F702F091F8024C
:1048D000B0E18B9FE00DF11D1124E453FB4F80816B
:1048E000882371F085E995E00E945F0AE091F70264
:1048F000F091F802EA51FD4F208121110EC019C03C
:1049000085E995E00E945F0AE091F702F091F802D4
:10491000EA51FD4F208121110CC008E512E020E092
:1049200030E0061717072807390740F40E94091AD4
:1049300005C004E610E020E030E0F3CF8091D8021B
:10494000813009F4ACC18091DC05811105C08091F2
:10495000AF02882309F449C083E893E00E945F0A0C
:104960000E94BD2920913B01217827FF03C02150DF
:104970002E6F2F5F213049F42091910230919202E5
:10498000409193025091940208C020918D02309181
:104990008E0240918F02509190020E946F2A181649
:1049A00014F58091DC05882361F081EB92E00E9490
:1049B0000B0540E050E0BA0183E893E00E94270A2B
:1049C0002CC18091AF02882381F081EB92E00E949C
:1049D0000B0540E050E0BA0183E893E00E94270A0B
:1049E0001092AF021AC11092950281EB92E00E94E0
:1049F000BC0A80918B02882351F083E893E00E94E7
:104A00005F0A6B3071058105910508F074C1409112
:104A10008A02442309F445C080919105853009F448
:104A2000AAC090918902992319F0863009F4A3C095
:104A30008930B9F5DD24D394809192058D1508F461
:104A40009AC0809188020D2D10E0882309F469C175
:104A500083E893E00E945F0A2091860230918702EA
:104A6000029F7001039FF00C129FF00C112497011C
:104A700025503109890120E030E006171707280783
:104A8000390768F483E893E00E945F0A870120E019
:104A900030E0601771078207930708F433C1D3949D
:104AA000CBCF80918802882309F465C0E09108018A
:104AB0000E2E000CFF0B20913601022E000C330B42
:104AC000CF01821B930B0196181619064CF08091AA
:104AD0008D05BF01680F711DCB01821B930B0196E1
:104AE000442301F1209191052830E1F4E453FB4F78
:104AF0002081211117C083E893E00E945F0A209172
:104B0000840230918502890120E030E00617170702
:104B10002807390780F560E080E00E94F51B1092BD
:104B2000880229C001972091870330918803829FD2
:104B3000A001839F500D929F500D1124052E000C53
:104B4000660B770B8091830390918403A09185037A
:104B5000B0918603841B950BA60BB70B89839A83B0
:104B6000AB83BC83CE0101960E945F0A20910601AF
:104B700030910701C8CF8091AE02811103C04C9BD8
:104B8000C8C002C01092AE0280918C02882309F442
:104B900042C080910501882361F0409189035091C2
:104BA0008A0360E070E083E893E00E94270A109295
:104BB000050181E080938C029091AD02992319F058
:104BC0001092AD0225C090919005933340F09091E2
:104BD0003B0190FD04C08093AD028093AF0283E857
:104BE00093E00E945F0A709388036093870381EBD0
:104BF00092E00E947F0481EB92E00E940B0540E06E
:104C000050E0BA0183E893E00E94270A1092DC0585
:104C100010928C0202C01092950280919502882316
:104C2000F1F18091D7020E94221AE09108012E2F03
:104C30000E2E000C330B8091E40270E1879FC001BF
:104C400011242817390774F040962817390754F4AF
:104C5000EF700E2E000CFF0BEA51FD4F908181E0AA
:104C6000892780838091B002882399F0809139034D
:104C7000882379F0109233039092390180923801A1
:104C800080913403909135030E94EC1581E080936C
:104C900033038091D0029091D1020E94C80B41143D
:104CA000510409F44BC90E9400003DC9892F2CC949
:104CB0008BE692E00E94B4192FC9281739070CF02F
:104CC000F4CD1092FD021092A4021092A302EDCD39
:104CD0001092AC021092AB02F5CDD8011696ED9170
:104CE000FC911797EE0FFF1FE059FE4F60E08081A7
:104CF0000E94F51BDACD60E082E00E94F51B109265
:104D00008B0285CE60E080E00E94F51B1092880245
:104D1000C6CE81EB92E00E944A0A81E08093AE0207
:104D200033CF83E893E00E945F0A2091860230919E
:104D30008702029FA001039F500D129F500D112466
:104D40008A0120E030E0601771078207930708F4BA
:104D5000A6CE61E080E00E94F51B81E0809388028E
:104D60009ECE2FB7F8944091D8055091D905609107
:104D7000DA057091DB052FBFFC014083518362830C
:104D800073830895CF9380E2EDEEF1E0ABE3B3E0FF
:104D900001900D928A95E1F780E1EBE5F3E0DF0108
:104DA000982F1D929A95E9F710926C0310926B035D
:104DB00010927E0310927D03ECECF4E090E4DF01AE
:104DC0001D929A95E9F791E0908322E320938C0558
:104DD00080938D0590938E0590938F052093900579
:104DE0001092910594E09093920598E79093930523
:104DF000C8E1C093940580938B0360913A0170E001
:104E000088E99AE30E947A2870938A036093890361
:104E1000709388036093870383E893E00E94B12630
:104E200089E995E00E94B12685E995E00E94B126C6
:104E30008DE995E00E94B126E1EAF5E083ED95E089
:104E4000918380838AE0828313828FEF84838583BA
:104E5000168217821086118612861386148615868E
:104E6000C687C787108A118A128A138A148A158AFC
:104E7000168A178A108E118E8FEC95E00E94B1264B
:104E800084ED95E0CF910C94B1268F929F92AF92D2
:104E9000BF92CF92DF92EF92FF92CF93DF93EC011C
:104EA000688179818A819B816115710581059105F0
:104EB00021F464E279ED8BE597E02DE133EF41E0F9
:104EC00050E00E94F32749015A019B01AC01A7EA77
:104ED000B1E40E9412286B017C01ACEEB4EFA50195
:104EE00094010E942028DC01CB018C0D9D1DAE1D7C
:104EF000BF1DB7FF03C00197A109B04888839983FC
:104F0000AA83BB839F77DF91CF91FF90EF90DF90D3
:104F1000CF90BF90AF909F908F9008950E944527AB
:104F200008958CE391E00E9445270895A0E0B0E049
:104F300080933C0190933D01A0933E01B0933F01CB
:104F40000895FB01DC0105900D920020E1F7089522
:104F5000BB274A3031F4992322F4BDE29095819524
:104F60009F4F0C94B427BB27FB015527AA27880F16
:104F7000991FAA1FA41710F0A41B83955051B9F7CD
:104F8000A05DAA3308F0A95DA193009779F7B1114C
:104F9000B1931192CB010C94CD27DC01FC01672F5A
:104FA00071917723E1F7329704C07C916D93708300
:104FB0006291AE17BF07C8F30895F999FECF92BD6D
:104FC00081BDF89A992780B50895262FF999FECFCB
:104FD0001FBA92BD81BD20BD0FB6F894FA9AF99A16
:104FE0000FBE01960895052E97FB1EF400940E94B3
:104FF0000A2857FD07D00E94252807FC03D04EF44D
:105000000C940A2850954095309521953F4F4F4F6D
:105010005F4F089590958095709561957F4F8F4F64
:105020009F4F08950E944728A59F900DB49F900D13
:10503000A49F800D911D11240895B7FF0C94122890
:105040000E941228821B930B0895A1E21A2EAA1B1C
:10505000BB1BFD010DC0AA1FBB1FEE1FFF1FA21728
:10506000B307E407F50720F0A21BB30BE40BF50B25
:10507000661F771F881F991F1A9469F760957095AE
:10508000809590959B01AC01BD01CF010895A29F31
:10509000B001B39FC001A39F700D811D1124911D0C
:1050A000B29F700D811D1124911D0895DB018F9316
:1050B0009F930E941228BF91AF91A29F800D911DD6
:1050C000A39F900DB29F900D11240895AA1BBB1BA6
:1050D00051E107C0AA1FBB1FA617B70710F0A61BF8
:1050E000B70B881F991F5A95A9F780959095BC0119
:1050F000CD01089597FB072E16F4009407D077FD95
:1051000009D00E94662807FC05D03EF49095819551
:105110009F4F0895709561957F4F0895EE0FFF1F83
:105120000590F491E02D09940E944728332312F44E
:105130008A1B9B0B0C949E280E944728B7FF08955A
:10514000821B930B08955058BB27AA270E94BB28A7
:105150000C94352A0E94272A38F00E942E2A20F02B
:1051600039F49F3F19F426F40C94242A0EF4E095A8
:10517000E7FB0C941E2AE92F0E94462A58F3BA171F
:10518000620773078407950720F079F4A6F50C945D
:10519000682A0EF4E0950B2EBA2FA02D0B01B90151
:1051A00090010C01CA01A0011124FF27591B99F09D
:1051B000593F50F4503E68F11A16F040A22F232FA9
:1051C000342F4427585FF3CF469537952795A795F9
:1051D000F0405395C9F77EF41F16BA0B620B730BA0
:1051E000840BBAF09150A1F0FF0FBB1F661F771F11
:1051F000881FC2F70EC0BA0F621F731F841F48F4C6
:10520000879577956795B795F7959E3F08F0B0CF4E
:105210009395880F08F09927EE0F97958795089535
:105220000E94FA2908F481E008950E9429290C942B
:10523000352A0E942E2A58F00E94272A40F029F48D
:105240005F3F29F00C941E2A51110C94692A0C948A
:10525000242A0E94462A68F39923B1F3552391F337
:10526000951B550BBB27AA2762177307840738F0D5
:105270009F5F5F4F220F331F441FAA1FA9F335D032
:105280000E2E3AF0E0E832D091505040E695001CE6
:10529000CAF72BD0FE2F29D0660F771F881FBB1FA0
:1052A000261737074807AB07B0E809F0BB0B802D7E
:1052B000BF01FF2793585F4F3AF09E3F510578F0AA
:1052C0000C941E2A0C94692A5F3FE4F3983ED4F3B1
:1052D000869577956795B795F7959F5FC9F7880F7E
:1052E000911D9695879597F90895E1E0660F771FD0
:1052F000881FBB1F621773078407BA0720F0621B61
:10530000730B840BBA0BEE1F88F7E09508950E948B
:105310008E296894B1110C94692A08950E944E2A2E
:1053200088F09F5798F0B92F9927B751B0F0E1F066
:10533000660F771F881F991F1AF0BA95C9F714C016
:10534000B13091F00E94682AB1E008950C94682A67
:10535000672F782F8827B85F39F0B93FCCF386954F
:1053600077956795B395D9F73EF4909580957095AC
:1053700061957F4F8F4F9F4F0895E89409C097FB29
:105380003EF490958095709561957F4F8F4F9F4F1C
:105390009923A9F0F92F96E9BB279395F695879560
:1053A00077956795B795F111F8CFFAF4BB0F11F423
:1053B00060FF1BC06F5F7F4F8F4F9F4F16C08823CA
:1053C00011F096E911C0772321F09EE8872F762F00
:1053D00005C0662371F096E8862F70E060E02AF041
:1053E0009A95660F771F881FDAF7880F969587952D
:1053F00097F90895990F0008550FAA0BE0E8FEEF02
:1054000016161706E807F907C0F012161306E40788
:10541000F50798F0621B730B840B950B39F40A2681
:1054200061F0232B242B252B21F408950A2609F45F
:10543000A140A6958FEF811D811D089597F99F6763
:1054400080E870E060E008959FEF80EC089500240C
:105450000A941616170618060906089500240A94D9
:1054600012161306140605060895092E0394000C5F
:1054700011F4882352F0BB0F40F4BF2B11F460FFEE
:1054800004C06F5F7F4F8F4F9F4F089557FD905817
:10549000440F551F59F05F3F71F04795880F97FBF8
:1054A000991F61F09F3F79F08795089512161306B2
:1054B0001406551FF2CF4695F1DF08C016161706E1
:1054C0001806991FF1CF8695710561050894089516
:1054D000E894BB2766277727CB0197F908950E94A8
:1054E000FA2908F48FEF08950E94872A0C94352A30
:1054F0000E94272A38F00E942E2A20F0952311F0CE
:105500000C941E2A0C94242A11240C94692A0E94BB
:10551000462A70F3959FC1F3950F50E0551F629F87
:10552000F001729FBB27F00DB11D639FAA27F00DFC
:10553000B11DAA1F649F6627B00DA11D661F829F23
:105540002227B00DA11D621F739FB00DA11D621F08
:10555000839FA00D611D221F749F3327A00D611D25
:10556000231F849F600D211D822F762F6A2F112407
:105570009F5750409AF0F1F088234AF0EE0FFF1F3A
:10558000BB1F661F771F881F91505040A9F79E3F91
:10559000510580F00C941E2A0C94692A5F3FE4F3B5
:1055A000983ED4F3869577956795B795F795E795E7
:1055B0009F5FC1F7FE2B880F911D9695879597F9F0
:1055C0000895DC0101C06D9341505040E0F708950B
:1055D000FB01DC010D900020E9F7119701900D927D
:1055E0000020E1F70895FB01DC0101900D920020FD
:0855F000E1F70895F894FFCFE4
:1055F8002401240101010A00FF32000000FCFFFA27
:10560800FFF4FFF1FFEFFFEEFFEBFFEAFF010801F8
:105618003030312E62696E0000000000000000008A
:1056280000000000E703FF010A0078FF0100000006
:105638001010102040808080040810101000000016
:105648000102040404040201010101020400000033
:1056580000FF0100010000FFFF0000010001FF0042
:10566800050007000600030002000100000000001A
:105678000100020003000300020001000000000016
:1056880001000200030000000000F401E803DC054B
:10569800D007C409B80BAC0DA00F0001FF01FFFF34
:1056A80001FF01FF01FF0000010101FFFF01FFFFF2
:1056B8000101FF000001FF01FFFF01FF01FF0101E0
:1056C800001D0110010301F600E900DC00CF00C253
:1056D80000B500A80004080C10182030400C000D7C
:1056E800000E000F000B000A000900080004000566
:1056F80000060007000300020001000000FC60DA59
:10570800F266B6BEE0FEF6EE3E9C7A9E8EF62E203F
:10571800786E1CEC2A3ACEE60AB61E387C7C6E7689
:10572800D800020100080009000A000B000C000D57
:10573800000E0000000100020003000E000F001020
:1057480000110043505900434C52004520200045A9
:105758005220004552530043414C004D454D002E08
:0857680062696E004552520017
:00000001FF
