:100000000C9443010C94C7010C94A0010C946B0157
:100010000C946B010C946B010C946B010C946B01B0
:100020000C946B010C946B010C946B010C946B01A0
:100030000C946B010C946B010C946B010C946B0190
:100040000C94B6200C946B010C946B010C946B0116
:100050000C946B010C946B010C946B010C946B0170
:100060000C946B010C946B010B26152670267426DC
:1000700096262A27782624042604FE03090414045D
:100080002604240429042B043504490449044904A2
:10009000A71AB71AA51AA11A9E1AB71AA91AB71A37
:1000A000AB1AAD1AAF1AB11AB11AE41AEC1AC11B85
:1000B000281B601BC11BC11B901B741BC11BC11BD8
:1000C000C11BC11BC11BC11BC11BC11BDD1A451BB1
:1000D00000000000230026002900010001000100AB
:1000E0000100010001000101000101000100010007
:1000F00001010001010100000101000101000101F5
:1001000001010001010001010101000100010100E4
:1001100001000101010100010101010100000100D4
:1001200001000100000100010100010001000001C7
:1001300000010000010100010100010001010001B6
:1001400000010100010001010001000100010101A5
:1001500001010101010101010101010143203100FF
:1001600042203000426230004120300041623000C5
:1001700047203000476230004620300045203000E4
:10018000456230004420300044623000432030009B
:100190008C018801840180017C0178017401700167
:1001A0006C016801640160015C0100000000240032
:1001B00027002A0000000000250028002B0004046E
:1001C00004040404040402020202020203030303FF
:1001D00003030102040810204080010204081020DB
:1001E00001020408102000000008000201000003C2
:1001F000040700000000000000005455330054556F
:10020000320054553100524F4C0053545400524E5A
:1002100044005354500046525A00474C4400545234
:1002200053004F4354005245560052455000574822
:100230004F00444F520050485200424C4D00424C37
:10024000550050454D0050454E004D494E004D4122
:100250004A00434852002A02260222021E021A02C3
:10026000160212020E020A0206020202FE01FA0140
:1002700052024E024A02460242023E023A0236024E
:1002800032022E02F52A11241FBECFEFD8E0DEBFC6
:10029000CDBF12E0A0E0B1E0EAE9FEE502C00590C2
:1002A0000D92A839B107D9F726E0A8E9B2E001C05C
:1002B0001D92A13BB207E1F711E0C3E4D1E004C015
:1002C0002197FE010E94D32CC234D107C9F70E94A6
:1002D00000210C944B2F0C9400000895CF92DF92D4
:1002E000EF92FF9260917E0370917F03072E000CC6
:1002F000880B990B0E94102E6B017C01609189057F
:1003000070E080E090E00E940E2E9B01AC01C701DE
:10031000B6010E94C52E20E030E048EC52E40E9475
:10032000662D0E94DF2D7093A3026093A202FF90BE
:10033000EF90DF90CF90089581E08093AA02089516
:100340001F920F920FB60F9211242F933F934F934A
:100350005F936F937F938F939F93AF93BF93EF932D
:10036000FF93E0910201F09103010995FF91EF9154
:10037000BF91AF919F918F917F916F915F914F91BD
:100380003F912F910F900FBE0F901F9018951F92C5
:100390000F920FB60F9211242F933F934F935F93B9
:1003A0006F937F938F939F93AF93BF93EF93FF933D
:1003B000E0910001F09101010995FF91EF91BF914A
:1003C000AF919F918F917F916F915F914F913F91ED
:1003D0002F910F900FBE0F901F901895FC018081F8
:1003E0008F3119F49181993859F1228190EF920F50
:1003F000903128F090EE920F963078F4265081E0FC
:1004000090E0A0E0B0E0BC01CD0104C0660F771F12
:10041000881F991F2A95D2F70895811106C08181FE
:10042000811113C0211111C007C08F3F71F4818168
:100430008F3F59F42F3F49F460E070E0CB010895FD
:1004400060E070E080E091E0089560E070E080E1BD
:1004500090E0089508950CB405FC0DC09EBD000009
:100460000DB407FEFDCF9EB58EBD00000DB407FE96
:10047000FDCF8EB508958EBD00000DB407FEFDCFF3
:100480008EB59EBD00000DB407FEFDCF9EB508954C
:100490008CBD9DBD0895CF93CFB7F8948091F202A3
:1004A000811127C0E8ECF1E08491ECEDF1E094914A
:1004B000E82FF0E0EE0FFF1FE655FE4FA591B49137
:1004C000EC91E92321F461E08AE00E94711061E07F
:1004D0008AE00E94AE148CB580618CBD8CB58064BE
:1004E0008CBD61E08DE00E94AE1461E08BE00E9463
:1004F000AE148091F2028F5F8093F202CFBFCF9152
:100500000895CF93DF93E3E8F3E0A3E0B4E080E461
:1005100020E530E01082EF01C05CDF4F18822D93A0
:100520003D93C054DF4F1882C05CDF4F1882C05C1F
:10053000DF4F1882C05CDF4F1882815031968111E5
:10054000E9CF82E38093830590E19093840591E065
:1005500090938505109286058093870510928805F3
:1005600084E08093890588E180938B0510928C0547
:1005700010928D05DF91CF9108958F929F92AF9247
:10058000BF92CF92DF92EF92FF927B01BA01550F9B
:10059000880B990B0E94102E20E030E040E450E4DC
:1005A0000E94F52C20E030E040E451E40E94C52E8A
:1005B0004B015C01B701FF0C880B990B0E94102EB8
:1005C0009B01AC01C501B4010E94F52C6B017C01BB
:1005D00060918B05062E000C770B880B990B0E94FF
:1005E000102E9B01AC01C701B6010E94F52C20E042
:1005F00030E040EC51E40E94F42C6B017C0120E0DF
:1006000030E0A9010E94C02E18166CF420E030E002
:100610004EEF52E4C701B6010E94612D87FD06C06E
:100620008FE790E008C080E090E005C0C701B60108
:100630000E94D82DCB016CE070E00E94BF2CFC0121
:10064000EE0FFF1FE057FE4F6591749185ED92E02C
:100650000E94D82B20E030E04EEF52E4C701B601F3
:100660000E94612D87FF0BC020E030E040E451E4A0
:10067000C701B6010E94662D0E94D82D01C06AE014
:10068000605D6093D70285ED92E0FF90EF90DF9080
:10069000CF90BF90AF909F908F900895CF92DF92B0
:1006A000EF92FF928091A802882359F080918805EB
:1006B000843039F48091890524E0829FC00111249F
:1006C00003C08091830590E090930A018093090113
:1006D0006091090170910A01072E000C880B990B9B
:1006E0000E94102E20E030E048EC52E40E94662D7B
:1006F0006B017C0160917E0370917F03072E000CDB
:10070000880B990B0E94102E9B01AC01C701B6010A
:100710000E94C52E0E94D82D7093D4026093D302FC
:10072000FF90EF90DF90CF900895CF939C0160935E
:10073000A802809108018093F1029091880594307D
:1007400021F4C901CF910C944E03953039F4C62F92
:1007500080E00E947110C093A60227C0963019F461
:100760001092A70222C09B3001F52091840530E051
:10077000E3E8F3E080E090E0AF01435853404217D4
:1007800053072CF09093F0028093EF020EC0DF012C
:10079000A05CBE4F4C91442331F0DC01A152BD4F0F
:1007A00040814C9301963196E7CFCF9108950F93F6
:1007B000FB018081811102C047FD0BC0840F081727
:1007C00010F4008305C0821710F0808301C02083DD
:1007D00080810F9108950F931F93CF93DF93E09142
:1007E00088050E2F10E00D30110508F059C0462F76
:1007F000EC01F801E55CFF4F0C94D32C08E020E0FD
:1008000069E875E00E94D7038091890590E004971C
:100810004AC000E320E069E875E00E94D7038091B8
:10082000890590E048973FC004E621E069E875E05B
:100830000E94D703CE010E944E038091890524E0D7
:10084000829FC00111242FC000E124C001E020E0FC
:1008500022C002E31FC004E621E069E875E00E94BF
:10086000D703CE010E946E011BC008E021E069E8B9
:1008700075E00E94D7036091890570E080917E0346
:1008800090917F030E94BF2C7093A5026093A402F5
:1008900007C004E121E069E875E0CE010E94D703BA
:1008A0008091890590E0DF91CF911F910F9108957C
:1008B00020918605CB01820F911D97FF02C080E039
:1008C00090E08A30910514F089E090E080938605ED
:1008D000FC01EE0FFF1FEF51FE4F60817181A2E11D
:1008E000B3E020E030E0FB01E20FF31FE49141E0D0
:1008F000E11101C040E04D932F5F3F4F2D30310596
:1009000091F70895CF92DF92EF92FF92CF93DF930A
:10091000C0917E03D0917F036091870570E080E0F5
:1009200090E00E940E2E6B017C01BE010D2E000C8A
:10093000880B990B0E94102E9B01AC01C701B601D8
:100940000E94C52E20E030E048E452E40E94662D6B
:100950006B017C016093AB027093AC028093AD029B
:100960009093AE02BE01660F771F072E000C880B16
:10097000990B0E94102EA70196010E94F42C6093FF
:10098000AF027093B0028093B1029093B202DF91F4
:10099000CF91FF90EF90DF90CF900895CF93DF93AA
:1009A000EC0180910F01680F711D6B3F710534F4EC
:1009B000643171052CF464E170E002C06AEF70E00C
:1009C000262F60930F0188E99AE30E94BF2C709351
:1009D0008103609380038091E005882321F0709368
:1009E0007F0360937E0320938A05CE010E948204D8
:1009F0006091890570E080917E0390917F030E9451
:100A0000BF2C7093A5026093A402CE010E946E01D8
:100A100080910F0190E0DF91CF910895CF93DF9304
:100A2000EC01809135018F5F80933501082E000C19
:100A3000990B2091840530E082179307D4F010922F
:100A400035018091DD058823A1F08091DE0590912C
:100A5000DF0501969093DF058093DE0520918D05DB
:100A6000022E000C330B821793071CF081E0809359
:100A7000DC058091A902811107C081E08093A90261
:100A800061E082E00E94711080919D02E091080176
:100A90000E2E000CFF0BED5BFA4F882321F08091A6
:100AA0009C02808313C090818091A802992321F039
:100AB00081110CC061E007C0882341F080919C0245
:100AC000811104C060E0CE010E9495039091A802BC
:100AD0009923E1F180918805811127C08091080157
:100AE000482F082E000C550B2091F10230E04217E0
:100AF000530761F490918905891B8F5F80930801EA
:100B000087FF2AC090918405890F1BC08F5F809357
:100B10000801082E000C990B2091840530E0821703
:100B20009307D1F41092080117C0813069F48091C5
:100B3000080181508093080187FF0EC080918405D1
:100B400081508093080108C0853031F080913501D3
:100B500080930801992349F08091D105882329F0D9
:100B6000809188058B508230D8F080910801E82F61
:100B7000082E000CFF0BED53FB4F9081992351F091
:100B800080930B018091A0029091A10290939F020B
:100B900080939E0281E08093B302DF91CF9108950C
:100BA0000E94C82BE09108010E2E000CFF0BED53A4
:100BB000FB4F64E170E00E94BF2CAC0120918905DD
:100BC00030E091E0241735070CF490E09083CDCF0E
:100BD000CF93DF938FEF80933501809308011092BC
:100BE000B30281E0809305011092DF051092DE05CB
:100BF0008091AA0281111CC0E9EEF1E08491E5ED3B
:100C0000F1E0D491E1ECF1E0C491CC2371F08111D9
:100C10000E944810EC2FF0E0EE0FFF1FE053FF4F53
:100C2000A591B491EC91ED2319F481E08093AA028F
:100C3000DF91CF9108958EBD00000DB407FEFDCF6A
:100C40008EB50895CF93DF9300D0CDB7DEB7CE0138
:100C500001960E94891E89819A810E944802E09132
:100C6000F502F091F60292818091F4028095892339
:100C700082838091F80281FF18C080E70E941B06E2
:100C800080E00E941B06E091F502F091F6022281BD
:100C90009091F402922B928387FFD9CF1092F702A2
:100CA0000F900F90DF91CF91089585E00E941B0671
:100CB00080E00E941B06E091F502F091F60222818D
:100CC0009091F402922B928380FDC1CFE7CF0F93D6
:100CD0001F93CF93DF9300D0CDB7DEB78C01809107
:100CE000F70281110E942206CE0101960E94891E00
:100CF00089819A810E944802E091F502F091F60202
:100D000092818091F4028095892382838FE90E94E9
:100D10001B0680E00E941B06F801808380E00E9491
:100D20001B06F801818380E00E941B06F801828384
:100D30008081813051F480E00E941B06F80183839A
:100D400080E00E941B06F8018483E091F502F09197
:100D5000F60292818091F402892B82830F900F908A
:100D6000DF91CF911F910F910895FF920F931F93E1
:100D7000CF93DF93CDB7DEB727970FB6F894DEBFDA
:100D80000FBECDBF8091F70281110E942206CE01D5
:100D900001960E9467068981803209F066C09B81B6
:100DA00080EE890F833008F060C0913211F424E0A6
:100DB00001C022E08091F802082F10E036E015957E
:100DC00007953A95E1F78F738093F802021708F0C0
:100DD0007DC0923219F428E0F22E02C092E0F92E82
:100DE000CE0106960E94891E8E819F810E94480234
:100DF000E091F502F091F60292818091F4028095E3
:100E00008923828386E00E941B06E091F502F0911F
:100E1000F60292818091F402982B928392818095C0
:100E20008923828384EC0E941B0680E0F09E902D33
:100E300011240E942B0280E090E00E942B02E0919E
:100E4000F502F091F60292818091F402892B82835F
:100E50000F5F1F4F86E0000F111F8A95E1F7809109
:100E6000F802082B0093F8022EC0CE0106960E94CD
:100E7000891E8E819F810E944802E091F502F091C7
:100E8000F60292818091F40280958923828386E024
:100E90000E941B06E091F502F091F602928180918A
:100EA000F402982B9283928180958923828387EC28
:100EB0000E941B06E091F502F091F602928180916A
:100EC000F402892B828383E08093F70227960FB682
:100ED000F894DEBF0FBECDBFDF91CF911F910F9170
:100EE000FF900895CF93DF9300D0CDB7DEB7809108
:100EF000F702811102C081E042C0CE0101960E943A
:100F0000891E89819A810E944802E091F502F09140
:100F1000F60292818091F4028095892382838091E8
:100F2000F80281FF1AC080E70E941B0680E00E9441
:100F30001B06E091F502F091F60222819091F402F5
:100F4000922B928387FF1AC01092F7028091F802C9
:100F5000807C89F20E94B50611C085E00E941B06C4
:100F600080E00E941B06E091F502F091F6022281DA
:100F70009091F402922B928380FFE6CF80E00F9055
:100F80000F90DF91CF9108952F923F924F925F92F1
:100F90006F927F928F929F92AF92BF92CF92DF9289
:100FA000EF92FF920F931F93CF93DF9300D000D067
:100FB00000D0CDB7DEB76B837C838D839E831A010F
:100FC000480159018091F70281110E942206CE0149
:100FD00001960E94891E89819A810E944802E091AF
:100FE000F502F091F60292818091F40280958923B6
:100FF000828386E00E941B06E091F502F091F602E2
:1010000092818091F402982B928340E051E060E05D
:1010100070E02B81421B510961097109750164015E
:10102000481559056A057B0510F46A017B01928118
:101030008095892382838091F8022B813C814D81A8
:101040005E812A016624772480FF05C082E00E9429
:101050001B06C20103C0C201992792600E942B02A5
:101060008B819C810E942B028B819C81AD81BE81F2
:101070008C0D9D1DAE1DBF1D8B839C83AD83BE83D8
:101080008C189D08AE08BF08810126013701D801E0
:101090008D918D010E941B06B1E04B1A5108610829
:1010A0007108A9F7E1E0CE1AD108E108F108FFEFD5
:1010B000CF1ADF0A2C0C3D1CE091F502F091F602EC
:1010C00092818091F402892B828324E02093F7029D
:1010D00081149104A104B10409F074CF26960FB6CF
:1010E000F894DEBF0FBECDBFDF91CF911F910F915E
:1010F000FF90EF90DF90CF90BF90AF909F908F9038
:101100007F906F905F904F903F902F9008952F9217
:101110003F924F925F926F927F928F929F92AF9287
:10112000BF92CF92DF92EF92FF920F931F93CF93D4
:10113000DF93CDB7DEB728970FB6F894DEBF0FBEAA
:10114000CDBF6B017C011A0148015901A80160E083
:1011500070E0C1010E94322F0091F802CE01019689
:101160000E94891E89819A810E9448021091F7028B
:10117000112309F483C0E091F502F091F602928107
:101180008091F4028095892382838091F80281FF07
:101190000AC080E70E941B0680E00E941B0687FFB2
:1011A0000AC010E008C085E00E941B0680E00E9493
:1011B0001B0680FFF6CFE091F502F091F6029281D6
:1011C0008091F402982B9283111103C01092F702C0
:1011D00055C0133008F047C09281809589238283DF
:1011E00086E00E941B06E091F502F091F6028281F2
:1011F0009091F402892B828302FF02C0113011F01A
:1012000085E701C085E822819095922392830E9410
:101210001B06E091F502F091F60292818091F402B2
:10122000982B9283809592818923828301FF09C044
:1012300080E70E941B0680E00E941B0687FFFBCF11
:1012400008C085E00E941B0680E00E941B0680FD0E
:10125000FBCFE091F502F091F60292818091F402C9
:10126000892B82830BC00E942206CE0101960E9428
:10127000891E89819A810E94480210E0802F88701F
:101280008F83902F91709887AF81AA2311F1D70196
:10129000C601880D991DAA1DBB1D0197A109B109A1
:1012A0008C259D25AE25BF2588279927AA27BE7F97
:1012B000892B8A2B8B2B69F0D701C601B170412C89
:1012C000512C612C22E0722E481A590A6A0A7B0AB4
:1012D00002C024013501E091F502F091F6029281FD
:1012E0008091F402809589238283C701AA27BB27B6
:1012F0008B839C83AD83BE839885992331F083E0F3
:101300000E941B068B819C8104C08B819C81992744
:1013100093600E942B02C6010E942B02920141148D
:101320005104C1F0D1018C918EBDF101C201019730
:1013300041F051810DB407FEFDCF4EB55EBD419326
:10134000F6CFF9013197E20DF31D0DB407FEFDCF85
:101350008EB58083E091F502F091F6029281809142
:10136000F402982B9283220E331EC40CD51CE61C6B
:10137000F71C84189508A608B70809F085CF112333
:1013800031F1928180958923828386E00E941B0639
:10139000E091F502F091F60282819091F402892B9E
:1013A000828302FF04C0113011F48AE801C08AE789
:1013B00022819095922392830E941B06E091F50270
:1013C000F091F60292818091F402892B8283289613
:1013D0000FB6F894DEBF0FBECDBFDF91CF911F9146
:1013E0000F91FF90EF90DF90CF90BF90AF909F90C4
:1013F0008F907F906F905F904F903F902F900895C7
:101400000F931F93CF93DF93CDB7DEB728970FB617
:10141000F894DEBF0FBECDBF08E010E020E030E062
:10142000AE014F5F5F4F60E070E0CB010E94870824
:1014300089819A81AB81BC818C3425E5920726E9AC
:10144000A2072AEFB207F1F18F3F9F4FAF4FBF4F77
:1014500021F060E070E0CB0139C08CE495E5A6E9AD
:10146000BAEF89839A83AB83BC8388E592E0A6EFC9
:10147000B8E18D839E83AF83B88708E010E020E059
:1014800030E0AE014F5F5F4F60E070E0CB010E9443
:10149000C4070E9472078823E1F308E010E020E00F
:1014A00030E0AE014F5F5F4F60E070E0CB010E9423
:1014B000870889819A81AB81BC818C349545A64986
:1014C000BA4F39F66D817E818F81988528960FB647
:1014D000F894DEBF0FBECDBFDF91CF911F910F916A
:1014E00008951F93CF93DF93EC01162F0E94142CC5
:1014F000181739F0612FCE01DF91CF911F910C9415
:101500001C2CDF91CF911F9108950F931F93CF93C0
:10151000DF9301E111E0C0E0D0E0CE010E94142C85
:1015200090E0845691099C0197FF04C0222733273D
:10153000281B390BF801243631051CF49183808374
:1015400002C01182108221960E5F1F4FC930D10553
:1015500021F7DF91CF911F910F9108952F923F9224
:101560004F925F926F927F928F929F92AF92BF92B3
:10157000CF92DF92EF92FF920F931F93CF93DF935F
:1015800000D000D000D0CDB7DEB76A017B0120E0EB
:1015900030E040EC52E4C701B6010E94C02E18169C
:1015A0006CF020E030E0A901C701B6010E94612D76
:1015B00087FF0AC0C12CD12C760106C0C12CD12CCA
:1015C00040ECE42E42E4F42E20E030E040E451E42C
:1015D000C701B6010E94662D0E94D82D2B013C0147
:1015E0001B01C701B6010E94D82DCB016CE070E051
:1015F0000E94BF2C01E010E01816190614F000E05C
:1016000010E0040D151DC201880F991FFC01E8555B
:10161000FE4FDC01AF5EBE4F208131818D919C91E8
:10162000280F391F3E832D83B90180E090E00E948E
:101630000E2E4B015C01F801EE0FFF1FDF01A855D4
:10164000BE4FEF5EFE4F6D917C9180819181680F5E
:10165000791F80E090E00E940E2E69837A838B834D
:101660009C832016310681F1B201550C880B990B31
:101670000E94102E20E030E040E451E40E94C52E8C
:101680009B01AC01C701B6010E94F42C6B017C01E7
:10169000A501940169817A818B819C810E94F42C3F
:1016A0009B01AC01C701B6010E94C52E20E030E0CD
:1016B00040E451E40E94662DA50194010E94F52C9E
:1016C0000E94DF2D7E836D838D819E8126960FB6CD
:1016D000F894DEBF0FBECDBFDF91CF911F910F9168
:1016E000FF90EF90DF90CF90BF90AF909F908F9042
:1016F0007F906F905F904F903F902F900895CF9282
:10170000DF92EF92FF920F931F93EFB7F89400913F
:10171000A8061091A9062091AA063091AB06EFBF4A
:1017200068017901C41AD50AE60AF70AFC01C082E9
:10173000D182E282F3821F910F91FF90EF90DF90B0
:10174000CF9008950F931F93FC012FB7F8948091C9
:10175000A8069091A906A091AA06B091AB062FBF4A
:101760000081118122813381BC01CD01601B710B8D
:10177000820B930B1F910F910895CF93DF9300D0AD
:1017800000D0CDB7DEB780910801082E000C990B70
:101790009C01261B370B37FF07C020918405820F61
:1017A000911D9C01261B370B80917E0390917F0336
:1017B000289FA001299F500D389F500D1124052E00
:1017C000000C660B770B80917A0390917B03A091BC
:1017D0007C03B0917D03841B950BA60BB70B89830B
:1017E0009A83AB83BC83CE0101960E94A20BCB01EE
:1017F0000F900F900F900F90DF91CF9108958F92DF
:101800009F92AF92BF92CF92DF92EF92FF92CF93CF
:10181000DF934091A802442309F469C02091880510
:10182000263009F064C02091A7022111E9C060911F
:10183000F10270E00E94BD0BEC01209189058091BE
:101840007E0390917F03289FB001299F700D112482
:10185000072E000C880B990B0E94102E6B017C0147
:101860006091A0027091A102072E000C880B990BC9
:101870000E94102E4B015C01BE01DD0F880B990BFD
:101880000E94102E9B01AC01C701B6010E94F42CEE
:101890009B01AC01C501B4010E94C52EA7019601B0
:1018A0000E94662D6B017C0120E030E040E85FE3A0
:1018B0000E94612D881F8827881F8093A702B70187
:1018C000A60180919A0290919B020E94AE0ABC01EF
:1018D00080E00E94081D8091A702882309F490C02F
:1018E00060E080E00E9471101092A60289C06091B1
:1018F0000B01062E000C770B9B012D573C4FF90175
:10190000E05CFE4F5081552329F0E05CFF4F2081C1
:10191000211108C0442309F473C0209188052430A4
:1019200009F06EC00E94BD0BC091D302D091D402C9
:101930008C179D070CF047C01092A702AE01481B00
:10194000590B20919E0230919F02429FB001439F0C
:10195000700D529F700D11244091A0025091A10270
:10196000849F9001859F300D949F300D1124620F4C
:10197000731F072E000C880B990B0E94102E6B0111
:101980007C01BE01DD0F880B990B0E94102E9B017C
:10199000AC01C701B6010E94662DAB01BC0180916C
:1019A0009A0290919B020E94AE0ABC0180E0DF91F6
:1019B000CF91FF90EF90DF90CF90BF90AF909F902E
:1019C0008F900C94081D8091A702811119C060911D
:1019D000A0027091A102072E000C880B990B0E94A7
:1019E000102EAB01BC0180919A0290919B020E9443
:1019F000AE0ABC0180E00E94081D81E08093A7022E
:101A0000DF91CF91FF90EF90DF90CF90BF90AF909C
:101A10009F908F900895CF92DF92EF92FF920F9355
:101A20001F93CF93DF93EC01E09108010E2E000C81
:101A3000FF0BED53FB4F80812091A802882309F40E
:101A400062C22223F1F0809188058630D1F4CE0164
:101A50000E94FF0B8091A702811162C2E0910B01ED
:101A60000E2E000CFF0BED53FB4F60810E94711096
:101A7000E0910B010E2E000CFF0BED53FB4F80810C
:101A80004DC21092A70200910B01002E000C110B09
:101A90000D571C4FF8018081082E000C990B909374
:101AA000D2028093D1021092D0021092CF02222350
:101AB00009F405C120918805273009F50E94C82B3B
:101AC0006091890570E00E94BF2C8C010E94C82B98
:101AD0006AE070E00E94BF2C06971CF421E030E021
:101AE00002C02FEF3FEF029FC001039F900D129F96
:101AF000900D11242091D1023091D202DAC03091A0
:101B0000D105332309F4CEC02A30F9F40E94C82B42
:101B10006091890570E00E94BF2C182F0E94C82B8D
:101B20006AE070E00E94BF2C069714F491E001C0B7
:101B30009FEFE0910B010E2E000CFF0BED57FC4FB9
:101B40008081199F800D112477C02B3029F50E94C8
:101B5000C82B00910B01002E000C110B98012D5782
:101B60003C4F6091EF027091F0020E94BF2CFC018B
:101B7000E152FD4F8081F90180830E94C82B000F44
:101B8000111FF801ED5FFB4F62E870E00E94BF2C6F
:101B900044969183808351C02C3009F04EC00E943E
:101BA000C82B68E170E00E94BF2CF82E0E94C82B61
:101BB0006AE070E00E94BF2C069714F481E001C037
:101BC0008FEF8F9D802D1124F801808300910B01F0
:101BD000002E000C110B0E94C82BF801ED5FFA4F8C
:101BE0006AE070E00E94BF2C9C0191E02930310531
:101BF0000CF490E0908300910B01002E000C110B6F
:101C00000E94C82B000F111FF801ED5FFB4F62E827
:101C100070E00E94BF2C44969183808300910B0159
:101C2000002E000C110B0E94C82BF801ED57FB4F42
:101C30006AE570E00E94BF2C8083E0910B010E2EBC
:101C4000000CFF0BED57FC4F8081282F082E000C55
:101C5000330B37FF03C03195219531092D30310504
:101C6000E4F0181614F02FEF01C021E0DF01A05CB2
:101C7000BF4F9C91920F9F3F24F093301CF092E055
:101C800001C09EEFDF01A05CBF4F9C936CE00E94FF
:101C90009D2C929F902D112490838081082E000C02
:101CA000990B09C0233059F42091890530E028515F
:101CB0003109820F931F9093D2028093D1028091B9
:101CC000D1029091D2028D3091057CF08532910540
:101CD0001CF023E030E01AC0883191051CF421E0AB
:101CE00030E014C022E030E011C0843FFFEF9F07D6
:101CF000CCF48D3D2FEF920724F0893EEFEF9E0745
:101D00001CF42EEF3FEF02C02FEF3FEF3093D002D5
:101D10002093CF026CE070E00E94BF2C9093D2021F
:101D20008093D1028091D1029091D2029C0197FFC1
:101D300002C0245F3F4FF901EE5EFC4F208121116C
:101D400029C020918605233049F49C0197FF02C0E9
:101D5000245F3F4FF901EC52FE4F13C0243049F489
:101D60009C0197FF02C0245F3F4FF901E953FE4FEA
:101D700008C09C0197FF02C0245F3F4FF901E65461
:101D8000FE4F2081820F911D27FD9A959093D202DC
:101D90008093D10280910B01082E000C990B8D5776
:101DA0009C4FFC01E05CFF4F4081042E000C550B62
:101DB0004D5F5F4F6CE0649FF001659FF00D112453
:101DC0002091D1023091D2022E0F3F1F40918B05FE
:101DD000042E000C550B48515109240F351FE0917A
:101DE000CF02F091D0026E9FA0016F9F500D112481
:101DF000240F351F3093A1022093A0024091A80226
:101E00004423A1F040918805423081F44091890536
:101E100050E044505109649FF001659FF00D11247A
:101E20002E0F3F1F3093A1022093A002FC01E05827
:101E3000FE4F8081882321F0CE010E94FF0B16C047
:101E40006091A0027091A102072E000C880B990BE3
:101E50000E94102EAB01BC0180919A0290919B02CE
:101E60000E94AE0ABC0180E00E94081DE0910B01B7
:101E70000E2E000CFF0BED53FB4F608180E00E94A3
:101E8000711080910B01082E000C990B8D579C4FFF
:101E9000FC01E05CFE4F20812093A602E054F10992
:101EA0006081F8E26F02B001112481E00E94081DF8
:101EB000E0910B01EE0FFF0BED5FFB4F6081718135
:101EC00080E090E00E940E2E20E030E048EC52E4EA
:101ED0000E94662D6B017C0160917E0370917F03EF
:101EE000072E000C880B990B0E94102E9B01AC0151
:101EF000C701B6010E94C52E0E94DF2D7093070115
:101F0000609306010DC0222359F080918805883026
:101F100039F461E080E00E94711081E08093A602B4
:101F2000DF91CF911F910F91FF90EF90DF90CF90B5
:101F300008958093F302882309F445C08091F90243
:101F4000811141C080917E06823029F58091330154
:101F500090E00E942218882331F043E050E064E6CC
:101F600070E081E00BC08091DA059091DB050E9462
:101F7000810241E050E064E670E080E00E94F01DE4
:101F800010927E06809133018093340110927D0679
:101F900080E00C941D1E811116C08091D305811123
:101FA0000C94431982E080937E06809134018093E3
:101FB000330190E00E94371D40E050E06CE271E098
:101FC00081E00C94F01D0895CF92DF92EF92FF9282
:101FD0000F931F93FC016A017B014091770650919A
:101FE00078066091790670917A06009173061091D7
:101FF00074062091750630917606DB01CA018C0DBE
:102000009D1DAE1DBF1D081719072A073B0758F471
:10201000401751076207730780F568017901C41AF8
:10202000D50AE60AF70A00916F0610917006209112
:10203000710630917206CB01BA01600F711F821FC9
:10204000931F97018601AF010E94C4078091770614
:1020500090917806A0917906B0917A068C0D9D1D1D
:10206000AE1DBF1D8093770690937806A0937906E6
:10207000B0937A06B601C70104C060E070E080E06A
:1020800090E01F910F91FF90EF90DF90CF90089517
:10209000833081F028F4813099F08230A1F00895E6
:1020A0008730A9F08830B9F08430D1F48091800075
:1020B0008F7D03C0809180008F778093800008958A
:1020C00084B58F7702C084B58F7D84BD08958091DB
:1020D000B0008F7703C08091B0008F7D8093B000F7
:1020E00008951F93CF93DF93282F30E0F901EA5131
:1020F000FE4F8491F901EE52FE4FD491F901E25462
:10210000FE4FC491CC23C1F0162F81110E944810BC
:10211000EC2FF0E0EE0FFF1FEC54FE4FA591B491B1
:102120009FB7F894111104C08C91D095D82302C0A8
:10213000EC91DE2BDC939FBFDF91CF911F9108952F
:102140002F923F924F925F926F927F928F929F92C7
:10215000AF92BF92CF92DF92EF92FF920F931F93B5
:10216000CF93DF93CDB7DEB7EE970FB6F894DEBF0F
:102170000FBECDBF8093FA02882309F4D6C38091A5
:102180007E06813029F510927E0671E1C72E71E03E
:10219000D72E00E010E0D6018C91B2E0CB0ED11C1E
:1021A00064E6F62EF80EC8010E94142CF81621F0F1
:1021B0006F2DC8010E941C2C0F5F1F4F09301105A5
:1021C00051F760E080E00E9471100E94781EADC35C
:1021D000833009F0C6C1109133010E947207882331
:1021E00009F42FC1812F90E00E946A200E942219D9
:1021F00081110FC08091F80285FD25C184FFC7C100
:1022000000E010E024E030E00BA71CA72DA73EA7BC
:1022100022C1CE014D960E94F31E8EE0FE017D96F6
:10222000AFE6B6E001900D928A95E1F78091F80251
:10223000982F907184FF09C000E010E024E030E0A6
:102240000FA718AB29AB3AAB08C020E030E041E063
:1022500050E02FA738AB49AB5AAB85FD08C0992396
:1022600061F0812C912C44E0A42EB12C0AC0812C69
:1022700030E1932EA12CB12C04C0812C912C54015F
:10228000A39495018401015011092109310940915C
:102290006F0650917006609171067091720640232E
:1022A000512362237323452B462B472B11F082E0E9
:1022B00040C18091730690917406A0917506B0910B
:1022C000760680239123A223B323892B8A2B8B2B81
:1022D00071F71BA61CA61DA61EA6809173069091E1
:1022E0007406A0917506B09176060BA51CA52DA5C8
:1022F0003EA5081719072A073B07C8F62090F802E1
:10230000C0906F06D0907006E0907106F090720653
:102310008091F7022FA538A949A95AA982169306D8
:10232000A406B506B8F50BA51CA52DA53EA5C00EA7
:10233000D11EE21EF31E81110E942206CE010196DB
:102340000E94891E89819A810E9448020091F502AB
:102350001091F602D80112968C9112973090F402E7
:10236000732C7094872112968C9386E00E941B0632
:10237000F8018281832982838281782272822701F7
:102380006624772420FE02C080E236C0C20199276D
:10239000906239C00BA51CA52DA53EA5C00ED11E6F
:1023A000E21EF31E81110E942206CE0101960E94B8
:1023B000891E89819A810E9448020091F50210913C
:1023C000F602D80112968C9112973090F402732C79
:1023D0007094872112968C9386E00E941B06F80168
:1023E00082818329828382817822728227016624F6
:1023F000772420FE05C088ED0E941B06C20103C0A1
:10240000C2019927986D0E942B02C6010E942B02DF
:10241000D80112968C911297382A12963C920E94FB
:102420002A02B2E0B093F7020BA51CA52DA53EA58C
:10243000080D191D2A1D3B1D0BA71CA72DA73EA784
:102440004CCF80E076C020E030E140E050E02BA7A8
:102450003CA74DA75EA70E942219811169C00E9466
:10246000000A6B017C01611571058105910509F474
:102470005FC09B01AC01442755272FA738AB49AB60
:102480005AAB812C912C5401D501C4010896A11D91
:10249000B11D0FA518A929A93AA9081719072A07D4
:1024A0003B0708F07DC028013901481859086A081F
:1024B0007B08D501C4010496A11DB11DBC01CD014D
:1024C000660F771F881F991F93018201000F111F4C
:1024D000221F331FAE014F5F5F4F0E948708FE012E
:1024E000319680E090E0DC01481659066A067B06CA
:1024F00009F460C0219131912F3F3F4F09F056C040
:10250000A5019401280F391F4A1F5B1F2BAB3CAB61
:102510004DAB5EAB2FA538A949A95AA98BA99CA997
:10252000ADA9BEA982179307A407B50708F458C040
:1025300081E090913301909334018150823060F4B6
:1025400081E08093F90245E050E064E670E00E948B
:10255000F01D10927E06E9C187E892E00E94AD1D51
:10256000E4C18091F9028111E0C183E080937E068D
:10257000809134018093330190E00E94371D40E048
:1025800050E06CE271E081E00E94F01DCEC180E07D
:1025900090E0A1E0B0E08BA79CA7ADA7BEA75BCF62
:1025A00058E0452E512C612C712C83CF0196A11D32
:1025B000B11D9ACF840C951CA61CB71C8FA598A999
:1025C000A9A9BAA988169906AA06BB0608F45CCF81
:1025D0000FEF1FEF98010BAB1CAB2DAB3EAB9ACFAF
:1025E000ACE0B0E00E94492C6FAB78AF89AF9AAFF6
:1025F0004B015C0198E0890E911CA11CB11C0BA938
:102600001CA92DA93EA9012B022B032BA1F4CC243C
:10261000DD240EE0F694E794D794C7940A95D1F799
:10262000A7019601280D391D4A1D5B1D2BAF3CAF3C
:102630004DAF5EAF86C0198E1A8E1B8E1C8E1E018A
:1026400031E1230E311CA5E0B0E02BA93CA94DA936
:102650005EA90E94492C0FA518A929A93AA90150E1
:10266000110921093048DC01CB01800F911FA21F05
:10267000B31FBC01CD01660F771F881F991F0AE0A9
:1026800010E020E030E0A1010E94870849895A89C2
:102690006B897C898D899E89AF89B88D8A019B0160
:1026A000080F191F2A1F3B1F0BAF1CAF2DAF3EAFEA
:1026B000898D9A8DAB8DBC8D12E0880F991FAA1F52
:1026C000BB1F1A95D1F76C017D01C80CD91CEA1CFF
:1026D000FB1C46015701412C512C320100E110E056
:1026E00020E030E0AE014F5F5F4FC501B4010E94B2
:1026F0008708FE013196D301C2011FEF411A510A2A
:10270000610A710A2191211111C04601570124E08B
:10271000820E911CA11CB11C880E991EAA1EBB1E04
:102720003CEF832233E0A322BB240BC0D301C201C0
:102730002E163F0611F740E1840E911CA11CB11C1E
:10274000CDCF8BA59CA5ADA5BEA50197A109B109CB
:102750000BAD1CAD2DAD3EAD080F191F2A1F3B1F41
:10276000C901B8012BA53CA54DA55EA50E945C2C16
:10277000CA01B9012BA53CA54DA55EA50E948D2CD3
:102780006B017C01CA01B9016150704F8F4F9F4F9F
:102790000E945C2CCA01B9012BA53CA54DA55EA5E4
:1027A0000E948D2C2B013C01E6E3F1E0019000201A
:1027B000E9F731978F0106531140CE0101960E942F
:1027C0006706A7019601240D351D461D571D2BA731
:1027D0003CA74DA75EA7CE0101960E94EE012BA556
:1027E0003CA54DA55EA5621773078407950708F4FD
:1027F0009FCE20E030E00F5F1F4F2F4F3F4F46E34B
:1028000051E0C501B4010E94C407C98ADA8AEB8A83
:10281000FC8A4D8A5E8A6F8A788E8FA998ADA9ADA1
:10282000BAAD881A990AAA0ABB0A98E0891A9108CF
:10283000A108B10862E0B694A794979487946A952A
:10284000D1F7898E9A8EAB8EBC8EA5E0B0E02BA915
:102850003CA94DA95EA90E94492C0FA518A929A938
:102860003AA90C5F1F4F2F4F3F4FDC01CB01800F68
:10287000911FA21FB31FBC01CD01660F771F881FD8
:10288000991F0AE010E020E030E0AE014F5E5F4F9C
:102890000E94C4070E9472078823E1F3E6E3F1E097
:1028A00065EC7DE98CE191E82191222391F0022FE2
:1028B000220F110B220B330BA90198012627372772
:1028C0004827592763E971E080E091E00E948D2C50
:1028D000EBCF2EEF3FEF40E050E00E945C2CDC019C
:1028E000CB010196A11DB11D898B9A8BAB8BBC8B43
:1028F0008BA89CA8ADA8BEA8A4E08A0E911CA11C20
:10290000B11CC501B401660F771F881F991F02E033
:1029100010E020E030E0AE014F5E5F4F0E94C40740
:102920000E9472078823E1F303CEEE960FB6F89467
:10293000DEBF0FBECDBFDF91CF911F910F91FF90F2
:10294000EF90DF90CF90BF90AF909F908F907F904F
:102950006F905F904F903F902F900895CF93DF93AB
:1029600090E0FC01EE52FE4F2491FC01E254FE4F38
:102970008491882361F190E0880F991FFC01E6554E
:10298000FE4FC591D491FC01EC54FE4FA591B4913A
:10299000611109C09FB7F8948881209582238883AC
:1029A000EC912E230BC0623061F49FB7F8948881BC
:1029B000322F309583238883EC912E2B2C939FBF4D
:1029C00006C08FB7F894E8812E2B28838FBFDF9144
:1029D000CF9108958F929F92AF92BF92CF92DF9244
:1029E000EF92FF926B017C010E9491204B015C01F0
:1029F000C114D104E104F104F1F00E949120DC0142
:102A0000CB0188199909AA09BB09883E9340A10501
:102A1000B10570F321E0C21AD108E108F10888EE8F
:102A2000880E83E0981EA11CB11CC114D104E104DE
:102A3000F10419F7DDCFFF90EF90DF90CF90BF90BA
:102A4000AF909F908F900895DC018C91EEE2F3E0BF
:102A5000808311968C911197818312968C91828339
:102A600081E080932D03089590932C0380932B0392
:102A700080912503909126038F37910531F4809141
:102A8000290390912A03029720F081E080932D037F
:102A90000895E0912303F0912403ED57FC4FDF01EB
:102AA000A05CBF4F4C91042E000C550B6081062E8C
:102AB000000C770B80912703909128030E94BD02A0
:102AC0000E942415E2CFCF92DF92EF92FF92CF9334
:102AD000DF93AC01440F551FFA01E35EFD4F2081E7
:102AE0002E3008F02E5060910C0130E4639FB0014D
:102AF00011242770262B20937C0020917A002064DB
:102B000020937A0020917A0026FDFCCF2091780056
:102B10006091790030E0362BFA01E054FA4F3183AE
:102B2000208310922D03FA01E854FA4F60817181DD
:102B3000F901E61BF70BBF01F7FF03C07195619523
:102B40007109E0910D01F0910E01E617F7070CF005
:102B500019C161E060932203FA01E854FA4F31830E
:102B6000208320912103222309F40CC19C01813090
:102B7000910509F450C01CF4892B51F003C1823037
:102B8000910509F46CC08330910509F495C0FAC031
:102B90006091C0057091C10510922A03109229031B
:102BA000072E000C880B990B0E94102E26E636E6A5
:102BB00048E252E40E94662D2AE939E941E451E4F1
:102BC0000E94F42C0E94D82D6B017C019B01809106
:102BD00020038111A1C0C601D7FC0C96FC01EE5E5A
:102BE000FC4F8081882309F4CDC080911F03882386
:102BF00019F0E0910B0102C0E0912303F0E0ED57E2
:102C0000FC4F8081082E000C990BC08228173907D1
:102C100009F082C0B7C08091C2059091C30530937E
:102C20002A032093290368E770E00E94BF2CEB0180
:102C300024978091200381117EC09C2F80911F03D7
:102C4000882319F0E0910B0102C0E0912303F0E02A
:102C5000ED53FC4F8081C08398136DC093C0A09149
:102C6000C405B091C50590932A03809329039D0163
:102C70000E94D92C27E33AE040E050E00E942A2C41
:102C800080912003811173C0B90180911F038823B3
:102C900019F0E0910B0102C0E0912303F0E0EE0F88
:102CA000FF1FED5FFB4F8081918131832083681787
:102CB000790709F05CC066C06091C6057091C705D0
:102CC00090932A0380932903072E000C880B990BFD
:102CD0000E94102E24E13EEA43E251E40E94662D58
:102CE0000E94D82DCB0120912003211142C02091B8
:102CF0001F03222319F0E0910B0102C0E09123038E
:102D0000F0E0ED57FB4F2081022E000C330B608367
:102D10008217930771F536C0C6010E943415E09101
:102D20002303F0912403ED53FC4F4081042E000C4B
:102D3000550BB6010EC0CE010E943415E09123035D
:102D4000F0912403ED57FC4F6081062E000C770BA9
:102D5000AE0180912703909128030E94BD02DF916C
:102D6000CF91FF90EF90DF90CF900C942415C90184
:102D700001C0CB01DF91CF91FF90EF90DF90CF901A
:102D80000C943415DF91CF91FF90EF90DF90CF90AE
:102D900008958091B6059091B7050196843091050C
:102DA0002CF49093B7058093B60504C01092B70534
:102DB0001092B6058091B6059091B705FC01EE0F13
:102DC000FF1FEB5EFD4F4091290350912A032081A4
:102DD00031814217530719F424E030E002C02AE0A1
:102DE00030E030930E0120930D010C946315809117
:102DF000290390912A038130910589F01CF4892BD5
:102E000039F008958230910589F00397D1F0089543
:102E1000E0912303F0912403ED57FC4F18C0E0919B
:102E20002303F0912403ED53FC4F11C0E0912303E1
:102E3000F0912403EE0FFF1FED5FFB4F8081918126
:102E40000AC0E0912303F0912403ED57FB4F8081EA
:102E5000082E000C990B0C943415CF93DF9320911E
:102E60001103222309F448C0EC0188EC95E00E948C
:102E7000A20B6A3071058105910550F42091B405CB
:102E80003091B50588819981992782179307A1F11F
:102E900080910F03909110030897F0F420910D0397
:102EA00030910E032F5F3F4F277033278881998120
:102EB000F901EE0FFF1FE550FD4F918380833093A2
:102EC0000E0320930D0380910F0390911003019640
:102ED0009093100380930F03888199819927909391
:102EE000B5058093B40540E050E0BA0188EC95E068
:102EF000DF91CF910C947F0BDF91CF910895CF9309
:102F0000DF938631F8F4C82FD0919D05D770DD0F7F
:102F1000D06460E080919C050E9471108D2F0E940A
:102F20001B068C2F0E941B06EC2FF0E0E656FA4F92
:102F300084810E941B0661E080919C05DF91CF9106
:102F40000C947110DF91CF910895982F883028F05C
:102F5000985085E17DE0E1E003C084E17CE0E0E0C1
:102F6000492FF0E0E656FA4F248130E002C0359553
:102F700027959A95E2F720FD1EC0282F30E06111B9
:102F80000DC0F901E656FA4F21E030E001C0220FF2
:102F90004A95EAF72095948129230BC0F901E6565A
:102FA000FA4F21E030E001C0220F4A95EAF7948100
:102FB000292B248311C0611111C0E72FF0E0E656E0
:102FC000FA4F21E030E001C0220F4A95EAF7209540
:102FD000848128232483872F0C947F17E72FF0E028
:102FE000E656FA4F21E030E001C0220F4A95EAF799
:102FF0008481282BEFCF0F931F93CF93DF93D82F8C
:103000000AE915E0F801C381C770CC0FC16460E024
:1030100082810E9471108C2F0E941B068D2F0E94AE
:103020001B068FEF0E941B06ED2FF0E0E656FA4FCD
:10303000848361E0F8018281DF91CF911F910F912C
:103040000C9471100F931F93CF93DF93CDB7DEB71E
:103050006A970FB6F894DEBF0FBECDBF0E946A20FC
:10306000CE010D960E94F31E8EE0FE013D96AFE666
:10307000B6E001900D928A95E1F780916F069091EC
:103080007006A0917106B0917206892B8A2B8B2B4A
:1030900011F480E0CCC040E450E060E070E083E8F0
:1030A00093E00E948F1E40E450E060E070E083EC0B
:1030B00093E00E948F1E40E850E060E070E081EEF7
:1030C00095E00E948F1E40E450E060E070E083E8ED
:1030D00094E00E948F1E40E450E060E070E083ECDA
:1030E00094E00E948F1E40E450E060E070E083E0D6
:1030F00095E00E948F1E48E050E060E070E0CE0155
:1031000001960E948F1E44E050E060E070E0CE0126
:1031100009960E948F1E40E450E060E070E083E476
:1031200095E00E948F1EE1EEF5E0A3E0B4E021E21D
:1031300036E0819190E0982F882747AD840F911D4C
:103140008D939D932E173F07A1F789818093830567
:103150008A81809384058B81809385058C818093FF
:1031600086058D81809387058E81809388058F8168
:1031700080938905688560938A05898580938B058E
:103180008A8580938C058B8580938D0500916106DF
:10319000109162068091E00581110DC070E088E910
:1031A0009AE30E94BF2C7093810360938003709315
:1031B0007F0360937E0360E070E0C8010E94CE044C
:1031C000C8010E944E0360E070E0C8010E945804EC
:1031D00060E070E0C8010E94EB03909184052091AB
:1031E0008203921789F080913501181624F4821B0E
:1031F000890F809335018091350187FF03C0890FC6
:1032000080933501909382031092DF051092DE05C2
:1032100080918C0518162CF481E090918D0519167B
:103220000CF080E08093DD051092DC0581E06A9669
:103230000FB6F894DEBF0FBECDBFDF91CF911F91C7
:103240000F910895CF93DF93CDB7DEB72E970FB6CA
:10325000F894DEBF0FBECDBFCE0101960E94F31ED3
:1032600081E049815A816B817C81452B462B472B1C
:1032700009F480E02E960FB6F894DEBF0FBECDBFE6
:10328000DF91CF9108951F93CF93DF9310918C0519
:10329000C12F012E000CDD0B1C161D06ECF4CE0117
:1032A0000E946A200E9422198823B1F010933401F1
:1032B00010933301CE010E9422188091340190E0D6
:1032C0000E94371D45E050E064E670E081E0DF9148
:1032D000CF911F910C94F01DDF91CF911F91089514
:1032E00010926D0680917E069FEF980F943088F4BF
:1032F000813021F460E080E00E9471100E94781E0D
:1033000041E050E064E670E081E00E94F01D81E061
:1033100008951092D90541E050E061E070E080E04E
:103320000E94F01D80E00895CF93DF93EC018F3071
:103330009105A9F48BE892E00E94AD1D43E050E0B6
:1033400064E670E081E00E94F01D60E084E190E0BE
:103350000E94710A10922603109225034FC08E30EE
:103360009105B9F48FE892E00E94AD1D43E050E072
:1033700064E670E081E00E94F01D6FE784E190E078
:103380000E94710A8FE790E09093260380932503B3
:1033900035C08930910594F58093D60590939606B3
:1033A0008093950680E1E3E2F1E0A4E8B6E00190C5
:1033B0000D928A95E1F7FE01EE0FFF1FEF5EFE4FC3
:1033C000808191810E94371D8CE08C9FB0018D9F80
:1033D000700D1124072E000C880B990B0E94102EE3
:1033E000AB01BC018091D7059091D8050E94AE0A2F
:1033F000BC0180E0DF91CF910C94081DDF91CF914B
:1034000008950F931F93CF93DF93BC0180917E06A5
:10341000813019F50091D60510E09801220F331F75
:10342000F901EF5EFE4F40815181640F751FCB01A2
:103430008D599F4F873C910510F471836083F9018A
:10344000EF5EFE4F808191810E94371DC801DF91A0
:10345000CF911F910F910C94941990916D06911139
:1034600005C09EEF980F923088F505C0811103C00A
:1034700082E080937E0640913301640F19F06093DF
:10348000330103C083E68093330180913301843696
:1034900018F081E080933301C0913301D0E0CE0178
:1034A0000E94371DCE010E946A200E94221980933B
:1034B000A7060E942B1D40E050E06CE271E081E025
:1034C000DF91CF911F910F910C94F01D843009F082
:1034D00061C1E0911001EA30A1F48091DA05909188
:1034E000DB050E945804880F991FFC01E059FD4F2D
:1034F0006591749188E696E00E94D82B88E696E064
:103500004AC0E53109F04DC0C091DA05D091DB0524
:103510000CE020E0462F68E875E0CE010E94D7035A
:103520001092D105E09188058E2F90E08D309105A5
:10353000F0F4FC01E85BFF4F0C94D32C80918305E1
:1035400001C088E18093890512C085E0FBCF84E04B
:10355000F9CF88E0F7CF80E5F5CF82E0F3CF84E0C4
:1035600001C08CE08093890581E08093D10560E003
:1035700070E0CE010E94EB03E0918805F0E0EE0FD1
:10358000FF1FEA5AFD4F6591749183E696E00E9411
:10359000D82B83E696E0DF91CF911F910F910C9489
:1035A000AD1D8E2F90E0FC013897E331F10508F056
:1035B000E8C0EB5AFF4F0C94D32C8091DA05909120
:1035C000DB050E94EB0306C08091DA059091DB05D4
:1035D0000E94CE04EC01D7C08091D30520918405D0
:1035E000882311F161157105F9F030E0A6E2B2E02F
:1035F00041E050E0CA01ED910E2E000CFF0BE217E6
:10360000F3072CF44F5F5F4F4730510599F71616BB
:10361000170614F4019601C00197FC01EB5DFD4F04
:103620008081809384050FC0620F711D6134710524
:1036300034F4161617062CF061E070E002C060E466
:1036400070E060938405C0918405C09382031BC021
:103650008091DA059091DB0520918705620F711D3D
:103660006B35710534F46A3071052CF46AE070E052
:1036700002C06AE570E06093870560E070E00E9438
:10368000CE04C0918705D0E07EC08091DA0590918C
:10369000DB0520918305620F711D6F3F710509F0F5
:1036A00034F4161617062CF061E070E002C06FEFDC
:1036B00070E0609383050E944E03C0918305E3CFC1
:1036C00080918B05EB01C80FD11D87FDDA95D7FFDF
:1036D00002C0C0E0D0E0C133D10514F0C0E3D0E0B7
:1036E000C0938B0568974FC08091D205811102C0AD
:1036F000EB0102C0C0E0D0E080918D05C80FD11D64
:1037000087FDDA95D7FF02C0C0E0D0E0C436D1050E
:1037100014F0C3E6D0E0C0938D051092D20533C0FB
:103720008091D205811102C0EB0102C0C0E0D0E05F
:1037300080918C05C80FD11D87FDDA95D7FF02C097
:10374000C0E0D0E0C436D10514F0C3E6D0E0C093A9
:103750008C05CC2341F080918D05181624F481E06E
:103760008093DD0502C01092DD051092D205CE01D6
:103770000E946A200E9422198093A7060E942B1D96
:1037800002C0C0E0D0E0CE01DF91CF911F910F9138
:103790000C94371D809134018093330190E00E9496
:1037A000371D81E080936D06DF91CF911F910F91BE
:1037B0000895AF92BF92CF92DF92EF92FF920F9354
:1037C0001F93CF93DF9300D0CDB7DEB78CB58F7D3D
:1037D0008CBD80917403909175030196843091059E
:1037E0002CF4909375038093740304C010927503B6
:1037F00010927403809174038C5F803118F460E040
:103800000E94A51782E10E94FB1783E10E94FB172B
:103810008091B0059091B1059093770380937603E2
:1038200000E010E0EE24E394F12CE0917403F091B9
:103830007503EE0FFF1FEE0FFF1FE00FF11FEE0FDE
:10384000FF1FEE5CFC4F6081718120917603309107
:1038500077032F703327A701002E02C0440F551F96
:103860000A94E2F7242335233093790320937803D5
:10387000002E02C0369527950A94E2F791E0232B9B
:1038800009F090E0FB01EE5CFC4F80A1981769F015
:1038900090A3892F90E0982F8827862B972B9A83C7
:1038A0008983CE0101960E942D170F5F1F4F0430B0
:1038B000110509F0BACF809174038C5F803118F440
:1038C00061E00E94A517809176039091770380951F
:1038D0009095892F99278F779927909379038093D3
:1038E000780362E3E62E63E0F62E75E5C72E72E0FC
:1038F000D72E00E010E0AA24A394B12C8091780385
:10390000909179039501002E02C0220F331F0A9473
:10391000E2F72823392391E0232B09F490E0F70103
:1039200082A9981791F092ABF60120813181285F2E
:103930003F4F892F90E0982F8827822B932B9A83D3
:103940008983CE0101960E942D170F5F1F4FFFEF55
:10395000EF1AFF0A82E0C80ED11C0730110571F67C
:103960000F900F90DF91CF911F910F91FF90EF90EB
:10397000DF90CF90BF90AF9008950F931F93CF9398
:10398000DF93982F162F883020F098500DE081E0BB
:1039900002C00CE080E0113021F090F0123099F577
:1039A0000FC0E82FF0E0E656FA4F21E030E001C00A
:1039B000220F9A95EAF720959481292324831DC02C
:1039C000E82FF0E0C1E0D0E001C0CC0F9A95EAF713
:1039D000E656FA4F94819C2B94830E947F17E02F28
:1039E000F0E0E656FA4F123019F48481C82B03C078
:1039F000C0958481C823C483802FDF91CF911F910C
:103A00000F910C947F17DF91CF911F910F91089523
:103A10000F931F93CF938B016115704110F00FEF3F
:103A20001FE0C82FC795CC27C795C061C12B8CB5A7
:103A30008F7D8CBD60E081E00E9471108C2F0E9410
:103A40001B06802F0E941B0661E081E0CF911F9131
:103A50000F910C9471109091A7068091A406992360
:103A600011F08E7F01C081608093A40608950F93AA
:103A70001F93CF93DF939C0180914A0190914B015A
:103A80008217930709F464C030934B0120934A01D5
:103A9000890137FF04C000271127021B130BCAE05E
:103AA000D0E0C801BE010E94BF2CFC019093A1068A
:103AB0008093A006CB01BE010E94BF2C90939F066D
:103AC00080939E0637FF03C085E290E012C0C901D3
:103AD0008D599F4F873C910550F0C80164E670E016
:103AE0000E94BF2CCB01BE010E94BF2C02C084E209
:103AF00090E090939D0680939C06275F3F4F233173
:103B0000310530F484E290E090939F0680939E0606
:103B1000A0919C06B0919D06A35DBD4F8C918095B0
:103B20008093A606A0919E06B0919F06A35DBD4F0F
:103B30008C9180958093A506E35DFD4F80818095F3
:103B40008093A406DF91CF911F910F910C942B1DB0
:103B5000DF91CF911F910F9108950F931F93CF93F2
:103B6000DF9327EE33E030934B0120934A018C0121
:103B7000ECE9F6E0A7EAB6E044E250E06BE070E082
:103B8000E80129918E01223619F47183608316C0F1
:103B9000203219F45183408311C0213434F0022EB5
:103BA000000C330B2753310907C020333CF0022EA1
:103BB000000C330B20533109318320838191919183
:103BC000835D9D4FEC01988190959E93D6E0A43A39
:103BD000BD07B1F6DF91CF911F910F910C942B1D72
:103BE0000F931F93CF93DF938B01EA0180939B0682
:103BF00040E050E0BA0186E995E00E947F0B109307
:103C00009A0600939906D0939806C0939706DF9181
:103C1000CF911F910F910895E0919506F09196062E
:103C2000EC57F94F908181E08927808340E050E094
:103C3000BA018EE895E00C947F0B8093820620E118
:103C4000829FC0011124FC01ED53FB4F20E1A4E849
:103C5000B6E001900D922A95E1F72091230330916F
:103C600024032817390724F04096821793073CF461
:103C700080E190E0909396068093950608952F70CA
:103C8000332730939606209395060895CF93DF93BC
:103C900000D000D0CDB7DEB78091250390912603E8
:103CA0008F37910531F48091290390912A0302976F
:103CB00038F080912B0390912C030E94371D11C086
:103CC00019821A821B821C8280912E038983809123
:103CD0002F038A83809130038B83CE0101960E944B
:103CE000AD1D0F900F900F900F90DF91CF91089521
:103CF00010927E06E4E8F6E0119286E0E439F807D7
:103D0000D9F780917D060E941D1E0E94F7160C9423
:103D1000461E20E5FC01208321E021830895CF92F7
:103D2000DF92EF92FF920F931F93FC016A017B01D8
:103D300040917706509178066091790670917A06E5
:103D400000917306109174062091750630917606E5
:103D5000DB01CA018C0D9D1DAE1DBF1D0817190783
:103D60002A073B0758F4401751076207730780F58D
:103D700068017901C41AD50AE60AF70A00916F06AC
:103D8000109170062091710630917206CB01BA0134
:103D9000600F711F821F931F97018601AF010E9460
:103DA00087088091770690917806A0917906B09166
:103DB0007A068C0D9D1DAE1DBF1D809377069093D6
:103DC0007806A0937906B0937A06B601C70104C0BD
:103DD00060E070E080E090E01F910F91FF90EF9025
:103DE000DF90CF9008952F923F924F925F926F9203
:103DF0007F928F929F92AF92BF92CF92DF92EF927B
:103E0000FF920F931F93CF93DF93CDB7DEB7C254CA
:103E1000D1090FB6F894DEBF0FBECDBF9AAB89AB08
:103E20008EE0A9A9BAA91D928A95E9F70E94000A15
:103E3000611571058105910509F430C19B01AC0143
:103E4000442755272BAB3CAB4DAB5EABE6E3F1E033
:103E500065EC7DE98CE191E82191222391F0022F1C
:103E6000220F110B220B330BA901980126273727AC
:103E70004827592763E971E080E091E00E948D2C8A
:103E8000EBCF2EEF3FEF40E050E00E945C2CDC01D6
:103E9000CB010196A11DB11D9EAF8DAFA3E0B0E097
:103EA0002BA93CA94DA95EA90E94492C69AF7AAF04
:103EB0008BAF9CAFC12CD12C7601DA01C9010496DD
:103EC000A11DB11D23968CAF9DAFAEAFBFAF2397A1
:103ED0002BA93CA94DA95EA9C216D306E406F50696
:103EE00008F0DCC049015A018C189D08AE08BF08D3
:103EF00038E083169104A104B10428F0F8E08F2E75
:103F0000912CA12CB12CD701C6010496A11DB11D85
:103F1000BC01CD01660F771F881F991F9501840191
:103F2000000F111F221F331FAE014F5E5F4F0E9413
:103F30008708AE014F5E5F4F58AF4FAB1DA61EA660
:103F40001FA618AA8DA59EA5AFA5B8A98816990683
:103F5000AA06BB0609F49DC0AFA9B8AD8D919D918D
:103F6000B8AFAFABEDADFEAD8E179F0709F069C0DE
:103F700019A61AA61BA61CA6A5E0B0E02DA53EA575
:103F80004FA558A92C0D3D1D4E1D5F1D0E94492CAB
:103F900023962CAD3DAD4EAD5FAD2397260F371F59
:103FA000481F591FCA01B901660F771F881F991F43
:103FB0000AE010E020E030E0AE014F5D5F4F0E946C
:103FC000870849A45AA46BA47CA432E0430E511C78
:103FD000611C711C89AD9AADABADBCAD480E591ECC
:103FE0006A1E7B1E32E0440C551C661C771C3A95F9
:103FF000D1F746E3242E41E0342E00E110E020E02A
:1040000030E0AE014F5F5F4FC301B2010E948708ED
:1040100090E1490E511C611C711CFE013196910109
:10402000205F3F4FC1010196DC0111974C915191E6
:10403000451309C04423A1F019018217930799F78A
:10404000DCCF019659F12DA53EA54FA558A92F5FAC
:104050003F4F4F4F5F4F2DA73EA74FA758AB72CF93
:1040600089A19AA1ABA1BCA1E9A9FAA980839183F6
:10407000A283B3838DA19EA1AFA1B8A584839583AC
:10408000A683B7832DA53EA5C20ED31ED586C486B2
:1040900005C0C80CD91CEA1CFB1C1ACF89A99AA917
:1040A000CE5BDF4F0FB6F894DEBF0FBECDBFDF9102
:1040B000CF911F910F91FF90EF90DF90CF90BF9025
:1040C000AF909F908F907F906F905F904F903F90B8
:1040D0002F900895CF93DF9300D01F92CDB7DEB716
:1040E0004AE0BE016F5F7F4F0E94DF2B84E1E6E371
:1040F000F1E0DF011D928A95E9F7BE016F5F7F4F06
:10410000CF010E94442F63E972E086E391E00E94B0
:10411000392F86E391E00F900F900F90DF91CF91B0
:1041200008953FB7F8948091AD069091AE06A091A6
:10413000AF06B091B00626B5A89B05C02F3F19F079
:104140000196A11DB11D3FBFBA2FA92F982F882717
:10415000820F911DA11DB11DBC01CD0142E0660F72
:10416000771F881F991F4A95D1F708951F920F92C4
:104170000FB60F9211242F933F938F939F93AF937A
:10418000BF938091A8069091A906A091AA06B0912C
:10419000AB063091AC0623E0230F2D3720F40196B7
:1041A000A11DB11D05C026E8230F0296A11DB11D5A
:1041B0002093AC068093A8069093A906A093AA0624
:1041C000B093AB068091AD069091AE06A091AF067C
:1041D000B091B0060196A11DB11D8093AD069093DC
:1041E000AE06A093AF06B093B006BF91AF919F917A
:1041F0008F913F912F910F900FBE0F901F901895A8
:10420000CF93DF93CDB7DEB76A970FB6F894DEBFD2
:104210000FBECDBF789484B5826084BD84B58160C3
:1042200084BD85B5826085BD85B5816085BD809181
:104230006E00816080936E001092810080918100F9
:1042400082608093810080918100816080938100F1
:10425000809180008160809380008091B1008460B3
:104260008093B1008091B00081608093B000809114
:104270007A00846080937A0080917A0082608093D3
:104280007A0080917A00816080937A0080917A0030
:10429000806880937A001092C10010920C0185EB27
:1042A00092E00E94850A85EB92E090939B028093B6
:1042B0009A0284EB92E0909399028093980283E8AB
:1042C00094E0E3E0F4E020E530E0219331938E17B1
:1042D0009F07D9F761E080E00E94AE1461E082E0C0
:1042E0000E94AE1462E083E00E94AE1462E084E0BB
:1042F0000E94AE148CE991E0909303018093020137
:1043000080916900837F886080936900E99A1092A8
:104310008605809184058093820360E070E08EECD6
:1043200092E00E94580460E070E08EEC92E00E94FF
:10433000CE048EEC92E00E944E0361E08AE00E947F
:10434000AE1461E089E00E94AE1461E088E00E9452
:10435000AE1461E081E00E94AE1461E08AE00E9448
:10436000711061E089E00E94711061E088E00E94B4
:10437000711061E081E00E94711085EB92E09093F2
:10438000D8058093D70584EB92E09093D505809370
:10439000D4050EEC12E01093DB050093DA0560E023
:1043A0008EE00E94AE1460E08FE00E94AE1460E0E8
:1043B00080E10E94AE1460E081E10E94AE1410938F
:1043C0002803009327030E94C9160E94C9160E9461
:1043D000C9160E94C91681E0809321038CB58F7D98
:1043E0008CBD0E944B0261E080919C050E94AE143E
:1043F00061E080919C050E94711060E080919C05B5
:104400000E94711080E40E941B068AE00E941B0635
:1044100088E10E941B0661E080919C050E9471105A
:1044200010919D051770110F106460E080919C053C
:104430000E947110812F0E941B0680E00E941B06C3
:104440000EE915E0A4EBEA2EA5E0FA2ED8018D9135
:104450008D010E941B06E016F106C1F761E0809114
:104460009C050E94711010E004E0010F61E0802FB4
:104470000E94BD1C61E0802F0E94A51762E0812F81
:104480000E94BD1C62E088E0810F0E94BD1C62E0BA
:104490008CE0810F0E94BD1C1F5F143029F761E082
:1044A0008FE00E94BD1C62E08EE00E94BD1C0E9455
:1044B000D91B0E94D91B0E94D91B0E94D91B81E0E5
:1044C0008093110361E085E00E94AE1461E087E013
:1044D0000E94AE1461E086E00E94AE1460E085E0C8
:1044E0000E94711060E087E00E94711060E086E039
:1044F0000E94711080E090E00E94371D62E082E12E
:104500000E94AE1462E083E10E94AE1480E190E06C
:104510000E94142C8093040161E089E00E94AE1493
:104520000E944B028CE996E09093C3028093C202F2
:104530008EEC92E0909381068093800684E190E077
:104540000E94142C90E09093260380932503E0E6CC
:10455000EE2EE1E0FE2EF0E5CF2EF1E0DF2E01E0C1
:1045600060E089E00E947110F70111917F01612FD5
:104570006170602785E00E94711011FB662760F969
:10458000602786E00E94711012FB662760F96027A1
:1045900087E00E9471108CB580628CBDD6018D9130
:1045A0006D0180950E941B0680E00E941B0661E061
:1045B00089E00E94711066E470E080E090E00E9463
:1045C000EA14BEE6EB16B1E0FB0651F664E670E0D5
:1045D00080E090E00E94EA148EEC92E090936206F4
:1045E00080936106E6ECF1E0E491F0E0EE0FFF1F4E
:1045F000E053FF4F859194919093F6028093F502DA
:10460000EAEDF1E0E491E093F4020E944B0261E0F4
:1046100088E00E94AE14E091F502F091F6029281DA
:104620008091F402892B8283CE0101960E94670655
:104630008981811107C08A8181110DC08B8181110F
:104640000AC066C78F3F39F48A818F3F21F48B817E
:104650008F3F09F45DC7CE0101960E94EE016130E3
:1046600071058105914008F441C0CE0109960E9470
:10467000891E89859A850E9448029981E091F502F8
:10468000F091F6028091F402913049F49281809584
:104690008923828380E897E10E942B0217C09281D0
:1046A00080958923828386E00E941B06E091F502B3
:1046B000F091F60292818091F402982B928392817C
:1046C00080958923828387EB0E941B06E091F50287
:1046D000F091F60292818091F402892B82830E94EC
:1046E0002A028981803221F489E003C080E001C080
:1046F00081E09981913041F4982F94602D812111AE
:1047000005C7982F946102C7903211F4826003C0EC
:104710009F3E09F480628093F802CE0101960E94C8
:1047200067060E94781E51E2A52E56E0B52E64E978
:10473000862E66E0962E94E0792E25E1622E37E0F3
:10474000232E312C40E0442E40E0542E8091F9027B
:10475000882309F48BC00E947207882309F486C05D
:10476000809183058983809184058A838091850562
:104770008B83809186058C83809187058D838091C2
:1047800088058E83809189058F8380918A0588872B
:1047900080918B05898780918C058A8780918D0512
:1047A0008B87E1EEF5E0A3E0B4E08C9111969C914B
:1047B00011971296919387AFAE16BF06B1F7CE014F
:1047C0000D960E94F31E8EE0FE013D96AFE6B6E028
:1047D00001900D928A95E1F740E450E060E070E0CE
:1047E00083E893E00E94E40F40E450E060E070E072
:1047F00083EC93E00E94E40F40E850E060E070E05A
:1048000081EE95E00E94E40F40E450E060E070E04B
:1048100083E894E00E94E40F40E450E060E070E040
:1048200083EC94E00E94E40F40E450E060E070E02C
:1048300083E095E00E94E40F48E050E060E070E023
:10484000CE0101960E94E40F44E050E060E070E089
:10485000CE0109960E94E40F40E450E060E070E071
:1048600083E495E00E94E40F1092F9020E94D91BA4
:104870001A86198680910F0390911003892B09F4F1
:1048800028C380910B0390910C038F5F877090E099
:10489000FC01EE0FFF1FE550FD4F208131813A876B
:1048A000298790930C0380930B0380910F039091C1
:1048B000100301979093100380930F03E984FA8407
:1048C000870111276701CC24F1E0DF22CD2CDD2404
:1048D000003111050CF092C1CD2809F48CC18091F2
:1048E0007E06813021F4C8010E949419F2C28091A1
:1048F000D305882309F424C1083011050CF095C0B4
:10490000043011050CF0E5C28091BB02882309F444
:1049100074C040917D0650E09A01B4E0220F331F2D
:10492000BA95E1F7C80164E0880F991F6A95E1F72D
:10493000DC01AD53BB4FF901ED53FB4F60E101903A
:104940000D926A95E1F7DC01AD53BC4FF901ED53CF
:10495000FC4F60E101900D926A95E1F7DC01AD57E3
:10496000BC4FF901ED57FC4F60E101900D926A9543
:10497000E1F7D80175E0AA0FBB1F7A95E1F7AD5FAB
:10498000BB4FFA0115E0EE0FFF1F1A95E1F7ED5F3F
:10499000FB4F40E201900D924A95E1F7DC01AD57E3
:1049A000BB4FF901ED57FB4F40E101900D924A9545
:1049B000E1F7DC01AD5FBA4FF901ED5FFA4F40E17D
:1049C00001900D924A95E1F7DC01AD5BBA4FF90118
:1049D000ED5BFA4F80E101900D928A95E1F783E655
:1049E00092E00E94AD1D41E050E064E670E081E09D
:1049F0000E94F01D1092BB0212C019821A821B8203
:104A00001C828BE5898382E48A8381E38E0D8B830C
:104A1000CE0101960E94AD1D81E08093BB02E09221
:104A20007D068E2D0E941D1E54C20E301105F1F11F
:104A30000F30110531F10D30110509F078C00E94D9
:104A4000701981E080937E068091D7059091D805FA
:104A50000E94850A8091D60590E00E9494198FE704
:104A600092E00E94AD1D80E1E3E2F1E0A4E8B6E04F
:104A700001900D928A95E1F761E080E00E9471104B
:104A800028C270927E0681E08093D2058091100149
:104A90008F3031F480E18093100187E692E038C0D6
:104AA0008FE0809310018BE692E032C08FE692E0B7
:104AB0000E94AD1D8091DA059091DB050E94810274
:104AC00010927D0680E00E941D1E8091D9058F5FA7
:104AD0008093D9058330D1F030F4823009F0F9C1E8
:104AE00083E792E015C08430B1F0853009F0F1C160
:104AF0000E94B50680E090E00E94371D1092D90513
:104B000040E050E064E670E080E00EC087E792E0AD
:104B10000E94AD1DDEC18BE792E00E94AD1D40E01A
:104B200050E064EF71E081E00E94F01DD2C170920C
:104B30007E06E092100180E090E00E94011AC9C157
:104B40008091F302882361F081E08E0D8093330120
:104B500090E00E94371D8091F3020E94990FB9C125
:104B60008091FA02882361F081E08E0D80933301F9
:104B700090E00E94371D8091FA020E94A010A9C106
:104B80000E94701980917D0620E1829F000D111D09
:104B900011242091230330912403D801AD57BC4F39
:104BA0000217130731F0FD01E05CFE4F9081911177
:104BB00006C0A05CBE4F2C9191E092279C9310936D
:104BC00024030093230390917E06911102C00E945A
:104BD0001D1E0E94F7160E94461EE0912303F091CD
:104BE0002403ED5FFA4F60818CB58F7D8CBD8FE023
:104BF0000E94A5176EC11092BB026BC14C2D417073
:104C0000F42EF8017097E730F10508F05EC1EC5C16
:104C1000FF4F0C94D32C4093D305CD2809F017C136
:104C20001092BB021092D90550C1CD2809F44DC194
:104C30008091D305882389F0E4E8F6E011928E167E
:104C40009F06E1F780917D060E941D1E8091DA0586
:104C50009091DB050E94E80538C180917E06813085
:104C600009F433C10E947019E4E8F6E0119266E09D
:104C7000E439F607D9F780917D060E941D1E009148
:104C8000DA051091DB059091E00581E0892780939A
:104C9000E005811105C060E00E9471101092A6022B
:104CA00040E050E0BA018AE793E00E947F0B8091D8
:104CB00080039091810390937F0380937E03809182
:104CC0000501882309F401C18091E005882309F4D6
:104CD000FCC0C8010E940E05C8010E940B0DF5C062
:104CE000842F0E94990FF1C0842F0E94A010EDC064
:104CF000CD2809F4EAC08091D305882331F0709261
:104D00007E068AE180931001B1C0E0912303F09107
:104D10002403ED5FFA4F608181E0682760838CB5E2
:104D20008F7D8CBD8FE00E94A517CFC080917E063D
:104D3000813009F4CAC08091D305811105C08091EA
:104D4000BA02882309F477C020910801CD2839F1EF
:104D50000091DA051091DB05E22F022E000CFF0B0B
:104D6000ED53FB4F81E080832093B90220930B0128
:104D70008091A0029091A10290939F0280939E0245
:104D80008AE793E00E94A20B7093B8026093B70287
:104D9000C8010E940B0D1092A60261E046C0E0908F
:104DA000B9022E1927FF03C080918405280F0091B6
:104DB0000601109107014091B7025091B80280910D
:104DC0007A0390917B03A0917C03B0917D03840FC3
:104DD000951FA11DB11D2003A001219F500D11247D
:104DE000841B950BA109B10989839A83AB83BC838A
:104DF000CE0101960E94A20B2E2D220F330BF9013A
:104E0000ED5FFB4F24E6269FA001279F500D112444
:104E1000CA01B8010E94AB2C613981E0780710F01B
:104E200060E971E07183608360E080E00E9471104E
:104E3000F092BA024AC04093CD0240931F03CD289E
:104E400011F410929D0210922203F09220030E940E
:104E500070193BC080917E068130B9F18091D305F5
:104E6000882349F070927E066092100180E090E005
:104E70000E94011A2AC0C114D10461F00E94701965
:104E800070927E0699E19093100180E090E00E947C
:104E9000011A02C010927E068091DA059091DB051E
:104EA000F0929C026F2D0E94950380911F0388232E
:104EB00061F0CD2851F0E09108010E2E000CFF0B9F
:104EC000ED5BFA4FF082F0929D02F092A7060E94ED
:104ED0002B1D1092BF021092BE02E091B6028E2FDF
:104EE000880F880F8093B602E6B1E073E295EF7009
:104EF000E82BE093B602EF70F0E0E059FE4F8081BE
:104F0000082E000C990B009701F12091BC02309102
:104F1000BD02820F931F9093BD028093BC029C013F
:104F20002D5F3F4F2730310580F0181619061CF011
:104F30008FEF9FEF02C081E090E09093BF028093DB
:104F4000BE021092BD021092BC0240910401209159
:104F5000BE023091BF024203C001439F900D112455
:104F6000009711F00E94011A80917E068B7F51F408
:104F70000E94C91680912D03882321F00E94461EAD
:104F80000E94701982E995E00E94A20B672B682BA2
:104F9000692B09F4BCC040E050E0BA0182E995E019
:104FA0000E947F0B4091C8025091C902C101841B2D
:104FB000950B61E070E001C0660F8A95EAF7440F37
:104FC000551F440F551FFA01EE0FFF1FEA57FE4F02
:104FD00010EF80E090E000813296DC01A40FB51F55
:104FE000AC57B94F2C9101C0220F0A95EAF7120F66
:104FF00001968430910579F71093C6029093C5020B
:105000008093C4021095160F1093C70229988CB58F
:1050100080628CBD0091C2021091C302D801169625
:10502000ED91FC911797EE0FFF1FE058FE4F61E0E6
:1050300080810E947110D8011696ED91FC9117970E
:10504000EC55F94F80810E941B068091C7020E9497
:105050001B06299A0091C2021091C302F8018681B1
:10506000978101968330910519F09783868302C05A
:105070001782168280919B06882309F45EC286E916
:1050800095E00E94A20B2091990630919A06690141
:10509000E12CF12CC616D706E806F90608F04DC239
:1050A00086E995E00E94A20B2091990630919A061C
:1050B000220F331F890120E030E006171707280769
:1050C0003907C0F440E050E0BA0186E995E00E945B
:1050D0007F0B8091C0029091C10201969093C10212
:1050E0008093C002209197063091980612161306FD
:1050F0000CF413C28091C8029091C90201968430C9
:10510000910509F415C29093C9028093C802809159
:105110008206E0919506F0919606B0E18B9FE00D36
:10512000F11D1124ED53FB4F8081882371F08EE82F
:1051300095E00E94A20BE0919506F0919606EC573F
:10514000F94F208121110EC019C08EE895E00E9410
:10515000A20BE0919506F0919606EC57F94F20814D
:1051600021110CC008E512E020E030E00617170717
:105170002807390740F40E940C1E05C004E610E021
:1051800020E030E0F3CF80917E06813009F4B7C192
:105190008091E005811105C08091CC02882309F43B
:1051A00049C08AE793E00E94A20B0E940E2E209134
:1051B0003501217827FF03C021502E6F2F5F21304A
:1051C00049F42091AF023091B0024091B102509168
:1051D000B20208C02091AB023091AC024091AD0206
:1051E0005091AE020E94C02E181614F58091E00571
:1051F000882361F08EEC92E00E940E0540E050E0C2
:10520000BA018AE793E00E947F0B2CC18091CC0207
:10521000882381F08EEC92E00E940E0540E050E081
:10522000BA018AE793E00E947F0B1092CC021AC168
:105230001092B3028EEC92E00E94FF0B8091A902C3
:10524000882351F08AE793E00E94A20B6B3071052E
:105250008105910508F07FC14091A802442309F41B
:1052600045C080918805853009F4AAC09091A702B5
:10527000992319F0863009F4A3C08930B9F5DD24EB
:10528000D394809189058D1508F49AC08091A60267
:105290000D2D10E0882309F477C18AE793E00E947E
:1052A000A20B2091A4023091A502029F7001039FDE
:1052B000F00C129FF00C112497012550310989013F
:1052C00020E030E0061717072807390768F48AE757
:1052D00093E00E94A20B870120E030E06017710785
:1052E0008207930708F43EC1D394CBCF8091A602E6
:1052F000882309F465C0E09108010E2E000CFF0B15
:1053000020910B01022E000C330BCF01821B930B5B
:105310000196181619064CF080918405BF01680F9C
:10532000711DCB01821B930B0196442301F1209147
:1053300088052830E1F4ED53FB4F2081211117C07F
:105340008AE793E00E94A20B2091A2023091A3026F
:10535000890120E030E0061717072807390780F594
:1053600060E080E00E9471101092A60229C00197AF
:1053700020917E0330917F03829FA001839F500D77
:10538000929F500D1124052E000C660B770B809117
:105390007A0390917B03A0917C03B0917D03841BE1
:1053A000950BA60BB70B89839A83AB83BC83CE0185
:1053B00001960E94A20B2091060130910701C8CFEF
:1053C0008091CB02811103C04C9BD3C002C04C9989
:1053D000D8C08091AA02882309F442C080910501B7
:1053E000882361F0409180035091810360E070E078
:1053F0008AE793E00E947F0B1092050181E0809381
:10540000AA029091CA02992319F01092CA0225C0EB
:1054100090918705933340F09091350190FD04C041
:105420008093CA028093CC028AE793E00E94A20B89
:1054300070937F0360937E038EEC92E00E9482045F
:105440008EEC92E00E940E0540E050E0BA018AE73F
:1054500093E00E947F0B1092E0051092AA0202C016
:105460001092B3028091B302882309F448C080915E
:10547000DC05882321F01092DC050E9443198091FD
:105480007D060E941D1EE09108012E2F0E2E000C9D
:10549000330B8091820670E1879FC0011124281789
:1054A000390774F040962817390754F4EF700E2E20
:1054B000000CFF0BEC57F94F908181E08927808326
:1054C0008091CD028823A9F080912203882389F05E
:1054D000109220038FEF9FEF90930E0180930D01A8
:1054E0008091290390912A030E94631581E08093A3
:1054F00020038091DA059091DB050E940B0D411489
:10550000510409F423C90E94000015C9892F03C959
:1055100083E892E00E94AD1D06C9281739070CF0F8
:10552000E9CD10929B061092C1021092C002E2CD0A
:105530001092C9021092C802EACDD8011696ED91D8
:10554000FC911797EE0FFF1FE058FE4F60E080813F
:105550000E947110CFCD60E082E00E947110109225
:10556000A9027ACE60E080E00E9471101092A6023B
:10557000BBCE8EEC92E00E94E80581E08093CB02E6
:1055800028CF1092CB0225CF8AE793E00E94A20B8E
:105590002091A4023091A502029FA001039F500D0B
:1055A000129F500D11248A0120E030E0601771072E
:1055B0008207930708F498CE61E080E00E947110A2
:1055C00081E08093A60290CE2FB7F8944091A80670
:1055D0005091A9066091AA067091AB062FBFFC01FD
:1055E00040835183628373830895CF9380E2E5EF14
:1055F000F1E0A2E3B3E001900D928A95E1F780E13A
:10560000E2E5F3E0DF01982F1D929A95E9F71092F9
:105610006303109262031092750310927403E3EC1B
:10562000F4E090E4DF011D929A95E9F791E0908310
:1056300022E32093830580938405909385059093BE
:105640008605209387051092880594E0909389053C
:1056500098E790938A05C8E1C0938B0510928C055A
:1056600010928D058093820360910F0170E088E9AC
:105670009AE30E94BF2C7093810360938003709320
:105680007F0360937E038AE793E00E94E42A82E925
:1056900095E00E94E42A8EE895E00E94E42A86E9DB
:1056A00095E00E94E42AEAE9F5E08CEC95E091832C
:1056B00080838AE0828313828FEF848385831682BE
:1056C0001782108611861286138614861586C68761
:1056D000C787108A118A128A138A148A158A168A31
:1056E000178A108E118E88EC95E00E94E42A8DECCA
:1056F00095E0CF910C94E42A8F929F92AF92BF9243
:10570000CF92DF92EF92FF92CF93DF93EC0168810B
:1057100079818A819B81611571058105910521F44B
:1057200064E279ED8BE597E02DE133EF41E050E065
:105730000E942A2C49015A019B01AC01A7EAB1E45D
:105740000E94492C6B017C01ACEEB4EFA5019401E1
:105750000E94572CDC01CB018C0D9D1DAE1DBF1D81
:10576000B7FF03C00197A109B04888839983AA8332
:10577000BB839F77DF91CF91FF90EF90DF90CF9029
:10578000BF90AF909F908F9008950E947C2B0895BA
:105790008CE491E00E947C2B0895A0E0B0E080931F
:1057A0004C0190934D01A0934E01B0934F01089589
:1057B000FB01DC0105900D920020E1F70895BB2765
:1057C0004A3031F4992322F4BDE2909581959F4FA0
:1057D0000C94EB2BBB27FB015527AA27880F991F99
:1057E000AA1FA41710F0A41B83955051B9F7A05D10
:1057F000AA3308F0A95DA193009779F7B111B1938D
:105800001192CB010C94042CDC01FC01672F7191E7
:105810007723E1F7329704C07C916D937083629196
:10582000AE17BF07C8F30895F999FECF92BD81BDA9
:10583000F89A992780B50895262FF999FECF1FBAB7
:1058400092BD81BD20BD0FB6F894FA9AF99A0FBEA9
:1058500001960895052E97FB1EF400940E94412C9A
:1058600057FD07D00E945C2C07FC03D04EF40C942B
:10587000412C50954095309521953F4F4F4F5F4FAC
:10588000089590958095709561957F4F8F4F9F4FAC
:1058900008950E947E2CA59F900DB49F900DA49F0B
:1058A000800D911D11240895B7FF0C94492C0E947E
:1058B000492C821B930B0895A1E21A2EAA1BBB1B35
:1058C000FD010DC0AA1FBB1FEE1FFF1FA217B307CC
:1058D000E407F50720F0A21BB30BE40BF50B661FE2
:1058E000771F881F991F1A9469F7609570958095A6
:1058F00090959B01AC01BD01CF010895A29FB0011D
:10590000B39FC001A39F700D811D1124911DB29FF3
:10591000700D811D1124911D0895DB018F939F93BC
:105920000E94492CBF91AF91A29F800D911DA39F12
:10593000900DB29F900D1124089587FB082E062626
:1059400087FD819567FD61950E94E82C0EF4919585
:1059500007FC81950895AA1BBB1B51E107C0AA1F34
:10596000BB1FA617B70710F0A61BB70B881F991F00
:105970005A95A9F780959095BC01CD01089597FBA4
:10598000072E16F4009407D077FD09D00E94AB2CA7
:1059900007FC05D03EF4909581959F4F0895709532
:1059A00061957F4F0895EE0FFF1F0590F491E02D54
:1059B00009940E947E2C332312F48A1B9B0B0C94B7
:1059C000E32C0E947E2CB7FF0895821B930B089551
:1059D000991B79E004C0991F961708F0961B881F41
:1059E0007A95C9F7809508955058BB27AA270E9439
:1059F0000C2D0C94862E0E94782E38F00E947F2E5B
:105A000020F039F49F3F19F426F40C94752E0EF40F
:105A1000E095E7FB0C946F2EE92F0E94972E58F328
:105A2000BA17620773078407950720F079F4A6F583
:105A30000C94B92E0EF4E0950B2EBA2FA02D0B016D
:105A4000B90190010C01CA01A0011124FF27591BC3
:105A500099F0593F50F4503E68F11A16F040A22FC9
:105A6000232F342F4427585FF3CF4695379527953A
:105A7000A795F0405395C9F77EF41F16BA0B620B39
:105A8000730B840BBAF09150A1F0FF0FBB1F661F80
:105A9000771F881FC2F70EC0BA0F621F731F841FC3
:105AA00048F4879577956795B795F7959E3F08F0E9
:105AB000B0CF9395880F08F09927EE0F97958795AB
:105AC00008950E944B2E08F481E008950E947A2DDB
:105AD0000C94862E0E947F2E58F00E94782E40F063
