:100000000C9462000C948A000C948A000C948A0070
:100010000C948A000C948A000C948A000C948A0038
:100020000C948A000C948A000C948A000C948A0028
:100030000C948A000C948A000C948A000C948A0018
:100040000C946A020C948A000C9498010C9472012E
:100050000C948A000C948A000C948A000C948A00F8
:100060000C948A000C948A000000000023002600F3
:10007000290004040404040404040202020202022B
:10008000030303030303010204081020408001025C
:1000900004081020010204081020000000080002DB
:1000A0000100000304070000000000000000000041
:1000B0000000240027002A0000000000250028007E
:1000C0002B00600C11241FBECFEFD8E0DEBFCDBFE8
:1000D00023E0ACEDB1E001C01D92AE3DB207E1F707
:1000E00011E0A0E0B1E0E4EAFFE102C005900D926A
:1000F000AC3DB107D9F710E0C2E6D0E004C02197CB
:10010000FE010E94C50FC136D107C9F70E94340510
:100110000C94D00F0C940000089580E090E00895B6
:10012000FC01538D448D252F30E0842F90E0821BFD
:10013000930B541710F0CF96089501970895FC0182
:10014000918D828D981761F0828DDF01A80FB11D0E
:100150005D968C91928D9F5F9F73928F90E0089532
:100160008FEF9FEF0895FC01918D828D981731F0EC
:10017000828DE80FF11D858D90E008958FEF9FEF40
:100180000895FC01918D228D892F90E0805C9F4F16
:10019000821B91098F739927089584EB92E00E9446
:1001A000C10021E0892B09F420E0822F0895FC0191
:1001B000848DDF01A80FB11DA35ABF4F2C91848DF0
:1001C00090E001968F739927848FA689B7892C9325
:1001D000A089B1898C91837080648C93938D848D78
:1001E000981306C00288F389E02D80818F7D80837B
:1001F0000895EF92FF920F931F93CF93DF93EC013B
:1002000081E0888F9B8D8C8D981305C0E889F989D2
:10021000808185FD26C0F62E0B8D10E00F5F1F4FED
:100220000F731127E02E8C8DE8120CC00FB607FC5F
:10023000FACFE889F989808185FFF5CFCE010E9448
:10024000D700F1CF8B8DFE01E80FF11DE35AFF4F70
:10025000F0829FB7F8940B8FEA89FB8980818062D6
:100260000AC09FB7F894EE89FF896083E889F9890D
:1002700080818370806480839FBF81E090E0DF9104
:10028000CF911F910F91FF90EF900895CF93DF933F
:10029000EC01888D8823C9F0EA89FB89808185FD7E
:1002A00005C0A889B9898C9186FD0FC00FB607FCDF
:1002B000F5CF808185FFF2CFA889B9898C9185FF20
:1002C000EDCFCE010E94D700E7CFDF91CF91089507
:1002D00080E090E0892B29F00E94CD0081110C94E0
:1002E000000008951F920F920FB60F9211242F93C2
:1002F0003F934F935F936F937F938F939F93AF93AE
:10030000BF93EF93FF9384EB92E00E94D700FF919D
:10031000EF91BF91AF919F918F917F916F915F917D
:100320004F913F912F910F900FBE0F901F901895F6
:100330001F920F920FB60F9211242F938F939F93BA
:10034000EF93FF93E091C402F091C5028081E091A8
:10035000CA02F091CB0282FD12C090818091CD0241
:100360008F5F8F732091CE02821751F0E091CD0202
:10037000F0E0EC54FD4F958F8093CD0201C0808159
:10038000FF91EF919F918F912F910F900FBE0F9042
:100390001F901895833081F028F4813099F08230D5
:1003A000A1F008958730A9F08830B9F08430D1F4F5
:1003B000809180008F7D03C0809180008F77809333
:1003C0008000089584B58F7702C084B58F7D84BD89
:1003D00008958091B0008F7703C08091B0008F7D29
:1003E0008093B00008951F93CF93DF93282F30E0C0
:1003F000F901E656FF4F8491F901EA57FF4FD49176
:10040000F901EE58FF4FC491CC23C1F0162F811192
:100410000E94CA01EC2FF0E0EE0FFF1FE854FF4FDF
:10042000A591B4919FB7F894111104C08C91D09507
:10043000D82302C0EC91DE2BDC939FBFDF91CF91DC
:100440001F910895CF93DF9390E0FC01EA57FF4F8F
:100450002491FC01EE58FF4F8491882361F190E0D4
:10046000880F991FFC01E255FF4FC591D491FC0103
:10047000E854FF4FA591B491611109C09FB7F8945A
:100480008881209582238883EC912E230BC06230D3
:1004900061F49FB7F8948881322F30958323888345
:1004A000EC912E2B2C939FBF06C08FB7F894E88158
:1004B0002E2B28838FBFDF91CF9108952FB7F8940B
:1004C0006091B0027091B1028091B2029091B3023A
:1004D0002FBF08951F920F920FB60F9211242F93E2
:1004E0003F938F939F93AF93BF938091B00290916E
:1004F000B102A091B202B091B3023091AF0223E0F9
:10050000230F2D3720F40196A11DB11D05C026E84B
:10051000230F0296A11DB11D2093AF028093B0025C
:100520009093B102A093B202B093B3028091AB0258
:100530009091AC02A091AD02B091AE020196A11DC6
:10054000B11D8093AB029093AC02A093AD02B09327
:10055000AE02BF91AF919F918F913F912F910F90DC
:100560000FBE0F901F901895CF93DF932091E2015B
:100570003091E301E90137FF04C0CC27DD27C21B1E
:10058000D30BEAE0F0E0CE01BF010E946F0F909321
:10059000DD018093DC01CB01BF010E946F0F9093BE
:1005A000DF018093DE0137FF03C080E190E012C0DD
:1005B000C9018D599F4F873C910550F0CE0164E6EB
:1005C00070E00E946F0FCB01BF010E946F0F02C04D
:1005D00081E190E09093E1018093E001275F3F4F3C
:1005E0002331310530F481E190E09093DF01809375
:1005F000DE01DF91CF9108958EBD00000DB407FE9E
:10060000FDCF8EB50895FF920F931F93CF93DF9385
:100610008C01F62E87E0861730F4E8EFFE0E25E118
:10062000C3E181E003C024E1C2E180E0F801E80F0A
:10063000F11D848190E00F2C02C0959587950A9456
:10064000E2F7F80180FD04C0E20FF11D84811BC0B8
:10065000D381D770DD0FD16460E082810E94F30105
:100660008D2F0E94FC028C2F0E94FC02D0E08FEFA5
:100670000E94FC02C00FD11F8C8361E0F8018281CF
:100680000E94F3018C8190E002C095958795FA94C1
:10069000E2F78170DF91CF911F910F91FF90089544
:1006A0000F931F93CF93DF938C01D62FFC01C3814F
:1006B000C770CC0FC06460E082810E94F3018C2F70
:1006C0000E94FC028D2F0E94FC02F801ED0FF11D2B
:1006D00084810E94FC0261E0F8018281DF91CF9168
:1006E0001F910F910C94F301663110F40C94500398
:1006F0000895562F683028F0585075E16DE021E0DC
:1007000003C074E16CE020E0A52FFC01E20FF11DB5
:10071000248130E002C0359527955A95E2F720FDF7
:100720001FC0272F30E041110DC0FC01E20FF31F65
:1007300021E030E001C0220FAA95EAF7209534812C
:1007400023230BC0FC01E20FF31F21E030E001C0C6
:10075000220FAA95EAF73481232B2483672F0FC039
:1007600041110FC0FC01E60FF11D21E030E001C096
:10077000220FAA95EAF720953481232324830C9431
:100780007403FC01E60FF11D21E030E001C0220FEF
:10079000AA95EAF73481232BF1CF603110F40C9441
:1007A00079030895EF92FF920F931F93CF93DF93F6
:1007B0008C01862FF42E603108F04BC0683028F091
:1007C00088502DE0E22E61E003C09CE0E92E60E05D
:1007D00041E0F41631F0F416A8F052E0F51239C0F9
:1007E00011C0F801E60FF11D21E030E0A90102C0BF
:1007F000440F551F8A95E2F7CA0180959481892399
:1008000084831EC0C1E0D0E001C0CC0F8A95EAF716
:10081000F801E60FF11D84818C2B8483C8010E94AE
:100820007403EE2DF0E082E0E00FF11FF81203C038
:100830008481C82B03C0C0958481C823C4836E2DD6
:10084000C801DF91CF911F910F91FF90EF900C9411
:100850007403DF91CF911F910F91FF90EF90089556
:10086000EF92FF920F931F93CF93DF93EC011FB78B
:10087000F8948091AA02811127C0ECE7F0E08491FE
:10088000E0E9F0E09491E82FF0E0EE0FFF1FE25571
:10089000FF4FA591B491EC91E92321F461E08AE046
:1008A0000E94F30161E08AE00E9422028CB580611F
:1008B0008CBD8CB580648CBD61E08DE00E9422020D
:1008C00061E08BE00E9422028091AA028F5F8093F8
:1008D000AA021FBF61E08A810E94220261E08A8130
:1008E0000E94F30160E08A810E94F30180E40E948B
:1008F000FC028AE00E94FC0288E10E94FC0261E0A6
:100900008A810E94F3011B811770110F106460E04F
:100910008A810E94F301812F0E94FC0280E00E94E4
:10092000FC028E010C5F1F4F7E018AE1E80EF11C74
:10093000F80181918F010E94FC020E151F05C1F77D
:1009400061E08A81DF91CF911F910F91FF90EF902D
:100950000C94F301CF92DF92EF92FF920F931F93CB
:10096000CF93DF936C017A018B01C0E0D0E0CE150C
:10097000DF0581F0D8016D918D01D601ED91FC91DB
:100980000190F081E02DC6010995892B11F0219687
:10099000EECF7E01C701DF91CF911F910F91FF90A4
:1009A000EF90DF90CF9008950E94CB0F61157105F5
:1009B00079F0FB0101900020E9F73197AF01461B68
:1009C000570BDC01ED91FC910280F381E02D09943D
:1009D00080E090E008958F929F92AF92BF92EF9245
:1009E000FF920F931F93CF93DF93CDB7DEB7A197FD
:1009F0000FB6F894DEBF0FBECDBF7C01FA01CB016C
:100A000019A2223008F42AE08E010F5D1F4F822EBA
:100A1000912CA12CB12CBF01A50194010E94290E9B
:100A2000F901CA01015011096A3014F4605D01C076
:100A3000695CD8016C93232B242B252B61F7B8011B
:100A4000C7010E94D604A1960FB6F894DEBF0FBE70
:100A5000CDBFDF91CF911F910F91FF90EF90BF908D
:100A6000AF909F908F900895789484B5826084BDF4
:100A700084B5816084BD85B5826085BD85B58160A2
:100A800085BD80916E00816080936E001092810020
:100A900080918100826080938100809181008160DB
:100AA000809381008091800081608093800080919C
:100AB000B10084608093B1008091B0008160809328
:100AC000B00080917A00846080937A0080917A00EF
:100AD000826080937A0080917A00816080937A00AE
:100AE00080917A00806880937A001092C100109201
:100AF0009503109296031092970310929803109208
:100B000053031092540310925503109256030E94FF
:100B10005E026B017C014B015C0128EB820E2BE035
:100B2000921EA11CB11C0E945E026C157D058E05F3
:100B30009F0528F086169706A806B906A0F784EB4D
:100B400092E09093940380939303E091C402F09118
:100B5000C50282E08083E091C002F091C102108260
:100B6000E091C202F091C30280E180831092CC0236
:100B7000E091C802F091C90286E08083E091C6024C
:100B8000F091C702808180618083E091C602F0917C
:100B9000C702808188608083E091C602F091C7021D
:100BA000808180688083E091C602F091C7028081D5
:100BB0008F7D80830E945E02609353037093540381
:100BC000809355039093560365EB71E080919303F6
:100BD000909194030E94D6040E945E026B017C01F6
:100BE0004B015C013AE0830E911CA11CB11C0E94D8
:100BF0005E026C157D058E059F0528F0861697060A
:100C0000A806B906A0F781E08093670310921E0141
:100C100061E08AE00E94220261E089E00E942202F3
:100C200083EB93E00E943004C0E0D0E0C430D105F3
:100C30005CF0CE010497049738F442E06C2F83EB0C
:100C400093E00E94D2030CC041E06C2F83EB93E051
:100C50000E94D20340E06C2F83EB93E00E94CD030F
:100C60002196C031D10511F78FE08093CC0310920B
:100C7000CB0364E183EB93E00E94500365E183EBD7
:100C800093E00E94500389E993E00E943004C0E0A1
:100C9000D0E0CE010497049710F442E001C041E097
:100CA0006C2F89E993E00E94D2032196C031D105CF
:100CB00081F7E3E4F1E0A4EEB1E044E551E0919185
:100CC000292F2270322F3295330F307E292F247036
:100CD000220F220F220F232B80E8989F80011124DE
:100CE000022B292F2870220F202B392F3071C32F70
:100CF000D0E0D595C7952C2B392F3072632F70E03B
:100D0000C3E075956795CA95E1F7822F862B392F39
:100D10003074232F30E0D5E035952795DA95E1F74B
:100D2000282B9078892F90E0880F892F881F990BA6
:100D3000822B8D934E175F0711F662E082E10E94CD
:100D4000220262E083E10E94220262E085E00E94CA
:100D5000220262E086E00E94220262E087E00E94B6
:100D6000220261E080E00E942202E3E8F2E080E5F6
:100D700090E08193919322E0E33AF207D1F7332494
:100D800033940E945E02672B682B692B41F40E940A
:100D90005E02623071058105910508F413C10E945D
:100DA0005E020091A6021091A7022091A802309144
:100DB000A902601771078207930740F46093A602A7
:100DC0007093A7028093A8029093A9020091A602B3
:100DD0001091A7022091A8023091A9026B017C0119
:100DE000C01AD10AE20AF30A970186010A3F1105E7
:100DF0002105310508F4E6C06093A6027093A702AE
:100E00008093A8029093A90224EF31E040E050E0E3
:100E100020935F0330936003409361035093620318
:100E2000109263031092640310926503109266039C
:100E30008091570390915803A0915903B0915A03A0
:100E400080935B0390935C03A0935D03B0935E0378
:100E50000E945E0260935703709358038093590376
:100E600090935A030E945E0260935303709354035D
:100E700080935503909356030E945E026B017C01A0
:100E800067EC71E080919303909194030E94D604E3
:100E90002AE041E050E060E070E08091930390919F
:100EA00094030E94EB046EEC71E0809193039091A7
:100EB00094030E94D6042AE0B701A601809193030F
:100EC000909194030E94EB0460ED71E08091930394
:100ED000909194030E94D6048091570390915803F7
:100EE000A0915903B0915A03B701A601481B590BB1
:100EF0006A0B7B0B2AE080919303909194030E94EC
:100F0000EB0460ED71E080919303909194030E9453
:100F1000D604409157035091580360915903709142
:100F20005A0380915B0390915C03A0915D03B091A3
:100F30005E03481B590B6A0B7B0B2AE080919303DD
:100F4000909194030E94EB0462ED71E08091930311
:100F5000909194030E94D6040E945E02AB01BC01F2
:100F60002AE080919303909194030E94EB04C09136
:100F70009303D091940364ED71E0CE010E94D604F6
:100F800064EC71E0CE010E94D6040E945E026B0107
:100F90007C014B015C0132E0830E911CA11CB11C51
:100FA0000E945E026C157D058E059F0508F07CC4CD
:100FB0000E945E0260935703709358038093590315
:100FC00090935A030E945E020091410110914201E8
:100FD000012E000C220B330BC090D103D090D20312
:100FE000E090D303F090D403DC01CB018C199D0970
:100FF000AE09BF09081719072A073B0708F079C08F
:101000000E945E026093D1037093D2038093D30356
:101010009093D4032091A502822F90E0FC01E15E21
:10102000FE4FDC01A15DBE4F8C91808381E0820F79
:10103000803119F08093A50202C01092A502C091E0
:10104000A5028C2F90E0FC01E15DFE4F2081FC01A8
:10105000E15EFE4F322F33253083222309F449C04D
:10106000880F991FFC01E35DFD4F208131812E5FC8
:101070003F4F6CE0629FA001639F500D1124FC0163
:10108000E35FFD4F60817181640F751F072E000CB7
:10109000880B990B0E940C0D2BE734E14AE351E4D5
:1010A0000E946B0D20E030E040E850E40E946B0DA0
:1010B0000E94400FD62F172F60E089E00E94F301B5
:1010C000812F80610E94FC028D2F0E94FC0261E052
:1010D00089E00E94F301C093A40261E080E00E94D5
:1010E000F3013092A30261E082E00E94F3013092AA
:1010F00082020E945E020091D5031091D6032091D6
:10110000D7033091D803DC01CB01801B910BA20BDC
:10111000B30B0297A105B10508F499C10E945E02C4
:101120006093D5037093D6038093D7039093D8032D
:1011300000910B0210910C02E801CC0FDD1FCC0FC7
:10114000DD1FFE01EE0FFF1FED59FE4F40E080E076
:1011500090E050813296DC01AC0FBD1FA15EBE4F06
:101160002C9101C0220F5A95EAF7420F0196843064
:10117000910579F790930902809308028FE0841B10
:101180003801660C771CF301ED57FE4F9081892BD7
:1011900080930A028093CC0365E183EB93E00E9485
:1011A000500340E0602F83EB93E00E94CD034E019B
:1011B000880C991CA4014D595E4F2A01CE01815D16
:1011C0009E4F6C01DE01A25FBE4F5D01E12CF12C50
:1011D000F2016081F2E04F0E511C6C5F603128F427
:1011E00083EB93E00E94030301C080E091E0811152
:1011F00001C090E0D5012C91921709F451C09C9345
:1012000081114EC080917F0290918002C817D9074A
:1012100021F0F6018081811108C0D6018C918325CF
:101220008C93FE01E15EFE4F8083D0938002C093D9
:101230007F0280913F019091400182309105A1F0A1
:1012400044F4019711F5F701E80DF91DE35FFD4F37
:1012500016C08330910571F00497B9F4F701E80DD9
:10126000F91DE35BFD4F0BC0F701E80DF91DE35DD0
:10127000FD4F05C0F701E80DF91DED57FD4F8081C9
:1012800091819093E3018093E201FE01E850FE4FCB
:10129000408163E089E993E00E9479030E94B402EF
:1012A000B2E0EB0EF11C2196EFEFCE1ADE0AFFEF53
:1012B000AF1ABF0A28E0E216F10409F089CF41E035
:1012C000602F83EB93E00E94CD03F301E55AFE4FBC
:1012D0006081603128F489E993E00E94030301C032
:1012E00080E090E0F301EA5FFE4F208131818217B8
:1012F000930799F091838083892B79F498012B5F70
:101300003F4F4FE6429FC001439F900D11249093A1
:10131000E3018093E2010E94B402F301EB5AFE4F15
:10132000C081D1810F5F1F4F209709F44FC09E01EC
:101330003327F901E656FF4F8491F901EA57FF4F31
:10134000F490F901EE58FF4FE490EE20A1F08111E6
:101350000E94CA01EE2DF0E0EE0FFF1FE859FF4F8B
:10136000A591B491EC91FE2231E020E009F430E047
:10137000832F922F02C080E090E0F301E050FF4FF6
:10138000208131812817390709F191838083892BC6
:10139000E9F4259779F4E0917F02F0918002E8501A
:1013A000FE4F40814325408363E089E993E00E943A
:1013B00079030CC02EED209FC001219F900D1124B8
:1013C0009093E3018093E2010E94B402043011057E
:1013D00029F010930C0200930B0204C010920C022F
:1013E00010920B02C091F601D091F70140E06C2FF2
:1013F00089E993E00E94CD032196C330D10529F0FD
:10140000D093F701C093F60104C01092F701109237
:10141000F601C091F601D091F701FE01EE0FFF1F1A
:10142000E452FE4F0190F081E02DEC51FE4F80819F
:10143000869580958093B20365E189E993E00E94E7
:10144000500341E06C2F89E993E00E94CD03809125
:101450007D0290917E020196853091052CF4909347
:101460007E0280937D0204C010927E0210927D0263
:1014700020917D0230917E022430310508F0FCC0BD
:1014800080911E0140E4849FC0011124822B80932F
:101490007C0080917A00806480937A0080917A0049
:1014A00086FDFCCF809178004091790090E0942BEC
:1014B000A901440F551FFA01EB58FD4F918380831A
:1014C000FA01E557FE4F0190F081E02D60913F0158
:1014D00070914001E617F70719F4E4E0F0E002C06C
:1014E000E4E6F0E0DA01A359BD4F6D917C91DC0197
:1014F000A61BB70BBD01B7FF03C0719561957109BC
:10150000E617F7070CF0B8C0FA01E359FD4F9183D5
:101510008083C0917F02D09180022230310509F48E
:1015200058C02330310509F47BC02130310579F1F1
:101530006091750270917602E1E0F0E0F093400175
:10154000E0933F01072E000C880B990B0E940C0DB5
:1015500026E636E64AE252E40E94C70E20E030E07A
:1015600040E451E40E945A0E0E94390FCC0FDD1F57
:10157000FE01E35FFD4F208131812617370721F0FF
:101580007093E3016093E201C35FDD4F71C080910E
:1015900077029091780262E0C62ED12CD092400161
:1015A000C0923F0168E770E00E946F0F64507109BC
:1015B000CC0FDD1FFE01E35DFD4F80819181681737
:1015C000790721F07093E3016093E201C35DDD4F81
:1015D0004FC0A0917902B0917A0243E0E42EF12C41
:1015E000F0924001E0923F019D010E94A20F27E38B
:1015F0003AE040E050E00E94830FCC0FDD1FFE0177
:10160000ED57FD4F808191818217930721F0309330
:10161000E3012093E201CD57DD4F398328832AC0AF
:1016200060917B0270917C0224E030E030934001B5
:1016300020933F01072E000C880B990B0E940C0D84
:1016400024E13EEA43E251E40E94C70E0E94390FB2
:10165000CC0FDD1FFE01E35BFD4F2081318126179A
:10166000370721F07093E3016093E201C35BDD4F24
:10167000798368830E94B402C0917F02D091800276
:10168000FE01E15DFE4F8081C15EDE4F8823A1F047
:101690000E945E020091CD031091CE032091CF03F2
:1016A0003091D003DC01CB01801B910BA20BB30B5B
:1016B0004881411114C018C00E945E020091CD0300
:1016C0001091CE032091CF033091D003DC01CB01E8
:1016D000801B910BA20BB30B4881411105C008E59B
:1016E00012E020E030E004C004E610E020E030E04A
:1016F000081719072A073B0760F4432548830E940F
:101700005E026093CD037093CE038093CF039093DA
:10171000D003E09181028E2F880F880F8093810281
:10172000E6B1E073E295EF70E82BE0938102EF7091
:10173000F0E0ED56FE4F2081022E000C330B2115F8
:10174000310579F18091410190914201821B930B07
:10175000843191052CF0909342018093410106C0A1
:1017600044E150E050934201409341018091410196
:1017700090914201853F914034F084EF91E0909345
:1017800042018093410180914101909142019093E7
:10179000E3018093E2011092400110923F010E9408
:1017A000B4020E945E026B017C012091A50230E030
:1017B0008091A40290E0E901C81BD90B21961C1668
:1017C0001D0624F0E901C81BD90B61962091A302E4
:1017D000222309F453C0880F991FFC01ED57FD4FD8
:1017E00060817181072E000C880B990B0E940C0DF3
:1017F0004B015C018091D1039091D203A091D3035E
:10180000B091D403A7019601281B390B4A0B5B0B3F
:10181000CA01B9010E940A0D6B017C01609141016E
:1018200070914201072E000C880B990B0E940C0D41
:101830009B01AC01C701B6010E94C70E20E030E059
:1018400048EC52E40E946B0D6B017C01BE01DD0F80
:10185000880B990B0E940C0D9B01AC01C701B601CE
:101860000E946B0D9B01AC01C501B4010E94050DE6
:1018700087FF04C060E080E00E94F3018091820253
:10188000882379F00E945E020091D1031091D20367
:101890002091D3033091D403601771078207930717
:1018A00051F40E9468016DCA86169706A806B9060B
:1018B00008F076CB7DCB60E082E00E94F301F1CFAF
:1018C000E4EBF2E01382128288EE93E0A0E0B0E055
:1018D00084839583A683B78387EA91E0918380838D
:1018E00085EC90E09587848784EC90E097878687E5
:1018F00080EC90E0918B808B81EC90E0938B828BDD
:1019000082EC90E0958B848B86EC90E0978B868BB5
:10191000118E128E138E148EE1E5F3E0168217827B
:1019200010861186128613861486158616861786EB
:10193000108A118A128A138A148A158A0E945E02FA
:101940006093D5037093D6038093D7039093D80305
:101950000E945E026093DA037093DB038093DC03E2
:101960009093DD030E945E026093D1037093D203D3
:101970008093D3039093D4030E945E026093CD03BF
:101980007093CE038093CF039093D003E3EBF3E007
:1019900049ED53E0518340832AE0228381E0838331
:1019A0009FEF948395831682178210861186128684
:1019B00013861486158688E186878787108A118AA0
:1019C000128A138A148A158A168A178A108E118E23
:1019D000E9E9F3E051834083228313829483958362
:1019E0001682178210861186128613861486158633
:1019F00086878787108A118A128A138A148A158A21
:101A0000168A178A108E118E08950E94470D08F4C9
:101A100081E00895E89409C097FB3EF49095809585
:101A2000709561957F4F8F4F9F4F9923A9F0F92FA4
:101A300096E9BB279395F695879577956795B79522
:101A4000F111F8CFFAF4BB0F11F460FF1BC06F5F08
:101A50007F4F8F4F9F4F16C0882311F096E911C01A
:101A6000772321F09EE8872F762F05C0662371F03B
:101A700096E8862F70E060E02AF09A95660F771F4F
:101A8000881FDAF7880F9695879597F90895990F2B
:101A90000008550FAA0BE0E8FEEF16161706E80738
:101AA000F907C0F012161306E407F50798F0621B59
:101AB000730B840B950B39F40A2661F0232B242B2E
:101AC000252B21F408950A2609F4A140A6958FEF4D
:101AD000811D811D08950E947E0D0C94EF0D0E94C2
:101AE000E10D38F00E94E80D20F0952311F00C94E0
:101AF000D80D0C94DE0D11240C94230E0E94000EC0
:101B000070F3959FC1F3950F50E0551F629FF00150
:101B1000729FBB27F00DB11D639FAA27F00DB11D69
:101B2000AA1F649F6627B00DA11D661F829F2227F2
:101B3000B00DA11D621F739FB00DA11D621F839F79
:101B4000A00D611D221F749F3327A00D611D231F4F
:101B5000849F600D211D822F762F6A2F11249F579D
:101B600050409AF0F1F088234AF0EE0FFF1FBB1FA0
:101B7000661F771F881F91505040A9F79E3F51055F
:101B800080F00C94D80D0C94230E5F3FE4F3983E44
:101B9000D4F3869577956795B795F795E7959F5F09
:101BA000C1F7FE2B880F911D9695879597F908959B
:101BB00097F99F6780E870E060E008959FEF80EC00
:101BC000089500240A9416161706180609060895A3
:101BD00000240A9412161306140605060895092E09
:101BE0000394000C11F4882352F0BB0F40F4BF2B78
:101BF00011F460FF04C06F5F7F4F8F4F9F4F0895B8
:101C000057FD9058440F551F59F05F3F71F04795AD
:101C1000880F97FB991F61F09F3F79F08795089592
:101C2000121613061406551FF2CF4695F1DF08C0B1
:101C3000161617061806991FF1CF869571056105CE
:101C400008940895E894BB2766277727CB0197F976
:101C50000895A1E21A2EAA1BBB1BFD010DC0AA1FED
:101C6000BB1FEE1FFF1FA217B307E407F50720F005
:101C7000A21BB30BE40BF50B661F771F881F991F80
:101C80001A9469F760957095809590959B01AC01C9
:101C9000BD01CF010895A29FB001B39FC001A39FD2
:101CA000700D811D1124911DB29F700D811D112495
:101CB000911D08955058BB27AA270E94720E0C94BC
:101CC000EF0D0E94E10D38F00E94E80D20F039F48C
:101CD0009F3F19F426F40C94DE0D0EF4E095E7FB1B
:101CE0000C94D80DE92F0E94000E58F3BA17620722
:101CF00073078407950720F079F4A6F50C94220E5B
:101D00000EF4E0950B2EBA2FA02D0B01B901900116
:101D10000C01CA01A0011124FF27591B99F0593F5A
:101D200050F4503E68F11A16F040A22F232F342FA2
:101D30004427585FF3CF469537952795A795F040F0
:101D40005395C9F77EF41F16BA0B620B730B840B05
:101D5000BAF09150A1F0FF0FBB1F661F771F881FBD
:101D6000C2F70EC0BA0F621F731F841F48F4879515
:101D700077956795B795F7959E3F08F0B0CF939507
:101D8000880F08F09927EE0F9795879508950E9480
:101D9000DB0E0C94EF0D0E94E80D58F00E94E10D4F
:101DA00040F029F45F3F29F00C94D80D51110C94A8
:101DB000230E0C94DE0D0E94000E68F39923B1F3FC
:101DC000552391F3951B550BBB27AA276217730761
:101DD000840738F09F5F5F4F220F331F441FAA1FF5
:101DE000A9F335D00E2E3AF0E0E832D091505040B1
:101DF000E695001CCAF72BD0FE2F29D0660F771F5F
:101E0000881FBB1F261737074807AB07B0E809F044
:101E1000BB0B802DBF01FF2793585F4F3AF09E3FC9
:101E2000510578F00C94D80D0C94230E5F3FE4F329
:101E3000983ED4F3869577956795B795F7959F5F0C
:101E4000C9F7880F911D9695879597F90895E1E058
:101E5000660F771F881FBB1F621773078407BA07B7
:101E600020F0621B730B840BBA0BEE1F88F7E09512
:101E700008950E94400F6894B1110C94230E0895A8
:101E80000E94080E88F09F5798F0B92F9927B751F4
:101E9000B0F0E1F0660F771F881F991F1AF0BA950E
:101EA000C9F714C0B13091F00E94220EB1E008953C
:101EB0000C94220E672F782F8827B85F39F0B93F2E
:101EC000CCF3869577956795B395D9F73EF49095C1
:101ED0008095709561957F4F8F4F9F4F089597FB29
:101EE000072E16F4009407D077FD09D00E94B10F99
:101EF00007FC05D03EF4909581959F4F089570950D
:101F000061957F4F0895052E97FB1EF400940E9463
:101F10009A0F57FD07D00E94290E07FC03D04EF4FC
:101F20000C949A0F50954095309521953F4F4F4F07
:101F30005F4F089590958095709561957F4F8F4F75
:101F40009F4F08950E944B0E332312F48A1B9B0B64
:101F50000C94AC0F0E944B0EB7FF0895821B930B9D
:101F60000895AA1BBB1B51E107C0AA1FBB1FA617E0
:101F7000B70710F0A61BB70B881F991F5A95A9F732
:101F800080959095BC01CD010895EE0FFF1F05903F
:101F9000F491E02D099481E090E0F8940C94D00F36
:041FA000F894FFCFE3
:101FA4000100010001000100010001000100010124
:101FB400010101010101010101010101010101010D
:101FC400000000000000000000000000000000010C
:101FD40000000000000000000000000000000001FC
:101FE4000096007E306D79335B5F707F7B771F4E88
:101FF4003D4F4701000500060007000400050006E8
:1020040000070003000200010000000000010002BC
:1020140000030003000200010000000000010002B0
:1020240000030080004000200010000100020003B3
:1020340000040000FF0100010000FFFF0000010098
:1020440001FF0000000000F900AA0490004601C14D
:10205400009F00B300564D4450565F317C315F56AB
:102064004D4450560D0A00564D4450455F003A32D7
:0C2074003A007C005F564D4450450000CF
:00000001FF
